:100000000C94AE020C94CB020C94CB020C94CB0259
:100010000C94CB020C94CB020C94CB020C94CB022C
:100020000C94CB020C94CB020C94CB020C94B90B25
:100030000C94200C0C94CB020C94CB020C94CB02AD
:100040000C94CB020C94CB020C94CB020C94CB02FC
:100050000C94CB020C94CB020C94CB020C94CB02EC
:100060000C94CB020C94CB020C94CB020C94CB02DC
:100070000C94CB02534E4553206D6F7573652074FD
:100080006F205553422076322E32004475616C2029
:10009000534E455320746F205553422076322E32F2
:1000A00000534E455320746F205553422076322E14
:1000B000320009023B00020100801909040000011E
:1000C000030000000921010100012244000705810D
:1000D00003100001090401000103000000092101CF
:1000E00001000122150007058203400001090254A6
:1000F0000003010080190904000001030000000949
:1001000021010100012236000705810310000109C9
:100110000401000103000000092101010001223651
:10012000000705820310000109040200010300001A
:100130000009210101000122150007058303400089
:100140000109023B000201008019090400000103BB
:10015000000000092101010001223600070581038A
:100160001000010904010001030000000921010140
:100170000001221500070582034000010600FF0967
:1001800001A101150026FF007508953F0901B10086
:10019000C005010902A1010901A100850105091994
:1001A0000129041500250195047501810295017549
:1001B0000481030501093009311581257F750895F2
:1001C0000281061581257F3500450009387508959F
:1001D000018106C0C005010904A1010901A1008532
:1001E00001050175109502150026007D09300931C1
:1001F0008102C0A10005091500250175019520198E
:10020000012920750195208102C0C0400000000135
:100210000000008000000002000000200000000438
:1002200000000010000000080000000800000000AE
:100230000000100400000000000020020000000088
:1002400000004001000000000000800000000000ED
:1002500000000040000000010000008000000002DB
:100260000000002000000004000000100000000852
:10027000000000000000000000000040000000013D
:1002800000000080000000020000002000000004C8
:1002900000000010000000080000000080000010B6
:1002A000000000004000002000000000200000408E
:1002B000000000001000008000000000008000002E
:1002C00001000000004000000200000000200000CB
:1002D00004000000001000000800000000080000FA
:1002E00010000000000400002000000000020000D8
:1002F00040000000000100008000000000008000BD
:10030000000100000000400000020000000020008A
:1003100000040000000010000008000000000800B9
:100320000010000000000400002000000000010098
:100330000040000800000000000010040000000061
:10034000000020020000000000004001000000004A
:1003500000008000000000000000004000000001DC
:1003600000000080000000020000002000000004E7
:1003700000000010000000080000000080000010D5
:1003800000000000400000200000000020000040AD
:10039000000000001000008000000000008000004D
:1003A00001000000004000000200000000200000EA
:1003B0000400000000100000080000000008000019
:1003C00010000000000400002000000000020000F7
:1003D00040000000000100008000000000008000DC
:1003E00000010000000040000002000000002000AA
:1003F00000040000000010000008000000000800D9
:1004000000100000000004000020000000000100B7
:100410000040000000000000000000316636376533
:100420006463362D616239392D313165372D3930AC
:1004300061622D3030316266636133633539330078
:10044000736872740A00556E68616E646C6564202E
:1004500068696420676574207265706F72742074B7
:100460007970653D3078253032782C2072713D30BE
:1004700078253032782C207756616C3D30782530E5
:1004800034782C20774C656E3D3078253034780DEB
:100490000A0047657420696E707574207265706F0C
:1004A0007274202564203F3F0D0A00476574206A5E
:1004B0006F79207265706F72740D0A000D0A002545
:1004C0003032582000556E68616E646C656420633C
:1004D0006F6E74726F6C207772697465205B25642F
:1004E0005D203A2000743A20253032782C20727139
:1004F0003A203078253032782C2076616C3A2025ED
:100500003034780D0A00556E6B6E6F776E20737401
:1005100072696E672069640D0A00556E68616E64C9
:100520006C656420636C61737320625265717565DC
:100530007374203078253032780A004346472045CE
:1005400050206661696C0D0A00496E76616C6964C1
:100550002065702073697A650D0A000011241FBEA2
:10056000CFEFD4E0DEBFCDBF12E0A0E0B1E0E8EC19
:10057000FEE202C005900D92A230B107D9F723E048
:10058000A2E0B2E001C01D92AC3DB207E1F70E94CB
:1005900001120C9462170C94000015B88FEF84B907
:1005A0008CEF87B918B81BB880E78AB9E1E6F0E0AC
:1005B00080E88083108210926400109265000FB66C
:1005C000F894A895809160008861809360001092F3
:1005D00060000FBE0895809310020895FC01108200
:1005E00081E0818380919F03803221F483E38283C1
:1005F00083E0089580E3828380E1838384E008952B
:10060000FC0180919F03803119F4808381E008957B
:10061000108280E2818382E008950C94A80A0C94F1
:10062000570A1F93CF93DF93182F0E947A06EC018D
:10063000E881F981812F0995CE01DF91CF911F913A
:100640000895A9E9B3E0E2E0F2E08D9190E08193B2
:10065000919382E0EE30F807C1F710920F021092EA
:100660000E0282E092E090937401809373010895EA
:100670008F929F92AF92BF92CF92DF92EF92FF92B2
:100680000F931F93C12CD12C7601FC01059115917C
:1006900025913491FC01349685909590A590B49065
:1006A000011511052105310599F081149104A1046A
:1006B000B10471F00423152326233723012B022BC9
:1006C000032B21F0C828D928EA28FB280896DDCF7B
:1006D000C701B6011F910F91FF90EF90DF90CF906F
:1006E000BF90AF909F908F9008958B3269F028F45F
:1006F0008A3289F48BE593E00CC08C3241F08D3264
:1007000051F48BE092E005C08BE792E002C083E5F4
:1007100092E00C94380360E070E0CB01089560E053
:1007200070E0CB01089580E008950F931F93CF935D
:10073000DF9300D000D000D0CDB7DEB786E0ECE884
:10074000F1E0DE01119601900D928A95E1F786E0C5
:10075000FE013196A9E9B3E001900D928A95E1F787
:1007600007E913E085E0F801818782878387848722
:100770000E949303F80180870E948F03F801658728
:1007800076878787908B26960FB6F894DEBF0FBECC
:10079000CDBFDF91CF911F910F9108950F931F93BC
:1007A000CF93DF93282FDB018131D9F040F48130E2
:1007B00079F058F08031B1F58091A00314C08331F5
:1007C000C1F0A0F08333C1F02DC080919F030BC016
:1007D00086E0E9E9F3E001900D928A95E1F786E081
:1007E00053C08091A1038C9381E04EC08091A203FD
:1007F000FACF8091A303F7CF0091A4031091A50332
:100800002091A6033091A703B901A80189E076954C
:100810006795579547958A95D1F7417012FD4260CB
:100820004C93E2CF30E0E32FF0E0CF0165E070E0E1
:100830000E947B138E569E4FEC018881882321F104
:10084000281320C0CF0165E070E00E947B138E5614
:100850009E4FEC0109811A812B813C814091A403B8
:100860005091A5036091A6037091A70340235123E3
:100870006223732381E0452B462B472B09F0B3CF2E
:1008800080E0B1CF3F5FCFCFDF91CF911F910F912C
:1008900008950F931F93CF93DF936115710509F4AA
:1008A000AAC0FB01282F8131F9F050F4813091F07A
:1008B00068F0803109F04FC080818093A00397C019
:1008C0008331D1F0A8F08333D9F045C08081809383
:1008D0009F038DC086E0A9E9B3E001900D928A954F
:1008E000E1F70E94C70983C080818093A1037FC084
:1008F00080818093A2037BC080818093A30377C013
:100900002081233008F022E08091A4039091A50378
:10091000A091A603B091A703997F20FD92608093D8
:10092000A4039093A503A093A603B093A70321FF6C
:100930005EC08091A4039091A503A091A603B091FD
:10094000A70394608093A4039093A503A093A603A8
:10095000B093A7034CC030E0A32FB0E0CD0165E019
:1009600070E00E947B138E569E4FEC018881882395
:1009700009F442C0281339C080810091A40310916A
:10098000A5032091A6033091A703882389F0CD0108
:1009900065E070E00E947B138E569E4FEC018981CA
:1009A0009A81AB81BC81082B192B2A2B3B2B14C0BD
:1009B000CD0165E070E00E947B138E569E4FFC01D6
:1009C00081819281A381B48180959095A095B09505
:1009D000082319232A233B230093A4031093A50380
:1009E0002093A6033093A70302C03F5FB5CF0E94B8
:1009F000C70981E001C080E0DF91CF911F910F9185
:100A0000089581E008952F923F924F925F926F92E6
:100A10007F928F929F92AF92BF92EF92FF920F932D
:100A20001F93CF93DF93CDB7DEB764970FB6F894DB
:100A3000DEBF0FBECDBF811135C182E092E09A8B3F
:100A4000898B589A20E42A95F1F75898BE01675F80
:100A50007F4F7E014DE0E40EF11C8B0182E090E0BF
:100A600020E030E02E0153E1450E511C43E0B42E4E
:100A700059E0A52EE8E09E2ED2011D921C92E8E0DE
:100A8000F0E040E8B0E2BA95F1F75A98499B03C00C
:100A90005B89542B5B8B4B9B03C05C89542B5C8B19
:100AA00050E25A95F1F75A9A4695319759F74B8982
:100AB0004095D8014D938D014C894095F7014193A4
:100AC0007F0121303105E1F4A201FE017196DA01C6
:100AD0008D90AD01B82DBF707B2EABE0BA1302C074
:100AE000908204C0BEE07B1204C0A08284E090E04B
:100AF00003C0811001C0B0823196E415F50539F7C5
:100B00002F5F3F4F281739070CF4B6CF29892230C1
:100B100061F48230910521F02B8527FD06C004C0C9
:100B2000E0E2EA95F1F74999198A2A89223059F4C5
:100B3000029731F4F0E2FA95F1F74B9B04C002C042
:100B40008F8587FF1A8A7E0121E1E20EF11C0AEAF5
:100B500013E0AE014F5F5F4FFE013C9620E030E0B6
:100B6000D701BD907D01D801BC92B9E0BB1247C04E
:100B7000DF011297BC908B2D90E0D80112969C93C8
:100B80008E931197DF0111978C91D901A655BC4F17
:100B900014968C931497808113968C934090A403A1
:100BA0005090A5036090A6037090A703D301C201E3
:100BB000072E79E0B695A795979587957A95D1F701
:100BC000702D817052FC82E0B4FA992790F9B5FC3F
:100BD0009260981709F459C08FE1589AB7E0BA9516
:100BE000F1F700005A9894E09A95F1F75A9AA7E025
:100BF000AA95F1F700005898815079F746C0B3E004
:100C0000BB1208C0DB018C91D901A655BC4F1196CF
:100C10008C933BC0DF0112978C9190E0A0E0B0E094
:100C20002224382E492E5A2EDB01AC902A28DA01D4
:100C30002D923D924D925C921397B8E0BB1219C071
:100C40005F0181E0A81AB108D5017C908080912CC9
:100C5000A12CB12CB82CAA2499248824A728822856
:100C60009328A428B528DA018D929D92AD92BC926A
:100C70001397DA018D909D90AD90BC90D80111969C
:100C80008D929D92AD92BC921497055F1F4F255F88
:100C90003F4F6C5F7F4F4C5F5F4F3496263131057D
:100CA00009F05ECF80E064960FB6F894DEBF0FBE09
:100CB000CDBFDF91CF911F910F91FF90EF90BF902B
:100CC000AF909F908F907F906F905F904F903F90EC
:100CD0002F900895CF93CFB7F894509A529A519885
:100CE0005398599A5B9A5A9A58980E940305CFBF15
:100CF000CF91089585E691E008950F931F93CF93C8
:100D0000DF9300D000D0CDB7DEB7DA016C9330E8C6
:100D100011963C9311972EE312962C9312971396EB
:100D20003C93139714962C93149715961C92159731
:100D300016961C92169717961C92179718961C9247
:100D4000009709F4E9C08A01FC0180818330B9F081
:100D500018F4823031F0E0C0883019F0893021F188
:100D6000DBC01C821B821A8219828091A40380FF3F
:100D700069C08BE241815281638174810DC01C8204
:100D80001B821A8219828091A40380FF90C08DE299
:100D9000418150E060E070E00E947503F8016583D6
:100DA000768387839087B8C0838187FF06C08F775B
:100DB00090E091958195910901C090E09C838B838F
:100DC000848187FF06C08F7790E091958195910986
:100DD00001C090E09A83898389819A816DE770E0F0
:100DE0000E947B139C018B819C816DE770E00E94C7
:100DF0007B138058914C9C838B832058314C3A83D1
:100E00002983D80111968C9311978C8112968C931B
:100E1000129713962C9313978A8114968C932181A1
:100E20003281C90136E0969587953A95E1F7A0E0C1
:100E3000B0E081709927AA27BB2727FD8260F801BF
:100E400085836AC0818183FF04C020E831EC3A8346
:100E5000298382FF04C020E83EE33A83298381FF8F
:100E600004C020E831EC3C832B8380FF04C080E881
:100E70009EE39C838B832B813C812058314C3C83A7
:100E80002B8389819A818058914C9A838983D801D8
:100E900011962C9311979C8112969C9312971396FE
:100EA0008C9313978A8114968C938AE263CF818105
:100EB00083FF04C020E831EC3A83298382FF04C019
:100EC00020E83EE33A83298381FF04C020E831EC27
:100ED0003C832B8380FF04C080E89EE39C838B834C
:100EE0002B813C812058314C3C832B8389819A8112
:100EF0008058914C9A838983D80111962C9311972D
:100F00009C8112969C93129713968C9313978A81C7
:100F100014968C938CE23CCF0F900F900F900F9013
:100F2000DF91CF911F910F9108953F924F925F9261
:100F30006F927F928F929F92AF92BF92CF92DF92E9
:100F4000EF92FF920F931F93CF93DF9300D000D0C7
:100F500000D0CDB7DEB78C015E834D83FA0160838C
:100F60001182128213821482009709F478C1FC0165
:100F70008081833009F4DDC018F4823039F06FC10C
:100F8000883021F0893009F447C169C1F8014181F5
:100F900052816381748146FF03C020E031E002C0CA
:100FA00020E430E056FF02C028E130E043FF05C0F6
:100FB000EE27FF27E21BF30B02C0E0E0F0E042FF68
:100FC00002C0E20FF31F41FF05C088279927821B4B
:100FD000930B02C080E090E040FF02C0820F931F9D
:100FE00055FF06C0A0E88A2E912CA12CB12C03C07D
:100FF000812C912C540154FF05C020E8821A9108DD
:10100000A108B108C0904D02D0904E02C80ED91E62
:10101000E0904B02F0904C02EE0EFF1E4090470213
:10102000509048026090490270904A02480C591C46
:101030006A1C7B1C4601D7FE03C08FE0880E911C02
:10104000F40134E0F595E7953A95E1F7FA83E98301
:101050005701F7FE03C0FFE0AF0EB11CC50124E04D
:10106000959587952A95E1F79C838B83C301B201FF
:1010700020E031E040E050E00E948C13322E252F1A
:1010800089819A8160EF7FEF0E947B138C0D9D1DFB
:1010900090934E0280934D028B819C8160EF7FEF95
:1010A0000E947B138E0D9F1D90934C0280934B02E8
:1010B000632D732F842F922F20E03FEF4FEF5FEFD0
:1010C0000E94AB1349015A01480C591C6A1C7B1C35
:1010D00040924702509248026092490270924A023E
:1010E0002981ED81FE8122838B8183833482F80103
:1010F000818187FF04C081E0ED81FE818183F80159
:1011000081819281A381B48197FF05C0ED81FE8129
:10111000818182608183F801818184FF05C0ED8136
:10112000FE81818184608183F801818185FD6FC0AA
:1011300096C0F801418143FF03C020EC3FEF02C09D
:1011400020E030E042FF02C0205C3F4F41FF03C07F
:1011500080EC9FEF02C080E090E040FF02C0805C26
:101160009F4FE0914502F0914602E80FF91F8091F0
:10117000430290914402280F391FAF01F7FF02C0CC
:10118000415F5F4F94E0559547959A95E1F7D901F6
:1011900037FD1F9684E0B595A7958A95E1F7CA01BA
:1011A00060EF7FEF0E947B138E0F9F1F909346028C
:1011B00080934502CD0160EF7FEF0E947B13820F89
:1011C000931F9093440280934302ED81FE814283FA
:1011D000A383F801818186FF04C081E0ED81FE8157
:1011E0008183F801818187FF05C0ED81FE818181C6
:1011F00082608183F801818184FF05C0ED81FE81D9
:10120000818184608183F801818185FF28C0ED811F
:10121000FE818181886022C0F801838187FF02C03E
:101220008F778195ED81FE818283F801848187FF2C
:1012300002C08F778195ED81FE818383F8018181E2
:1012400086FF04C081E0ED81FE818183F801818108
:1012500087FF05C0ED81FE818181826081832696B2
:101260000FB6F894DEBF0FBECDBFDF91CF911F91B7
:101270000F91FF90EF90DF90CF90BF90AF909F9035
:101280008F907F906F905F904F903F9008958DEA80
:101290009EED9093DB038093DA03089581E0209123
:1012A000DA033091DB032D3A3E4D09F480E081955D
:1012B0000895109280008DE0809381000895BC0114
:1012C00080914F029091500286179707F1F070932A
:1012D000500260934F021092850010928400072EF6
:1012E000000C880B990B29E03DE340E050E00E94A0
:1012F000AB13B901CA0128EE33E040E050E00E9490
:101300008C1330938900209388000895B19B04C00A
:1013100082E086BB81E0089580E00895A1E5B2E017
:10132000FC012491422F50E04D935D9301962223BE
:1013300049F022E0AF38B20799F71092900210926C
:101340008F0208950895E7E9F3E080E090E023E05C
:10135000E83AF207D9F021919227092E0294202D24
:101360002F702927392F3025330F307E2327302D3A
:101370003927307F3695092E000C331F96959695A8
:1013800096959F7193279827822FE1CF08950E9409
:10139000A3099093A9038093A80343E150E060E080
:1013A00070E087E993E00C943717CF93DF9343E124
:1013B00050E060E070E087E993E00E942717809199
:1013C0009703909198038D3E9E4F91F083E1E7E95A
:1013D000F3E0DF011D928A95E9F78DEE9EEF909381
:1013E0009803809397030E9495030E94C70909C040
:1013F000C091A803D091A9030E94A309C817D907D7
:1014000029F7DF91CF910C9421030E94E30FF89408
:10141000E0E0F0EF099408950E94E30FF894E0E013
:10142000F0E00994089580E090E008951092C900DA
:1014300085E791E09093D9038093D80308950F93A3
:101440001F93CF93DF931F92CDB7DEB78C01FA01C4
:1014500088E1D8011D928A95E9F7D80111966C931D
:10146000119757965C934E935697A8014E5F5F4F26
:101470006C9180E090E0298309952981F80120830F
:101480000F90DF91CF911F910F910895FC01818101
:1014900090E00895DC01CB01AD014E5F5F4F5696A1
:1014A000ED91FC9157976C910994029608950F93D2
:1014B0001F93CF93DF938C01EB012A813B81832F14
:1014C0009927019711F5213089F4C8010296FA0194
:1014D000918380838BEA94E09F938F930E947F1483
:1014E000F801818190E00F900F902DC0223069F0BB
:1014F00033273F932F9382E994E09F938F930E9429
:101500007F140F900F900F900F908F818F938E818B
:101510008F938B818F938A818F9389811F928F9371
:1015200088811F928F9386E494E09F938F930E940B
:101530007F148DB79EB70A960FB6F8949EBF0FBE64
:101540008DBF80E090E0DF91CF911F910F910895C2
:10155000232B51F480E494E09F938F930E947F1497
:101560000F900F908FEF089580E008950F93FB0187
:101570008093E900CA012417350708F4C9018E0FCA
:101580009F1F002341F0E817F90761F02491209391
:10159000F1003196F8CFE817F90721F02191209357
:1015A000F100F9CF0F910895CF92DF92EF92FF9261
:1015B0000F931F93CF93DF936C01122FEA016417EF
:1015C000750708F4EB01E12CF12CB6016E0D7F1DBF
:1015D000012FC134D105B0F020E430E040E450E008
:1015E00080E00E94B60A9091E8009E7F9093E80008
:1015F00080E4E80EF11CC054D1098091E80080FF1E
:10160000FCCFE3CF9E01AE0180E00E94B60A80913C
:10161000E8008E7F8093E8008091E80080FFFCCF97
:10162000DF91CF911F910F91FF90EF90DF90CF90BE
:101630000895EF92FF920F93CF93DF938093E90089
:101640009091E80090FF28C0FA012081318137FF96
:1016500006C08091F0008E7F8093F0001DC0EA01EB
:101660007B019091E8009E7F9093E800208131817A
:1016700040815181FB016081718100E00E94B60AC6
:10168000F701118210828FEF9FEF998388838091F9
:10169000E8008F778093E800DF91CF910F91FF9062
:1016A000EF9008951092E90081E08093EB00109292
:1016B000EC008CE48093F0008091ED0082638093D5
:1016C000ED001092E8008091EE0087FF51C020E00D
:1016D00030E041E0A1ECE0919202F091930282852A
:1016E00090E02817390744F581E0820F8093E900E4
:1016F0004093EB00A093EC004093F000E091920245
:10170000F0919302C9016CE070E00E947B13E80F36
:10171000F91F8785908980319105D1F024F40897CD
:1017200061F490E016C08032910521F0803491057B
:1017300069F003C090E20DC0089589E495E09F939D
:101740008F930E947F140F900F90089590E301C033
:1017500090E192609093ED001092E8008091EE008D
:1017600087FD03C08BE395E0EACF2F5F3F4FB3CFF8
:1017700008951F920F920FB60F9211242F933F934B
:101780004F935F936F937F938F939F93AF93BF9389
:10179000CF93EF93FF93C091E100C0FF0DC0809104
:1017A000E1008E7F8093E10081E0809328038091A7
:1017B000E20080618093E200C4FF10C08091E100EC
:1017C0008F7E8093E10080912803882339F0109266
:1017D00028038091E2008F7E8093E200C3FF09C05E
:1017E000109228030E94520B8091E100877F809322
:1017F000E100C2FF05C08091E1008B7F8093E10092
:10180000C5FF05C08091E1008F7D8093E100C6FF98
:1018100005C08091E1008F7B8093E100FF91EF9103
:10182000CF91BF91AF919F918F917F916F915F9178
:101830004F913F912F910F900FBE0F901F901895D1
:101840001F920F920FB60F9211246F927F928F9278
:101850009F92AF92BF92CF92DF92EF92FF920F933F
:101860001F932F933F934F935F936F937F938F9328
:101870009F93AF93BF93EF93FF93CF93DF9300D0EA
:1018800000D0CDB7DEB77090F40070FEBDC21092EC
:10189000E9006090E80063FE05C28091F20090E0EC
:1018A000E8EEF2E09F01285E32402817390720F465
:1018B0002091F1002193F6CF8091E800877F8093FB
:1018C000E8008091E80287FD73C0982F9F7121F096
:1018D000913009F43FC06CC08091E902853019F065
:1018E000893019F167C08091EA028093E30080910A
:1018F000E80080FFFCCF8091E8008E7F8093E800B5
:101900008091E80080FFFCCF8091E30080688093A5
:10191000E3008091EA029091EB02892B11F481E0BF
:1019200001C082E080938B0143C08091EA028093E2
:10193000E702811102C082E001C083E080938B0145
:101940008091E80080FFFCCF8091E8008E7F80933B
:10195000E8002EC08076803269F58091E9028930F6
:10196000D1F48091E80080FFFCCF8091E8008E7F69
:101970008093E80088E0E8EEF2E0A7EDB2E00190A5
:101980000D928A95E1F71092D6021092D50281E06D
:101990008093D4020DC01F928F938AE195E09F93AC
:1019A0008F930E947F140F900F900F900F9002C0A2
:1019B00010E001C011E09091E80297FF53C1292F78
:1019C0002F718091E902213009F4AEC020F022305D
:1019D00009F41EC149C18630B1F0883009F018C140
:1019E00080918B012091EE023091EF02833029F03B
:1019F000198200E041E050E0AAC000E041E050E080
:101A000067EE72E003C18091EA029091EB02292F08
:101A1000332722303105B1F02330310511F1213067
:101A2000310509F021C1E0919202F0919302008109
:101A300001702091EE023091EF026181728142E1EA
:101A400050E0E4C0E0919202F09193022081227074
:101A50004091EE025091EF026581768183819481FD
:101A60009FC09927009709F446C0A0909202B090B9
:101A70009302D50117962C91179730E02817390754
:101A80000CF449C08090EE029090EF0201977C0127
:101A9000EE0CFF1C1896ED91FC911997EE0DFF1DB1
:101AA0000190F081E02DC12CD12C81919191892B55
:101AB00021F0BFEFCB1ADB0AF8CFCC0CDD1C82E0A3
:101AC0008C0D898383E08A8300E0940142E050E03A
:101AD000BE016F5F7F4F80E00E94B60A94012250E2
:101AE0003109F50180859185FC01EE0DFF1D6081B6
:101AF0007181A6018BC084E0898383E08A8389E0B9
:101B00008B8380E18C832091EE023091EF0200E024
:101B100044E050E01CC086E095E09F938F930E94C4
:101B20007F140F900F9084C0907619F09032D9F105
:101B30009BC0882319F0863071F096C019821A82F2
:101B40002091EE023091EF0200E042E050E0BE0151
:101B50006F5F7F4F5BC08091EB0290E0829709F04E
:101B600083C08091EC029091ED02E0919202F0919D
:101B70009302228530E02817390708F475C02081C8
:101B80002470A091EE02B091EF026CE070E00E9430
:101B90007B13E80FF91F63857485AD0185859685F4
:101BA0000E94D40A45C0813009F05EC02091EC0249
:101BB0003091ED02A0919202B09193021A968C910D
:101BC0001A9790E08217930798F1C9016CE070E0D2
:101BD0000E947B138A0F9B1FFC01E388F488E114A9
:101BE000F10409F441C0AE014F5F5F4F68EE72E04F
:101BF00081899289F70109950097D1F02091EE0231
:101C00003091EF0269817A8100E0AC0180E00EC082
:101C100081112AC019821A822091EE023091EF02BE
:101C200000E042E050E0BE016F5F7F4F0E94B60AC5
:101C300011111AC08091E8008E7F8093E800809196
:101C4000E80080FF05C08091E8008E7F8093E80067
:101C50008091E80082FFF3CF8091E8008B7F809332
:101C6000E80020C01123F1F08091EB028F93809166
:101C7000EA028F938091E9021F928F938091E8028C
:101C80001F928F9385EE94E09F938F930E947F1411
:101C90008091EB0080628093EB000FB6F894DEBF7A
:101CA0000FBECDBF62FE36C00091F20010E0E8EE3C
:101CB000F2E0CF01885E92408017910720F4809176
:101CC000F1008193F6CF8091E8008B7F8093E8004C
:101CD0008091D4028823F1F08091D5029091D602B0
:101CE000800F911F80349105A8F48091D5029091C6
:101CF000D602A80168EE72E08C569D4F0E946F14C8
:101D00008091D5029091D602080F191F1093D60228
:101D10000093D50266FE78C08091E8008F7B8093A7
:101D2000E8008091D402882309F46EC00091D502A6
:101D30001091D6028091D70280768032A1F5209151
:101D4000DB023091DC02A0919202B09193021A96CC
:101D50008C911A9790E08217930708F453C0C90139
:101D60006CE070E00E947B138A0F9B1FFC01E588EA
:101D7000F688E114F104B9F0980144E952E067ED06
:101D800072E081899289F7010995882331F0809169
:101D9000EB0080628093EB0035C08091E8008E7F7D
:101DA0008093E8002FC01F930F9385EC94E09F93DE
:101DB0008F930E947F1484E9E82E82E0F82E0C565F
:101DC0001D4F0F900F900F900F909FEBC92E94E036
:101DD000D92EE016F10671F0D7018D917D011F9289
:101DE0008F93DF92CF920E947F140F900F900F90ED
:101DF0000F90EFCF8CEB94E09F938F930E947F1412
:101E00000F900F901092D40271FE07C049E851E084
:101E100065EE72E081E00E94190B72FE07C047E890
:101E200051E063EE72E082E00E94190B73FE07C07E
:101E300045E851E061EE72E083E00E94190B74FE08
:101E400007C043E851E06FED72E084E00E94190B97
:101E50000F900F900F900F90DF91CF91FF91EF9126
:101E6000BF91AF919F918F917F916F915F914F91B2
:101E70003F912F911F910F91FF90EF90DF90CF90A6
:101E8000BF90AF909F908F907F906F900F900FBEFC
:101E90000F901F901895209183013091840181E06B
:101EA0002F3F3F4F09F080E008959C019FB740917C
:101EB0008301509184014F3F5F4FC9F7F8943093ED
:101EC000E0022093DF02709384016093830184E039
:101ED0008093E9008091F00081608093F0009FBFC3
:101EE0000895209185013091860181E02F3F3F4F79
:101EF00009F080E008959C019FB7409185015091C1
:101F000086014F3F5F4FC9F7F8943093E202209368
:101F1000E102709386016093850183E08093E9007C
:101F20008091F00081608093F0009FBF0895209120
:101F300087013091880181E02F3F3F4F09F080E019
:101F400008959C019FB740918701509188014F3FB0
:101F50005F4FC9F7F8943093E4022093E302709343
:101F600088016093870182E08093E9008091F0000E
:101F700081608093F0009FBF089520918901309186
:101F80008A0181E02F3F3F4F09F080E008959C01D6
:101F90009FB74091890150918A014F3F5F4FC9F728
:101FA000F8943093E6022093E50270938A016093DF
:101FB000890181E08093E9008091F0008160809345
:101FC000F0009FBF0895E0EEF0E0808181608083A3
:101FD0001092E200E8EDF0E080818F7780838081CD
:101FE00080628083089580919102882321F081305E
:101FF00051F0109291028091E0008E7F8093E0007A
:1020000081E080939102089520E22093D80021E09E
:102010002093E0001092E2001092E300909393026C
:10202000809392028091D8008F778093D80080911E
:10203000D80080628093D8001092FB001092630059
:1020400084E089BD89B5826089BD09B400FEFDCFF9
:102050008091D80080688093D8008091D8008F7DCF
:102060008093D8000E94520B8091E1008E7F809374
:10207000E10089E78093E200089580916A0382304D
:1020800059F48AE293E0FA019183808310926A0303
:102090008091290390E0089580E090E00895CF9327
:1020A000DF931F92CDB7DEB7BA0181E080936A0358
:1020B000A9018AE293E029830E946F142981209369
:1020C000290380E00F90DF91CF910895CF93DF93A4
:1020D00020916A03213029F008F442C1223029F40A
:1020E0003FC130912903311103C010926A0338C1F6
:1020F000FC0190912A03963009F4EEC038F5933034
:1021000009F4C9C090F4913009F4BDC0923009F0CF
:1021100013C14EE36CE273E080912B030E94CE0367
:102120008093290380912903D5C0943009F4C0C05D
:10213000953009F001C16BE174E08BE293E00E94FD
:1021400052148BE194E00E945914C4C0913F09F4E9
:10215000E3C008F08BC0973009F4C8C0903F09F085
:10216000EBC020932903E091290381E08E0F809337
:102170002903F0E0E65DFC4F8FEF8083E0912903B7
:1021800081E08E0F80932903F0E0E65DFC4F8EEF37
:102190008083E091290381E08E0F80932903F0E092
:1021A000E65DFC4F82E08083E091290381E08E0FA1
:1021B00080932903F0E0E65DFC4F2083E091290342
:1021C00081E08E0F80932903F0E0E65DFC4F83E011
:1021D0008083E091290381E08E0F80932903F0E052
:1021E000E65DFC4F84E08083E091290381E08E0F5F
:1021F00080932903F0E0E65DFC4F85E08083E09169
:10220000290381E08E0F80932903F0E0E65DFC4F07
:1022100086E08083E091290381E08E0F809329037B
:10222000F0E0E65DFC4F87E08083E091290381E0E8
:102230008E0F80932903F0E0E65DFC4F9083E091E0
:10224000290381E08E0F80932903F0E0E65DFC4FC7
:1022500081EF8083E091290381E08E0F8093290331
:10226000F0E0E65DFC4F82EF808377C09E3F41F057
:1022700020F4923F09F448C05FC00E94050A6DC077
:102280000E940C0A6AC06CE273E080912B030E94EA
:10229000490482E060C0309709F45FC00190F0818A
:1022A000E02D309709F459C080912B03099555C052
:1022B000C0916301D0916401BE018BE293E00E9462
:1022C0007814FE0101900020E9F7EC1BEF5FE0932A
:1022D000290343C08E5F3FC080912B038430E8F513
:1022E0000E94F7118C5980932C030CC0309751F049
:1022F0000280F381E02D309729F060912C038091CA
:102300002B03099583E027C020932903309729F1F7
:102310000680F781E02D07C0209329033097E9F06C
:102320000480F581E02D3097C1F08BE293E00995B0
:1023300090912903890F0FC0309779F00084F185BF
:10234000E02D309751F06091290370E040E450E0B7
:102350008AE293E009958093290382E080936A03DF
:10236000DF91CF910895282F30E0C9016BE070E034
:102370000E947B13FC01E559FC4FC9016BE070E042
:102380000E947B134BE050E0BF0186559C4F0E949A
:1023900062140895DB01282F30E0109769F0C9011D
:1023A0006BE070E00E947B13FC01E655FC4F9BE064
:1023B00001900D929A95E1F7C9016BE070E00E94DF
:1023C0007B13DC01A559BC4FFC01E655FC4F8BE0AB
:1023D00001900D928A95E1F7089590E06BE070E02E
:1023E0000E947B1386559C4FFC011082089590E05B
:1023F0006BE070E00E947B1386559C4FFC0180814E
:102400000895CF93DF93CDB7DEB72F970FB6F8942B
:10241000DEBF0FBECDBF1C861D861E861F860E9496
:10242000CD020E94160A0E94D5090E9459090E94F5
:10243000470980919F038031A9F0803209F446C09A
:1024400081EA90E00E948E0986E590E090935C011D
:1024500080935B01412C312C6DE7E62E66E0F62E71
:1024600019E05FC08BE890E00E948E0987E590E05C
:1024700090935C0180935B018DEE90E090930E0150
:1024800080930D0184E590E09093100180930F01FB
:1024900083E0809314018CE0E1E2F1E0ADE2B1E091
:1024A00001900D928A95E1F78CE0E5E1F1E0A1E27F
:1024B000B1E001900D928A95E1F7412C312C5DE756
:1024C000E52E56E0F52E19E002E02CC084E790E0FE
:1024D0000E948E0988E590E090935C0180935B01F7
:1024E00082EB90E090930E0180930D018BE390E0DE
:1024F0009093100180930F0181E991E0909318016E
:102500008093170184E490E0909316018093150165
:102510003AE0432E3324339445E9E42E47E0F42E89
:1025200015E001E021E0A701612F81E192E00E9426
:102530001F0A81E192E090931C0180931B010230FD
:1025400069F421E0A701612F89E292E00E941F0A4D
:1025500089E292E0909334018093330178948AE089
:1025600091E00E94041010E021E4822E22E0922EDD
:10257000642C712C0E944E0981110E94050A0E9450
:10258000F30F80E091E00E9466101130D9F038F02E
:10259000123009F47EC0133009F489C0EBCF80916A
:1025A00010028111A6C0442011F0C30103C0809124
:1025B000A00390E00E945F090E94860911E081114A
:1025C000D9CF97C0CE010C966C0181E1A82E82E094
:1025D000B82E91E4E92E92E0F92E5E2C5818D6011F
:1025E0008D919C91892B89F4852D0E941103F60110
:1025F00091838083009749F0DC011496ED91FC9162
:102600001597309711F0852D0995D601ED91FC9124
:10261000309741F10280F381E02D852D0995F70176
:10262000882351F080818F5F80838F3130F0D60115
:102630001D921C9210821BC01082852D0E94B31126
:10264000811102C0332099F0BE016F5F7F4F852D4D
:102650000E94CA11BE016F5F7F4FC5010E944A0AE6
:1026600012E005C060E070E0C5010E944A0AF2E095
:10267000CF0ED11C8FEFE81AF80A98E1A90EB11C11
:102680008E2D8819801708F4A8CF113009F072CF69
:1026900030C00E94BD0F882311F013E06BCF0230D1
:1026A00009F068CF0E94970F8111F7CF63CF0E9486
:1026B000BD0F882361F081E192E00E94460A7C010F
:1026C00081E192E00E94550AB7010E94C70F0230D3
:1026D00081F40E94970F882361F089E292E00E94C2
:1026E000460A7C0189E292E00E94550AB7010E94E5
:1026F000A10F10E03FCF0024552704C0080E591F3A
:10270000880F991F009729F076956795B8F37105A2
:10271000B9F7802D952F0895052E97FB1EF4009490
:102720000E94A31357FD07D00E94021407FC03D098
:102730004EF40C94A31350954095309521953F4F3E
:102740004F4F5F4F089590958095709561957F4F9D
:102750008F4F9F4F089568940013E894A0E0B0E075
:10276000E4EBF3E10C94D313EFEFE7F959016A01BD
:102770005E23550FEE08FE2C87019B01AC019E23C2
:10278000990F660B762FCB010E942414CDB7DEB7CC
:10279000EAE00C94EF132F923F924F925F926F9268
:1027A0007F928F929F92AF92BF92CF92DF92EF92E1
:1027B000FF920F931F93CF93DF93CDB7DEB7CA1B62
:1027C000DB0B0FB6F894DEBF0FBECDBF09942A888D
:1027D000398848885F846E847D848C849B84AA8435
:1027E000B984C884DF80EE80FD800C811B81AA81C2
:1027F000B981CE0FD11D0FB6F894DEBF0FBECDBF8D
:10280000ED010895A1E21A2EAA1BBB1BFD010DC00C
:10281000AA1FBB1FEE1FFF1FA217B307E407F50790
:1028200020F0A21BB30BE40BF50B661F771F881F6C
:10283000991F1A9469F760957095809590959B0102
:10284000AC01BD01CF010895DF93CF939F92A0E427
:102850009A2E0024D001E001F00116950795F79417
:10286000E794D794C794B794A79448F41068A20F3C
:10287000B31FC41FD51FE61FF71F081E191E220F06
:10288000331F441F551F661F771F881F991F9A9477
:1028900021F79D01AE01BF01C00111249F90CF918E
:1028A000DF910895FB01DC0105900D920020E1F716
:1028B0000895FC0105900020E9F7809590958E0F12
:1028C0009F1F0895FB01DC0104C08D9101908019C8
:1028D00021F441505040C8F7881B990B0895FB0123
:1028E000DC0102C001900D9241505040D8F708958C
:1028F000FB01DC0101900D920020E1F70895A0E0BA
:10290000B0E0E5E8F4E10C94D913AE01495F5F4F04
:10291000DA016D917D91AD0106ED13E0F801828140
:102920009381DC0113962C911397286013962C93B6
:102930000E94A514D8011296ED91FC911397238162
:10294000277F2383E4E00C94F513ACE0B0E0EBEADE
:10295000F4E10C94CB137C016B018A01FC0117821A
:102960001682838181FFBFC1CE0101964C01F70120
:102970009381F60193FD859193FF81916F018823E7
:1029800009F4ADC1853239F493FD859193FF8191AE
:102990006F01853229F4B70190E00E948F16E7CFCE
:1029A000512C312C20E02032A0F48B3269F030F42D
:1029B000803259F0833269F420612EC08D3239F0B3
:1029C000803339F4216028C02260246025C028604B
:1029D00023C027FD29C030ED380F3A3088F426FF98
:1029E00007C0852D6AE00E945917582E530E14C057
:1029F000832D6AE00E945917382E330E20620CC0D6
:102A00008E3221F426FD6BC1206406C08C3611F491
:102A1000206802C0883641F4F60193FD859193FF4A
:102A200081916F018111BFCF982F9F7D9554933075
:102A300028F40C5F1F4FFFE3F9830DC0833631F09C
:102A4000833771F0833509F05BC022C0F8018081C3
:102A500089830E5F1F4F44244394512C540115C0A9
:102A60003801F2E06F0E711CF801A080B18026FFE2
:102A700003C0652D70E002C06FEF7FEFC5012C87AA
:102A80000E9484162C0183012C852F77222E17C0DB
:102A90003801F2E06F0E711CF801A080B18026FFB2
:102AA00003C0652D70E002C06FEF7FEFC5012C877A
:102AB0000E9479162C012C852068222E830123FC8C
:102AC0001BC0832D90E048165906B0F4B70180E290
:102AD00090E00E948F163A94F4CFF50127FC85917F
:102AE00027FE81915F01B70190E00E948F1631109F
:102AF0003A94F1E04F1A51084114510471F7E5C0BE
:102B0000843611F0893639F5F80127FF07C0608156
:102B10007181828193810C5F1F4F08C06081718138
:102B2000072E000C880B990B0E5F1F4F2F76722E0D
:102B300097FF09C090958095709561957F4F8F4F55
:102B40009F4F2068722E2AE030E0A4010E94C71631
:102B5000A82EA81844C0853729F42F7EB22E2AE06B
:102B600030E025C0F22FF97FBF2E8F36C1F018F468
:102B7000883579F0B4C0803719F0883721F0AFC0BC
:102B80002F2F2061B22EB4FE0DC08B2D8460B82E85
:102B900009C024FF0AC09F2F9660B92E06C028E006
:102BA00030E005C020E130E002C020E132E0F80171
:102BB000B7FE07C060817181828193810C5F1F4FD6
:102BC00006C06081718180E090E00E5F1F4FA4011C
:102BD0000E94C716A82EA818FB2DFF777F2E76FE21
:102BE0000BC0372D3E7FA51450F474FE0AC072FC52
:102BF00008C0372D3E7E05C0BA2C372D03C0BA2C35
:102C000001C0B52C34FF0DC0FE01EA0DF11D80811D
:102C1000803311F4397E09C032FF06C0B394B394F7
:102C200004C0832F867809F0B39433FD13C030FFBE
:102C300006C05A2CB31418F4530C5B18B32CB314FD
:102C400068F4B70180E290E03C870E948F16B3944D
:102C50003C85F5CFB31410F43B1801C0312C34FF80
:102C600012C0B70180E390E03C870E948F163C853C
:102C700032FF17C031FD03C088E790E002C088E54D
:102C800090E0B7010CC0832F867859F031FF02C065
:102C90008BE201C080E237FD8DE2B70190E00E9437
:102CA0008F16A51438F4B70180E390E00E948F16C8
:102CB0005A94F7CFAA94F401EA0DF11D8081B7016F
:102CC00090E00E948F16A110F5CF332009F44FCE6B
:102CD000B70180E290E00E948F163A94F6CFF70198
:102CE0008681978102C08FEF9FEF2C96E2E10C94D2
:102CF000E713FC010590615070400110D8F78095F2
:102D000090958E0F9F1F0895FC01615070400190B7
:102D10000110D8F7809590958E0F9F1F08950F93FF
:102D20001F93CF93DF93FB01238121FD03C08FEF1E
:102D30009FEF28C022FF16C046815781248135812C
:102D40004217530744F4A081B1819D012F5F3F4F8B
:102D5000318320838C93268137812F5F3F4F3783C8
:102D6000268310C0EB01092F182F0084F185E02D78
:102D70000995892BE1F68E819F8101969F838E8331
:102D8000812F902FDF91CF911F910F910895FA011C
:102D9000AA27283061F1203191F1E8946F936E7F7A
:102DA0006E5F7F4F8F4F9F4FAF4FB1E040D0B4E089
:102DB0003ED0670F781F891F9A1FA11D680F791FCA
:102DC0008A1F911DA11D6A0F711D811D911DA11DDD
:102DD00022D009F468943F91062E000C3019000CA3
:102DE000000C3019305D3193CEF6CF010895462F97
:102DF0004770405D4193B3E00FD0C9F7F6CF462F3F
:102E00004F70405D4A3318F0495D31FD40524193A7
:102E100002D0A9F7EACFB4E0A69597958795779564
:102E20006795BA95C9F700976105710508959B01EB
:102E3000AC010A2E06945795479537952795BA9574
:102E4000C9F7620F731F841F951FA01D0895DC0131
:102E5000CB01FC01F999FECF06C0F2BDE1BDF89AA5
:102E6000319600B40D9241505040B8F70895DC01FE
:102E7000A40FB51F4150504048F0CB01840F951F5F
:102E80002E910E94481741505040D0F70895262FA8
:102E9000F999FECF92BD81BDF89A019700B4021650
:102EA00039F01FBA20BD0FB6F894FA9AF99A0FBEFE
:102EB0000895002480FD060E660F11F08695D1F767
:082EC000802D0895F894FFCF66
:102EC800EB0200000003EE02000006510141013B45
:102ED80000036F01023600D501100000000F030D3A
:102EE8000315007C01400000003D104F1000000059
:102EF80000000000000000000000000000000000CA
:102F080000000000000000000000000000000000B9
:102F18000012011001000000409B28560020020109
:102F2800020301C4016A060305000000000105CA86
:102F3800015102F4010000000200000000130A0021
:102F4800000000FFFFFFFFFFFFFFFF0130303030C0
:102F5800303130010000003102000000260400007A
:102F680000270800000028100000002920000000A9
:102F78002A4000000032800000002B000100000001
:102F880000000000322E322E300072006100700006
:102F980068006E006500740020007400650063001E
:102FA80068006E006F006C006F00670069006500C4
:102FB8007300000031003200330034003500360061
:022FC800000007
:00000001FF
