:020000040000FA
:200000000C94CF040C945C050C94EC040C94EC040C94EC040C94EC040C94EC040C94EC040C
:200020000C94EC040C94EC040C94EC040C94EC040C94EC040C94EC040C94EC040C94EC0440
:200040000C94EC040C94EC040C94EC040C94EC040C94EC040C94EC040C94EC040C94EC0420
:200060000C94EC040C94EC0433306238346662352D666438642D346364632D396164302D8C
:2000800065393833396630633863303100000800000008000000040000000400000002000F
:2000A000000001000000010000000200000080000001000000004000000200000000100069
:2000C000001000000020000000004000000020000000200000100000000010000008000048
:2000E0000000000100010000000000080002000000040000000400000008000000000000E4
:200100000000000000000800000008000000040000000400000002000000010000000100C3
:200120000000020000008000000100000000400000020000000010000010000000002000BA
:200140000000400000200000000020000010000000001000000800000000000100010000F5
:20016000000000080002000000000004000400000004000000000000000000000000040065
:20018000000004000000020000000100000001000000020000008000000100000000400094
:2001A000000200000000100000100000000020000000400000000800000020000010000085
:2001C0000000100000080000000000010001000000000008000400000004000000020000F3
:2001E0000008000000000000000000000000080000000800000004000000040000000200DD
:20020000000001000000010000000200000080000001000000004000000200000000100007
:200220000010000000002000000040000020000000002000001000000000100000080000E6
:20024000000000010001000000000008000400000004000000020000000800000000000082
:20026000000000000000080000000800000004000000040000000200000001000000010062
:20028000000002000000800000010000000040000002000000001000001000000020000059
:2002A000000040000010000000002000000020000000100000080000000000010004000091
:2002C000000000020002000000080000000100000004000000000000000000000000080005
:2002E000000008000000040000000400000002000000010000000100000002000000800068
:2003000000010000000040000002000000001000001000000000200000004000001000000A
:2003200000002000002000000000100000080000000000010004000000000002000200005C
:2003400000080000000100000004000000000000000000000000080000000800000004007C
:200360000000040000000200000001000000010000000200000080000001000000004000B2
:2003800000020000000010000010000000200000000040000010000000002000000020008B
:2003A000000010000008000000000001000400000000000200020000000000040001000017
:2003C0000000000800000000000000000000080000000800000004000000040000000200FB
:2003E000000001000000010000000200000080000001000000004000000200000000100026
:20040000001000000000200000004000001000000000200000200000000010000008000004
:200420000000000100040000000000020002000000000004000100000000000800000000A6
:2004400000000000002000000001000000400000000200000010000000040000000800001D
:200460000008000000000400001000000000100000001000000020000000400000000200DE
:2004800000002000000100000000080000004000000004000002000000000100000080006C
:2004A0000000020000000000000000000010000000010000004000000002000000000400E3
:2004C0000010000000001000000800000080000000004000000020000000400000040000D0
:2004E00000002000000002000000200000010000000008000000400000000400000200006B
:20050000000001000000800000000200000008000000100000280000000010000050940024
:20052000000010000000000000030000004000000001000000200000000200000000040041
:2005400000100000000010000008000000800000000040000000200000004000000400004F
:200560000000200000000200000020000001000000000800000040000000040000020000EA
:20058000000001000000800000000200000008000000100000180000000010000000000098
:2005A0000003000000100000000800000040000000010000000800000004000000200000B3
:2005C0000002000000000400001000000001000000000800000040000000040000020000B6
:2005E000000001000000800000000200000020000000400000000200000020000080000076
:20060000000010000004000000001000000010000000100000000000000000000010000086
:2006200000010000004000000002000000080000000400000020000000080000000004003F
:200640000010000000010000000008000000400000000400000200000000010000008000BA
:20066000000002000000200000001000000002000000100000800000000040000004000072
:20068000000020000000100000001000000000000003000000000000000000000010000007
:2006A0000001000000400000000200000008000000040000002000000008000000000400BF
:2006C00000100000000100000000080000004000000004000002000000000100000080003A
:2006E0000000020000002000000040000000020000002000008000000000100000040000E2
:200700000000100000001000000010000000000000000000004000000001000000800000E8
:20072000000200000010000000100000002000000000100000080000000008000004000053
:2007400000000400000200000000010000010000000002000000000000000000004000004F
:2007600000020000008000000001000000100000001000000020000000001000000800009E
:20078000000008000004000000000400000200000000010000010000000002000000000043
:2007A0000000000000800000000200000040000000010000000080000004000000004000B2
:2007C000000800000010000000100000002000000000100000002000000040000000100051
:2007E0000000200000080000000008000004000000000400000200000000010000010000BD
:200800000000020000000000000000000000800000010000008000000002000000100000C3
:20082000001000000020000000080000000020000000400000001000000020000040400070
:2008400000001000000800000000080000040000000004000002000000000100000100006C
:200860000000020000000000000000000080000000010000004000000002000000100000A3
:20088000001000000020000000080000000020000000400000001000000020000000C000D0
:2008A00000001000000800000000080000040000000004000002000000000100000100000C
:2008C0000000020000000000000000000080000000010000000080000008000000004000CD
:2008E00000040000004000000002000000100000001000000020000000001000000800005A
:200900000000080000040000000004000002000000000100000100000000020000002000A1
:20092000000040000000100000002000000000000000000000800000000200000000800045
:200940000001000000004000000400000040000000080000001000000010000000200000CA
:2009600000001000000800000000080000040000000004000002000000000100000100004B
:20098000000002000000200000004000000010000000200000000000000000000000112490
:2009A0001FBECFEFD4E0DEBFCDBF11E0A0E0B1E0E0E4F8E202C005900D92A436B107D9F7C7
:2009C00022E0A4E6B1E001C01D92A133B207E1F70E9458100C941E140C940000CF93DF93D5
:2009E000CDB7DEB72B970FB6F894DEBF0FBECDBFBE016F5F7F4F0E941F0BCE0101960E94A6
:200A0000410B2B960FB6F894DEBF0FBECDBFDF91CF9108950C942E080C94540780916401CE
:200A200090916501892B69F40E94C00D9093650180936401009729F0DC01ED91FC9180E0B6
:200A4000099580916401909165010895823050F190916701913041F030F19F3F19F5F89457
:200A6000E0E0FCE109941EC088E2E6E6F1E0DF011D928A95E9F71092660110926701109214
:200A800068011092690110926A0184E080936E0190936F016EE371E080E791E00E941A1114
:200AA0008EE0089580E0089590916601923511F40C9426050C948C0B1F921FB64F930F93CE
:200AC0001F93EF93FF937F93AF93BF93A6E6B1E00027E7E0F6E049B14470440F440F440F22
:200AE000440F440F042B49B14470E9F31FE11A9521F049B14470D9F701C0099418E01A9554
:200B0000F1F749B14470440F440F440F440F042B49B14470E9F31FE11A9521F049B14470CC
:200B2000D9F701C0099418E01A95F1F749B14470440F440F440F042B49B14470E9F31FE198
:200B40001A9521F049B14470D9F701C0099418E01A95F1F749B14470440F440F042B49B1ED
:200B60004470E9F31FE11A9521F049B14470D9F701C0099418E01A95F1F749B14470440FB9
:200B8000042B49B14470E9F31FE11A9521F049B14470D9F701C0099418E01A95F1F749B177
:200BA0004470042B49B14470E9F31FE11A9521F049B14470D9F701C0099418E01A95F1F79D
:200BC00049B144704695042B49B14470E9F31FE11A9521F049B14470D9F701C0099418E03F
:200BE0001A95F1F749B1447046954695042B49B14470E9F30D931FE11A9521F049B1447033
:200C0000D9F701C0099415E01A95F1F761CF06E6A01B01F10F921F922F933F934F935F9397
:200C20006F937F938F939F93AF93BF938A2F1124E4E5F5E00995082F1DD0BF91AF919F91AA
:200C40008F917F916F915F914F913F912F911F900F9000C041E0EFE9F1E04083E09ABF919F
:200C6000AF917F91FF91EF911F910F914F911FBE1F901895E6E6F1E0702F0DD00895009164
:200C80009E010F7F19F4EEE8F1E002C0E6E9F1E078E001D008953F937723F1F1772349F129
:200CA0007A95019110E8302F312379F40000529A4FE04A95F1F75298169581F30000000090
:200CC0000000000000000000EECF529A44E04A95F1F7000052984AE04A95F1F700000000A5
:200CE0001695E1F2000000000000000000000000DACF0000000000000000000000000000CD
:200D0000000000000000000000000000529A46E04A95F1F7000052983F9108954CE150E046
:200D200060E070E08CED91E00C94C5138CE1ECEDF1E0DF011D928A95E9F788E0EAE0F1E019
:200D4000ACEDB1E001900D928A95E1F70C948E064CE150E060E070E08CED91E00E94B513CD
:200D600048E050E06AE071E08CED91E00E940611009721F00E94960681E090E008952BE07E
:200D8000829FC0011124BC0160567E4F4BE050E088509E4F0E940611089590E0611571052A
:200DA00069F02BE0289FF001299FF00D1124E850FE4FDB0101900D922A95E1F72BE0289F23
:200DC000F001299FF00D1124DF01A056BE4FE850FE4F01900D922A95E1F708952BE0829F30
:200DE000C0011124FC01E850FE4F108208952BE0829FC0011124FC01E850FE4F808108950A
:200E0000082E000C990BAA0BBB0B8D339105A105B105DCF09C01AD012C533109410951094B
:200E2000AAE0B0E00E94C11029E030E040E050E00E949B10DA01C901CC96A11DB11D89361D
:200E40009105A105B105ECF40895843C2FEF9207A207B207DCF49C01AD01245C3F4F4F4F83
:200E60005F4FAAE0B0E00E94C11029E030E040E050E00E949B10DA01C901CC97A109B10915
:200E800005C088E690E0A0E0B0E0089588392FEF9207A207B2072CF488E99FEFAFEFBFEFBD
:200EA0000895089580E00895CF93DF93EC018BE0FE01A1EBB1E001900D928A95E1F7888183
:200EC000843009F462C028F4813041F08230A1F1C2C0883089F18D3009F0BDC088859985EB
:200EE00086FF03C02DE936E018C087FF03C02DE136E013C083FF03C02DE235E00EC084FFAC
:200F000003C02DEA34E009C092FF03C025EA35E004C085FFA0C025E434E03093170120934F
:200F20001601A0E0B0E08093F0019093F101A093F201B093F3018BC089819A81AB81BC813B
:200F400087FF03C025E339E013C084FF03C02DEC38E00EC097FF03C02DE638E009C096FF2D
:200F600003C02DE038E004C086FF75C025EA37E030931901209318018093E4019093E5013B
:200F8000A093E601B093E70162C08B819C8190FF03C022E030E010C091FF05C01092130182
:200FA000109212010DC093FF03C021E030E004C092FF51C023E030E0309313012093120133
:200FC000A0E0B0E08093F4019093F501A093F601B093F7010E948E068B819C8197FF03C0C3
:200FE0002DEC33E026C085FF03C025E533E021C084FF03C02DED32E01CC09C0120733327C2
:201000002033310519F425E632E013C083FF03C02DEE31E00EC082FF03C02DE731E009C0D9
:2010200081FF03C025E031E004C080FF14C02DE830E03093150120931401A0E0B0E0809357
:20104000EC019093ED01A093EE01B093EF01DF91CF910C948E06DF91CF910895EF92FF92BA
:201060000F931F93CF93DF93CDB7DEB72F970FB6F894DEBF0FBECDBF82E08C8783E08D8736
:2010800084E08E8781E08F878E01045F1F4F7E0180E1E80EF11C0E151F0581F1F801819159
:2010A0008F0189838230A9F048F4813011F58091F0019091F1019A8789871BC08330B1F0E1
:2010C0008430B9F48091EC019091ED019D838C8310C08091E4019091E501A091E601B0914D
:2010E000E7018A839B83AC83BD8303C08091E8018A83CE0101960E945407CDCF2F960FB61B
:20110000F894DEBF0FBECDBFDF91CF911F910F91FF90EF900895CF92DF92EF92FF920F93FC
:201120001F93CF93DF93CDB7DEB728970FB6F894DEBF0FBECDBF6C017B0100911A011091D4
:201140001B0148E050E0B801CE0101960E94FD1089819A81AB81BC810097A105B10511F1CA
:20116000F601418150E060E070E0482359236A237B23481759076A077B0789F4F7014781F5
:201180005085618572858D819E81AF81B885842B952BA62BB72B87839087A187B287085FF8
:2011A0001F4FCFCF28960FB6F894DEBF0FBECDBFDF91CF911F910F91FF90EF90DF90CF9022
:2011C0000895CF92DF92EF92FF920F931F93CF93DF93CDB7DEB728970FB6F894DEBF0FBED3
:2011E000CDBFFB01C0901801D0901901DC0111964D915D916D917C9114974115510561056C
:20120000710519F41092B00117C04232B0E35B076105710519F42CE93FEF07C041325043BF
:201220006105710549F424E630E03093AF012093AE0121E02093B0012091B001211103C0EA
:201240008F017C0124C08091AE01838346C084239523A623B72384179507A607B707A1F498
:20126000D80117964D915D916D917C911A978D819E81AF81B885842B952BA62BB72BF801AB
:2012800087839087A187B287F8E0CF0ED11C48E050E0B601CE0101960E94FD1049815A8161
:2012A0006B817C81F70181819281A381B481411551056105710559F695FF04C08EEFD8015A
:2012C00015968C93F70181819281A381B48194FF04C08EEFD80116968C9328960FB6F89457
:2012E000DEBF0FBECDBFDF91CF911F910F91FF90EF90DF90CF900895CF92DF92EF92FF927B
:201300000F931F93CF93DF93CDB7DEB728970FB6F894DEBF0FBECDBF6C017B0100911401F7
:201320001091150148E050E0B801CE0101960E94FD1089819A81AB81BC810097A105B1054F
:2013400011F1F6014381548160E070E0482359236A237B23481759076A077B0789F4F70132
:2013600047815085618572858D819E81AF81B885842B952BA62BB72B87839087A187B287B5
:20138000085F1F4FCFCF87010E5F1F4F97012F5F3F4FF60142816181809112010E94BF0E94
:2013A000F70187819085A185B285A0FF02C02FE72483A1FF03C021E8F7012483A2FF03C02E
:2013C00021E8F7012383A3FF03C02FE7F701238396FF03C02EEFF701258395FF03C08EEF64
:2013E000F701868328960FB6F894DEBF0FBECDBFDF91CF911F910F91FF90EF90DF90CF90EB
:201400000895082E000C990B861B910967FD9395803891052CF480382FEF920724F00895F4
:201420008FE790E0089580E89FEF0895CF92DF92EF92FF920F931F93CF93DF93CDB7DEB771
:2014400028970FB6F894DEBF0FBECDBFC0901601D0901701FC01208531852115310519F4D6
:201460001092AD0113C02230F2E33F0719F42CE93FEF05C02115324B49F424E630E03093FA
:20148000AC012093AB0121E02093AD012091AD01211103C08B017C0127C08091AB01FB01E1
:2014A0008383BEC0F70180859185A0E0B0E084239523A623B72384179507A607B70789F464
:2014C000F80147815085618572858D819E81AF81B885842B952BA62BB72B87839087A18794
:2014E000B287F8E0CF0ED11C48E050E0B601CE0101960E94FD1049815A816B817C81411509
:2015000051056105710571F6DD80F7018181882379F16091B301F70182810E94010A0E94D7
:201520000007F80181836091B401F70183810E94010A0E940007F80182836091B501F70112
:2015400084810E94010A0E940007F80183836091B601F70185810E94010A0E940007F8013C
:201560008483F7018681F8018583F70187813AC0F70182819091B301891B880F880F0E9426
:201580000007F8018183F70183819091B401891B880F880F0E940007F8018283F7018481FF
:2015A0009091B501891B880F880F880F0E940007F8018383F70185819091B601891B880F32
:2015C000880F880F0E940007F8018483F7018681880F880F880FF8018583F7018781880FD8
:2015E000880F880FF8018683D0FE0CC0F80187819085A185B28596FF03C08EEF858302C00F
:20160000F8011582D1FE0CC0F80187819085A185B28595FF03C08EEF868302C0F8011682FC
:2016200028960FB6F894DEBF0FBECDBFDF91CF911F910F91FF90EF90DF90CF900895FC010F
:201640008BE0DB011D928A95E9F79081933069F028F4913099F0923059F00895983041F061
:201660009D3061F0943039F00895CF010C948B08CF010C94E108CF010C947C09CF010C9401
:20168000160AFC0120919E01978180852223F1F090938E01806880938F0181818058809370
:2016A000900182818058809391018381805880939201848180588093930185818093940165
:2016C00086818093950110929E011EC0909396018068809397018181805880939801828165
:2016E0008058809399018381805880939A018481805880939B01858180939C01868180937F
:201700009D0181E080939E019781808590931C01806880931D01089581E08093CD018091B2
:2017200066018134D1F028F4882349F0803421F13BC08234B1F08F3FB9F51092CC018091B8
:20174000310190913201A09133018093660190936701A093680183E008958AE0ECE1F1E0F5
:2017600003C08AE0E4E3F1E0A6E6B1E001900D928A95E1F78AE008958091680181708093DB
:20178000CC0180919E01882321F088E0E6E9F1E003C088E0EEE8F1E0A6E6B1E001900D92E9
:2017A0008A95E1F788E0089580E008958091CC0108950C942E088091CD01882319F01092AA
:2017C000CD0181E00895109280008DE0809381000895109285001092840082E086BB0895F0
:2017E0002091CE013091CF0128173907B9F09093CF018093CE01109285001092840029E085
:201800003DE3DC010E94BA1028EE33E040E050E00E949B1030938900209388000895B19B29
:2018200004C082E086BB81E0089580E0089514B88EEF85B9259A2D98249A2C9883E387B913
:2018400080EE88B981E08AB988EE8BB90895E82FF0E0EC52FE4F608308950F93CF93DF9376
:2018600000D000D01F92CDB7DEB7E82FF0E0ED52FE4F10821D8204E09E012F5F3F4F41E09A
:2018800050E0BE016B5F7F4F0E94CC0D91E0833009F090E0892F0F900F900F900F900F90E6
:2018A000DF91CF910F9108950F931F93CF93DF9300D000D0CDB7DEB7182F83E08093030278
:2018C00080E88093040281E08093050240E250E060E870E086E092E00E94131104E09E0101
:2018E0002F5F3F4F43E250E063E072E0812F0E94CC0D91E0813009F490E0892F81950F90BB
:201900000F900F900F90DF91CF911F910F9108950F931F93CF93DF9300D000D0CDB7DEB74C
:20192000182F83E08093030280EC809304028BE18093050281E090E0611102C080E090E005
:2019400040E250E0BC0186E092E00E9413118091D10104E09E012F5F3F4F882319F044E080
:2019600050E002C043E250E063E072E0812F0E94CC0D282F30E081E02130310509F480E0B4
:2019800081950F900F900F900F90DF91CF911F910F910895CF92DF92EF92FF920F931F93C0
:2019A000CF93DF9300D000D0CDB7DEB7182F8091D001882361F08091D2018F5F982F9470D8
:2019C00082FD03C08093D2012BC01092D2011092030203E09E012F5F3F4F41E050E063E0A6
:2019E00072E0812F0E94CC0D212F30E0833031F0F901ED52FE4F85E080833EC08B8180FFBF
:201A00000AC0F901ED52FE4F9081911102C095E0908381FF04C0F901ED52FE4F108291E0AC
:201A20008091D00181112AC0C12ED12CC6018D529E4F7C01FC010081033009F448C008F599
:201A4000013009F450C00230A1F1F70120818091D001811157C081E08093030204E09E0164
:201A60002F5F3F4F41E050E063E072E0812F0E94CC0D843009F44FC08FEF73C09130A1F670
:201A80006FC00430E9F0053001F7812F0E94540C882341F0812F0E94540C8823B1F2F70157
:201AA0001082D3CFF601EC52FE4F80818823A9F021C061E0812F0E94880C8111C6CF1EC01E
:201AC00060E0812F0E94880C8111BFCF0AC0F601EC52FE4F80818111B8CF60E0812F0E94C8
:201AE000880C81E00CC0F601EC52FE4F8081882309F4ABCF61E0812F0E94880C83E0F701FE
:201B00008083A3CF802F000F990B30E08217930709F4A1CF25C049819A812B813C815BE0D0
:201B20005C9DF0015D9DF00D1124E850FE4F8083892F90E0942B9483838321833283203852
:201B400011F481E881838BE08C9DF0018D9DF00D1124E850FE4F8281803811F481E882837F
:201B600080E00F900F900F900F90DF91CF911F910F91FF90EF90DF90CF9008950C94CA0C7A
:201B800086E291E008958AB1807F8AB98BB1807F8BB9249A2C9808950F931F93CF93DF938C
:201BA000FB011FB781111AC0E901642FCF01F8940E947C0E602FCE010E94540E1FBF92E030
:201BC000980F923058F09091D501911108C0EFE3F1E03197F1F700C0000001C080E0DF914F
:201BE000CF911F910F9108950F931F93CF93DF9300D000D01F92CDB7DEB71D8204E09E01E4
:201C00002F5F3F4F41E050E0BE016B5F7F4F0E94CC0D8823A1F18330A9F599812A81022F01
:201C200010E0192B3B811F923F931F922F931F929F931F928F931F932F9382E491E09F938B
:201C40008F930E9421110FB6F894DEBF0FBECDBF812F99278F7099278830910551F018F47D
:201C6000059799F00FC08930910531F00B9751F403C00032184061F082E090E00BC080E07E
:201C800090E008C084E090E005C081E090E002C083E090E00F900F900F900F900F90DF9182
:201CA000CF911F910F910895AA27BB27E82FF92F222741E088272395D9F03399FCCF0FC0E5
:201CC000522F2BE42395BAF03399FCCF321B441F08F005C0681749F08395419341E03BE42A
:201CE000339542F0339BFCCFEBCF8FEF8A950895882309F08FEF0895E82FF92F6623F1F1F4
:201D0000662371F16A955191B0E8352F3B2399F400003B9A44E14A95F1F700003B9842E05A
:201D20004A95F1F7B69561F3000000000000000000000000EACF3B9A44E04A95F1F70000C4
:201D400000003B984DE04A95F1F700000000B695B9F2000000000000000000000000D5CF22
:201D6000000000000000000000000000000000003B9A44E04A95F1F700003B9808950F9391
:201D80001F93582F862F062E000C990BE42F042E000CFF0B552319F05230A1F107C0AF010A
:201DA00081386FEF96070CF45CC048C0562F67FF02C053E0560F55955595850F911D57FD9C
:201DC0009A9567FD695F659565956595860F911D67FD9A95542F47FF02C053E0540F5595D9
:201DE0005595BF01650F711D57FD7A9547FD495F459545954595FB01E40FF11D47FDFA958A
:201E0000AF0110C067FD6F5F6595860F911D67FD9A9547FD4F5F4595BF01640F711D47FD6F
:201E20007A95AB01803891053CF481387FEF97072CF481E89FEF02C08FE790E04038510517
:201E40003CF44138EFEF5E072CF441E85FEF02C04FE750E0F9018083F80140831F910F91CE
:201E6000089581E89FEFEDCF0E94DB0B0E94DB0B8823E1F30E940F0C882331F08091DA010E
:201E80008F5F8093DA0105C08091DB018F5F8093DB019091DA012091DB019E3110F42E311C
:201EA00050F081E0921708F080E08093D9011092DA011092DB010E94E90B8091D90188236C
:201EC00041F081E08093D1018093D0018093D50115C01092D1011092D0011092D5018FED0E
:201EE0009EE20197F1F700C000000E94DB0B882329F08091DB018F5F8093DB0183EF91E029
:201F00000197F1F700C0000008958F3F2FEF920719F41092D80135C02091D801223041F1D4
:201F2000233089F1213079F0892B39F081E08093D8011092D7011092D601FB010190F081FF
:201F4000E02D09951EC02091D6013091D7012F5F3F4F3093D7012093D601213A310520F0F5
:201F600082E08093D8010DC0892B99F281E00895892B39F483E08093D8011092D7011092BD
:201F8000D60180E008952091D6013091D7012F5F3F4F3093D7012093D601213A310510F07A
:201FA0001092D801892BE1F6ECCFCF93DF93CDB7DEB72B970FB6F894DEBF0FBECDBF8C01DD
:201FC00086E090E00E94F00BD801ED91FC9109957C01D12C5801B4E0AB0EB11CE114F10435
:201FE00061F0F701868097808114910431F00E94D60B682F80E0F4010995F1E0DF1689F0E4
:202000000E94340FD7011896ED91FC91199780E00995811148C0B50180E090E00E94850F46
:2020200020C00E94340FD7011296ED91FC91139780E0099581113AC0B50181E090E00E94F3
:20204000850F882371F0BE016F5F7F4F80E00E94CD06D8011296ED91FC911397CE01019614
:20206000099580E00E94BF06882309F4B7CFBE016F5F7F4F80E00E94CD06D8011896ED9198
:20208000FC911997309731F0CE010196099581111092D801D8011696ED91FC911797CE01FD
:2020A000019609959BCFDD24D394DBCFD12CD9CFCF93DF93CDB7DEB72B970FB6F894DEBF2D
:2020C0000FBECDBF8E010F5F1F4F8BE0F80111928A95E9F70FB6F894A8958091600088614E
:2020E00080936000109260000FBE0E94170C82E08093690081E08DBB0E94A8060E94E30B72
:202100000E94D90BC8010E94410B85E02C9AEFE8F1E03197F1F700C000002C98EFECF7E0C9
:202120003197F1F700C00000815081F7789480E091E00E94D50F052E97FB1EF400940E9476
:20214000B21057FD07D00E94CC1007FC03D04EF40C94B21050954095309521953F4F4F4F39
:202160005F4F089590958095709561957F4F8F4F9F4F08950E94EE10B7FF0895821B930B7A
:2021800008950E94EE10A59F900DB49F900DA49F800D911D11240895A1E21A2EAA1BBB1B7B
:2021A000FD010DC0AA1FBB1FEE1FFF1FA217B307E407F50720F0A21BB30BE40BF50B661F2D
:2021C000771F881F991F1A9469F760957095809590959B01AC01BD01CF010895A29FB00162
:2021E000B39FC001A39F700D811D1124911DB29F700D811D1124911D0895FB01DC0102C005
:2022000005900D9241505040D8F70895FB01DC0104C08D910190801921F441505040C8F723
:20222000881B990B0895DC0101C06D9341505040E0F70895FB01DC0101900D920020E1F786
:202240000895A0E0B0E0E7E2F1E10C94F713AE014B5F5F4FFA0161917191AF0180912D02A6
:2022600090912E020E943711E2E00C941314ACE0B0E0EDE3F1E10C94E7137C016B018A01CE
:20228000FC0117821682838181FFBDC1CE0101964C01F7019381F60193FD859193FF81910E
:2022A0006F01882309F4ABC1853239F493FD859193FF81916F01853229F4B70190E00E945E
:2022C0001F13E7CF512C312C20E02032A0F48B3269F030F4803259F0833269F420612CC0A2
:2022E0008D3239F0803339F4216026C02260246023C0286021C027FD27C030ED380F3A3084
:2023000078F426FF06C0FAE05F9E300D1124532E13C08AE0389E300D1124332E20620CC068
:202320008E3221F426FD6BC1206406C08C3611F4206802C0883641F4F60193FD859193FFFC
:2023400081916F018111C1CF982F9F7D9554933028F40C5F1F4FFFE3F9830DC0833631F050
:20236000833771F0833509F05BC022C0F801808189830E5F1F4F44244394512C540115C0CD
:202380003801F2E06F0E711CF801A080B18026FF03C0652D70E002C06FEF7FEFC5012C870D
:2023A0000E9414132C0183012C852F77222E17C03801F2E06F0E711CF801A080B18026FFA1
:2023C00003C0652D70E002C06FEF7FEFC5012C870E9409132C012C852068222E830123FC3A
:2023E0001BC0832D90E048165906B0F4B70180E290E00E941F133A94F4CFF50127FC859163
:2024000027FE81915F01B70190E00E941F1331103A94F1E04F1A51084114510471F7E5C0D0
:20242000843611F0893639F5F80127FF07C060817181828193810C5F1F4F08C060817181B0
:20244000072E000C880B990B0E5F1F4F2F76722E97FF09C090958095709561957F4F8F4FA4
:202460009F4F2068722E2AE030E0A4010E945713A82EA81844C0853729F42F7EB22E2AE071
:2024800030E025C0F22FF97FBF2E8F36C1F018F4883579F0B4C0803719F0883721F0AFC0A6
:2024A0002F2F2061B22EB4FE0DC08B2D8460B82E09C024FF0AC09F2F9660B92E06C028E02D
:2024C00030E005C020E130E002C020E132E0F801B7FE07C060817181828193810C5F1F4F09
:2024E00006C06081718180E090E00E5F1F4FA4010E945713A82EA818FB2DFF777F2E76FE92
:202500000BC0372D3E7FA51450F474FE0AC072FC08C0372D3E7E05C0BA2C372D03C0BA2C88
:2025200001C0B52C34FF0DC0FE01EA0DF11D8081803311F4397E09C032FF06C0B394B39437
:2025400004C0832F867809F0B39433FD13C030FF06C05A2CB31418F4530C5B18B32CB314FE
:2025600068F4B70180E290E03C870E941F13B3943C85F5CFB31410F43B1801C0312C34FFA3
:2025800012C0B70180E390E03C870E941F133C8532FF17C031FD03C088E790E002C088E57F
:2025A00090E0B7010CC0832F867859F031FF02C08BE201C080E237FD8DE2B70190E00E943F
:2025C0001F13A51438F4B70180E390E00E941F135A94F7CFAA94F401EA0DF11D8081B701E0
:2025E00090E00E941F13A110F5CF332009F451CEB70180E290E00E941F133A94F6CFF701CA
:202600008681978102C08FEF9FEF2C96E2E10C940314FC010590615070400110D8F78095A9
:2026200090958E0F9F1F0895FC016150704001900110D8F7809590958E0F9F1F08950F93DA
:202640001F93CF93DF93FB01238121FD03C08FEF9FEF28C022FF16C046815781248135818E
:202660004217530744F4A081B1819D012F5F3F4F318320838C93268137812F5F3F4F3783B7
:20268000268310C0EB01092F182F0084F185E02D0995892BE1F68E819F8101969F838E832D
:2026A000812F902FDF91CF911F910F910895FA01AA27283051F1203181F1E8946F936E7F5A
:2026C0006E5F7F4F8F4F9F4FAF4FB1E03ED0B4E03CD0670F781F891F9A1FA11D680F791F1B
:2026E0008A1F911DA11D6A0F711D811D911DA11D20D009F468943F912AE0269F11243019AE
:20270000305D3193DEF6CF010895462F4770405D4193B3E00FD0C9F7F6CF462F4F70405DC2
:202720004A3318F0495D31FD4052419302D0A9F7EACFB4E0A6959795879577956795BA9541
:20274000C9F700976105710508959B01AC010A2E06945795479537952795BA95C9F7620FBE
:20276000731F841F951FA01D0895DC01CB01FC01F999FECF06C0F2BDE1BDF89A319600B4F1
:202780000D9241505040B8F70895DC01A40FB51F4150504048F0CB01840F951F2E910E94FC
:2027A000D61341505040D0F70895262FF999FECF92BD81BDF89A019700B4021639F01FBA72
:2027C00020BD0FB6F894FA9AF99A0FBE08952F923F924F925F926F927F928F929F92AF9231
:2027E000BF92CF92DF92EF92FF920F931F93CF93DF93CDB7DEB7CA1BDB0B0FB6F894DEBFAA
:202800000FBECDBF09942A88398848885F846E847D848C849B84AA84B984C884DF80EE80F6
:20282000FD800C811B81AA81B981CE0FD11D0FB6F894DEBF0FBECDBFED010895F894FFCF96
:202840000E050C050A05EE04000058324743576969320100CD039D0635095D070080837A51
:20286000817E16130000BE0DCA0C0000270C2D0C01090003008082827C8824240001322EE5
:20288000300049643A20253034782020202825643A20253032782025303278202530327858
:0428A000290D0A00F4
:203800000C94341C0C94531C0C94511C0C94511C0C94511C0C94511C0C94511C0C94511C5B
:203820000C94511C0C94511C0C94511C0C94511C0C94511C0C94511C0C94511C0C94511C20
:203840000C94511C0C94511C0C94511C0C94511C0C94511C0C94511C0C94511C0C94511C00
:203860000C94511C0C94511C11241FBECFEFD4E0DEBFCDBF11E0A0E0B1E0E6E8FEE302C00E
:2038800005900D92A430B107D9F721E0A4E0B1E001C01D92A13BB207E1F70E947F1E0C94C6
:2038A000411F0C94001C1F921FB64F930F931F93EF93FF937F93AF93BF93A4E0B1E000273A
:2038C000EEEFFCE149B14470440F440F440F440F440F042B49B14470E9F31AE01A9521F06E
:2038E00049B14470D9F701C0099416E01A95F1F749B14470440F440F440F440F042B49B13C
:203900004470E9F31AE01A9521F049B14470D9F701C0099416E01A95F1F749B14470440FF3
:20392000440F440F042B49B14470E9F31AE01A9521F049B14470D9F701C0099416E01A95ED
:20394000F1F749B14470440F440F042B49B14470E9F31AE01A9521F049B14470D9F701C079
:20396000099416E01A95F1F749B14470440F042B49B14470E9F31AE01A9521F049B14470FB
:20398000D9F701C0099416E01A95F1F749B14470042B49B14470E9F31AE01A9521F049B151
:2039A0004470D9F701C0099416E01A95F1F749B144704695042B49B14470E9F31AE01A95AD
:2039C00021F049B14470D9F701C0099416E01A95F1F749B1447046954695042B49B144702C
:2039E000E9F30D931AE01A9521F049B14470D9F701C0099415E01A95F1F761CF04E0A01B5A
:203A000011F10F921F922F933F934F935F936F937F938F939F93AF93BF93FF938A2F11246E
:203A2000E8E8FDE10995082FFF91BF91AF919F918F917F916F915F914F913F912F911F9074
:203A40000F900DD000C0E09ABF91AF917F91FF91EF911F910F914F911FBE1F901895E4E0D3
:203A6000F1E0702F01D008953F937723D9F1772359F17A95019110E8302F312381F400008D
:203A8000529A4FE04A95F1F700005298169579F3000000000000000000000000EDCF529A9B
:203AA00044E04A95F1F70000000052984AE04A95F1F7000000001695D1F2000000000000D2
:203AC000000000000000D8CF00000000000000000000000000000000529A44E04A95F1F768
:203AE000000052983F91089514B88EEF85B980E387B987EE88B981E08AB988EE8BB9089594
:203B0000F89481E085BF15BEE0E0F0E009940895CF93DF938130D9F480910401813071F05D
:203B200018F08F3F09F0DEC085E0809304011092050182E08093060183E0D5C010920401D8
:203B4000109205011092060110920701A7C0823008F4C8C090910401923509F0C3C0909143
:203B60000501913F09F43EC038F49130B9F008F4BAC0903F79F1B6C0993F09F498C020F478
:203B8000923F09F446C0AEC09E3F09F499C09F3F09F0A8C081E080932C01A1C088E2E4E041
:203BA000F1E0DF011D928A95E9F79093040180E88093050188E3809306011092070184E06A
:203BC00080930C0160E071E08EE091E00E943A1F8EE089C08091B001811176C081E08093A5
:203BE000B0017DC0809106014091070150E0582B60E070E0E5E0440F551F661F771FEA957D
:203C0000D1F720E230E084E091E00E94761E80E26AC020910601809107019091B0019111EE
:203C200053C090E0922BEC01C370DD27DE0125E0AA0FBB1F2A95E1F7A05DBE4F20E2E8E03E
:203C4000F1E001900D922A95E1F7AC0160E070E032E076956795579547953A95D1F7509334
:203C60002F0140932E0120912E0130912F013695322F22273795279530932F0120932E016F
:203C800010920401239761F421E020930501909306018093070182E08093B00184E023C002
:203CA000109205019093060180930701F7CF9091B00181E0911101C080E0809304010DC076
:203CC0008091B001882321F081E0809304010BC01092040183E08093B00181E004C010928D
:203CE000040101C080E0DF91CF910895FA01DC0102C005900D9221503040D8F70895CF93B4
:203D0000DF9300D000D0CDB7DEB70E94741D81E085BF92E095BF909369008DBBF89424E076
:203D200030E040E050E0BA01CE0101960E94761E89818F3F61F48A818F3F49F48B8111E08C
:203D40008F3F31F48C818F3F19F410E001C011E024E030E04CEF57E360E070E0CE01019667
:203D60000E94761E8981823151F48A81843339F48B81863521F48C81883709F477C080E0E0
:203D800080932D0178942FEF84E39CE0215080409040E1F700C0000080912D01882331F031
:203DA00080912C01811102C00E94801D13E001E085E0F82E91E1E92E8091B001813051F096
:203DC00008F451C08230E9F0833009F04AC00E94801D47C08FB7F894E0E0F0E0F999FECF8E
:203DE00007B600FCFDCF10935700E89507B600FCFDCFE058FF4FE11528E3F20779F78FBF04
:203E000030C04FB7F894F999FECF07B600FCFDCF80E090E0FC01E05DFE4F2081FC01EF5CFC
:203E2000FE4F5081E0912E01F0912F01E80FF91F30E0352B090100935700E8951124029656
:203E40008038910539F7E0912E01F0912F01F0925700E89507B600FCFDCFE0925700E89572
:203E60004FBF1092B00180912D01A6CF81E0111187CF85CFFB01DC0101900D920020E1F7FF
:0A3E80000895F894FFCF312E3100B1
:0400000500003800BF
:00000001FF
