:020000040000FA
:200000000C9410050C949D050C942D050C942D050C942D050C942D050C942D050C942D05FD
:200020000C942D050C942D050C942D050C942D050C942D050C942D050C942D050C942D0530
:200040000C942D050C942D050C942D050C942D050C942D050C942D050C942D050C942D0510
:200060000C942D050C942D05200C180C140C1C0C280C280C280C180C280C280C280C240CB8
:20008000200C33306238346662352D666438642D346364632D396164302D653938333966B8
:2000A000306338633031000008000000080000000400000004000000020000000100000096
:2000C00001000000020000008000000100000000400000020000000010000010000000201A
:2000E000000000004000000020000000200000100000000010000008000000000001000156
:200100000000000000080002000000040000000400000008000000000000000000000000C5
:200120000800000008000000040000000400000002000000010000000100000002000000A1
:2001400080000001000000004000000200000000100000100000000020000000400000203C
:2001600000000000200000100000000010000008000000000001000100000000000800022B
:2001800000000000000400040000000400000000000000000000000004000000040000004B
:2001A000020000000100000001000000020000008000000100000000400000020000000076
:2001C00010000010000000002000000040000000080000002000001000000000100000084F
:2001E0000000000000010001000000000008000400000004000000020000000800000000E3
:200200000000000000000000080000000800000004000000040000000200000001000000C3
:200220000100000002000000800000010000000040000002000000001000001000000000D8
:200240002000000040000020000000002000001000000000100000080000000000010001D4
:20026000000000000008000400000004000000020000000800000000000000000000000064
:20028000080000000800000004000000040000000200000001000000010000000200000040
:2002A0008000000100000000400000020000000010000010000000200000000040000010EB
:2002C0000000000020000000200000001000000800000000000100040000000000020002BD
:2002E0000000000800000001000000040000000000000000000000000800000008000000E1
:2003000004000000040000000200000001000000010000000200000080000001000000004E
:200320004000000200000000100000100000000020000000400000100000000020000020AB
:20034000000000001000000800000000000100040000000000020002000000080000000173
:20036000000000040000000000000000000000000800000008000000040000000400000061
:20038000020000000100000001000000020000008000000100000000400000020000000094
:2003A000100000100000002000000000400000100000000020000000200000001000000855
:2003C000000000000001000400000000000200020000000000040001000000000008000007
:2003E0000000000000000000080000000800000004000000040000000200000001000000E2
:200400000100000002000000800000010000000040000002000000001000001000000000F6
:200420002000000040000010000000002000002000000000100000080000000000010004EF
:2004400000000000000200020000000000040001000000000008000000000000000000404B
:20046000000000010000002000000002000000080000000800000010000000040000000035
:200480000400001000000000100000001000000020000000400000000200000020000001A5
:2004A00000000000080000004000000004000002000000000100000080000000020000006B
:2004C00000000000000000200000000100000040000000020000001000000004000000089D
:2004E000000000080000000004000010000000001000000010000000200000004000000060
:20050000020000002000000100000000080000004000000004000002000000000100000069
:200520008000000002000000000000000000001000000001000000400000000200000000E6
:2005400004000010000000001000000800000080000000004000000020000000400000044B
:200560000000000020000000020000002000000100000000080000004000000004000002EA
:20058000000000000100000080000000020000000800000010000028000000001000005038
:2005A000940000001000000000000003000000400000000100000020000000020000000031
:2005C0000400001000000000100000080000008000000000400000002000000040000004CB
:2005E00000000000200000000200000020000001000000000800000040000000040000026A
:20060000000000000100000080000000020000000800000010000018000000001000000017
:20062000000000030000001000000008000000400000000100000008000000040000002032
:20064000000000020000000004000010000000010000000008000000400000000400000235
:200660000000000001000000800000000200000020000000400000000200000020000080F5
:20068000000000001000000400000000100000001000000010000000000000000000001006
:2006A0000000000100000040000000020000000800000004000000200000000800000000C3
:2006C0000400001000000001000000000800000040000000040000020000000001000000B6
:2006E000800000000200000020000000100000000200000010000080000000004000000472
:20070000000000002000000010000000100000000000000300000000000000000000001086
:20072000000000010000004000000002000000080000000400000020000000080000000042
:20074000040000100000000100000000080000004000000004000002000000000100000035
:200760008000000002000000200000004000000002000000200000800000000010000004E1
:20078000000000001000000010000000100000000000000000000040000000010000008068
:2007A0000000000200000010000000100000002000000000100000080000000008000004D3
:2007C0000000000004000002000000000100000100000000020000000000000000000040CF
:2007E00000000002000000800000000100000010000000100000002000000000100000081E
:200800000000000008000004000000000400000200000000010000010000000002000000C2
:20082000000000000000008000000002000000400000000100000000800000040000000071
:200840004000000800000010000000100000002000000000100000002000000040000000A0
:2008600010000000200000080000000008000004000000000400000200000000010000012C
:20088000000000000200000000000000000000008000000100000080000000020000001043
:2008A000000000100000002000000008000000002000000040000000100000002000004030
:2008C0004000000010000008000000000800000400000000040000020000000001000001AC
:2008E000000000000200000000000000000000800000000100000040000000020000001023
:2009000000000010000000200000000800000000200000004000000010000000200000000F
:20092000C000000010000008000000000800000400000000040000020000000001000001CB
:2009400000000000020000000000000000000080000000010000000080000008000000008C
:20096000400000040000004000000002000000100000001000000020000000001000000899
:20098000000000000800000400000000040000020000000001000001000000000200000041
:2009A000200000004000000010000000200000000000000000000080000000020000000025
:2009C0008000000100000000400000040000004000000008000000100000001000000020CA
:2009E0000000000010000008000000000800000400000000040000020000000001000001CB
:200A0000000000000200000020000000400000001000000020000000000000000000000044
:200A200011241FBECFEFD4E0DEBFCDBF11E0A0E0B1E0E0EBFBE202C005900D92A23EB107D1
:200A4000D9F722E0A2EEB1E001C01D92AF3AB207E1F70E94C5110C94D6150C940000CF93B4
:200A6000DF93CDB7DEB72B970FB6F894DEBF0FBECDBFBE016F5F7F4F0E94000CCE01019673
:200A80000E942B0C2B960FB6F894DEBF0FBECDBFDF91CF9108950C94D9080C94FA078091D5
:200AA000E2019091E301892B69F40E94060F9093E3018093E201009729F0DC01ED91FC91F1
:200AC00080E009958091E2019091E3010895823050F19091E501913041F030F19F3F19F589
:200AE000F894E0E0FCE109941EC088E2E4EEF1E0DF011D928A95E9F71092E4011092E501A8
:200B00001092E6011092E7011092E80184E08093EC019093ED0161E571E08EEE91E00E949C
:200B20008F128EE0089580E008959091E401923511F40C9467050C944C0C1F921FB64F93CE
:200B40000F931F93EF93FF937F93AF93BF93A4EEB1E00027E8E4F6E049B14470440F440F47
:200B6000440F440F440F042B49B14470E9F31FE11A9521F049B14470D9F701C0099418E02F
:200B80001A95F1F749B14470440F440F440F440F042B49B14470E9F31FE11A9521F049B151
:200BA0004470D9F701C0099418E01A95F1F749B14470440F440F440F042B49B14470E9F364
:200BC0001FE11A9521F049B14470D9F701C0099418E01A95F1F749B14470440F440F042B67
:200BE00049B14470E9F31FE11A9521F049B14470D9F701C0099418E01A95F1F749B1447092
:200C0000440F042B49B14470E9F31FE11A9521F049B14470D9F701C0099418E01A95F1F79D
:200C200049B14470042B49B14470E9F31FE11A9521F049B14470D9F701C0099418E01A950A
:200C4000F1F749B144704695042B49B14470E9F31FE11A9521F049B14470D9F701C00994CE
:200C600018E01A95F1F749B1447046954695042B49B14470E9F30D931FE11A9521F049B16E
:200C80004470D9F701C0099415E01A95F1F761CF04EEA01B01F10F921F922F933F934F934F
:200CA0005F936F937F938F939F93AF93BF938A2F1124E5E9F5E00995082F1DD0BF91AF9163
:200CC0009F918F917F916F915F914F913F912F911F900F9000C041E0EDE1F2E04083E09A48
:200CE000BF91AF917F91FF91EF911F910F914F911FBE1F901895E4EEF1E0702F0DD008951F
:200D000000911C020F7F19F4ECE0F2E002C0E4E1F2E078E001D008953F937723F1F17723E4
:200D200049F17A95019110E8302F312379F40000529A4FE04A95F1F75298169581F30000D5
:200D400000000000000000000000EECF529A44E04A95F1F7000052984AE04A95F1F7000024
:200D600000001695E1F2000000000000000000000000DACF0000000000000000000000004C
:200D80000000000000000000000000000000529A46E04A95F1F7000052983F9108954CE1F6
:200DA00050E060E070E08AE592E00C947D158CE1EAE5F2E0DF011D928A95E9F788E0EAE092
:200DC000F1E0AAE5B2E001900D928A95E1F70C94CF064CE150E060E070E08AE592E00E9415
:200DE0006D1548E050E06AE071E08AE592E00E947B12009721F00E94D70681E090E00895D9
:200E00002BE0829FC0011124BC01625E7D4F4BE050E08A589D4F0E947B12089590E061158C
:200E2000710569F02BE0289FF001299FF00D1124EA58FD4FDB0101900D922A95E1F72BE0EA
:200E4000289FF001299FF00D1124DF01A25EBD4FEA58FD4F01900D922A95E1F708952BE0F7
:200E6000829FC0011124FC01EA58FD4F108208952BE0829FC0011124FC01EA58FD4F8081F3
:200E80000895082E000C990BAA0BBB0B8D339105A105B105FCF09C01AD012C533109410968
:200EA0005109AAE0B0E00E94361229E030E040E050E00E940A12DA01C901CC96A11DB11D1A
:200EC00089369105A105B10554F188E690E0A0E0B0E00895843C2FEF9207A207B207FCF4C8
:200EE0009C01AD01245C3F4F4F4F5F4FAAE0B0E00E94361229E030E040E050E00E940A1222
:200F0000DA01C901CC97A109B10988392FEF9207A207B20724F488E99FEFAFEFBFEF08958B
:200F2000CF93DF93DC01FB0117968C911797808318968C9118978068818311968C911197B7
:200F40008058828312968C911297805883839091260113968C9113978058913021F09091E5
:200F60002601923099F4282F207F14968C911497082E000C990B80589F4F34E0959587958D
:200F80003A95E1F7822B848385E007C0848314968C9114978058858386E0909126019430FF
:200FA00021F130912601682F70E015969C91159721E0280F313021F030912601333059F48A
:200FC000EF01C60FD71F9883E20FF11D16969C9190838E5F0AC0E60FF71F907F16968C91B6
:200FE00082958F70892B8083822FDF91CF91089580E00895CF93DF93EC018BE0FE01AFE24D
:20100000B2E001900D928A95E1F79881943009F467C028F4913041F09230C9F1C7C098303D
:20102000B1F19D3009F0C2C08885998586FF03C02FE137E01DC087FF03C02FE936E018C000
:2010400083FF03C02FEA35E013C084FF03C02FE235E00EC092FF03C027E236E009C085FF50
:2010600003C027EC34E004C094FFA0C02FE534E03093170120931601A0E0B0E080936E026F
:2010800090936F02A0937002B09371028BC089819A81AB81BC8187FF03C027EB39E013C041
:2010A00084FF03C02FE439E00EC097FF03C02FEE38E009C096FF03C02FE838E004C086FFC9
:2010C00075C027E238E030931901209318018093620290936302A0936402B093650262C0AD
:2010E0004B815C8150FF03C082E090E010C051FF05C010921301109212010DC053FF03C031
:2011000081E090E004C052FF12C083E090E0909313018093120160E070E04093720250932D
:20112000730260937402709375020E94CF068B819C8197FF03C027EE33E026C09C01207320
:2011400033272033310519F42FE732E01DC085FF03C02FE633E018C084FF03C027EF32E0E5
:2011600013C083FF03C027E032E00EC082FF03C027E931E009C081FF03C02FE131E004C01A
:2011800080FF14C027EA30E03093150120931401A0E0B0E080936A0290936B02A0936C027A
:2011A000B0936D02DF91CF910C94CF06DF91CF910895EF92FF920F931F93CF93DF93CDB70D
:2011C000DEB72F970FB6F894DEBF0FBECDBF8091400190914101A0914201B09143018C87AC
:2011E0009D87AE87BF878E01045F1F4F7E0180E1E80EF11C0E151F0581F1F80181918F01B9
:2012000089838230A9F048F4813011F580916E0290916F029A8789871BC08330B1F084305D
:20122000B9F480916A0290916B029D838C8310C08091620290916302A0916402B0916502BD
:201240008A839B83AC83BD8303C0809166028A83CE0101960E94FA07CDCF2F960FB6F894F0
:20126000DEBF0FBECDBFDF91CF911F910F91FF90EF900895CF92DF92EF92FF920F931F9375
:20128000CF93DF93CDB7DEB728970FB6F894DEBF0FBECDBF7C018B01C0901A01D0901B016B
:2012A00048E050E0B601CE0101960E94721249815A816B817C81411551056105710519F173
:2012C000F701818190E0A0E0B0E084239523A623B723481759076A077B0789F4F8014781A2
:2012E0005085618572858D819E81AF81B885842B952BA62BB72B87839087A187B287F8E026
:20130000CF0ED11CCDCF28960FB6F894DEBF0FBECDBFDF91CF911F910F91FF90EF90DF90C5
:20132000CF900895CF92DF92EF92FF920F931F93CF93DF93CDB7DEB728970FB6F894DEBFDF
:201340000FBECDBFFB01C0901801D0901901DC0111964D915D916D917C91149741155105A3
:201360006105710519F410922E0217C04232B0E35B076105710519F42CE93FEF07C041320C
:2013800050436105710549F424E630E030932D0220932C0221E020932E0220912E022111BD
:2013A00003C08F017C0124C080912C02838346C084239523A623B723481759076A077B077A
:2013C000A1F4D80117964D915D916D917C911A978D819E81AF81B885842B952BA62BB72BAE
:2013E000F80187839087A187B287F8E0CF0ED11C48E050E0B601CE0101960E94721249816B
:201400005A816B817C81F70181819281A381B481411551056105710559F695FF04C08EEFF6
:20142000D80115968C93F70181819281A381B48194FF04C08EEFD80116968C9328960FB6A8
:20144000F894DEBF0FBECDBFDF91CF911F910F91FF90EF90DF90CF900895CF92DF92EF921E
:20146000FF920F931F93CF93DF93CDB7DEB728970FB6F894DEBF0FBECDBF6C017B0100911A
:2014800014011091150148E050E0B801CE0101960E94721249815A816B817C8141155105A9
:2014A0006105710511F1F60183819481A0E0B0E084239523A623B723481759076A077B077A
:2014C00089F4F70147815085618572858D819E81AF81B885842B952BA62BB72B8783908740
:2014E000A187B287085F1F4FCECF87010E5F1F4F97012F5F3F4FF601428161818091120142
:201500000E940610F70187819085A185B285A0FF02C02FE72483A1FF03C021E8F701248378
:20152000A2FF03C021E8F7012383A3FF03C02FE7F701238396FF03C02EEFF701258395FFDE
:2015400003C08EEFF701868328960FB6F894DEBF0FBECDBFDF91CF911F910F91FF90EF9017
:20156000DF90CF900895082E000C990B861B910967FD9395803891052CF480382FEF920776
:2015800024F008958FE790E0089580E89FEF0895CF92DF92EF92FF920F931F93CF93DF9378
:2015A000CDB7DEB728970FB6F894DEBF0FBECDBFC0901601D0901701FC012085318521159F
:2015C000310519F410922B0213C02230F2E33F0719F42CE93FEF05C02115324B49F424E6AA
:2015E00030E030932A022093290221E020932B0220912B02211103C08B017C0127C0809159
:201600002902FB018383CAC0F70180859185A0E0B0E084239523A623B723481759076A07BE
:201620007B0789F4F80147815085618572858D819E81AF81B885842B952BA62BB72B878372
:201640009087A187B287F8E0CF0ED11C48E050E0B601CE0101960E94721249815A816B8144
:201660007C81411551056105710571F6DD80F7018181882379F160913102F70182810E9451
:20168000B30A0E944107F801818360913202F70183810E94B30A0E944107F801828360914D
:2016A0003302F70184810E94B30A0E944107F801838360913402F70185810E94B30A0E948A
:2016C0004107F8018483F7018681F8018583F70187813AC0F701828190913102891B880F3E
:2016E000880F0E944107F8018183F701838190913202891B880F880F0E944107F801828361
:20170000F701848190913302891B880F880F880F0E944107F8018383F701858190913402CF
:20172000891B880F880F880F0E944107F8018483F7018681880F880F880FF8018583F70199
:201740008781880F880F880FF8018683D0FE0CC0F80187819085A185B28596FF03C08EEFD8
:20176000858302C0F8011582D1FE0CC0F80187819085A185B28595FF03C08EEF868302C062
:20178000F8011682F8018581863F10F085EF8583F8018681863F10F085EF868328960FB6B3
:2017A000F894DEBF0FBECDBFDF91CF911F910F91FF90EF90DF90CF900895DC01FB01199686
:2017C0008C91199780FF09C047815085618572854160478350876187728781FF09C0478146
:2017E0005085618572854260478350876187728711968C911197818312968C91828308953C
:201800000F931F932BE0DB011D922A95E9F7DC01EC910E2F10E0F8013197ED30F105C0F430
:20182000EC5CFF4F0C9429121F910F910C943A091F910F910C9492091F910F910C942D0A52
:201840001F910F910C94C80A1F910F910C94DD0B1F910F910895CF93DF93EC0180911C0211
:20186000882341F06CE072E0CE010E94900710921C0208C064E172E0CE010E94900781E05E
:2018800080931C029F81888590931C01806880931D01DF91CF91089581E080934B02809152
:2018A000E4018134D1F028F4882349F0803421F140C08234B1F08F3FE1F510924A0280910D
:2018C000440190914501A09146018093E4019093E501A093E60183E008958AE0ECE1F1E0C1
:2018E00003C08AE0E7E4F1E0A4EEB1E001900D928A95E1F78AE008958091E50187708093CD
:2019000026018091E601817080934A0280911C02882321F088E0E4E1F2E003C088E0ECE077
:20192000F2E0A4EEB1E001900D928A95E1F788E0089580E0089580914A0208950C94D9080E
:2019400080914B02882319F010924B0281E00895109280008DE080938100089510928500A1
:201960001092840082E086BB089520914C0230914D0228173907B9F090934D0280934C02F7
:20198000109285001092840029E03DE3DC010E942F1228EE33E040E050E00E940A12309317
:2019A0008900209388000895B19B04C082E086BB81E0089580E0089514B88EEF85B9259AD2
:2019C0002D98249A2C9883E387B980EE88B981E08AB988EE8BB90895F8942C98EFE9F1E077
:2019E0003197F1F700C0000080FF02C02C9A01C02C988695EFE9F1E03197F1F700C00000B7
:201A000080FF02C02C9A01C02C988695EFE9F1E03197F1F700C0000080FF02C02C9A01C03E
:201A20002C988695EFE9F1E03197F1F700C0000080FF02C02C9A01C02C988695EFE9F1E05E
:201A40003197F1F700C0000080FF02C02C9A01C02C988695EFE9F1E03197F1F700C0000056
:201A600080FF02C02C9A01C02C988695EFE9F1E03197F1F700C0000080FF02C02C9A01C0DE
:201A80002C98EFE9F1E03197F1F700C00000869511F02C9A01C02C988FE991E00197F1F799
:201AA00000C000002C9AEFE9F1E03197F1F700C000002C9A8FE991E00197F1F700C0000098
:201AC000789480E090E00895249A2C9A87E291E09093AC028093AB020895E82FF0E0EE5AD2
:201AE000FD4F608308950F93CF93DF9300D000D01F92CDB7DEB7E82FF0E0EF5AFD4F10822C
:201B00001D8204E09E012F5F3F4F41E050E0BE016B5F7F4F0E94120F91E0833009F090E08F
:201B2000892F0F900F900F900F900F90DF91CF910F9108950F931F93CF93DF9300D000D0FD
:201B4000CDB7DEB7182F83E08093810280E88093820281E08093830240E250E060E870E04A
:201B600084E892E00E94881204E09E012F5F3F4F43E250E061E872E0812F0E94120F91E0D8
:201B8000813009F490E0892F81950F900F900F900F90DF91CF911F910F9108950F931F93CC
:201BA000CF93DF9300D000D0CDB7DEB7182F83E08093810280EC809382028BE18093830251
:201BC00081E090E0611102C080E090E040E250E0BC0184E892E00E94881280914F0204E0C1
:201BE0009E012F5F3F4F882319F044E050E002C043E250E061E872E0812F0E94120F282FA6
:201C000030E081E02130310509F480E081950F900F900F900F90DF91CF911F910F91089520
:201C2000CF92DF92EF92FF920F931F93CF93DF9300D000D0CDB7DEB7182F80914E0288238C
:201C400061F0809150028F5F982F947082FD03C0809350022BC0109250021092810203E089
:201C60009E012F5F3F4F41E050E061E872E0812F0E94120F212F30E0833031F0F901EF5AD3
:201C8000FD4F85E080833CC08B8180FF0AC0F901EF5AFD4F9081911102C095E0908381FF33
:201CA00004C0F901EF5AFD4F108291E080914E02811128C0C12ED12CC6018F5A9D4F7C01EE
:201CC000FC010081033009F446C0F8F4013009F44EC0023091F180914E02811157C081E009
:201CE0008093810204E09E012F5F3F4F41E050E061E872E0812F0E94120F843009F451C08E
:201D00008FEF75C09130B1F671C00430E9F0053011F7812F0E949A0D882341F0812F0E9406
:201D20009A0D8823C1F2F7011082D5CFF601EE5AFD4F80818823A9F021C061E0812F0E942C
:201D4000CE0D8111C8CF1EC060E0812F0E94CE0D8111C1CF0AC0F601EE5AFD4F808181112A
:201D6000BACF60E0812F0E94CE0D81E00CC0F601EE5AFD4F8081882309F4ADCF61E0812F9F
:201D80000E94CE0D83E0F7018083A5CF802F000F990BF701208130E08217930709F49FCF4B
:201DA00025C029813A813227232732279B814C815BE05C9DF0015D9DF00D1124EA58FD4F15
:201DC00080833483238391834283903811F481E881838BE08C9DF0018D9DF00D1124EA586D
:201DE000FD4F8281803811F481E8828380E00F900F900F900F90DF91CF911F910F91FF90DE
:201E0000EF90DF90CF9008950C94100E85E391E008958AB1807F8AB98BB1807F8BB9249AEA
:201E20002C9808950F931F93CF93DF93FB011FB781111AC0E901642FCF01F8940E94C30F8E
:201E4000602FCE010E949B0F1FBF92E0980F923058F090915302911108C0EFE3F1E031978C
:201E6000F1F700C0000001C080E0DF91CF911F910F9108950F931F93CF93DF9300D000D014
:201E80001F92CDB7DEB71D8204E09E012F5F3F4F41E050E0BE016B5F7F4F0E94120F882324
:201EA000C1F18330C9F509811A811027012710279B811F929F939A811F929F9399811F927C
:201EC0009F931F928F931F930F9385E591E09F938F930E9496120FB6F894DEBF0FBECDBFE9
:201EE000812F99278F7099278830910561F028F4059791F481E090E014C08930910579F07A
:201F00000B9769F009C00032184049F483E090E008C080E090E005C084E090E002C082E00E
:201F200090E00F900F900F900F900F90DF91CF911F910F910895AA27BB27E82FF92F22271E
:201F400041E088272395D9F03399FCCF0FC0522F2BE42395BAF03399FCCF321B441F08F099
:201F600005C0681749F08395419341E03BE4339542F0339BFCCFEBCF8FEF8A950895882386
:201F800009F08FEF0895E82FF92F6623F1F1662371F16A955191B0E8352F3B2399F40000D0
:201FA0003B9A44E14A95F1F700003B9842E04A95F1F7B69561F30000000000000000000005
:201FC0000000EACF3B9A44E04A95F1F7000000003B984DE04A95F1F700000000B695B9F2CB
:201FE000000000000000000000000000D5CF000000000000000000000000000000003B9A68
:2020000044E04A95F1F700003B9808950F931F93582F862F062E000C990BE42F042E000CA0
:20202000FF0B552319F05230A1F107C0AF0181386FEF96070CF44DC048C0562F67FF02C014
:2020400053E0560F55955595850F911D57FD9A9567FD695F659565956595860F911D67FD8E
:202060009A95542F47FF02C053E0540F55955595BF01650F711D57FD7A9547FD495F459551
:2020800045954595FB01E40FF11D47FDFA95AF0110C067FD6F5F6595860F911D67FD9A953A
:2020A00047FD4F5F4595BF01640F711D47FD7A95AB01803891053CF481387FEF97072CF431
:2020C00081E89FEF02C08FE790E04038510554F402C081E89FEF4138EFEF5E072CF441E88D
:2020E0005FEF02C04FE750E0F9018083F80140831F910F9108950E94A00C0E94A00C88237D
:20210000E1F30E94D40C882331F0809158028F5F8093580205C0809159028F5F809359024A
:2021200020915802909159022E3110F49E3150F081E0291708F080E0809357021092580245
:20214000109259020E94AE0C80915702882341F081E080934F0280934E028093530215C07B
:2021600010924F0210924E02109253028FED9EE20197F1F700C000000E94A00C882329F035
:20218000809159028F5F8093590283EF91E00197F1F700C0000008950F931F93CF93DF938F
:2021A000EC018B01CF3F8FEFD80729F41092560287E791E058C080915602823079F18330F5
:2021C000C9F1813091F0CD2B59F081E080935602109255021092540285E891E00E94AC12D7
:2021E000D801ED91FC91099540C0809154029091550201969093550280935402813A9105B3
:2022000030F082E08093560283E991E02CC0CD2B71F5109256028BE991E025C0CD2B29F5D0
:2022200083E080935602109255021092540287EA91E019C08091540290915502019690938B
:20224000550280935402813A910530F0109256028BE991E00E94AC12CD2B39F082E0809378
:2022600056028FEB91E00E94AC1280E001C081E0DF91CF911F910F910895CF93DF93CDB724
:20228000DEB72B970FB6F894DEBF0FBECDBF8C0186E090E00E94B50CD801ED91FC91099558
:2022A0007C01D12C5801B4E0AB0EB11CE114F10461F0F701868097808114910431F00E94F4
:2022C0009B0C682F80E0F4010995F1E0DF1689F00E947B10D7011896ED91FC91199780E0C0
:2022E000099581114DC0B50180E090E00E94CC1020C00E947B10D7011296ED91FC9113975B
:2023000080E0099581113FC0B50181E090E00E94CC10882371F0BE016F5F7F4F80E00E94C0
:202320000E07D8011296ED91FC911397CE010196099580E00E940007882309F4B7CFBE0158
:202340006F5F7F4F80E00E940E07D8011896ED91FC911997309759F0CE01019609958823C9
:2023600031F01092560287E791E00E94AC12D8011696ED91FC911797CE010196099596CF5C
:20238000DD24D394D6CFD12CD4CFCF93DF93CDB7DEB72B970FB6F894DEBF0FBECDBF8E010B
:2023A0000F5F1F4F8BE0F80111928A95E9F70FB6F894A8958091600088618093600010923E
:2023C00060000FBE0E94DC0C0E94640D82E08093690081E08DBB0E94E9060E94A80C0E9423
:2023E0009E0CC8010E942B0C85E02C9AEFE8F1E03197F1F700C000002C98EFECF7E0319710
:20240000F1F700C00000815081F7789480E091E00E943D11052E97FB1EF400940E942112BE
:2024200057FD07D00E94411207FC03D04EF40C94211250954095309521953F4F4F4F5F4F82
:20244000089590958095709561957F4F8F4F9F4F0895EE0FFF1F0590F491E02D09940E94F2
:202460006312B7FF0895821B930B08950E946312A59F900DB49F900DA49F800D911D112421
:202480000895A1E21A2EAA1BBB1BFD010DC0AA1FBB1FEE1FFF1FA217B307E407F50720F036
:2024A000A21BB30BE40BF50B661F771F881F991F1A9469F760957095809590959B01AC01AD
:2024C000BD01CF010895A29FB001B39FC001A39F700D811D1124911DB29F700D811D1124EB
:2024E000911D0895FB01DC0102C005900D9241505040D8F70895FB01DC0104C08D910190E9
:20250000801921F441505040C8F7881B990B0895DC0101C06D9341505040E0F70895FB011A
:20252000DC0101900D920020E1F70895A0E0B0E0ECE9F2E10C94AF15AE014B5F5F4FFA01DB
:2025400061917191AF018091AB029091AC020E94DC12E2E00C94CB150F931F93CF93DF9350
:20256000E091AB02F091AC02238121FF1BC08C01D0E0C0E0F80181918F016091AB02709158
:20258000AC02DB011896ED91FC911997882331F00995892B79F3DFEFCFEFECCF8AE009956F
:2025A000892B19F08FEF9FEF02C08D2F9C2FDF91CF911F910F910895ABE0B0E0E2EEF2E18E
:2025C0000C949F156C017B018A01FC0117821682838181FFCCC1CE0101963C01F601938146
:2025E000F70193FD859193FF81917F01882309F4BAC1853239F493FD859193FF81917F0148
:20260000853229F4B60190E00E94D314E7CF912C212C312CFFE1F315D8F08B3279F038F417
:20262000803279F08332A1F4232D20611DC08D3261F0803369F4232D216016C0832D82602E
:20264000382EE32DE4603E2E2AC0F32DF8601DC037FC2DC020ED280F2A3040F08E32B9F4BA
:2026600036FC81C1232D2064322E19C036FE06C08AE0989E200D1124922E11C0EAE02E9EB6
:20268000200D1124222EF32DF0623F2E08C08C3621F4832D8068382E02C0883641F4F7015F
:2026A00093FD859193FF81917F018111B3CF982F9F7D9554933028F40C5F1F4F9FE399831A
:2026C0000DC0833631F0833771F0833509F059C021C0F801808189830E5F1F4F88248394E9
:2026E000912C530113C02801F2E04F0E511CF801A080B18036FE03C0692D70E002C06FEFEA
:202700007FEFC5010E94C8144C018201F32DFF773F2E16C0280122E0420E511CF801A0805D
:20272000B18036FE03C0692D70E002C06FEF7FEFC5010E94BD144C01F32DF0683F2E82010F
:2027400033FC1BC0822D90E088169906B0F4B60180E290E00E94D3142A94F4CFF50137FCB3
:20276000859137FE81915F01B60190E00E94D31421102A9421E0821A91088114910471F735
:20278000E8C0843611F0893641F5F80137FE07C060817181828193810C5F1F4F08C0608180
:2027A0007181072E000C880B990B0E5F1F4FF32DFF763F2E97FF09C090958095709561953E
:2027C0007F4F8F4F9F4FF0683F2E2AE030E0A3010E940F15882E861845C0853731F4232D8C
:2027E0002F7EB22E2AE030E025C0932D997FB92E8F36C1F018F4883579F0B5C0803719F0B1
:20280000883721F0B0C0E92FE061BE2EB4FE0DC0FB2DF460BF2E09C034FE0AC0292F2660A8
:20282000B22E06C028E030E005C020E130E002C020E132E0F801B7FE07C0608171818281E4
:2028400093810C5F1F4F06C06081718180E090E00E5F1F4FA3010E940F15882E8618FB2D61
:20286000FF773F2E36FE0DC0232D2E7FA22E891458F434FE0BC032FC09C0832D8E7EA82E38
:2028800005C0B82CA32C03C0B82C01C0B92CA4FE0FC0FE01E80DF11D8081803321F49A2D70
:2028A000997EA92E09C0A2FE06C0B394B39404C08A2D867809F0B394A3FC11C0A0FE06C0E0
:2028C000B21488F4280C922C9B180EC0B21460F4B60180E290E00E94D314B394F7CFB21444
:2028E00018F42B1802C0982C212CA4FE10C0B60180E390E00E94D314A2FE17C0A1FC03C05A
:2029000088E790E002C088E590E0B6010CC08A2D867859F0A1FE02C08BE201C080E2A7FC24
:202920008DE2B60190E00E94D314891438F4B60180E390E00E94D3149A94F7CF8A94F30196
:20294000E80DF11D8081B60190E00E94D3148110F5CF222009F442CEB60180E290E00E94F4
:20296000D3142A94F6CFF6018681978102C08FEF9FEF2B96E2E10C94BB15FC0105906150D2
:2029800070400110D8F7809590958E0F9F1F0895FC016150704001900110D8F7809590956C
:2029A0008E0F9F1F08950F931F93CF93DF93FB01238121FD03C08FEF9FEF2CC022FF16C087
:2029C00046815781248135814217530744F4A081B1819D012F5F3F4F318320838C932681E8
:2029E00037812F5F3F4F3783268314C08B01EC01FB010084F185E02D0995892BE1F6D8014E
:202A000016968D919C911797019617969C938E931697CE01DF91CF911F910F910895FA0149
:202A2000AA27283051F1203181F1E8946F936E7F6E5F7F4F8F4F9F4FAF4FB1E03ED0B4E065
:202A40003CD0670F781F891F9A1FA11D680F791F8A1F911DA11D6A0F711D811D911DA11D09
:202A600020D009F468943F912AE0269F11243019305D3193DEF6CF010895462F4770405DF5
:202A80004193B3E00FD0C9F7F6CF462F4F70405D4A3318F0495D31FD4052419302D0A9F769
:202AA000EACFB4E0A6959795879577956795BA95C9F700976105710508959B01AC010A2E9E
:202AC00006945795479537952795BA95C9F7620F731F841F951FA01D0895DC01CB01FC01A3
:202AE000F999FECF06C0F2BDE1BDF89A319600B40D9241505040B8F70895DC01A40FB51FE7
:202B00004150504048F0CB01840F951F2E910E948E1541505040D0F70895262FF999FECF0C
:202B200092BD81BDF89A019700B4021639F01FBA20BD0FB6F894FA9AF99A0FBE08952F9290
:202B40003F924F925F926F927F928F929F92AF92BF92CF92DF92EF92FF920F931F93CF9342
:202B6000DF93CDB7DEB7CA1BDB0B0FB6F894DEBF0FBECDBF09942A88398848885F846E8403
:202B80007D848C849B84AA84B984C884DF80EE80FD800C811B81AA81B981CE0FD11D0FB6E6
:202BA000F894DEBF0FBECDBFED010895F894FFCF4F054D054B052F050000583247435769B0
:202BC00069320100E7031F07B709DF0700808080808080800000030000000200000000EC32
:202BE0000C00000000040F100E00006D0D730D0102030401090003008082827C88242400B7
:202C000001322E350049643A20253034782020202825643A20253032782025303278202548
:202C2000303278290D0A00466F7263656420616273656E74004E65776C792070726573653C
:202C40006E740050726573656E74004E6F742070726573656E74004E6F74207072657365EF
:202C60006E74202D206465626F7563696E670050726573656E7420616761696E20284C6F51
:122C80006F736520636F6E6E656374696F6E3F29000043
:0437FC0012345678B5
:203800000C94341C0C94531C0C94511C0C94511C0C94511C0C94511C0C94511C0C94511C5B
:203820000C94511C0C94511C0C94511C0C94511C0C94511C0C94511C0C94511C0C94511C20
:203840000C94511C0C94511C0C94511C0C94511C0C94511C0C94511C0C94511C0C94511C00
:203860000C94511C0C94511C11241FBECFEFD4E0DEBFCDBF11E0A0E0B1E0E6E8FEE302C00E
:2038800005900D92A430B107D9F721E0A4E0B1E001C01D92A13BB207E1F70E947F1E0C94C6
:2038A000411F0C94001C1F921FB64F930F931F93EF93FF937F93AF93BF93A4E0B1E000273A
:2038C000EEEFFCE149B14470440F440F440F440F440F042B49B14470E9F31AE01A9521F06E
:2038E00049B14470D9F701C0099416E01A95F1F749B14470440F440F440F440F042B49B13C
:203900004470E9F31AE01A9521F049B14470D9F701C0099416E01A95F1F749B14470440FF3
:20392000440F440F042B49B14470E9F31AE01A9521F049B14470D9F701C0099416E01A95ED
:20394000F1F749B14470440F440F042B49B14470E9F31AE01A9521F049B14470D9F701C079
:20396000099416E01A95F1F749B14470440F042B49B14470E9F31AE01A9521F049B14470FB
:20398000D9F701C0099416E01A95F1F749B14470042B49B14470E9F31AE01A9521F049B151
:2039A0004470D9F701C0099416E01A95F1F749B144704695042B49B14470E9F31AE01A95AD
:2039C00021F049B14470D9F701C0099416E01A95F1F749B1447046954695042B49B144702C
:2039E000E9F30D931AE01A9521F049B14470D9F701C0099415E01A95F1F761CF04E0A01B5A
:203A000011F10F921F922F933F934F935F936F937F938F939F93AF93BF93FF938A2F11246E
:203A2000E8E8FDE10995082FFF91BF91AF919F918F917F916F915F914F913F912F911F9074
:203A40000F900DD000C0E09ABF91AF917F91FF91EF911F910F914F911FBE1F901895E4E0D3
:203A6000F1E0702F01D008953F937723D9F1772359F17A95019110E8302F312381F400008D
:203A8000529A4FE04A95F1F700005298169579F3000000000000000000000000EDCF529A9B
:203AA00044E04A95F1F70000000052984AE04A95F1F7000000001695D1F2000000000000D2
:203AC000000000000000D8CF00000000000000000000000000000000529A44E04A95F1F768
:203AE000000052983F91089514B88EEF85B980E387B987EE88B981E08AB988EE8BB9089594
:203B0000F89481E085BF15BEE0E0F0E009940895CF93DF938130D9F480910401813071F05D
:203B200018F08F3F09F0DEC085E0809304011092050182E08093060183E0D5C010920401D8
:203B4000109205011092060110920701A7C0823008F4C8C090910401923509F0C3C0909143
:203B60000501913F09F43EC038F49130B9F008F4BAC0903F79F1B6C0993F09F498C020F478
:203B8000923F09F446C0AEC09E3F09F499C09F3F09F0A8C081E080932C01A1C088E2E4E041
:203BA000F1E0DF011D928A95E9F79093040180E88093050188E3809306011092070184E06A
:203BC00080930C0160E071E08EE091E00E943A1F8EE089C08091B001811176C081E08093A5
:203BE000B0017DC0809106014091070150E0582B60E070E0E5E0440F551F661F771FEA957D
:203C0000D1F720E230E084E091E00E94761E80E26AC020910601809107019091B0019111EE
:203C200053C090E0922BEC01C370DD27DE0125E0AA0FBB1F2A95E1F7A05DBE4F20E2E8E03E
:203C4000F1E001900D922A95E1F7AC0160E070E032E076956795579547953A95D1F7509334
:203C60002F0140932E0120912E0130912F013695322F22273795279530932F0120932E016F
:203C800010920401239761F421E020930501909306018093070182E08093B00184E023C002
:203CA000109205019093060180930701F7CF9091B00181E0911101C080E0809304010DC076
:203CC0008091B001882321F081E0809304010BC01092040183E08093B00181E004C010928D
:203CE000040101C080E0DF91CF910895FA01DC0102C005900D9221503040D8F70895CF93B4
:203D0000DF9300D000D0CDB7DEB70E94741D81E085BF92E095BF909369008DBBF89424E076
:203D200030E040E050E0BA01CE0101960E94761E89818F3F61F48A818F3F49F48B8111E08C
:203D40008F3F31F48C818F3F19F410E001C011E024E030E04CEF57E360E070E0CE01019667
:203D60000E94761E8981823151F48A81843339F48B81863521F48C81883709F477C080E0E0
:203D800080932D0178942FEF84E39CE0215080409040E1F700C0000080912D01882331F031
:203DA00080912C01811102C00E94801D13E001E085E0F82E91E1E92E8091B001813051F096
:203DC00008F451C08230E9F0833009F04AC00E94801D47C08FB7F894E0E0F0E0F999FECF8E
:203DE00007B600FCFDCF10935700E89507B600FCFDCFE058FF4FE11528E3F20779F78FBF04
:203E000030C04FB7F894F999FECF07B600FCFDCF80E090E0FC01E05DFE4F2081FC01EF5CFC
:203E2000FE4F5081E0912E01F0912F01E80FF91F30E0352B090100935700E8951124029656
:203E40008038910539F7E0912E01F0912F01F0925700E89507B600FCFDCFE0925700E89572
:203E60004FBF1092B00180912D01A6CF81E0111187CF85CFFB01DC0101900D920020E1F7FF
:0A3E80000895F894FFCF312E3100B1
:0400000500003800BF
:00000001FF
