:100000000C94E1030C94FE030C94FE030C94FE0389
:100010000C94FE030C94FE030C94FE030C94FE035C
:100020000C94FE030C94FE030C94FE030C943B0D05
:100030000C94A20D0C94FE030C94FE030C94FE038E
:100040000C94FE030C94FE030C94FE030C94FE032C
:100050000C94FE030C94FE030C94FE030C94FE031C
:100060000C94FE030C94FE030C94FE030C94FE030C
:100070000C94FE0346616D69636F6D206B65796258
:100080006F61726420746F205553422076322E3097
:100090000046616D69636F6D20746F205553422077
:1000A00076322E300046616D69636F6D20746F206B
:1000B0005553422076322E300009023B00020100E7
:1000C000801909040000010300000009210101005A
:1000D0000122170007058103100001090401000136
:1000E000030000000921010100012215000705821B
:1000F00003400001090254000301008019090400B3
:10010000000103000000092101010001223600075F
:10011000058103100001090401000103000000092A
:1001200021010100012236000705820310000109A8
:100130000402000103000000092101010001221551
:10014000000705830340000109023B000201008013
:100150001909040000010300000009210101000148
:100160002236000705810310000109040100010384
:10017000000000092101010001221500070582038A
:100180004000010600FF0901A101150026FF0075CE
:1001900008953F0901B100C005010906A101050745
:1001A00095037508150025E7190029E78100C005AA
:1001B000010902A1010901A100850105091901290F
:1001C00004150025019504750181029501750481CE
:1001D000030501093009311581257F7508950281D4
:1001E000061581257F350045000938750895018180
:1001F00006C0C005010904A1010901A1008501058E
:100200000175109502150026007D09300931810223
:10021000C0A10005091500250175019520190129C6
:1002200020750195208102C0C0400000000100003F
:100230000080000000020000002000000004000018
:100240000010000000080000000080000000010015
:100250000000400000000200000020000000040038
:10026000000010000000080000000800000010005E
:100270000000040000002000000002000000400018
:10028000000001000000800000000080000000016C
:1002900000000040000000020000002000000004F8
:1002A000000000100000000800000008000000101E
:1002B00000000004000000200000000100000040D9
:1002C0000008000000000000100400000000000012
:1002D00020020000000000004001000000000000BB
:1002E000800000000000000000400000000100004D
:1002F0000080000000020000002000000004000058
:100300000010000000080000000080000000010054
:100310000000400000000200000020000000040077
:10032000000010000000080000000800000010009D
:100330000000040000002000000002000000400057
:1003400000000100000080000000008000000001AB
:100350000000004000000002000000200000000437
:10036000000000100000000800000008000000105D
:100370000000000400000020000000010000004018
:10038000000000000000000000400000000100002C
:1003900000800000000200000020000000040000B7
:1003A00000100000000800000000800000100000A5
:1003B000000040000020000000002000004000007D
:1003C000000010000080000000000080000001001C
:1003D00000000040000002000000002000000400B7
:1003E00000000010000008000000000800001000DD
:1003F0000000000400002000000000020000400097
:1004000000000001000080000000000080000001EA
:100410000000000040000002000000002000000476
:10042000000000001000000800000000080000109C
:100430000000000004000020000000000100004057
:100440000008000000000000100400000000000090
:100450002002000000000000400100000000000039
:1004600080000000000000000040000000010000CB
:1004700000800000000200000020000000040000D6
:1004800000100000000800000000800000100000C4
:10049000000040000020000000002000004000009C
:1004A000000010000080000000000080000001003B
:1004B00000000040000002000000002000000400D6
:1004C00000000010000008000000000800001000FC
:1004D00000000004000020000000000200004000B6
:1004E000000000010000800000000000800000010A
:1004F0000000000040000002000000002000000496
:1005000000000000100000080000000008000010BB
:100510000000000004000020000000000100004076
:10052000000000000000000000616637376534629B
:10053000622D326136352D343963612D39303632D2
:100540002D3730373665346333383962300001086F
:100550000800000004080400000003080200000076
:10056000020801000000010010000000050020004A
:1005700000000007400000000006800000000702A5
:100580000080000006070040000007070020000070
:10059000070600100000070500080000060500041B
:1005A0000000070400020000060400010000070329
:1005B0000000800006030000400001070000010069
:1005C000050500000400000000000000736872745C
:1005D0000A00556E68616E646C6564206869642009
:1005E000676574207265706F727420747970653DF0
:1005F0003078253032782C2072713D3078253032B9
:10060000782C207756616C3D3078253034782C205A
:10061000774C656E3D3078253034780D0A0047659B
:100620007420696E707574207265706F7274202505
:1006300064203F3F0D0A00476574206A6F7920727D
:1006400065706F72740D0A000D0A00253032582053
:1006500000556E68616E646C656420636F6E7472C1
:100660006F6C207772697465205B25645D203A2089
:1006700000743A20253032782C2072713A2030787C
:10068000253032782C2076616C3A20253034780D74
:100690000A00556E6B6E6F776E20737472696E67A9
:1006A0002069640D0A00556E68616E646C65642093
:1006B000636C617373206252657175657374203069
:1006C00078253032780A004346472045502066613D
:1006D000696C0D0A00496E76616C69642065702052
:1006E00073697A650D0A0007022706071E07071FB0
:1006F0000706200705210605220704230604240710
:10070000032506032600073A00063B00053C0004CB
:100710003D00033E00023F0001400000410306048B
:100720000404050505060305070606080405090275
:10073000040A03040B01030C03030D03020E02025F
:100740000F0403100503110102120602130207141D
:100750000205150206160105170203180504190102
:10076000061A04061B01041C05061D0100280200D0
:10077000300300310400880500E506008907002ADF
:1007800001012F02013403013304018705013806FA
:10079000012D07012E040237050236010729030740
:1007A000E00407E10507E200084A01085202084F89
:1007B00003085004085105082C06084C070849FF97
:1007C000FF0011241FBECFEFD4E0DEBFCDBF12E08B
:1007D000A0E0B1E0E6EFF1E302C005900D92A43095
:1007E000B107D9F723E0A4E0B2E001C01D92A13C1B
:1007F000B207E1F70E94A1130C94F9180C940000C1
:100800008FEF85B990E894B994E498B998EB97B9CB
:100810008BB91AB821E030E080E80FB6F8948093E5
:100820006100209361000FBE109264001092650079
:100830000FB6F894A895809160008861809360005D
:10084000109260000FBE089580931202089521E077
:10085000FC01208320E1218382E00895FC011082C5
:1008600023E1218382E008950C942A0C0C94D90B87
:100870001F93CF93DF93182F0E94C60AEC01E885DF
:10088000F985812F0995882311F0CE0102C080E0FF
:1008900090E0DF91CF911F910895A6E9B3E0E4E0E5
:1008A000F2E08D9190E08193919382E0E031F8073E
:1008B000C1F7109211021092100284E092E090931E
:1008C00076018093750108958F929F92AF92BF92A7
:1008D000CF92DF92EF92FF920F931F93C12CD12CF6
:1008E0007601FC010591159125913491FC01349616
:1008F00085909590A590B4900115110521053105BD
:1009000099F081149104A104B10471F0042315231A
:1009100026233723012B022B032B21F0C828D928AB
:10092000EA28FB280896DDCFC701B6011F910F9179
:10093000FF90EF90DF90CF90BF90AF909F908F90FF
:1009400008958B3269F028F48A3289F489E694E0BC
:100950000CC08C3241F08D3251F489E292E005C036
:1009600089E893E002C089EE92E00C94640460E0B0
:1009700070E0CB01089560E070E0CB01089580E065
:1009800008950F931F93CF93DF9300D000D000D032
:10099000CDB7DEB786E0EEE8F1E0DE01119601901A
:1009A0000D928A95E1F786E0FE013196A6E9B3E063
:1009B00001900D928A95E1F704E913E085E0F801D2
:1009C000818782870E94BF04F80180870E94BB0450
:1009D000F801638774878587968726960FB6F89403
:1009E000DEBF0FBECDBFDF91CF911F910F91089554
:1009F0000F931F93CF93DF93282FDB018031B1F04A
:100A000068F4882381F0813079F586E0E6E9F3E047
:100A100001900D928A95E1F786E058C0813159F036
:100A2000833361F021C080919C0302C080919D03BB
:100A30008C9381E04BC080919E03FACF00919F037D
:100A40001091A0032091A1033091A203B901A80144
:100A500089E076956795579547958A95D1F74170C6
:100A600012FD42604C93E5CF30E0E32FF0E0CF0180
:100A700065E070E00E9412158C569E4FEC01888153
:100A8000882321F1281320C0CF0165E070E00E9487
:100A900012158C569E4FEC0109811A812B813C81E5
:100AA00040919F035091A0036091A1037091A20314
:100AB000402351236223732381E0452B462B472B90
:100AC00009F0B6CF80E0B4CF3F5FCFCFDF91CF91B9
:100AD0001F910F9108950F931F93CF93DF9361158B
:100AE000710509F4A0C0FB01282F8031C9F078F40A
:100AF000882391F0813009F046C086E0A6E9B3E092
:100B000001900D928A95E1F70E94490B88C08131CE
:100B100059F0833369F037C0808180939C037FC094
:100B2000808180939D037BC0808180939E0377C0EA
:100B30002081233008F022E080919F039091A00350
:100B4000A091A103B091A203997F20FD92608093B0
:100B50009F039093A003A093A103B093A20321FF4E
:100B60005EC080919F039091A003A091A103B091DA
:100B7000A203946080939F039093A003A093A1038A
:100B8000B093A2034CC030E0A32FB0E0CD0165E0EC
:100B900070E00E9412158C569E4FEC0188818823CC
:100BA00009F442C0281339C0808100919F0310913D
:100BB000A0032091A1033091A203882389F0CD01E5
:100BC00065E070E00E9412158C569E4FEC01898101
:100BD0009A81AB81BC81082B192B2A2B3B2B14C08B
:100BE000CD0165E070E00E9412158C569E4FFC010D
:100BF00081819281A381B48180959095A095B095D3
:100C0000082319232A233B2300939F031093A00357
:100C10002093A1033093A20302C03F5FB5CF0E948F
:100C2000490B81E001C080E0DF91CF911F910F91CE
:100C300008950F931F93CF93DF9300D000D0CDB7CB
:100C4000DEB7FC018B011C821B821A821982809103
:100C50009F0380FF15C08DE24081518162817381C5
:100C60000E94A104F80165837683878390870F90A3
:100C70000F900F900F90DF91CF911F910F910895DA
:100C8000908193FF04C020E831EC3A83298392FFDE
:100C900004C020E83EE33A83298391FF04C020E8A2
:100CA00031EC3C832B8390FF04C080E89EE39C835F
:100CB0008B834B815C814058514C5C834B832981F1
:100CC0003A812058314C3A832983D80111964C93AC
:100CD00011978C8112968C93129713962C931397DD
:100CE0008A8114968C938CE2B7CF8F929F92AF92A9
:100CF000BF92EF92FF920F931F93CF93DF93CDB7E5
:100D0000DEB727970FB6F894DEBF0FBECDBFDC016C
:100D1000FA01608390E891838EE3828393838483D6
:100D20001582168217821086109709F4E5C09C91EF
:100D3000993061F18A019A3028F4923061F098304C
:100D400051F0DAC0913209F46CC09232D9F090328D
:100D500009F0D2C017C01F821E821A8219828091A8
:100D60009F0380FF99C08BE211964D915D916D912B
:100D70007C9114970E94A104F80165837683878390
:100D80009087BAC0B801CD01019683C013968C91AB
:100D9000139787FF06C08F7790E091958195910911
:100DA00001C090E09F838E8314968C91149787FFE7
:100DB00006C08F7790E091958195910901C090E0F0
:100DC0009A83898389819A816DE770E00E94121568
:100DD0009C018E819F816DE770E00E941215805802
:100DE000914C9F838E832058314C3A832983818391
:100DF0008F81828323838A81848311962D913C91F4
:100E00001297C90136E0969587953A95E1F7A0E0EB
:100E1000B0E081709927AA27BB2727FD82608583D0
:100E20006BC09E012F5F3F4F85E0F90111928A95BB
:100E3000E9F74A815B816C817D812EE435E0F9011F
:100E4000E590F490F901329685909590A590B49034
:100E5000E114F104B9F0EF2DFF27EA0FFB1F8181A8
:100E600090E0FFE0EF22FF2402C095958795EA9479
:100E7000E2F780FF04C0482959296A297B292A5FA3
:100E80003F4FDDCF4A835B836C837D83B801CE0106
:100E900002960E94190630C011969C91119793FFFB
:100EA00004C020E831EC3A83298392FF04C020E893
:100EB0003EE33A83298391FF04C020E831EC3F836D
:100EC0002E8390FF04C080E89EE39F838E832E8153
:100ED0003F812058314C3F832E8389819A818058ED
:100EE000914C9A838983F80121839F819283838324
:100EF0008A8184838AE238CF27960FB6F894DEBFC2
:100F00000FBECDBFDF91CF911F910F91FF90EF905A
:100F1000BF90AF909F908F9008953F924F925F92B5
:100F20006F927F928F929F92AF92BF92CF92DF92F9
:100F3000EF92FF920F931F93CF93DF9300D000D0D7
:100F400000D0CDB7DEB78C015E834D83FA0160839C
:100F50001182128213821482009709F469C1FC0184
:100F60008081893009F441C128F4823051F0883001
:100F700041F05EC1803209F4C5C0823209F4C2C0BA
:100F800057C1F801418152816381748146FF03C0DA
:100F900020E031E002C020E430E056FF02C028E14A
:100FA00030E043FF05C0EE27FF27E21BF30B02C032
:100FB000E0E0F0E042FF02C0E20FF31F41FF05C096
:100FC00088279927821B930B02C080E090E040FFA6
:100FD00002C0820F931F55FF06C0A0E88A2E912CF5
:100FE000A12CB12C03C0812C912C540154FF05C0BD
:100FF00020E8821A9108A108B108C0905702D09049
:101000005802C80ED91EE0905502F0905602EE0E1E
:10101000FF1E409051025090520260905302709017
:101020005402480C591C6A1C7B1C4601D7FE03C0A5
:101030008FE0880E911CF40134E0F595E7953A9520
:10104000E1F7FA83E9835701F7FE03C0FFE0AF0E33
:10105000B11CC50124E0959587952A95E1F79C83FD
:101060008B83C301B20120E031E040E050E00E94F8
:101070002315322E252F89819A8160EF7FEF0E9400
:1010800012158C0D9D1D90935802809357028B81F1
:101090009C8160EF7FEF0E9412158E0D9F1D909333
:1010A000560280935502632D732F842F922F20E0D8
:1010B0003FEF4FEF5FEF0E94421549015A01480C84
:1010C000591C6A1C7B1C4092510250925202609241
:1010D0005302709254022981ED81FE8122838B811B
:1010E00083833482F801818187FF04C081E0ED8130
:1010F000FE818183F80181819281A381B48197FF70
:1011000062C05CC0F801418143FF03C020EC3FEFA7
:1011100002C020E030E042FF02C0205C3F4F41FFB0
:1011200003C080EC9FEF02C080E090E040FF02C06F
:10113000805C9F4FE0914F02F0915002E80FF91F41
:1011400080914D0290914E02280F391FAF01F7FF99
:1011500002C0415F5F4F94E0559547959A95E1F73E
:10116000D90137FD1F9684E0B595A7958A95E1F7DB
:10117000CA0160EF7FEF0E9412158E0F9F1F9093A0
:10118000500280934F02CD0160EF7FEF0E94121555
:10119000820F931F90934E0280934D02ED81FE814A
:1011A0004283A383F801818186FF04C081E0ED8141
:1011B000FE818183F801818187FF05C0ED81FE8179
:1011C000818182608183F801818184FF05C0ED8186
:1011D000FE81818184608183F801818185FF28C03F
:1011E000ED81FE818181886022C0F801838187FFC3
:1011F00002C08F778195ED81FE818283F801848121
:1012000087FF02C08F778195ED81FE818383F8018E
:10121000818186FF04C081E0ED81FE818183F80138
:10122000818187FF05C0ED81FE818181826081839C
:1012300026960FB6F894DEBF0FBECDBFDF91CF91DB
:101240001F910F91FF90EF90DF90CF90BF90AF90E4
:101250009F908F907F906F905F904F903F900895F8
:101260004F925F926F927F928F929F92AF92BF92B6
:10127000CF92DF92EF92FF920F931F93CF93DF9362
:10128000EA01188219821A82009709F43FC0FC0112
:1012900020812132D9F57C01612C712C00E010E015
:1012A000962C8824C12CD12CA60148295929A52E79
:1012B000B12CF701EA0DFB1D218130E0CA018F70CE
:1012C000992702C0359527958A95E2F720FF10C02F
:1012D0002801FFEF4F1A5F0A0C0F1D1FCA010E9461
:1012E0008C13F8018083F3E04F1651047CF48201E3
:1012F0008FEFC81AD80AE8E0CE16D104A9F6FFEF9E
:101300006F1A7F0A89E06816710451F6DF91CF9158
:101310001F910F91FF90EF90DF90CF90BF90AF9013
:101320009F908F907F906F905F904F90089583B1C2
:10133000829581701A998260189984604D998860AD
:10134000089581E00895AF92BF92CF92DF92EF921D
:10135000FF920F931F93CF93DF93CDB7DEB72C97F8
:101360000FB6F894DEBF0FBECDBF8111E6C01A865E
:1013700019865E9A80E28A95F1F75E988E010F5F7A
:101380001F4FDE011596AD01F8011C861B8628E073
:1013900030E080E892E49A95F1F700C02B9892E44F
:1013A0009A95F1F700C0199B03C09B85982B9B87EA
:1013B0001C9B03C09C85982B9C872B9A869521505B
:1013C000310941F78B85809581938C8580958D932C
:1013D000E417F507D1F6FE0134967E01A9E0EA0E86
:1013E000F11CBE01645F7F4F570152E2A0E2DA2E8A
:1013F0004081CF010297DC019C919F01215031096E
:10140000D9018C91892384238F3F19F4D501DC9273
:1014100004C04F3F11F4D5015C933496BFEFAB1A73
:10142000BB0AE617F70721F78985811140C089E0DB
:10143000E9E5F2E0DF011D928A95E9F78BB18B7A3D
:1014400084648BB9BDE0BA95F1F700005F016F01CC
:101450008BB18B7A84608BB9EFE8F1E03197F1F7CB
:1014600000C000000E949709D6018C938BB18B7A43
:1014700084618BB9EFE8F1E03197F1F700C000002B
:101480000E9497098295807FD6019C91892BF60155
:1014900081936F01F2E6CF16F2E0DF06C9F6D501BF
:1014A0008D915D018E7E8E3E49F081E2898725EA2D
:1014B00033E0AE014D5F5F4F69E026C0B2E6AB1688
:1014C000B2E0BB0661F7F3CF823259F5DA018C91B5
:1014D00090E0A0E0B0E0DC0199278827F801708156
:1014E000872BFA0131977081972BF90181839283C1
:1014F000A383B483255F3F4F0C5F1F4F4C5F5F4F4B
:10150000F3E02B3B3F07C9F0F70181917F01D9013F
:101510008C938032C9F6F801808190E0A0E0B0E0C1
:10152000E4CF813239F7E9E5F2E0D9011196862F4F
:1015300001900D928A95E1F7DDCF80E02C960FB6F1
:10154000F894DEBF0FBECDBFDF91CF911F910F91F9
:10155000FF90EF90DF90CF90BF90AF900895CF9322
:10156000CFB7F89442983A9A2D9A259A569A239A88
:101570009AB194659AB921982498299A2C9A2B9A11
:101580005E980E94A309CFBFCF91089587E691E0AE
:1015900008958DEA9EED9093C0038093BF03089554
:1015A00081E02091BF033091C0032D3A3E4D09F4F4
:1015B00080E081950895109280008DE080938100F5
:1015C0000895BC018091620290916302861797078B
:1015D000F1F07093630260936202109285001092A2
:1015E0008400072E000C880B990B24E83EE140E0B4
:1015F00050E00E944215B901CA0128EE33E040E0F4
:1016000050E00E94231530938900209388000895AC
:10161000B19B04C082E086BB81E0089580E008951C
:10162000A4E6B2E0FC012491422F50E04D935D937B
:101630000196222349F022E0A23AB20799F71092CC
:10164000A3021092A20208950895E4E9F3E080E075
:1016500090E023E0E33AF207D9F021919227092E96
:101660000294202D2F702927392F3025330F307EFB
:101670002327302D3927307F3695092E000C331F54
:101680009695969596959F7193279827822FE1CFEF
:1016900008950E94250B9093A4038093A30341E136
:1016A00050E060E070E084E993E00C94CE18CF93B2
:1016B000DF9341E150E060E070E084E993E00E9454
:1016C000BE1880919403909195038D3E9E4F91F0AA
:1016D00081E1E4E9F3E0DF011D928A95E9F78DEEFF
:1016E0009EEF90939503809394030E94C1040E94FF
:1016F000490B09C0C091A303D091A4030E94250BFC
:10170000C817D90729F7DF91CF910C944D040E9497
:101710006511F894E0E0F0EF099408950E946511D6
:10172000F894E0E0F0E00994089580E090E00895F6
:101730001092C90087E791E09093BE038093BD03A8
:1017400008950F931F93CF93DF931F92CDB7DEB70A
:101750008C01FA018CE1D8011D928A95E9F7D80134
:1017600011966C9311975B965C934E935A97A801D0
:101770004E5F5F4F6C9180E090E02983099529814D
:10178000F80120830F90DF91CF911F910F91089561
:10179000FC01818190E00895DC01CB01AD014E5F39
:1017A0005F4F5A96ED91FC915B976C91099402966C
:1017B00008950F931F93CF93DF938C01EB012A8140
:1017C0003B81832F9927019711F5213089F4C801B6
:1017D0000296FA019183808387E396E09F938F932B
:1017E0000E941616F801818190E00F900F902DC095
:1017F000223069F033273F932F938EE196E09F9339
:101800008F930E9416160F900F900F900F908F815C
:101810008F938E818F938B818F938A818F93898110
:101820001F928F9388811F928F9382ED95E09F93F3
:101830008F930E9416168DB79EB70A960FB6F8942E
:101840009EBF0FBE8DBF80E090E0DF91CF911F91D2
:101850000F910895232B51F48CEC95E09F938F9377
:101860000E9416160F900F908FEF089580E0089554
:101870000F93FB018093E900CA012417350708F490
:10188000C9018E0F9F1F002341F0E817F90761F08F
:1018900024912093F1003196F8CFE817F90721F051
:1018A00021912093F100F9CF0F910895CF92DF920B
:1018B000EF92FF920F931F93CF93DF936C01122F40
:1018C000EA016417750708F4EB01E12CF12CB6016D
:1018D0006E0D7F1D012FC134D105B0F020E430E042
:1018E00040E450E080E00E94380C9091E8009E7F38
:1018F0009093E80080E4E80EF11CC054D109809177
:10190000E80080FFFCCFE3CF9E01AE0180E00E94A3
:10191000380C8091E8008E7F8093E8008091E80089
:1019200080FFFCCFDF91CF911F910F91FF90EF903F
:10193000DF90CF900895EF92FF920F93CF93DF93B4
:101940008093E9009091E80090FF28C0FA0120817F
:10195000318137FF06C08091F0008E7F8093F000C8
:101960001DC0EA017B019091E8009E7F9093E80002
:101970002081318140815181FB016081718100E0D2
:101980000E94380CF701118210828FEF9FEF99832C
:1019900088838091E8008F778093E800DF91CF9172
:1019A0000F91FF90EF9008951092E90081E08093ED
:1019B000EB001092EC008CE48093F0008091ED003D
:1019C00082638093ED001092E8008091EE0087FF23
:1019D00051C020E030E041E0A1ECE091A502F0919F
:1019E000A602828590E02817390744F581E0820F2E
:1019F0008093E9004093EB00A093EC004093F0004B
:101A0000E091A502F091A602C9016CE070E00E948D
:101A10001215E80FF91F8785908980319105D1F063
:101A200024F4089761F490E016C08032910521F00B
:101A30008034910569F003C090E20DC0089585EDF2
:101A400096E09F938F930E9416160F900F90089523
:101A500090E301C090E192609093ED001092E80055
:101A60008091EE0087FD03C087EC96E0EACF2F5F00
:101A70003F4FB3CF08951F920F920FB60F921124CC
:101A80002F933F934F935F936F937F938F939F9386
:101A9000AF93BF93CF93EF93FF93C091E100C0FF4B
:101AA0000DC08091E1008E7F8093E10081E0809302
:101AB0003B038091E20080618093E200C4FF10C08C
:101AC0008091E1008F7E8093E10080913B03882329
:101AD00039F010923B038091E2008F7E8093E20008
:101AE000C3FF09C010923B030E94D40C8091E10017
:101AF000877F8093E100C2FF05C08091E1008B7F6A
:101B00008093E100C5FF05C08091E1008F7D809347
:101B1000E100C6FF05C08091E1008F7B8093E1006A
:101B2000FF91EF91CF91BF91AF919F918F917F9155
:101B30006F915F914F913F912F910F900FBE0F903A
:101B40001F9018951F920F920FB60F9211246F924B
:101B50007F928F929F92AF92BF92CF92DF92EF923D
:101B6000FF920F931F932F933F934F935F936F9326
:101B70007F938F939F93AF93BF93EF93FF93CF93F5
:101B8000DF9300D000D0CDB7DEB77090F40070FEC8
:101B9000BDC21092E9006090E80063FE05C280912A
:101BA000F20090E0EBEFF2E09F012B5F324028174C
:101BB000390720F42091F1002193F6CF8091E800BD
:101BC000877F8093E8008091FB0287FD73C0982F88
:101BD0009F7121F0913009F43FC06CC08091FC02EC
:101BE000853019F0893019F167C08091FD0280932A
:101BF000E3008091E80080FFFCCF8091E8008E7FB9
:101C00008093E8008091E80080FFFCCF8091E300A2
:101C100080688093E3008091FD029091FE02892B01
:101C200011F481E001C082E080938D0143C0809176
:101C3000FD028093FA02811102C082E001C083E0BC
:101C400080938D018091E80080FFFCCF8091E800B7
:101C50008E7F8093E8002EC08076803269F5809177
:101C6000FC028930D1F48091E80080FFFCCF8091A4
:101C7000E8008E7F8093E80088E0EBEFF2E0AAEEC8
:101C8000B2E001900D928A95E1F71092E90210926C
:101C9000E80281E08093E7020DC01F928F9386EAED
:101CA00096E09F938F930E9416160F900F900F90BF
:101CB0000F9002C010E001C011E09091FB0297FF6D
:101CC00053C1292F2F718091FC02213009F4AEC03D
:101CD00020F0223009F41EC149C18630B1F08830AD
:101CE00009F018C180918D01209101033091020308
:101CF000833029F0198200E041E050E0AAC000E002
:101D000041E050E06AEF72E003C18091FD029091E2
:101D1000FE02292F332722303105B1F0233031055F
:101D200011F12130310509F021C1E091A502F091B6
:101D3000A6020081017020910103309102036181AC
:101D4000728142E150E0E4C0E091A502F091A60268
:101D500020812270409101035091020365817681B8
:101D6000838194819FC09927009709F446C0A09071
:101D7000A502B090A602D50117962C91179730E0D6
:101D8000281739070CF449C0809001039090020392
:101D900001977C01EE0CFF1C1896ED91FC911997B0
:101DA000EE0DFF1D0190F081E02DC12CD12C819111
:101DB0009191892B21F0BFEFCB1ADB0AF8CFCC0C25
:101DC000DD1C82E08C0D898383E08A8300E094012E
:101DD00042E050E0BE016F5F7F4F80E00E94380C10
:101DE000940122503109F50180859185FC01EE0DA9
:101DF000FF1D60817181A6018BC084E0898383E02F
:101E00008A8389E08B8380E18C8320910103309168
:101E1000020300E044E050E01CC082E996E09F939A
:101E20008F930E9416160F900F9084C0907619F031
:101E30009032D9F19BC0882319F0863071F096C09A
:101E400019821A82209101033091020300E042E0DE
:101E500050E0BE016F5F7F4F5BC08091FE0290E05B
:101E6000829709F083C08091FF0290910003E09176
:101E7000A502F091A602228530E02817390708F460
:101E800075C020812470A0910103B09102036CE021
:101E900070E00E941215E80FF91F63857485AD018B
:101EA000858596850E94560C45C0813009F05EC03C
:101EB0002091FF0230910003A091A502B091A602EB
:101EC0001A968C911A9790E08217930798F1C9019E
:101ED0006CE070E00E9412158A0F9B1FFC01E388E2
:101EE000F488E114F10409F441C0AE014F5F5F4F83
:101EF0006BEF72E081899289F70109950097D1F023
:101F0000209101033091020369817A8100E0AC01E4
:101F100080E00EC081112AC019821A82209101032B
:101F20003091020300E042E050E0BE016F5F7F4F5E
:101F30000E94380C11111AC08091E8008E7F8093A6
:101F4000E8008091E80080FF05C08091E8008E7F66
:101F50008093E8008091E80082FFF3CF8091E80051
:101F60008B7F8093E80020C01123F1F08091FE0266
:101F70008F938091FD028F938091FC021F928F932B
:101F80008091FB021F928F9381E796E09F938F933E
:101F90000E9416168091EB0080628093EB000FB6D2
:101FA000F894DEBF0FBECDBF62FE36C00091F200D6
:101FB00010E0EBEFF2E0CF018B5F924080179107CA
:101FC00020F48091F1008193F6CF8091E8008B7F1F
:101FD0008093E8008091E7028823F1F08091E80285
:101FE0009091E902800F911F80349105A8F48091AF
:101FF000E8029091E902A8016BEF72E089559D4FCC
:102000000E9406168091E8029091E902080F191FBC
:102010001093E9020093E80266FE78C08091E80020
:102020008F7B8093E8008091E702882309F46EC0DB
:102030000091E8021091E9028091EA0280768032F4
:10204000A1F52091EE023091EF02A091A502B0918E
:10205000A6021A968C911A9790E08217930708F4BB
:1020600053C0C9016CE070E00E9412158A0F9B1FDB
:10207000FC01E588F688E114F104B9F0980147EA1B
:1020800052E06AEE72E081899289F701099588230E
:1020900031F08091EB0080628093EB0035C080913D
:1020A000E8008E7F8093E8002FC01F930F9381E597
:1020B00096E09F938F930E94161687EAE82E82E09F
:1020C000F82E09551D4F0F900F900F900F909BE425
:1020D000C92E96E0D92EE016F10671F0D7018D9148
:1020E0007D011F928F93DF92CF920E9416160F9060
:1020F0000F900F900F90EFCF88E496E09F938F930F
:102100000E9416160F900F901092E70271FE07C002
:102110004BE851E068EF72E081E00E949B0C72FE98
:1021200007C049E851E066EF72E082E00E949B0C34
:1021300073FE07C047E851E064EF72E083E00E945D
:102140009B0C74FE07C045E851E062EF72E084E04A
:102150000E949B0C0F900F900F900F90DF91CF91EA
:10216000FF91EF91BF91AF919F918F917F916F916F
:102170005F914F913F912F911F910F91FF90EF90A1
:10218000DF90CF90BF90AF909F908F907F906F9097
:102190000F900FBE0F901F901895209185013091E0
:1021A000860181E02F3F3F4F09F080E008959C01B8
:1021B0009FB740918501509186014F3F5F4FC9F70E
:1021C000F8943093F3022093F202709386016093A7
:1021D000850184E08093E9008091F0008160809324
:1021E000F0009FBF0895209187013091880181E020
:1021F0002F3F3F4F09F080E008959C019FB7409129
:102200008701509188014F3F5F4FC9F7F894309391
:10221000F5022093F402709388016093870183E0B4
:102220008093E9008091F00081608093F0009FBF6F
:1022300008952091890130918A0181E02F3F3F4F1D
:1022400009F080E008959C019FB740918901509169
:102250008A014F3F5F4FC9F7F8943093F7022093FC
:10226000F60270938A016093890182E08093E9000D
:102270008091F00081608093F0009FBF08952091CD
:102280008B0130918C0181E02F3F3F4F09F080E0BE
:1022900008959C019FB740918B0150918C014F3F55
:1022A0005F4FC9F7F8943093F9022093F8027093C6
:1022B0008C0160938B0181E08093E9008091F000B4
:1022C00081608093F0009FBF0895E0EEF0E0808190
:1022D000816080831092E200E8EDF0E080818F77EA
:1022E000808380818062808308958091A402882306
:1022F00021F0813051F01092A4028091E0008E7F95
:102300008093E00081E08093A402089520E220936E
:10231000D80021E02093E0001092E2001092E30048
:102320009093A6028093A5028091D8008F77809326
:10233000D8008091D80080628093D8001092FB0072
:102340001092630084E089BD89B5826089BD09B4BB
:1023500000FEFDCF8091D80080688093D8008091E6
:10236000D8008F7D8093D8000E94D40C8091E1002A
:102370008E7F8093E10089E78093E2000895809149
:102380007D03823059F48DE393E0FA0191838083D9
:1023900010927D0380913C0390E0089580E090E0EE
:1023A0000895CF93DF931F92CDB7DEB7BA0181E0D6
:1023B00080937D03A9018DE393E029830E94061693
:1023C000298120933C0380E00F90DF91CF91089505
:1023D000CF93DF9320917D03213029F008F44BC186
:1023E000223029F448C130913C03311103C01092CE
:1023F0007D0341C1FC0190913D03963009F467C013
:1024000028F5933009F442C088F49130B9F1923044
:1024100009F01DC14EE36FE373E080913E030E941B
:10242000F80480933C0380913C034FC09430D9F171
:10243000953009F00CC169E275E08EE393E00E94EB
:10244000E91589E295E00E94F0153FC0913F09F43B
:10245000EEC038F4973009F445C0903F09F450C0FD
:10246000F6C09E3F41F020F4923F09F4D8C0EFC07F
:102470000E94870BFDC00E948E0BFAC06FE373E0D1
:1024800080913E030E946B0582E0F0C0309709F412
:10249000EFC00190F081E02D309709F4E9C0809100
:1024A0003E030995E5C0C0916501D0916601BE016A
:1024B0008EE393E00E940F16FE0101900020E9F7E1
:1024C000EC1BEF5FE0933C03D3C08E5FCFC08091E5
:1024D0003E03823008F0CCC00E9482138C59809356
:1024E0003F030CC0309751F00280F381E02D30970C
:1024F00029F060913F0380913E03099583E0B6C0C7
:1025000020933C03A0913C0381E08A0F80933C031D
:10251000B0E0A35CBC4F8FEF8C93A0913C0381E0B3
:102520008A0F80933C03B0E0A35CBC4F8EEF8C938A
:10253000A0913C0381E08A0F80933C03B0E0A35C50
:10254000BC4F82E08C93A0913C0381E08A0F809382
:102550003C03B0E0A35CBC4F2C93A0913C0381E012
:102560008A0F80933C03B0E0A35CBC4F83E08C9364
:10257000A0913C0381E08A0F80933C03B0E0A35C10
:10258000BC4F84E08C93A0913C0381E08A0F809340
:102590003C03B0E0A35CBC4F85E08C93A0913C036E
:1025A00081E08A0F80933C03B0E0A35CBC4F86E0DF
:1025B0008C93A0913C0381E08A0F80933C03B0E0B0
:1025C000A35CBC4F87E08C93A0913C0381E08A0F11
:1025D00080933C03B0E0A35CBC4F9C93A0913C0370
:1025E00081E08A0F80933C03B0E0A35CBC4F81EF95
:1025F0008C93A0913C0381E08A0F80933C03B0E070
:10260000A35CBC4F82EF8C930284F385E02D30975E
:1026100079F180913C0390E0835C9C4F13C0209340
:102620003C03309729F10680F781E02D07C0209305
:102630003C033097E9F00480F581E02D3097C1F03C
:102640008EE393E0099590913C03890F0FC030977A
:1026500079F00084F185E02D309751F060913C03D2
:1026600070E040E450E08DE393E0099580933C03F3
:1026700082E080937D03DF91CF910895282F30E091
:10268000C9016BE070E00E941215FC01E258FC4F9A
:10269000C9016BE070E00E9412154BE050E0BF01F1
:1026A0008B559C4F0E94F9150895DB01282F30E0CF
:1026B000109769F0C9016BE070E00E941215FC01EF
:1026C000EB55FC4F9BE001900D929A95E1F7C90103
:1026D0006BE070E00E941215DC01A258BC4FFC01B7
:1026E000EB55FC4F8BE001900D928A95E1F7089530
:1026F00090E06BE070E00E9412158B559C4FFC013E
:102700001082089590E06BE070E00E9412158B55E6
:102710009C4FFC018081089527EE36E0F901459138
:1027200054914F3F6FEF560751F04817590721F466
:10273000F9013296849108952D5F3F4FEFCF80E0ED
:102740000895CF93DF93CDB7DEB72F970FB6F894E8
:10275000DEBF0FBECDBF1C861D861E861F860E9453
:1027600000040E94980B0E94570B0E94DB0A0E94F3
:10277000C90A80919C03803161F08331E1F185EADF
:1027800090E00E94100B55E7E52E56E0F52E19E07B
:1027900059C081E990E00E94100B85E890E0909389
:1027A0005E0180935D0184EF90E09093100180932F
:1027B0000F0184E590E0909312018093110183E072
:1027C000809316018CE0E3E2F1E0AFE2B1E001902A
:1027D0000D928A95E1F78CE0E7E1F1E0A3E2B1E048
:1027E00001900D928A95E1F745E7E42E46E0F42E3C
:1027F00019E002E028C084E790E00E94100B86E810
:1028000090E090935E0180935D0189EB90E090935E
:10281000100180930F018BE390E09093120180935D
:10282000110188E991E090931A018093190187E1E1
:1028300090E0909318018093170130E3E32E39E084
:10284000F32E13E001E021E0A701612F83E192E084
:102850000E94A10B83E192E090931E0180931D01E1
:10286000023069F421E0A701612F8FE292E00E941B
:10287000A10B8FE292E090933601809335010E9484
:10288000C60ADC01ED91FC9180E00995023039F433
:102890000E94C60ADC01ED91FC9181E009957894D3
:1028A0008CE091E00E94861110E02BE4822E22E061
:1028B000922E0E94D00A81110E94870B0E947511EE
:1028C00080E091E00E94E8111130B9F038F0123048
:1028D00009F476C0133009F481C0EBCF8091120265
:1028E00081119EC080919D0390E00E94E10A0E94A8
:1028F000080B11E08111DDCF93C0FE013C966F0102
:1029000083E1A82E82E0B82E9BE4E92E92E0F92E16
:102910007E2C7818D6018D919C91892B89F4872D76
:102920000E943804F60191838083009749F0DC010E
:102930001496ED91FC911597309711F0872D09951C
:10294000D601ED91FC913097A1F00280F381E02D4A
:10295000872D0995F701882351F080818F5F80834F
:102960008F3150F0D6011D921C92108217C0108238
:1029700003C0872D0E947813872D0E943E13882361
:1029800069F0BE016F5F7F4F872D0E945513BE0116
:102990006F5F7F4FC5010E94CC0B12E0F2E0CF0EBB
:1029A000D11C8FEFE81AF80A9CE1A90EB11C8E2DFC
:1029B0008819801708F4ACCF113009F07ACF30C0F5
:1029C0000E943F11882311F013E073CF023009F009
:1029D00070CF0E9419118111F7CF6BCF0E943F1168
:1029E000882361F083E192E00E94C80B7C0183E1BF
:1029F00092E00E94D70BB7010E944911023081F486
:102A00000E941911882361F08FE292E00E94C80BA6
:102A10007C018FE292E00E94D70BB7010E94231144
:102A200010E047CF0024552704C0080E591F880F17
:102A3000991F009729F076956795B8F37105B9F756
:102A4000802D952F0895052E97FB1EF400940E946B
:102A50003A1557FD07D00E94991507FC03D04EF494
:102A60000C943A1550954095309521953F4F4F4F16
:102A70005F4F089590958095709561957F4F8F4F2A
:102A80009F4F089568940013E894A0E0B0E0EBE451
:102A9000F5E10C946A15EFEFE7F959016A015E233D
:102AA000550FEE08FE2C87019B01AC019E23990F68
:102AB000660B762FCB010E94BB15CDB7DEB7EAE0DF
:102AC0000C9486152F923F924F925F926F927F9255
:102AD0008F929F92AF92BF92CF92DF92EF92FF922E
:102AE0000F931F93CF93DF93CDB7DEB7CA1BDB0BDA
:102AF0000FB6F894DEBF0FBECDBF09942A8839887F
:102B000048885F846E847D848C849B84AA84B98485
:102B1000C884DF80EE80FD800C811B81AA81B98191
:102B2000CE0FD11D0FB6F894DEBF0FBECDBFED01A5
:102B30000895A1E21A2EAA1BBB1BFD010DC0AA1FFE
:102B4000BB1FEE1FFF1FA217B307E407F50720F016
:102B5000A21BB30BE40BF50B661F771F881F991F91
:102B60001A9469F760957095809590959B01AC01DA
:102B7000BD01CF010895DF93CF939F92A0E49A2ED9
:102B80000024D001E001F00116950795F794E79431
:102B9000D794C794B794A79448F41068A20FB31FB2
:102BA000C41FD51FE61FF71F081E191E220F331F53
:102BB000441F551F661F771F881F991F9A9421F77E
:102BC0009D01AE01BF01C00111249F90CF91DF9103
:102BD0000895FB01DC0105900D920020E1F70895B6
:102BE000FC0105900020E9F7809590958E0F9F1FBE
:102BF0000895FB01DC0104C08D910190801921F43E
:102C000041505040C8F7881B990B0895FB01DC0127
:102C100002C001900D9241505040D8F70895FB0139
:102C2000DC0101900D920020E1F70895A0E0B0E0F2
:102C3000ECE1F6E10C947015AE01495F5F4FDA01EB
:102C40006D917D91AD010BEB13E0F80182819381D1
:102C5000DC0113962C911397286013962C930E94F5
:102C60003C16D8011296ED91FC9113972381277F92
:102C70002383E4E00C948C15ACE0B0E0E2E4F6E1F0
:102C80000C9462157C016B018A01FC01178216828B
:102C9000838181FFBFC1CE0101964C01F701938171
:102CA000F60193FD859193FF81916F01882309F4CB
:102CB000ADC1853239F493FD859193FF81916F0108
:102CC000853229F4B70190E00E942618E7CF512CF5
:102CD000312C20E02032A0F48B3269F030F48032C5
:102CE00059F0833269F420612EC08D3239F080337F
:102CF00039F4216028C02260246025C0286023C0E8
:102D000027FD29C030ED380F3A3088F426FF07C080
:102D1000852D6AE00E94F018582E530E14C0832DA2
:102D20006AE00E94F018382E330E20620CC08E32FA
:102D300021F426FD6BC1206406C08C3611F4206896
:102D400002C0883641F4F60193FD859193FF81918D
:102D50006F018111BFCF982F9F7D9554933028F438
:102D60000C5F1F4FFFE3F9830DC0833631F08337CB
:102D700071F0833509F05BC022C0F801808189833E
:102D80000E5F1F4F44244394512C540115C0380149
:102D9000F2E06F0E711CF801A080B18026FF03C025
:102DA000652D70E002C06FEF7FEFC5012C870E9498
:102DB0001B182C0183012C852F77222E17C0380178
:102DC000F2E06F0E711CF801A080B18026FF03C0F5
:102DD000652D70E002C06FEF7FEFC5012C870E9468
:102DE00010182C012C852068222E830123FC1BC087
:102DF000832D90E048165906B0F4B70180E290E0C8
:102E00000E9426183A94F4CFF50127FC859127FEFD
:102E100081915F01B70190E00E94261831103A9429
:102E2000F1E04F1A51084114510471F7E5C084369E
:102E300011F0893639F5F80127FF07C060817181EB
:102E4000828193810C5F1F4F08C060817181072EC2
:102E5000000C880B990B0E5F1F4F2F76722E97FF79
:102E600009C090958095709561957F4F8F4F9F4FCA
:102E70002068722E2AE030E0A4010E945E18A82E7D
:102E8000A81844C0853729F42F7EB22E2AE030E0FE
:102E900025C0F22FF97FBF2E8F36C1F018F4883588
:102EA00079F0B4C0803719F0883721F0AFC02F2FE8
:102EB0002061B22EB4FE0DC08B2D8460B82E09C0E7
:102EC00024FF0AC09F2F9660B92E06C028E030E08C
:102ED00005C020E130E002C020E132E0F801B7FE99
:102EE00007C060817181828193810C5F1F4F06C092
:102EF0006081718180E090E00E5F1F4FA4010E940D
:102F00005E18A82EA818FB2DFF777F2E76FE0BC02B
:102F1000372D3E7FA51450F474FE0AC072FC08C021
:102F2000372D3E7E05C0BA2C372D03C0BA2C01C008
:102F3000B52C34FF0DC0FE01EA0DF11D80818033F8
:102F400011F4397E09C032FF06C0B394B39404C0B3
:102F5000832F867809F0B39433FD13C030FF06C089
:102F60005A2CB31418F4530C5B18B32CB31468F434
:102F7000B70180E290E03C870E942618B3943C851C
:102F8000F5CFB31410F43B1801C0312C34FF12C03C
:102F9000B70180E390E03C870E9426183C8532FF11
:102FA00017C031FD03C088E790E002C088E590E0DB
:102FB000B7010CC0832F867859F031FF02C08BE235
:102FC00001C080E237FD8DE2B70190E00E94261833
:102FD000A51438F4B70180E390E00E9426185A94B3
:102FE000F7CFAA94F401EA0DF11D8081B70190E0BA
:102FF0000E942618A110F5CF332009F44FCEB70157
:1030000080E290E00E9426183A94F6CFF70186817C
:10301000978102C08FEF9FEF2C96E2E10C947E1512
:10302000FC010590615070400110D8F78095909593
:103030008E0F9F1F0895FC01615070400190011098
:10304000D8F7809590958E0F9F1F08950F931F932B
:10305000CF93DF93FB01238121FD03C08FEF9FEF0F
:1030600028C022FF16C0468157812481358142172E
:10307000530744F4A081B1819D012F5F3F4F3183FD
:1030800020838C93268137812F5F3F4F37832683A0
:1030900010C0EB01092F182F0084F185E02D099550
:1030A000892BE1F68E819F8101969F838E83812FEC
:1030B000902FDF91CF911F910F910895FA01AA27C8
:1030C000283061F1203191F1E8946F936E7F6E5F4B
:1030D0007F4F8F4F9F4FAF4FB1E040D0B4E03ED015
:1030E000670F781F891F9A1FA11D680F791F8A1FFC
:1030F000911DA11D6A0F711D811D911DA11D22D061
:1031000009F468943F91062E000C3019000C000C55
:103110003019305D3193CEF6CF010895462F4770B8
:10312000405D4193B3E00FD0C9F7F6CF462F4F7003
:10313000405D4A3318F0495D31FD4052419302D061
:10314000A9F7EACFB4E0A695979587957795679507
:10315000BA95C9F700976105710508959B01AC0107
:103160000A2E06945795479537952795BA95C9F72E
:10317000620F731F841F951FA01D0895DC01CB01F2
:10318000FC01F999FECF06C0F2BDE1BDF89A319677
:1031900000B40D9241505040B8F70895DC01A40FDF
:1031A000B51F4150504048F0CB01840F951F2E9120
:1031B0000E94DF1841505040D0F70895262FF9990A
:1031C000FECF92BD81BDF89A019700B4021639F086
:1031D0001FBA20BD0FB6F894FA9AF99A0FBE089557
:1031E000002480FD060E660F11F08695D1F7802D24
:0631F0000895F894FFCFE2
:1031F600240400002E0427040000000006530148A2
:10320600013B00037101023600F301100000003695
:103216000434041500830140000000BF11D11100E1
:103226000000000000000000000000000000000098
:103236000000000000000000000000000000000088
:1032460000000012011001000000409B28840000CD
:103256000201020301C601AF0AA30900000000A192
:1032660009CC016402F6010000000200000000958E
:103276000B00000000FFFFFFFFFFFFFFFF013030E4
:1032860030303031300100000031020000002604E9
:103296000000002708000000281000000029200078
:1032A60000002A4000000032800000002B000100D0
:1032B600000000000000322E302E30007200610047
:1032C600700068006E0065007400200074006500E0
:1032D600630068006E006F006C006F006700690095
:1032E6006500730000003100320033003400350001
:0432F600360000009E
:00000001FF
