:100000000C94DA030C94F7030C94F7030C94F703A5
:100010000C94F7030C94F7030C94F7030C94F70378
:100020000C94F7030C94F7030C94F7030C946805F5
:100030000C94CF050C94F7030C94F7030C94F7037E
:100040000C94F7030C94F7030C94F7030C94F70348
:100050000C94F7030C94F7030C94F7030C94F70338
:100060000C94F7030C94F7030C94F7030C94F70328
:100070000C94F7034475616C2047616D656375628C
:100080006520746F205553422076332E3500447519
:10009000616C204E363420746F20555342207633E5
:1000A0002E35004475616C2047432F4E3634207442
:1000B0006F205553422076332E350047616D6563BE
:1000C00075626520746F205553422076332E3500BB
:1000D0004E363420746F205553422076332E35002F
:1000E00047432F4E363420746F20555342207633C9
:1000F0002E35000902540003010080190904000094
:10010000010300000009210101000122E8040705A4
:10011000810310000109040100010300000009210E
:100120000101000122E8040705820310000109040F
:100130000200010300000009210101000122150055
:100140000705830340000109023B000201008019FA
:10015000090400000103000000092101010001223F
:10016000E8040705810310000109040100010300F0
:10017000000009210101000122150007058203404A
:1001800000010600FF0901A101150026FF00750806
:10019000953F0901B100C005010905A1010901A1AF
:1001A000008501050175109506150026007D0930B2
:1001B000093109330934093509328102C0A100052A
:1001C0000915002501750195101901291075019572
:1001D000108102C0050F0992A1028502099F09A0A2
:1001E00009A509A6150025013500450175019504ED
:1001F00081029504750181030994150025013500DC
:100200004501750195018102092215012528350155
:100210004528750795018102C00921A102850109C0
:1002200022150125283501452875089501910209F7
:1002300025A10209260927093009310932093309A4
:100240003409400941094209430928250C150135A3
:1002500001450C750895019100C0095009540951D8
:10026000150026FF7F350046FF7F66031055FD759C
:10027000109503910255006600000952150026FFF3
:1002800000350046102775089501910209531501A4
:100290002508350145087508950191020955A10207
:1002A00005010930093115002501750195029102FA
:1002B000C0050F095695019102950591030957A1B3
:1002C000020B01000A000B02000A0066140055FE32
:1002D000150026FF00350047A08C00006600007561
:1002E00008950291025500660000C0050F09A76637
:1002F000031055FD150026FF7F350046FF7F751062
:10030000950191026600005500C0050F095AA1022F
:100310008502092215012528350145287508950112
:100320009102095B095D150026FF00350046102784
:1003300095029102095C095E66031055FD26FF7F58
:1003400046FF7F7510910245006600005500C00908
:100350005FA102850309221501252835014528756D
:100360000895019102092315002501350045017505
:1003700004950191020958A1020B01000A000B0229
:10038000000A00750295029102C01580257F36F0A3
:10039000D8461027096075089501910236F0D846B5
:1003A00010270961096295029102150026FF0035A8
:1003B00000461027096309647508950291020965D2
:1003C00046102795019102C0096EA10285040922F9
:1003D00015012528350145287508950191020970F8
:1003E000150026FF0035004610277508950191027B
:1003F000096F1580257F36F0D846102795019102A8
:10040000097166140055FE150026FF00350047A04F
:100410008C00009102097226FF7F46FF7F66031061
:1004200055FD7510950191026600005500C00973D5
:10043000A1028505092215012528350145287508E1
:100440009501910209701601FF26FF0036F0D8468B
:100450001027751095019102C00974A10285060943
:1004600022150125283501452875089501910209B5
:100470007509761580257F36F0D8461027750895C2
:10048000029102C00968A1028507092215012528E9
:1004900035014528750895019102096C1500261053
:1004A00027350046102775109501910209691581BD
:1004B000257F350046FF007508950C920201C009A2
:1004C00066A10285080501093009311581257F35AE
:1004D0000046FF00750895029102C0050F0977A13B
:1004E00002850A0922150125283501452875089538
:1004F0000191020978A1020979097A097B15012580
:1005000003750895019100C0097C150026FF003590
:100510000046FF009102C00990A102850B09222527
:1005200028150135014528750895019102C00996E5
:10053000A102850C099709980999099A099B099CB8
:1005400015012506750895019100C0097DA1028558
:100550000D097E150026FF00350046102775089509
:10056000019102C0096BA102850E092215012528FF
:1005700035014528750895019102096D150026FF82
:1005800000350046FF007508950191020951660388
:100590001055FD150026FF7F350046FF7F7510952D
:1005A0000191025500660000C009ABA1028509094E
:1005B00025A1020926092709300931093209330921
:1005C0003409400941094209430928250C15013520
:1005D00001450C75089501B100C00501093B1500E6
:1005E00026FF01350046FF01750A9501B102750627
:1005F000B101C0050F0989A102850209222528152C
:10060000013501452875089501B102098BA1020940
:100610008C098D098E250315013501450375089553
:1006200001B100C009AC150027FFFF0000350047ED
:10063000FFFF000075109501B100C0097FA1028580
:10064000030980751095011500350027FFFF000094
:1006500047FFFF0000B102098326FF0046FF007537
:10066000089501B10209A909AA750195021500258D
:100670000135004501B10275069501B103C0C00DF9
:100680000A00253032582000556E68616E646C6532
:100690006420636F6E74726F6C207772697465206A
:1006A0005B25645D203A2000743A20253032782C96
:1006B0002072713A203078253032782C2076616CA7
:1006C0003A20253034780D0A00556E6B6E6F776EC8
:1006D00020737472696E672069640D0A00556E6834
:1006E000616E646C656420636C6173732062526533
:1006F0007175657374203078253032780A0043466E
:1007000047204550206661696C0D0A00496E76618C
:100710006C69642065702073697A650D0A00008039
:10072000010000400200002004000010080020002A
:1007300010001000200008004000040080000200AB
:10074000000101000002000800040004000800028B
:100750000010000100200000000001000100020064
:1007600002000010040010000800004010000020EB
:1007700020000800000104008000000800040004BC
:100780000008000100100002002000000000396392
:100790003365613862382D373533662D3131653533
:1007A0002D613064632D30303162666361336335AF
:1007B0003933000011241FBECFEFD4E0DEBFCDBF20
:1007C00012E0A0E0B1E0E6E0F6E302C005900D9291
:1007D000A634B107D9F724E0A6E4B2E001C01D9227
:1007E000AA32B207E1F70E941F150C94011B0C946A
:1007F000000080935A020895FC01108281E08183F9
:1008000082E0828380E1838381E1848382E1858346
:1008100086E00895262F823050F490E06FE170E07A
:100820000E94CD16622F855A9D4F0C94640B08953B
:100830000C94DB0B0C94900B15B88FEF84B98CEFF4
:1008400087B918B81BB880E78AB9E1E6F0E080E81C
:100850008083108210926400109265000895CF93F7
:10086000C82F0E94A40CEC2FF0E0EA5BFD4F8083C0
:10087000813049F0823071F48FEC91E00E941418BD
:10088000CF910C94AB0F87EB91E00E941418CF919D
:100890000C94BA0E80E090E0CF910895AFEEB3E0F3
:1008A000ECE4F2E08D9190E08193919382E0E83561
:1008B000F807C1F710925902109258028CE492E0A6
:1008C000909395018093940108950F93FB01809379
:1008D000E900CA012417350708F4C9018E0F9F1FCC
:1008E000002341F0E817F90761F024912093F1000B
:1008F0003196F8CFE817F90721F021912093F10004
:10090000F9CF0F910895CF92DF92EF92FF920F935C
:100910001F93CF93DF936C01122FEA0164177507C1
:1009200008F4EB01E12CF12CB6016E0D7F1D012FB7
:10093000C134D105B0F020E430E040E450E080E084
:100940000E9465049091E8009E7F9093E80080E407
:10095000E80EF11CC054D1098091E80080FFFCCF63
:10096000E3CF9E01AE0180E00E9465048091E80023
:100970008E7F8093E8008091E80080FFFCCFDF91BC
:10098000CF911F910F91FF90EF90DF90CF9008953E
:10099000EF92FF920F93CF93DF938093E9009091B2
:1009A000E80090FF28C0FA012081318137FF06C09E
:1009B0008091F0008E7F8093F0001DC0EA017B01E2
:1009C0009091E8009E7F9093E800208131814081E2
:1009D0005181FB016081718100E00E946504F70193
:1009E000118210828FEF9FEF998388838091E800B6
:1009F0008F778093E800DF91CF910F91FF90EF9078
:100A000008951092E90081E08093EB001092EC00D1
:100A10008CE48093F0008091ED0082638093ED0080
:100A20001092E8008091EE0087FF51C020E030E096
:100A300041E0A1ECE0919C02F0919D02828590E062
:100A40002817390744F581E0820F8093E90040932D
:100A5000EB00A093EC004093F000E0919C02F09139
:100A60009D02C9016CE070E00E94CD16E80FF91FED
:100A70008785908980319105D1F024F4089761F43D
:100A800090E016C08032910521F08034910569F024
:100A900003C090E20DC008958CE097E09F938F9380
:100AA0000E94EE170F900F90089590E301C090E11F
:100AB00092609093ED001092E8008091EE0087FD27
:100AC00003C08EEF96E0EACF2F5F3F4FB3CF08957C
:100AD0001F920F920FB60F9211242F933F934F93B3
:100AE0005F936F937F938F939F93AF93BF93CF93B6
:100AF000EF93FF93C091E100C0FF0DC08091E10032
:100B00008E7F8093E10081E0809330038091E2004A
:100B100080618093E200C4FF10C08091E1008F7E6D
:100B20008093E10080913003882339F010923003E4
:100B30008091E2008F7E8093E200C3FF09C0109293
:100B400030030E9401058091E100877F8093E100DE
:100B5000C2FF05C08091E1008B7F8093E100C5FF5B
:100B600005C08091E1008F7D8093E100C6FF05C044
:100B70008091E1008F7B8093E100FF91EF91CF9115
:100B8000BF91AF919F918F917F916F915F914F91A5
:100B90003F912F910F900FBE0F901F9018951F92AD
:100BA0000F920FB60F9211246F927F928F929F92A5
:100BB000AF92BF92CF92DF92EF92FF920F931F936B
:100BC0002F933F934F935F936F937F938F939F9355
:100BD000AF93BF93EF93FF93CF93DF9300D000D0F9
:100BE000CDB7DEB77090F40070FEBDC21092E90080
:100BF0006090E80063FE05C28091F20090E0E0EFB3
:100C0000F2E09F01205F32402817390720F420913D
:100C1000F1002193F6CF8091E800877F8093E80070
:100C20008091F00287FD73C0982F9F7121F0913061
:100C300009F43FC06CC08091F102853019F0893011
:100C400019F167C08091F2028093E3008091E8007F
:100C500080FFFCCF8091E8008E7F8093E800809138
:100C6000E80080FFFCCF8091E30080688093E30080
:100C70008091F2029091F302892B11F481E001C07E
:100C800082E08093650143C08091F2028093EF027D
:100C9000811102C082E001C083E0809365018091F0
:100CA000E80080FFFCCF8091E8008E7F8093E80011
:100CB0002EC08076803269F58091F1028930D1F4BE
:100CC0008091E80080FFFCCF8091E8008E7F8093C8
:100CD000E80088E0E0EFF2E0A1EEB2E001900D92D2
:100CE0008A95E1F71092E0021092DF0281E0809392
:100CF000DE020DC01F928F938DED96E09F938F9330
:100D00000E94EE170F900F900F900F9002C010E00E
:100D100001C011E09091F00297FF53C1292F2F716C
:100D20008091F102213009F4AEC020F0223009F4A4
:100D30001EC149C18630B1F0883009F018C18091D8
:100D400065012091F6023091F702833029F0198273
:100D500000E041E050E0AAC000E041E050E06FEE6A
:100D600072E003C18091F2029091F302292F3327A0
:100D700022303105B1F02330310511F12130310538
:100D800009F021C1E0919C02F0919D020081017067
:100D90002091F6023091F7026181728142E150E0C8
:100DA000E4C0E0919C02F0919D022081227040916C
:100DB000F6025091F70265817681838194819FC00C
:100DC0009927009709F446C0A0909C02B0909D021C
:100DD000D50117962C91179730E0281739070CF496
:100DE00049C08090F6029090F70201977C01EE0CCA
:100DF000FF1C1896ED91FC911997EE0DFF1D0190C7
:100E0000F081E02DC12CD12C81919191892B21F081
:100E1000BFEFCB1ADB0AF8CFCC0CDD1C82E08C0DC7
:100E2000898383E08A8300E0940142E050E0BE01C0
:100E30006F5F7F4F80E00E9465049401225031096A
:100E4000F50180859185FC01EE0DFF1D60817181AA
:100E5000A6018BC084E0898383E08A8389E08B8349
:100E600080E18C832091F6023091F70200E044E0AB
:100E700050E01CC089EC96E09F938F930E94EE1780
:100E80000F900F9084C0907619F09032D9F19BC0EA
:100E9000882319F0863071F096C019821A82209149
:100EA000F6023091F70200E042E050E0BE016F5FD1
:100EB0007F4F5BC08091F30290E0829709F083C07E
:100EC0008091F4029091F502E0919C02F0919D02D4
:100ED000228530E02817390708F475C02081247076
:100EE000A091F602B091F7026CE070E00E94CD167E
:100EF000E80FF91F63857485AD01858596850E948D
:100F0000830445C0813009F05EC02091F402309125
:100F1000F502A0919C02B0919D021A968C911A97AD
:100F200090E08217930798F1C9016CE070E00E948D
:100F3000CD168A0F9B1FFC01E388F488E114F104AD
:100F400009F441C0AE014F5F5F4F60EF72E08189ED
:100F50009289F70109950097D1F02091F60230911E
:100F6000F70269817A8100E0AC0180E00EC0811156
:100F70002AC019821A822091F6023091F70200E00D
:100F800042E050E0BE016F5F7F4F0E946504111187
:100F90001AC08091E8008E7F8093E8008091E8007D
:100FA00080FF05C08091E8008E7F8093E8008091EB
:100FB000E80082FFF3CF8091E8008B7F8093E80008
:100FC00020C01123F1F08091F3028F938091F202FF
:100FD0008F938091F1021F928F938091F0021F9264
:100FE0008F9388EA96E09F938F930E94EE178091EB
:100FF000EB0080628093EB000FB6F894DEBF0FBE6B
:10100000CDBF62FE36C00091F20010E0E0EFF2E0EA
:10101000CF01805F92408017910720F48091F1000A
:101020008193F6CF8091E8008B7F8093E8008091D8
:10103000DE028823F1F08091DF029091E002800FC0
:10104000911F80349105A8F48091DF029091E00215
:10105000A80160EF72E082569D4F0E94C1178091F7
:10106000DF029091E002080F191F1093E002009335
:10107000DF0266FE78C08091E8008F7B8093E800F5
:101080008091DE02882309F46EC00091DF02109186
:10109000E0028091E10280768032A1F52091E502A4
:1010A0003091E602A0919C02B0919D021A968C911B
:1010B0001A9790E08217930708F453C0C9016CE0B7
:1010C00070E00E94CD168A0F9B1FFC01E588F68810
:1010D000E114F104B9F098014EE952E061EE72E0DA
:1010E00081899289F7010995882331F08091EB007D
:1010F00080628093EB0035C08091E8008E7F809302
:10110000E8002FC01F930F9388E896E09F938F937A
:101110000E94EE178EE9E82E82E0F82E02561D4F4F
:101120000F900F900F900F9092E8C92E96E0D92E55
:10113000E016F10671F0D7018D917D011F928F931A
:10114000DF92CF920E94EE170F900F900F900F90AA
:10115000EFCF8FE796E09F938F930E94EE170F904B
:101160000F901092DE0271FE07C043E651E06DEE73
:1011700072E081E00E94C80472FE07C041E651E0BF
:101180006BEE72E082E00E94C80473FE07C04FE578
:1011900051E069EE72E083E00E94C8040F900F9066
:1011A0000F900F90DF91CF91FF91EF91BF91AF9191
:1011B0009F918F917F916F915F914F913F912F916F
:1011C0001F910F91FF90EF90DF90CF90BF90AF9065
:1011D0009F908F907F906F900F900FBE0F901F90F9
:1011E000189520915F013091600181E02F3F3F4FC2
:1011F00009F080E008959C019FB740915F015091F4
:1012000060014F3F5F4FC9F7F8943093EA02209393
:10121000E9027093600160935F0183E08093E900CD
:101220008091F00081608093F0009FBF089520912D
:1012300061013091620181E02F3F3F4F09F080E072
:1012400008959C019FB740916101509162014F3F09
:101250005F4FC9F7F8943093EC022093EB02709340
:1012600062016093610182E08093E9008091F00067
:1012700081608093F0009FBF0895209163013091B9
:10128000640181E02F3F3F4F09F080E008959C0109
:101290009FB740916301509164014F3F5F4FC9F781
:1012A000F8943093EE022093ED0270936401609302
:1012B000630181E08093E9008091F0008160809378
:1012C000F0009FBF0895E0EEF0E0808181608083B0
:1012D0001092E200E8EDF0E080818F7780838081DA
:1012E00080628083089580919B02882321F0813061
:1012F00051F010929B028091E0008E7F8093E0007D
:1013000081E080939B02089520E22093D80021E0A1
:101310002093E0001092E2001092E30090939D026F
:1013200080939C028091D8008F778093D800809121
:10133000D80080628093D8001092FB001092630066
:1013400084E089BD89B5826089BD09B400FEFDCF06
:101350008091D80080688093D8008091D8008F7DDC
:101360008093D8000E9401058091E1008E7F8093D8
:10137000E10089E78093E2000895CF93DF93FC01B9
:1013800081E08083DF011296CF010E9630E82EE3D4
:10139000ED01219738832C931296A817B907C1F74E
:1013A00015861686DF91CF9108952FE1FC011192E9
:1013B0002A95E9F708960C94BD098FE090E008950E
:1013C0008F929F92AF92BF92CF92DF92EF92FF9255
:1013D0000F931F93CF93DF93CDB7DEB72C970FB644
:1013E000F894DEBF0FBECDBF8C017B0108960E9432
:1013F000BD09E114F10409F454C1D7018C91843082
:1014000021F0853009F448C04CC1F7018281082ED3
:10141000000C990B803BFFEF9F0714F480EB9FEFCC
:101420008135910514F080E590E068EC70E00E9451
:10143000CD16FC01D70111969C91892F990F990B1C
:10144000803BBFEF9B0714F480EB9FEF8135910544
:1014500014F080E590E068EC70E00E94CD168058B2
:10146000914C9C838B8320E83EE32E1B3F0B3A83F9
:101470002983F80181878C81828723878A818487E9
:10148000D70113966D917C91149780E10E944E0CC8
:10149000F801858B968B05C1D7011796CD90DC900E
:1014A000189711964C91842F440F990B8C39BFEFEC
:1014B0009B0714F48CE99FEF8536910514F084E6C0
:1014C00090E0F701A2810A2E000CBB0BAC39FFEFB4
:1014D000BF0714F4ACE9BFEFA536B10514F0A4E6DC
:1014E000B0E0F7018380082C000C9908FCE98F1606
:1014F000FFEF9F0624F43CE9832E99249A9425E675
:10150000821691041CF024E6822E912CF70124818E
:10151000022E000C330B2C39FFEF3F0714F42CE99B
:101520003FEF2536310514F024E630E0F701A580C1
:10153000B12CE680F12C60EA70E00E94CD169C8709
:101540008B87CD0160E67FEF0E94CD169A87898751
:10155000C40160EA70E00E94CD1698878F83C901AC
:1015600060E67FEF0E94CD169E838D832091FA0363
:1015700022FF11C0F1E4AF16B10414F06894D6F85C
:1015800031E4E316F10414F06894D5F81A82198254
:101590001C821B823CC0C50120FF10C08F579109DF
:1015A0006EE770E00E94CD169C838B83C7018F5736
:1015B00091096EE770E00E94CD1617C06FE370E0EE
:1015C0000E94CD1681384EE3940714F080E89EE324
:1015D0009C838B83C7016FE370E00E94CD16813836
:1015E000AEE39A0714F080E89EE39A83898321FF93
:1015F0000EC08B819C819195819591099C838B83F1
:1016000089819A819195819591099A83898323FF94
:1016100004C01A8219821C821B82AB85BC85A0582B
:10162000B14CBC87AB87E985FA857F0120E8E21AD7
:1016300021ECF20AFA86E9866F8178856058714C50
:1016400078876F834D815E814058514C5E834D8316
:101650002B813C812058314C3C832B8389819A819A
:101660008058914C9A838983F801A1879C85928741
:10167000E3869A85948765879885968747879E81B4
:10168000908B218B9C81928B838B8A81848BB6017A
:1016900080E00E944E0CD80155968C935597569633
:1016A0009C932C960FB6F894DEBF0FBECDBFDF9192
:1016B000CF911F910F91FF90EF90DF90CF90BF904F
:1016C000AF909F908F900895FC01628308954FB76B
:1016D000F894FC01268137812115310521F0215034
:1016E0003109378326834FBF0895FC018281811120
:1016F00013C08181882369F086819781892B49F005
:10170000838187FD03C0848187FF03C081E08083DC
:1017100001C010828081089581E00895089608959F
:10172000CF93DF93FC01DA01EB018A812B8130E05A
:101730002130310521F023303105A9F037C0813047
:1017400031F43896ED93FC938FE090E031C0823015
:1017500069F5878B108E8581818F7796ED93FC9349
:1017600083E090E025C0823039F4878B81E0808F60
:10177000818F8AE0828F08C0833069F4878B81E093
:10178000808F818F9FEF928F838F7796ED93FC935D
:1017900085E090E00DC0893049F4878B81E0808F2F
:1017A0007796ED93FC9382E090E002C080E090E0B9
:1017B000DF91CF910895CF93DF93FC01DA012115DA
:1017C000310509F44DC0EB018B8190E08230910529
:1017D000F1F58C91853089F048F48130E9F184305D
:1017E00009F040C012968C9184833CC08A3071F01D
:1017F0008C30C1F51482138228C011968C911197F8
:10180000813081F512968C9183832CC02430310570
:1018100039F513968C91139790E0978386831196F0
:101820008C9111978F77813021F0E0F083508230D6
:10183000C8F412968C91823029F0833031F08130D7
:1018400089F401C081E081830DC011820BC0039730
:1018500049F48C91893031F411968C91858302C0C2
:101860008FEF01C080E0DF91CF91089540E050E01C
:10187000FC0125913491FC013296A591B49121157A
:10188000310551F0109741F026233723232B11F017
:101890004A2B5B2B0496ECCFCA010895882329F0CC
:1018A000803139F48EE197E002C08AE597E00C942C
:1018B000360C80E090E008958AB1807F8AB98BB1C0
:1018C000807F8BB9249A2C980895EF92FF920F9302
:1018D0001F93CF93DF93DB011FB7813051F098F056
:1018E000823061F0833041F5C2EAD4E1EAECF4E100
:1018F0000EC0CCECD3E1E4EFF3E109C0C7E3D4E1DF
:10190000EFE5F4E104C0C1E6D3E1E9E8F3E17901F0
:10191000642FCD01F8940995602FC701FE01099548
:101920001FBF92E0980F923038F0EFE3F1E031976B
:10193000F1F700C0000001C080E0DF91CF911F915E
:101940000F91FF90EF9008950F931F93CF93DF9324
:1019500000D000D01F92CDB7DEB71D8204E09E01FB
:101960002F5F3F4F41E050E0BE016B5F7F4F0E9411
:10197000650C8823A1F18330A9F599812A81022F72
:1019800010E0192B3B811F923F931F922F931F92C0
:101990009F931F928F931F932F9386EE91E09F93B7
:1019A0008F930E94D8170FB6F894DEBF0FBECDBF3D
:1019B000812F99278F7099278830910551F018F45D
:1019C000059799F00FC08930910531F00B9751F4CC
:1019D00003C00032184061F082E090E00BC080E06C
:1019E00090E008C084E090E005C081E090E002C093
:1019F00083E090E00F900F900F900F900F90DF9189
:101A0000CF911F910F910895DB01282F30E010979F
:101A100069F0C90169E070E00E94CD16FC01E05058
:101A2000FC4F99E001900D929A95E1F7C90169E0A8
:101A300070E00E94CD16DC01AE5EBB4FFC01E050B1
:101A4000FC4F89E001900D928A95E1F70895E82F07
:101A5000F0E0ED5CFC4F60830895FF920F931F93BD
:101A6000CF93DF9300D000D01F92CDB7DEB7F82E12
:101A7000E82FF0E0EF5CFC4F10821FE02FEF86E7CD
:101A800091E0215080409040E1F700C000001D82AD
:101A900004E09E012F5F3F4F41E050E0BE016B5FCD
:101AA0007F4F8F2D0E94650C833021F0115031F74C
:101AB00080E001C081E00F900F900F900F900F9089
:101AC000DF91CF911F910F91FF900895282F30E063
:101AD000C90169E070E00E94CD16FC01EE5EFB4F8B
:101AE000C90169E070E00E94CD1649E050E0BF01F5
:101AF00080509C4F0E94B41708950F931F93CF936B
:101B0000DF9300D000D0CDB7DEB7182F83E08093ED
:101B1000C50380E88093C60381E08093C70340E259
:101B200050E060E870E088EC93E00E94CA1704E09F
:101B30009E012F5F3F4F43E250E065EC73E0812F41
:101B40000E94650C91E0813009F490E0892F819525
:101B50000F900F900F900F90DF91CF911F910F91E9
:101B600008950F931F93CF93DF9300D000D0CDB78C
:101B7000DEB7182F83E08093C50380EC8093C60303
:101B80008BE18093C70321E030E0611102C020E0C7
:101B900030E040E250E0B90188EC93E00E94CA17BF
:101BA00004E09E012F5F3F4F43E250E065EC73E09D
:101BB000812F0E94650C91E0813009F490E0892F1B
:101BC00081950F900F900F900F90DF91CF911F9103
:101BD0000F910895CF92DF92EF92FF920F931F9390
:101BE000CF93DF93CDB7DEB727970FB6F894DEBF5C
:101BF0000FBECDBF182F1092C50303E09E012B5FCF
:101C00003F4F41E050E065EC73E00E94650CE12E2F
:101C1000F12C833031F0F701EF5CFC4F85E08083DD
:101C200095C08F8180FF0AC0F701EF5CFC4F908167
:101C3000911102C095E0908381FF04C0F701EF5C31
:101C4000FC4F1082C7018F5C9C4F6C01FC018081AE
:101C5000833061F128F48130A9F18230C9F03FC0AE
:101C60008430E9F08530D9F5812F0E947D0D8823DD
:101C700041F0812F0E947D0D882389F1F6011082A9
:101C80002EC0F701ED5CFC4F80818823A9F020C0B5
:101C900061E0812F0E94B10D811121C01DC060E063
:101CA000812F0E94B10D81111AC00AC0F701ED5CAD
:101CB000FC4F8081811113C060E0812F0E94B10D23
:101CC00081E00BC0F701ED5CFC4F8081882339F087
:101CD00061E0812F0E94B10D83E0F601808381E0F5
:101CE0008093C50304E09E012F5F3F4F41E050E029
:101CF00065EC73E0812F0E94650C482F843031F52C
:101D0000B9812A813B81AC81C70169E070E00E9402
:101D1000CD16FC01E050FC4F4083822F90E09B2BBE
:101D2000948383833183A283303811F481E88183E3
:101D3000C70169E070E00E94CD1680509C4FFC0105
:101D40008281803829F421E8228302C08FEF01C00C
:101D500080E027960FB6F894DEBF0FBECDBFDF91AF
:101D6000CF911F910F91FF90EF90DF90CF9008954A
:101D70000C94EA0D86E691E00895E82FF0E0E35C2C
:101D8000FC4F10820895DB01109769F090E069E044
:101D900070E00E94CD16FC01E050FC4F99E00190EC
:101DA0000D929A95E1F70895E82FF0E0E15CFC4F81
:101DB00060830895282F30E0C90169E070E00E9437
:101DC000CD16FC01EE5EFB4FC90169E070E00E9498
:101DD000CD1649E050E0BF0180509C4F0E94B417DF
:101DE0000895AF92BF92CF92DF92EF92FF920F933E
:101DF0001F93CF93DF93DB01282F30E0C90169E007
:101E000070E00E94CD16FC01E050FC4F85E080831D
:101E100011968C91119790E0982F88274C91842BE4
:101E20009087878312966C91129713965C91139703
:101E300014964C91149715969C91159716968C9123
:101E40001697858317968C918683D901A35CBC4F26
:101E50005D018C91E901C55CDC4F6E01D901A75C85
:101E6000BC4F7D018901095C1C4FE901CB5CDC4F53
:101E7000D601882379F08C91681B6183D7018C91FE
:101E8000581B5283D8018C91481B43838881981B2F
:101E900094830DC06C93D7015C93D8014C939883C5
:101EA000118212821382148281E0E5018883DF911E
:101EB000CF911F910F91FF90EF90DF90CF90BF9047
:101EC000AF9008950F931F93CF93DF93CDB7DEB7F5
:101ED00028970FB6F894DEBF0FBECDBF182F80E451
:101EE000898383E08A83E12FF0E0E15CFC4F81E0AD
:101EF0009081911101C080E08B8308E09E012F5FEB
:101F00003F4F43E050E0B901812F0E94650C8830BB
:101F100041F4BE016F5F7F4F812F0E94F10E80E080
:101F200001C081E028960FB6F894DEBF0FBECDBF8A
:101F3000DF91CF911F910F910895E82FF0E0E35CBE
:101F4000FC4F10820E94620F91E0811190E0892F76
:101F500008950C94620F84E791E008952091C800E1
:101F600025FFFCCFFC0180818093CE000895CF93A4
:101F7000DF931F92CDB7DEB7898361E070E0CE01B9
:101F800001960E94AE0F80E090E00F90DF91CF911C
:101F9000089588E08093C90086E08093CA0010927B
:101FA000CB001092CD0080E18093CC0082E891E0DC
:101FB000909327048093260408950E946309F8945F
:101FC000E0E0F0EF09940895EDEEF3E080E090E0BA
:101FD00023E0EE3FF207D9F021919227092E0294D7
:101FE000202D2F702927392F3025330F307E2327BE
:101FF000302D3927307F3695092E000C331F9695EA
:10200000969596959F7193279827822FE1CF0895F3
:102010000E94E40F9093FF038093FE0343E150E09E
:1020200060E070E08DEE93E00C94D61ACF93DF93CE
:1020300043E150E060E070E08DEE93E00E94C61A4C
:102040008091ED039091EE038D3E9E4F91F083E1E0
:10205000EDEEF3E0DF011D928A95E9F78DEE9EEF3C
:102060009093EE038093ED030E9446100E940810A7
:1020700009C0C091FE03D091FF030E94E40FC8176E
:10208000D90729F7DF91CF910C944E04CF93DF93BA
:1020900000D000D000D0CDB7DEB786E0E8E9F1E0AF
:1020A000DE01119601900D928A95E1F786E0FE011E
:1020B0003196AFEEB3E001900D928A95E1F7EDEE27
:1020C000F3E0108685E08187828783878487269660
:1020D0000FB6F894DEBF0FBECDBFDF91CF9108954C
:1020E000CF93DF93FC01108281E0818380E18283C2
:1020F00081E1838382E1848383E1858326E0AAEF03
:10210000A20FB0E0CD0165E070E00E94CD168256CE
:102110009E4FEC0149815A816B817C81452B462B76
:10212000472B79F0EF01C20FD11DCD0165E070E0C2
:102130000E94CD1682569E4FDC018C9188832F5FC2
:10214000DECF822FDF91CF9108950F931F93CF930E
:10215000DF93DB018031D1F028F4882359F08130FE
:1021600061F005C08231D1F0B0F08331D1F0EEE9F9
:10217000F1E020C08091F5030BC086E0EFEEF3E0C4
:1021800001900D928A95E1F786E032C08091F603C6
:102190008C9381E02DC08091F703FACF8091F803F2
:1021A000F7CF8091F903F4CF3596EF012597988109
:1021B000891751F0018112812381348101151105A4
:1021C0002105310589F713C04091FA035091FB03B3
:1021D0006091FC037091FD0340235123622373231C
:1021E00081E0452B462B472B99F680E0D1CF80E04C
:1021F000DF91CF911F910F910895CF93DF936115D8
:10220000710509F465C0FB018031E1F028F48823F1
:1022100059F0813069F005C08231E1F0B8F08331C6
:10222000E9F0AEE9B1E024C080818093F5034CC0B1
:1022300086E0AFEEB3E001900D928A95E1F70E943F
:10224000081042C080818093F6033EC08081809355
:10225000F7033AC080818093F80336C08081809371
:10226000F90332C01596ED0125979881891761F021
:1022700011964D915D916D917C9114974115510589
:102280006105710579F724C020818091FA0390914E
:10229000FB03A091FC03B091FD03222329F0842BC2
:1022A000952BA62BB72B08C040955095609570953F
:1022B00084239523A623B7238093FA039093FB03EB
:1022C000A093FC03B093FD030E94081081E001C0BD
:1022D00080E0DF91CF91089580918203823059F49C
:1022E00082E493E0FA0191838083109282038091CB
:1022F000410390E0089580E090E00895CF93DF934C
:102300001F92CDB7DEB7BA0181E080938203A901A5
:1023100082E493E029830E94C1172981209341031D
:1023200080E00F90DF91CF9108958F929F92AF92AE
:10233000BF92CF92DF92EF92FF920F931F93CF93B2
:10234000DF93CDB7DEB7C054D1090FB6F894DEBF26
:102350000FBECDBF20918203213029F008F442C185
:10236000223029F43FC130914103311103C0109252
:10237000820338C1FC0190914203973009F49FC059
:1023800068F5933009F476C090F4913009F46AC08E
:10239000923009F024C14EE364E473E0809143037A
:1023A0000E94A51080934103809141037AC095302B
:1023B00009F46DC008F077C0E0909601F0909701A5
:1023C000B70183E493E00E94D117F7010190002048
:1023D000E9F7EE19EF5FE093410301C1903F09F483
:1023E000C0C0E8F4903831F1913809F0F8C080E4C9
:1023F000E2E4F3E0DE01119601900D928A95E1F797
:102400004FE350E06FEF70E083E493E00E94CA175F
:1024100088248394912CEE24E394F12C6EC0923F97
:1024200009F4C6C008F4CAC09F3F09F0D8C00E9492
:10243000DD0FD5C080914303843008F0D0C04091B7
:10244000440350E00DE325E433E0B9010E94650C3C
:102450008093410380914103809344038091410321
:102460008D5FBBC064E473E0809143030E94FD1064
:1024700082E0B3C0309709F4B2C00190F081E02D42
:10248000309709F4ACC0809143030995A8C06EE869
:1024900077E083E493E00E94A4178EE897E00E941F
:1024A000AB178E5F9AC0E0914303E43008F097C009
:1024B000F0E0EA5BFD4F8081809344030CC03097CD
:1024C00051F00280F381E02D309729F060914403B0
:1024D00080914303099583E080C0E1E0F0E0EC0FD8
:1024E000FD1FEE0DFF1D80818F3FC9F1C18012815C
:1024F00093E0E90EF11CC11005C09DE3E916F1045B
:1025000064F32DC0A12EB12C94012F5F3F4FA90180
:102510004A0D5B1D4034510514F5D12C2E5B3C4F08
:10252000012FA60161E070E06C0F7D1F6E0D7F1D15
:102530000E94650C90E0F401EE5BFC4F009711F4F3
:10254000106804C08A159B050CF4106410838FEF8B
:10255000A81AB80A8A0C9B1CEC0CFD1CCECF8FE38A
:102560003CC08FEF8093430380E88093440382E074
:10257000809345032093460383E08093470384E0E0
:102580008093480385E08093490386E080934A0363
:1025900087E080934B0381E880934C0382EF809324
:1025A0004D0381EF80934E0390934F038EE015C04F
:1025B00083E493E00E9470108F5F0FC0209341036B
:1025C000309769F00480F581E02D309741F083E485
:1025D00093E0099590914103890F8093410382E034
:1025E00080938203C05CDF4F0FB6F894DEBF0FBE4E
:1025F000CDBFDF91CF911F910F91FF90EF90DF90B2
:10260000CF90BF90AF909F908F900895A3E8B3E0D4
:10261000FC012491422F50E04D935D9301962223BB
:1026200049F023E0A13CB20799F71092C20310923F
:10263000C10308950895109280008DE08093810079
:102640000895BC018091C3039091C4038617970736
:10265000F1F07093C4036093C3031092850010924D
:102660008400072E000C880B990B29E03DE340E025
:1026700050E00E94FD16B901CA0128EE33E040E0A7
:1026800050E00E94DE163093890020938800089560
:10269000B19B04C082E086BB81E0089580E008958C
:1026A00082E084BD85E085BD089516BC8AEF87BDB4
:1026B0000895A99B04C082E085BB81E0089580E075
:1026C0000895AA27BB27E82FF92F222741E0882762
:1026D0002395D9F04899FCCF0FC0522F2BE42395B6
:1026E000BAF04899FCCF321B441F08F005C06817A8
:1026F00049F08395419341E03BE4339542F0489B98
:10270000FCCFEBCF8FEF8A950895882309F08FEFE8
:102710000895E82FF92F6623F1F1662371F16A9588
:102720005191B0E8352F3B2399F40000509A44E1D1
:102730004A95F1F70000509842E04A95F1F7B695B6
:1027400061F3000000000000000000000000EACF7C
:10275000509A44E04A95F1F70000000050984DE08F
:102760004A95F1F700000000B695B9F200000000AC
:102770000000000000000000D5CF000000000000B5
:1027800000000000000000000000509A44E04A955C
:10279000F1F7000050980895AA27BB27E82FF92FDA
:1027A000222741E088272395D9F04A99FCCF0FC012
:1027B000522F2BE42395BAF04A99FCCF321B441FC9
:1027C00008F005C0681749F08395419341E03BE468
:1027D000339542F04A9BFCCFEBCF8FEF8A9508955B
:1027E000882309F08FEF0895E82FF92F6623F1F180
:1027F000662371F16A955191B0E8352F3B2399F426
:102800000000529A44E14A95F1F70000529842E0E4
:102810004A95F1F7B69561F3000000000000000052
:1028200000000000EACF529A44E04A95F1F7000018
:10283000000052984DE04A95F1F700000000B6956F
:10284000B9F2000000000000000000000000D5CF39
:102850000000000000000000000000000000000078
:10286000529A44E04A95F1F7000052980895AA2739
:10287000BB27E82FF92F222741E088272395D9F09D
:102880004999FCCF0FC0522F2BE42395BAF04999F8
:10289000FCCF321B441F08F005C0681749F0839530
:1028A000419341E03BE4339542F0499BFCCFEBCFB1
:1028B0008FEF8A950895882309F08FEF0895E82F08
:1028C000F92F6623F1F1662371F16A955191B0E811
:1028D000352F3B2399F40000519A44E14A95F1F7D2
:1028E0000000519842E04A95F1F7B69561F3000077
:1028F00000000000000000000000EACF519A44E010
:102900004A95F1F70000000051984DE04A95F1F723
:1029100000000000B695B9F20000000000000000C1
:1029200000000000D5CF0000000000000000000003
:10293000000000000000519A44E04A95F1F70000C1
:1029400051980895AA27BB27E82FF92F222741E0A5
:1029500088272395D9F04B99FCCF0FC0522F2BE439
:102960002395BAF04B99FCCF321B441F08F005C0E9
:10297000681749F08395419341E03BE4339542F079
:102980004B9BFCCFEBCF8FEF8A950895882309F0FE
:102990008FEF0895E82FF92F6623F1F1662371F187
:1029A0006A955191B0E8352F3B2399F40000539A72
:1029B00044E14A95F1F70000539842E04A95F1F757
:1029C000B69561F300000000000000000000000068
:1029D000EACF539A44E04A95F1F70000000053987B
:1029E0004DE04A95F1F700000000B695B9F20000FD
:1029F00000000000000000000000D5CF0000000033
:102A0000000000000000000000000000539A44E0B5
:102A10004A95F1F70000539808958DEA9EED909342
:102A2000290480932804089581E02091280430919E
:102A300029042D3A3E4D09F480E081950895CF9305
:102A4000DF93CDB7DEB72D970FB6F894DEBF0FBE7C
:102A5000CDBF1A861B861C861D860E941C040E9400
:102A6000C90F0E9416100E941B130E9450130E944F
:102A70000D158091F503803109F128F4813061F062
:102A8000823089F004C0813101F1823129F180EE78
:102A900090E00E9406137EC180ED90E00E94061334
:102AA00089E390E006C08BEB90E00E9406138AE376
:102AB00090E090935801809357016CC183EA90E0B5
:102AC0000E9406138BE390E00DC08EE890E00E9418
:102AD00006138CE390E006C084E790E00E940613A2
:102AE0008DE390E0909358018093570183EF90E03D
:102AF00090930A018093090184E590E090930C0182
:102B000080930B0183E0809310018CE0EDE1F1E014
:102B1000A9E2B1E001900D928A95E1F78CE0E1E144
:102B2000F1E0ADE1B1E001900D928A95E1F782E02C
:102B3000482E8BE592E00E94D5098BE592E09093B8
:102B400018018093170182E048120AC08AE792E0D8
:102B50000E94D5098AE792E0909324018093230193
:102B6000789486E091E00E9484090E945513512CCC
:102B700059E9652E52E0752E6AE4862E62E0962EA3
:102B80000E94141581110E94DD0F0E94730980E0DC
:102B900091E00E9495110E94591381110EC091E09D
:102BA000591639F15916A8F0A2E05A1609F48FC047
:102BB000B3E05B1609F497C0B9C08BE592E00E94C0
:102BC000670BE2E04E12EBCF8AE792E00E94670BC0
:102BD000E6CF80915A028111A5C08091F60390E062
:102BE0000E9421130E9448135524539481119EC0C2
:102BF00099C0CE010A967C014BE5C42E42E0D42E4A
:102C000009E912E0302E3618D7018D919C91892B5D
:102C100089F4832D0E942F04F7019183808300970C
:102C200049F0DC011696ED91FC911797309711F061
:102C3000832D0995F701A080B180A114B10489F119
:102C4000D5011296ED91FC911397832D0995F8010A
:102C5000882351F080818F5F80838F3130F0D701DE
:102C60001D921C92108222C01082D5011496ED9103
:102C7000FC911597832D09958823C1F0D5011896ED
:102C8000ED91FC911997BE016F5F7F4F832D0995E0
:102C9000BE016F5F7F4FC6010E94E00932E0532EF4
:102CA00005C060E070E0C6010E94E009B2E0EB0EF2
:102CB000F11C0F5F1F4FEFE1CE0ED11C802F861944
:102CC000841508F49FCFF1E05F1230C02BC00E9442
:102CD0003D09811129C082E0481228C00E941709CD
:102CE000811122C023C00E943D09882351F00E9417
:102CF000DD098C018BE592E00E948E0BB8010E94E9
:102D0000470992E049120EC00E941709882351F02A
:102D10000E94DD098C018AE792E00E948E0BB801C7
:102D20000E942109512C02C023E0522E9BE5C92E9E
:102D300092E0D92EDE011A967D010AE412E0A02E5F
:102D4000A818C6010E94750BB82EF80121918F01B9
:102D5000022E000C330B90E02817390781F0D701C1
:102D6000ED91FC91309741F00284F385E02D30978E
:102D700019F06B2D8A2D0995F8013197B082BFE1CA
:102D8000CB0ED11CE2E0EE0EF11C802F88198415C9
:102D9000B0F2F6CE44244394CCCE0024552704C090
:102DA000080E591F880F991F009729F0769567958F
:102DB000B8F37105B9F7802D952F0895052E97FB6F
:102DC0001EF400940E94F51657FD07D00E94541778
:102DD00007FC03D04EF40C94F516509540953095B1
:102DE00021953F4F4F4F5F4F089590958095709577
:102DF00061957F4F8F4F9F4F089568940013E8941B
:102E0000A0E0B0E0E6E0F7E10C942517EFEFE7F97A
:102E100059016A015E23550FEE08FE2C87019B01C4
:102E2000AC019E23990F660B762FCB010E9476177B
:102E3000CDB7DEB7EAE00C9441172F923F924F9244
:102E40005F926F927F928F929F92AF92BF92CF923A
:102E5000DF92EF92FF920F931F93CF93DF93CDB743
:102E6000DEB7CA1BDB0B0FB6F894DEBF0FBECDBFBB
:102E700009942A88398848885F846E847D848C848C
:102E80009B84AA84B984C884DF80EE80FD800C8195
:102E90001B81AA81B981CE0FD11D0FB6F894DEBF78
:102EA0000FBECDBFED010895A1E21A2EAA1BBB1BD8
:102EB000FD010DC0AA1FBB1FEE1FFF1FA217B30706
:102EC000E407F50720F0A21BB30BE40BF50B661F1C
:102ED000771F881F991F1A9469F7609570958095E0
:102EE00090959B01AC01BD01CF010895DF93CF9375
:102EF0009F92A0E49A2E0024D001E001F0011695E3
:102F00000795F794E794D794C794B794A79448F497
:102F10001068A20FB31FC41FD51FE61FF71F081E9E
:102F2000191E220F331F441F551F661F771F881F4E
:102F3000991F9A9421F79D01AE01BF01C001112490
:102F40009F90CF91DF910895FB01DC0105900D92D8
:102F50000020E1F70895FC0105900020E9F7809535
:102F600090958E0F9F1F0895FB01DC0104C08D9189
:102F70000190801921F441505040C8F7881B990BEB
:102F80000895FB01DC0102C001900D9241505040B8
:102F9000D8F70895DC0101C06D9341505040E0F72F
:102FA0000895FB01DC0101900D920020E1F70895E6
:102FB000A0E0B0E0EEEDF7E10C942D17AE014B5F11
:102FC0005F4FFA0161917191AF0180912604909158
:102FD00027040E944418E2E00C944917A0E0B0E0F6
:102FE000E4EFF7E10C942B17AE01495F5F4FDA0174
:102FF0006D917D91AD0104E214E0F801828193812D
:10300000DC0113962C911397286013962C930E9441
:103010004418D8011296ED91FC9113972381277FD4
:103020002383E4E00C9447170F931F93CF93DF9310
:10303000E0912604F0912704238121FF1BC08C011D
:10304000D0E0C0E0F80181918F0160912604709179
:103050002704DB011896ED91FC911997882331F034
:103060000995892B79F3DFEFCFEFECCF8AE0099553
:10307000892B19F08FEF9FEF02C08D2F9C2FDF91CE
:10308000CF911F910F910895ACE0B0E0EAE4F8E130
:103090000C941D177C016B018A01FC0117821682BA
:1030A000838181FFBFC1CE0101964C01F70193815D
:1030B000F60193FD859193FF81916F01882309F4B7
:1030C000ADC1853239F493FD859193FF81916F01F4
:1030D000853229F4B70190E00E942E1AE7CF512CD7
:1030E000312C20E02032A0F48B3269F030F48032B1
:1030F00059F0833269F420612EC08D3239F080336B
:1031000039F4216028C02260246025C0286023C0D3
:1031100027FD29C030ED380F3A3088F426FF07C06C
:10312000852D6AE00E94F81A582E530E14C0832D84
:103130006AE00E94F81A382E330E20620CC08E32DC
:1031400021F426FD6BC1206406C08C3611F4206882
:1031500002C0883641F4F60193FD859193FF819179
:103160006F018111BFCF982F9F7D9554933028F424
:103170000C5F1F4FFFE3F9830DC0833631F08337B7
:1031800071F0833509F05BC022C0F801808189832A
:103190000E5F1F4F44244394512C540115C0380135
:1031A000F2E06F0E711CF801A080B18026FF03C011
:1031B000652D70E002C06FEF7FEFC5012C870E9484
:1031C000231A2C0183012C852F77222E17C038015A
:1031D000F2E06F0E711CF801A080B18026FF03C0E1
:1031E000652D70E002C06FEF7FEFC5012C870E9454
:1031F000181A2C012C852068222E830123FC1BC069
:10320000832D90E048165906B0F4B70180E290E0B3
:103210000E942E1A3A94F4CFF50127FC859127FEDF
:1032200081915F01B70190E00E942E1A31103A940B
:10323000F1E04F1A51084114510471F7E5C084368A
:1032400011F0893639F5F80127FF07C060817181D7
:10325000828193810C5F1F4F08C060817181072EAE
:10326000000C880B990B0E5F1F4F2F76722E97FF65
:1032700009C090958095709561957F4F8F4F9F4FB6
:103280002068722E2AE030E0A4010E94661AA82E5F
:10329000A81844C0853729F42F7EB22E2AE030E0EA
:1032A00025C0F22FF97FBF2E8F36C1F018F4883574
:1032B00079F0B4C0803719F0883721F0AFC02F2FD4
:1032C0002061B22EB4FE0DC08B2D8460B82E09C0D3
:1032D00024FF0AC09F2F9660B92E06C028E030E078
:1032E00005C020E130E002C020E132E0F801B7FE85
:1032F00007C060817181828193810C5F1F4F06C07E
:103300006081718180E090E00E5F1F4FA4010E94F8
:10331000661AA82EA818FB2DFF777F2E76FE0BC00D
:10332000372D3E7FA51450F474FE0AC072FC08C00D
:10333000372D3E7E05C0BA2C372D03C0BA2C01C0F4
:10334000B52C34FF0DC0FE01EA0DF11D80818033E4
:1033500011F4397E09C032FF06C0B394B39404C09F
:10336000832F867809F0B39433FD13C030FF06C075
:103370005A2CB31418F4530C5B18B32CB31468F420
:10338000B70180E290E03C870E942E1AB3943C85FE
:10339000F5CFB31410F43B1801C0312C34FF12C028
:1033A000B70180E390E03C870E942E1A3C8532FFF3
:1033B00017C031FD03C088E790E002C088E590E0C7
:1033C000B7010CC0832F867859F031FF02C08BE221
:1033D00001C080E237FD8DE2B70190E00E942E1A15
:1033E000A51438F4B70180E390E00E942E1A5A9495
:1033F000F7CFAA94F401EA0DF11D8081B70190E0A6
:103400000E942E1AA110F5CF332009F44FCEB70138
:1034100080E290E00E942E1A3A94F6CFF70186815E
:10342000978102C08FEF9FEF2C96E2E10C94391741
:10343000FC010590615070400110D8F7809590957F
:103440008E0F9F1F0895FC01615070400190011084
:10345000D8F7809590958E0F9F1F08950F931F9317
:10346000CF93DF93FB01238121FD03C08FEF9FEFFB
:1034700028C022FF16C0468157812481358142171A
:10348000530744F4A081B1819D012F5F3F4F3183E9
:1034900020838C93268137812F5F3F4F378326838C
:1034A00010C0EB01092F182F0084F185E02D09953C
:1034B000892BE1F68E819F8101969F838E83812FD8
:1034C000902FDF91CF911F910F910895FA01AA27B4
:1034D000283061F1203191F1E8946F936E7F6E5F37
:1034E0007F4F8F4F9F4FAF4FB1E040D0B4E03ED001
:1034F000670F781F891F9A1FA11D680F791F8A1FE8
:10350000911DA11D6A0F711D811D911DA11D22D04C
:1035100009F468943F91062E000C3019000C000C41
:103520003019305D3193CEF6CF010895462F4770A4
:10353000405D4193B3E00FD0C9F7F6CF462F4F70EF
:10354000405D4A3318F0495D31FD4052419302D04D
:10355000A9F7EACFB4E0A6959795879577956795F3
:10356000BA95C9F700976105710508959B01AC01F3
:103570000A2E06945795479537952795BA95C9F71A
:10358000620F731F841F951FA01D0895DC01CB01DE
:10359000FC01F999FECF06C0F2BDE1BDF89A319663
:1035A00000B40D9241505040B8F70895DC01A40FCB
:1035B000B51F4150504048F0CB01840F951F2E910C
:1035C0000E94E71A41505040D0F70895262FF999EC
:1035D000FECF92BD81BDF89A019700B4021639F072
:1035E0001FBA20BD0FB6F894FA9AF99A0FBE089543
:1035F000002480FD060E660F11F08695D1F7802D10
:063600000895F894FFCFCD
:10360600F9030A04FC03064D0147013B0003900140
:1036160002E8049701100000001A0418041500823D
:1036260001400000006C117E110000000000000047
:103636000000000000000000000000000000000084
:103646000000000000000000000000000012011051
:1036560001000000409B283800510301020301FFCE
:10366600FFFFFFFFFF01B80EEA0D660D0000040D17
:10367600270D2D0DA90F620FDA0EBD0EC30ED40E47
:103686009D0F0000000200000000B70F00000000C0
:1036960008028303320240023030303030312402D7
:1036A600000000230100000025040000003208008D
:1036B60000000000000000446574656374656420C2
:1036C6004E363420636F6E74726F6C6C6572004494
:1036D6006574656374656420474320636F6E747216
:1036E6006F6C6C65720049643A202530347820206E
:1036F600202825643A20253032782025303278205B
:1037060025303278290D0A007200610070006800C9
:103716006E00650074002000740065006300680098
:103726006E006F006C006F00670069006500730033
:10373600000031003200330034003500360000004E
:06374600332E352E310088
:00000001FF
