:100000000C9483040C94A0040C94A0040C94A004FD
:100010000C94A0040C94A0040C94A0040C94A004D0
:100020000C94A0040C94A0040C94A0040C942D082F
:100030000C9494080C94A0040C94A0040C94A004B8
:100040000C94A0040C94A0040C94A0040C94A004A0
:100050000C94A0040C94A0040C94A0040C94A00490
:100060000C94A0040C94A0040C94A0040C94A00480
:100070000C94A00456195D195119511951195119AF
:100080005119511951195119511951195119511920
:10009000511968196F1976198419841984194743FD
:1000A000204B422B4A5320746F2055534220763305
:1000B0002E36004743204B4220746F205553422078
:1000C00076332E36004B4220746F205553422076F3
:1000D000332E36004475616C2047616D656375622F
:1000E0006520746F205553422076332E36004475B8
:1000F000616C204E363420746F2055534220763385
:100100002E36004475616C2047432F4E36342074E0
:100110006F205553422076332E360047616D65635C
:1001200075626520746F205553422076332E360059
:100130004E363420746F205553422076332E3600CD
:1001400047432F4E363420746F2055534220763368
:100150002E36000902540003010080190904000032
:10016000010300000009210101000122E804070544
:1001700081031000010904010001030000000921AE
:100180000101000122170007058203100001090484
:1001900002000103000000092101010001221500F5
:1001A0000705830340000109025400030100801980
:1001B00009040000010300000009210101000122DF
:1001C000E804070581031000010904010001030090
:1001D000000009210101000122E804070582031043
:1001E00000010904020001030000000921010100CF
:1001F000012215000705830340000109023B0002AC
:100200000100801909040000010300000009210118
:1002100001000122170007058103100001090401F4
:10022000000103000000092101010001221500075F
:1002300005820340000109023B0002010080190908
:10024000040000010300000009210101000122E86F
:1002500004070581031000010904010001030000E7
:100260000009210101000122150007058203400059
:10027000010600FF0901A101150026FF0075089580
:100280003F0901B100C005010906A1010507950359
:100290007508150025E7190029E78100C005010947
:1002A00005A1010901A1008501050175109506153B
:1002B0000026007D09300931093309340935093236
:1002C0008102C0A1000509150025017501951019CD
:1002D000012910750195108102C0050F0992A10234
:1002E0008502099F09A009A509A615002501350069
:1002F00045017501950481029504750181030994F6
:10030000150025013500450175019501810209227D
:100310001501252835014528750795018102C00979
:1003200021A10285010922150125283501452875DD
:1003300008950191020925A102092609270930091A
:100340003109320933093409400941094209430995
:1003500028250C15013501450C750895019100C043
:10036000095009540951150026FF7F350046FF7FCB
:1003700066031055FD751095039102550066000047
:100380000952150026FF0035004610277508950113
:100390009102095315012508350145087508950195
:1003A00091020955A1020501093009311500250105
:1003B000750195029102C0050F09569501910295AC
:1003C0000591030957A1020B01000A000B02000A64
:1003D0000066140055FE150026FF00350047A08C6E
:1003E0000000660000750895029102550066000045
:1003F000C0050F09A766031055FD150026FF7F35C0
:100400000046FF7F7510950191026600005500C0FF
:10041000050F095AA1028502092215012528350177
:100420004528750895019102095B095D150026FFB5
:1004300000350046102795029102095C095E6603AB
:100440001055FD26FF7F46FF7F751091024500661F
:1004500000005500C0095FA102850309221501258E
:1004600028350145287508950191020923150025B5
:1004700001350045017504950191020958A1020B4F
:1004800001000A000B02000A00750295029102C0E9
:100490001580257F36F0D84610270960750895012C
:1004A000910236F0D846102709610962950291023F
:1004B000150026FF003500461027096309647508FA
:1004C00095029102096546102795019102C0096EB7
:1004D000A102850409221501252835014528750842
:1004E000950191020970150026FF0035004610277E
:1004F000750895019102096F1580257F36F0D84661
:10050000102795019102097166140055FE15002609
:10051000FF00350047A08C00009102097226FF7F82
:1005200046FF7F66031055FD751095019102660028
:10053000005500C00973A10285050922150125286F
:100540003501452875089501910209701601FF26AD
:10055000FF0036F0D8461027751095019102C009AA
:1005600074A1028506092215012528350145287543
:100570000895019102097509761580257F36F0D816
:10058000461027750895029102C00968A1028507E7
:100590000922150125283501452875089501910284
:1005A000096C150026102735004610277510950197
:1005B000910209691581257F350046FF0075089570
:1005C0000C920201C00966A10285080501093009E3
:1005D000311581257F350046FF007508950291028F
:1005E000C0050F0977A102850A09221501252835C2
:1005F0000145287508950191020978A10209790938
:100600007A097B15012503750895019100C0097CC5
:10061000150026FF00350046FF009102C00990A199
:1006200002850B09222528150135014528750895F5
:10063000019102C00996A102850C099709980999B0
:10064000099A099B099C15012506750895019100D9
:10065000C0097DA102850D097E150026FF00350029
:10066000461027750895019102C0096BA102850EFD
:1006700009221501252835014528750895019102A3
:10068000096D150026FF00350046FF00750895012D
:100690009102095166031055FD150026FF7F3500B4
:1006A00046FF7F7510950191025500660000C00954
:1006B000ABA10285090925A10209260927093009EC
:1006C0003109320933093409400941094209430912
:1006D00028250C15013501450C75089501B100C0A0
:1006E0000501093B150026FF01350046FF01750A8B
:1006F0009501B1027506B101C0050F0989A10285F6
:10070000020922252815013501452875089501B1F2
:1007100002098BA102098C098D098E25031501356B
:1007200001450375089501B100C009AC150027FF0C
:10073000FF0000350047FFFF000075109501B10074
:10074000C0097FA102850309807510950115003548
:100750000027FFFF000047FFFF0000B102098326CA
:10076000FF0046FF0075089501B10209A909AA75A5
:100770000195021500250135004501B10275069568
:1007800001B103C0C00D0A00253032582000556E5B
:1007900068616E646C656420636F6E74726F6C2048
:1007A0007772697465205B25645D203A2000743A95
:1007B00020253032782C2072713A20307825303262
:1007C000782C2076616C3A20253034780D0A00555B
:1007D0006E6B6E6F776E20737472696E67206964DA
:1007E0000D0A00556E68616E646C656420636C610F
:1007F000737320625265717565737420307825308B
:1008000032780A00434647204550206661696C0DE6
:100810000A00496E76616C69642065702073697A9C
:10082000650D0A0000800100004002000020040065
:1008300000100800200010001000200008004000F8
:100840000400800002000001010000020008000412
:100850000004000800020010000100200000000059
:100860000100010002000200001004001000080056
:10087000004010000020200008000001040080005B
:10088000000800040004000800010010000200201D
:100890000000000039633365613862382D37353325
:1008A000662D313165352D613064632D3030316214
:1008B0006663613363353933000000064A074D082B
:1008C0004B094E0A47342D352E3689372F39333AA6
:1008D0003438303B323C363D373E383F874C294D2B
:1008E000494E4C4F35502A512B5339588B592C5A5D
:1008F0008A5B885C505D515E525F4F612854E155C0
:10090000E556E057E60011241FBECFEFD4E0DEBF6E
:10091000CDBF12E0A0E0B1E0E8EDFDE302C005903C
:100920000D92A033B107D9F723E0A0E3B2E001C0F4
:100930001D92AA3DB207E1F70E942A190C94EA1E03
:100940000C940000809346020895262F823050F4C4
:1009500090E061E270E00E94011B622F895B9D4F75
:100960000C949D0E08950C94140F0C94C90EFC0168
:100970008091A503823181F028F4882399F0823098
:1009800039F013C0843141F018F0853159F00DC0B1
:1009900082E0808383E103C082E1808384E18183FC
:1009A00082E00895108285E1FACF108281E0818390
:1009B00082E0828380E1838381E1848382E1858395
:1009C00083E1868384E1878388E0089515B88FEFFB
:1009D00084B98CEF87B918B81BB880E78AB9E1E60B
:1009E000F0E080E88083108210926400109265002D
:1009F0000895CF93C82F0E940410EC2FF0E0E05D23
:100A0000FD4F8083823059F018F4813029F00DC0F9
:100A1000833041F0853049F4CF910C944412CF914A
:100A20000C947C13CF910C947F1380E090E0CF91D5
:100A30000895AFE9B3E0E8E3F2E08D9190E08193AF
:100A4000919382E0E434F807C1F7109245021092C6
:100A5000440288E392E09093A4018093A301089557
:100A6000CF93DF93CDB7DEB72D970FB6F894DEBFE7
:100A70000FBECDBF1A861B861C861D860E94E6040B
:100A80000E949D130E94F8130E9406170E943917B6
:100A90000E94F6188091A503833131F1843159F118
:100AA00085EC90E00E94F11687E690E09093590162
:100AB000809358018BEF91E090930B0180930A0192
:100AC0008BE390E090930D0180930C0186E892E017
:100AD000909315018093140187E190E090931301A6
:100AE0008093120110E042C083EB90E00E94F11667
:100AF00086E690E0DBCF8EE990E00E94F11688E672
:100B000090E0909359018093580183E591E0909390
:100B10000B0180930A0184E590E090930D0180938E
:100B20000C018CE0EEE1F1E0AAE2B1E001900D925F
:100B30008A95E1F78CE0E2E1F1E0AEE1B1E001900D
:100B40000D928A95E1F786E892E0909321018093D7
:100B5000200187E190E090931F0180931E0183E0C4
:100B60008093110182E080930601BCCF8091060141
:100B70001817D0F4C12ED12CC60161E270E00E949A
:100B8000011B895B9D4F7C010E94780CC6016CE0C3
:100B900070E00E94011B895F9E4FDC015296FC921F
:100BA000EE9251971F5FE2CF789487E091E00E9428
:100BB0002A0C0E943E1710E00E94FD1881110E942D
:100BC000B1130E94190C80E091E00E9471150E94FF
:100BD0004217882311F000E00CC0113041F0C8F03A
:100BE000123009F4C0C0133009F4CBC0F2C000E0E9
:100BF0006AC080910601081780F7802F90E061E2BB
:100C000070E00E94011B895B9D4F0E94A00E0F5F48
:100C1000F0CF809146028111DBC08091A60390E065
:100C20000E940C170E94311711E08111D2C0D0C070
:100C3000E02EF12C5701AA0CBB1CCC24C394D12C60
:100C4000CC0EDD1ECA0CDB1CF60181859285892B3A
:100C500009F0F7C0802F0E94F904D6011A969C93E0
:100C60008E931997009709F46EC0DC011696ED91EA
:100C7000FC911797309709F4E4C0802F0995F6018D
:100C8000C184D284C114D10409F45DC0D601129686
:100C9000ED91FC911397802F0995F701E757FD4FD0
:100CA0008823B9F080818F5F80838F3198F0A1E035
:100CB000B0E0AC0FBD1FAA0DBB1D1A961C921E9270
:100CC000199710820F5F80910601081708F4B0CFC2
:100CD00046C01082D6011496ED91FC911597802F95
:100CE0000995882379F3D6011896ED91FC9119970F
:100CF000BE016F5F7F4F802F099580910601813083
:100D000019F4011112C004C0823079F4013069F481
:100D1000C70161E270E00E94011BBE016F5F7F4F5F
:100D2000895B9D4F0E94760E0CC0C70161E270E0A6
:100D30000E94011BBE016F5F7F4F895B9D4F0E9428
:100D4000860C12E0BFCFC70161E270E00E94011B78
:100D500060E070E0895B9D4F0E94860CB3CF11303C
:100D6000B9F112E036C00E94E30B811108C08091F6
:100D700006018230B0F30E94BD0B882391F313E08B
:100D800028C00E94E30B882389F0809106018130FE
:100D900019F40E94830C02C00E94800C8C0187E42D
:100DA00092E00E94C70EB8010E94ED0B80910601EF
:100DB000823070F00E94BD0B882351F00E94830C9A
:100DC0008C0188E692E00E94C70EB8010E94C70B12
:100DD00010E000E080910601081708F0EDCEE02E4B
:100DE000F12CC70161E270E00E94011B895B9D4FFD
:100DF0000E94AE0EB82EF701EC5CFD4F6F018081B2
:100E0000082E000C990B2B2D30E082179307B9F0B8
:100E1000EE0CFF1CE1E0F0E0EC0FFD1FEE0DFF1DFE
:100E20000184F285E02D309741F00284F385E02DB6
:100E3000309719F06B2D802F0995D601BC920F5F6A
:100E4000C9CFE1E0F0E0EC0FFD1FEA0DFB1DC1840E
:100E5000D2841CCF0F93FB018093E900CA012417B1
:100E6000350708F4C9018E0F9F1F002341F08E172C
:100E70009F0761F024912093F1003196F8CF8E17EF
:100E80009F0721F021912093F100F9CF0F91089550
:100E9000CF92DF92EF92FF920F931F93CF93DF9346
:100EA0006C01122FEA016417750708F4EB01E12CBD
:100EB000F12CB6016E0D7F1D012FC134D105B0F0AC
:100EC00020E430E040E450E080E00E942A07809176
:100ED000E8008E7F8093E80080E4E80EF11CC054A7
:100EE000D1098091E80080FFFCCFE3CF9E01AE01E5
:100EF00080E00E942A078091E8008E7F8093E800BE
:100F00008091E80080FFFCCFDF91CF911F910F917E
:100F1000FF90EF90DF90CF900895EF92FF920F93A4
:100F2000CF93DF938093E9009091E80090FF28C071
:100F3000FA012081318137FF06C08091F0008E7F59
:100F40008093F0001DC0EA017B019091E8009E7F34
:100F50009093E8002081318140815181FB016081C3
:100F6000718100E00E942A07F701118210828FEF41
:100F70009FEF998388838091E8008F778093E800C2
:100F8000DF91CF910F91FF90EF9008951092E900BB
:100F900081E08093EB001092EC008CE48093F000F1
:100FA0008091ED0082638093ED001092E8008091C3
:100FB000EE0087FF51C020E030E041E0A1ECE0917D
:100FC0008C02F0918D02828590E02817390744F554
:100FD00081E0820F8093E9004093EB00A093EC0046
:100FE0004093F000E0918C02F0918D02C9016CE019
:100FF00070E00E94011BE80FF91F878590898031FE
:101000009105D1F024F4089761F480E016C0803295
:10101000910521F08034910569F003C080E20DC094
:10102000089582E198E09F938F930E94BC1B0F90DC
:101030000F90089580E301C080E182608093ED000D
:101040001092E8008091EE0087FD03C084E098E0F4
:10105000EACF2F5F3F4FB3CF08951F920F920FB685
:101060000F9211242F933F934F935F936F937F932E
:101070008F939F93AF93BF93CF93EF93FF93C091C1
:10108000E100C0FF0DC08091E1008E7F8093E10000
:1010900081E08093E0028091E20080618093E20031
:1010A000C4FF10C08091E1008F7E8093E1008091A9
:1010B000E002882339F01092E0028091E2008F7EF6
:1010C0008093E200C3FF09C01092E0020E94C607AD
:1010D0008091E100877F8093E100C2FF05C080918D
:1010E000E1008B7F8093E100C5FF05C08091E100A6
:1010F0008F7D8093E100C6FF05C08091E1008F7B6A
:101100008093E100FF91EF91CF91BF91AF919F91BB
:101110008F917F916F915F914F913F912F910F90A0
:101120000FBE0F901F9018951F920F920FB60F923F
:1011300011246F927F928F929F92AF92BF92CF9223
:10114000DF92EF92FF920F931F932F933F934F9352
:101150005F936F937F938F939F93AF93BF93EF931F
:10116000FF93CF93DF93CDB7DEB72C97DEBFCDBF14
:101170007090F40070FE9BC21092E9006090E8004D
:1011800063FEE6C12091F20030E0FE01319680E07E
:1011900090E0FE2E0F2F8217930740F488309105C0
:1011A00029F04091F10041930196F5CF8091E8003C
:1011B000877F8093E800898187FD6CC0982F9F719D
:1011C00019F09130D1F166C08A81853019F08930EB
:1011D00001F162C08B818093E3008091E80080FF81
:1011E000FCCF8091E8008E7F8093E8008091E8003A
:1011F00080FFFCCF8091E30080688093E3008B81C7
:101200009C81892B11F481E001C082E0809366010A
:1012100041C08B818093DF02811102C082E001C056
:1012200083E0809366018091E80080FFFCCF80918D
:10123000E8008E7F8093E8002DC08076803261F5D3
:101240008A818930D1F48091E80080FFFCCF8091C1
:10125000E8008E7F8093E80088E0EF2DF02FA1ED6D
:10126000B2E001900D928A95E1F71092D0021092AF
:10127000CF0281E08093CE020DC01F928F9383EE48
:1012800097E09F938F930E94BC1B0F900F900F903D
:101290000F9002C010E001C011E0998197FF3CC19E
:1012A000292F2F718A81213009F4A6C020F0223025
:1012B00009F40AC133C18630A1F0883009F004C1B5
:1012C000809166012F813885833029F0198600E0EE
:1012D00041E050E0A2C000E041E050E06FED72E07C
:1012E000F1C08B819C81292F332722303105A1F059
:1012F00023303105F1F02130310509F00FC1E091C3
:101300008C02F0918D02008101702F8138856181FE
:10131000728142E150E0D6C0E0918C02F0918D02E2
:10132000208122704F8158856581768183819481E7
:1013300098C09927009709F444C0A0908C02B090FF
:101340008D02D50117962C91179730E02817390791
:101350000CF449C0CF80D88401977C01EE0CFF1CAF
:101360001896ED91FC911997EE0DFF1D0190F081FB
:10137000E02D812C912C81919191892B21F0BFEF4F
:101380008B1A9B0AF8CF880C991C82E0880D8987FC
:1013900083E08A8700E0960142E050E0BE01675F8B
:1013A0007F4F80E00E942A07960122503109F50103
:1013B00080859185FC01EE0DFF1D60817181A40186
:1013C00081C08091A7019091A801A091A901B0913D
:1013D000AA0189879A87AB87BC872F81388500E06F
:1013E00044E050E01AC08FEC97E09F938F930E94E7
:1013F000BC1B0F900F9076C0907619F09032A1F13F
:101400008DC0882319F0863061F088C019861A864D
:101410002F81388500E042E050E0BE01675F7F4FDA
:1014200051C08C8190E0829709F078C08D819E81B7
:10143000E0918C02F0918D02228530E02817390767
:1014400008F46CC020812470AF81B8856CE070E036
:101450000E94011BE80FF91F63857485AD01858526
:1014600096850E9448073EC0813009F057C02D8103
:101470003E81A0918C02B0918D021A968C911A97A0
:1014800090E08217930770F1C9016CE070E00E9450
:10149000011B8A0F9B1FFC01C388D488C114D1048F
:1014A000E9F1AE01475F5F4F6F2D702F81899289FF
:1014B000F60109950097B1F02F81388569857A8505
:1014C00000E0AC0180E00CC0811128C019861A86AA
:1014D0002F81388500E042E050E0BE01675F7F4F1A
:1014E0000E942A0711111AC08091E8008E7F809314
:1014F000E8008091E80080FF05C08091E8008E7FC1
:101500008093E8008091E80082FFF3CF8091E800AB
:101510008B7F8093E8001CC01123D1F08C818F93C6
:101520008B818F938A811F928F9389811F928F93D2
:101530008EEA97E09F938F930E94BC1B8091EB00F3
:1015400080628093EB000FB6F894DEBF0FBECDBF74
:1015500062FE33C08091F2009091CE02992341F156
:1015600090E02091CF023091D002280F391F203413
:101570003105F0F42091CF023091D00222573D4F37
:101580004091F20050E0F901BF01621B730B641738
:10159000750720F46091F1006193F6CF2091CF029E
:1015A0003091D002820F931F9093D0028093CF028C
:1015B0008091E8008B7F8093E80066FE78C0809180
:1015C000E8008F7B8093E8008091CE02882309F4A5
:1015D0006EC00091CF021091D0028091D10280762E
:1015E0008032A1F52091D5023091D602A0918C02D3
:1015F000B0918D021A968C911A9790E082179307FA
:1016000008F453C0C9016CE070E00E94011B8A0F0E
:101610009B1FFC01E588F688E114F104B9F09801FC
:101620004EE852E061ED72E081899289F7010995F7
:10163000882331F08091EB0080628093EB0035C00D
:101640008091E8008E7F8093E8002FC01F930F9356
:101650008EE897E09F938F930E94BC1B8EE8E82E44
:1016600082E0F82E02571D4F0F900F900F900F90B1
:1016700098E8C92E97E0D92E0E151F0571F0D701F5
:101680008D917D011F928F93DF92CF920E94BC1BA0
:101690000F900F900F900F90EFCF85E897E09F93FA
:1016A0008F930E94BC1B0F900F901092CE0271FE80
:1016B00007C044E651E06DED72E081E00E948D07C5
:1016C00072FE07C042E651E06BED72E082E00E94DC
:1016D0008D0773FE07C040E651E069ED72E083E0DC
:1016E0000E948D072C960FB6F894DEBF0FBECDBFBB
:1016F000DF91CF91FF91EF91BF91AF919F918F912A
:101700007F916F915F914F913F912F911F910F9119
:10171000FF90EF90DF90CF90BF90AF909F908F9011
:101720007F906F900F900FBE0F901F901895209193
:1017300060013091610181E02F3F3F4F09F080E06F
:1017400008959C019FB740916001509161014F3F06
:101750005F4FC9F7F8943093DA022093D90270935F
:1017600061016093600183E08093E9008091F00063
:1017700081608093F0009FBF0895209162013091B5
:10178000630181E02F3F3F4F09F080E008959C0105
:101790009FB740916201509163014F3F5F4FC9F77E
:1017A000F8943093DC022093DB0270936301609322
:1017B000620182E08093E9008091F0008160809373
:1017C000F0009FBF0895209164013091650181E090
:1017D0002F3F3F4F09F080E008959C019FB7409153
:1017E0006401509165014F3F5F4FC9F7F894309302
:1017F000DE022093DD02709365016093640181E055
:101800008093E9008091F00081608093F0009FBF99
:101810000895E0EEF0E08081816080831092E20024
:10182000E8EDF0E080818F77808380818062808323
:10183000089580918B02882321F0813051F010921D
:101840008B028091E0008E7F8093E00081E08093A6
:101850008B02089520E22093D80021E02093E0003D
:101860001092E2001092E30090938D0280938C021C
:101870008091D8008F778093D8008091D8008062C3
:101880008093D8001092FB001092630084E089BD21
:1018900089B5826089BD09B400FEFDCF8091D80072
:1018A00080688093D8008091D8008F7D8093D80085
:1018B0000E94C6078091E1008E7F8093E10089E756
:1018C0008093E2000895FC0181E08083DF01CF0175
:1018D0000C9630E82EE311963C93119712962C93B8
:1018E00012971296A817B907B1F7158616860895AC
:1018F00021E2FC0111922A95E9F70A960C94630CF7
:101900008FE090E0089583E090E008958F929F9299
:10191000BF92CF92DF92EF92FF920F931F93CF93DC
:10192000DF93CDB7DEB72C970FB6F894DEBF0FBEAE
:10193000CDBF8C017B010A960E94630CE114F10477
:1019400009F4C2C1F7018081843021F0853009F4A7
:1019500080C0BAC1F701638174814181042E000CFB
:10196000550B403BFFEF5F0714F440EB5FEF413551
:10197000510514F040E550E05C834B83F701828110
:10198000082E000C990B803BFFEF9F0714F480EBAF
:101990009FEF8135910514F080E590E09A8389836B
:1019A0002091AA0324FF33C09B01307F493DEFEF14
:1019B0005E0714F4326004C0483251050CF0316007
:1019C000893DFFEF9F0714F4346003C088970CF043
:1019D00038601C821B8273FD03C01A82198204C006
:1019E00080E590E09A83898372FF04C080EB9FEFCB
:1019F0009A83898371FF04C080EB9FEF9C838B8364
:101A000070FF06C080E590E09C838B8301C09B0142
:101A100089819A8168EC70E00E94011BFC018B8136
:101A20009C8168EC70E00E94011B8058914C9C8363
:101A30008B8340E85EE34E1B5F0B5A834983F801BA
:101A400083878C81848745878A818687B90180E175
:101A500036C1F701878190856181062E000C770BD6
:101A60006C39FFEF7F0714F46CE97FEF6536710581
:101A700014F064E670E07C876B87F7014281042EE6
:101A8000000C550B4C39FFEF5F0714F44CE95FEF86
:101A90004536510514F044E650E05A874987F7016E
:101AA000A3810A2E000CBB0BAC39FFEFBF0714F467
:101AB000ACE9BFEFA536B10514F0A4E6B0E0F7013C
:101AC0008480082C000C9908FCE98F16FFEF9F0614
:101AD00024F43CE9832E99249A9425E682169104F5
:101AE0001CF024E6822E912CF701C580D12CE680D3
:101AF000F12CB090AA039C01B4FE32C0307F693D46
:101B0000FFEF7F0714F4316004C0683271050CF0F8
:101B10003260493D6FEF560714F4346004C0483218
:101B200051050CF038601C861B8693FD03C01A8695
:101B3000198604C044E650E05A87498792FF04C0E2
:101B40004CE95FEF5A87498790FF04C04CE95FEF8B
:101B50005C874B8791FF04C084E690E09C878B876D
:101B60008B859C8560EA70E00E94011B9C878B87B7
:101B700089859A8560E67FEF0E94011B9A87898795
:101B8000CD0160EA70E00E94011B98878F83C40139
:101B900060E67FEF0E94011B9E838D83B2FE0FC023
:101BA00081E4C816D1040CF03064E1E4EE16F104CF
:101BB0000CF030621A8219821C821B823CC0C60162
:101BC000B0FE10C08F5791096EE770E00E94011BB4
:101BD0009C838B83C7018F5791096EE770E00E9449
:101BE000011B17C06FE370E00E94011B8138FEE308
:101BF0009F0714F080E89EE39C838B83C7016FE30B
:101C000070E00E94011B81384EE3940714F080E8D5
:101C10009EE39A838983B1FE0EC08B819C8191954E
:101C2000819591099C838B8389819A819195819576
:101C300091099A838983B3FE04C01A8219821C8297
:101C40001B82EB84FC8460E8E61A61ECF60AFC86F1
:101C5000EB86A985BA85A058B14CBA87A987EF81D0
:101C6000F8856F0180E8C81A81ECD80AD886CF823F
:101C70006D817E816058714C7E836D834B815C8168
:101C80004058514C5C834B8389819A818058914C98
:101C90009A838983F801E3869C859487A5879A8532
:101CA0009687C7869885908B618B9E81928B438B9C
:101CB0009C81948B858B8A81868BB90180E00E9400
:101CC000AE0FF801878B908F2C960FB6F894DEBF7D
:101CD0000FBECDBFDF91CF911F910F91FF90EF907D
:101CE000DF90CF90BF909F908F900895EF92FF92DA
:101CF0000F931F93CF93DF93FC01128613861486F4
:101D0000DB018C91863091F47B01BFEFEB1AFB0A6B
:101D1000EF012A968B010C5F1F4FF70181917F0124
:101D20000E9408198993E016F106B9F7DF91CF9167
:101D30001F910F91FF90EF900895FC016283089529
:101D40004FB7F894FC01208531852115310521F02C
:101D500021503109318720874FBF0895FC018281CE
:101D6000811113C08181882369F080859185892B39
:101D700049F0838187FD03C0848187FF03C081E030
:101D8000808301C010828081089581E008950A96C1
:101D90000895CF93DF93FC01DA01EB018A812B8157
:101DA00030E02130310521F023303105A9F037C072
:101DB000813031F43A96ED93FC938FE090E031C09E
:101DC000823069F5818F128E8781838F7996ED93AA
:101DD000FC9383E090E025C0823039F4818F81E06C
:101DE000828F838F8AE0848F08C0833069F4818F6B
:101DF00081E0828F838F9FEF948F858F7996ED930B
:101E0000FC9385E090E00DC0893049F4818F81E03A
:101E1000828F7996ED93FC9382E090E002C080E09F
:101E200090E0DF91CF910895CF93DF93FC01DA0129
:101E30002115310509F474C0EB018B8190E08230EB
:101E4000910509F064C08C918530E9F048F4813047
:101E500079F0843009F066C012968C91848362C058
:101E60008A30D9F08C3009F05DC0148213824DC0E5
:101E700011968C911197878313968D919C9114974D
:101E8000968385834FC011968C911197813009F00C
:101E900049C012968C91838345C02430310509F0E6
:101EA0003FC08581968113966C9113978F3FDFEF2A
:101EB0009D0759F4662331F070E06F5F7F4F7187A3
:101EC00060870DC0118610860AC070E024E09695E8
:101ED00087952A95E1F70E94011B918780871196CB
:101EE0008C9111978F77813021F0E0F08350823010
:101EF000C8F412968C91823029F0833031F0813011
:101F000089F401C081E081830DC011820BC0039769
:101F100049F48C91893031F411968C91878302C0F9
:101F20008FEF01C080E0DF91CF91089540E050E055
:101F3000FC0125913491FC013296A591B4912115B3
:101F4000310551F0109741F026233723232B11F050
:101F50004A2B5B2B0496ECCFCA010895882329F005
:101F6000803139F484E298E002C080E698E00C9475
:101F7000960F80E090E008958AB1807F8AB98BB196
:101F8000807F8BB9249A2C980895EF92FF920F933B
:101F90001F93CF93DF93DB011FB7813051F098F08F
:101FA000823061F0833041F5CBE8D8E1E3EBF8E132
:101FB0000EC0C5EBD7E1EDEDF7E109C0C0E2D8E115
:101FC000E8E4F8E104C0CAE4D7E1E2E7F7E1790127
:101FD000642FCD01F8940995602FC701FE01099582
:101FE0001FBF92E0980F923038F0EFE3F1E03197A5
:101FF000F1F700C0000001C080E0DF91CF911F9198
:102000000F91FF90EF9008950F931F93CF93DF935D
:1020100000D000D01F92CDB7DEB71D8204E09E0134
:102020002F5F3F4F41E050E0BE016B5F7F4F0E944A
:10203000C50F8823E1F18330E9F509811A81102762
:10204000012710279B811F929F939A811F929F9334
:1020500099811F929F931F928F931F930F938FECE1
:1020600091E09F938F930E94A61B0FB6F894DEBF5A
:102070000FBECDBF812F99278F709927883091058A
:1020800081F030F48230910549F00597B1F012C02B
:1020900089309105A9F00B9799F00CC085E090E08C
:1020A00011C00032184061F483E090E00BC080E082
:1020B00090E008C084E090E005C081E090E002C0BC
:1020C00082E090E00F900F900F900F900F90DF91B3
:1020D000CF911F910F910895E82FF0E0ED51FD4F42
:1020E00060830895FF920F931F93CF93DF9300D0E7
:1020F00000D01F92CDB7DEB7F82EE82FF0E0EF51F9
:10210000FD4F10821FE02FEF86E791E021508040C5
:102110009040E1F700C000001D8204E09E012F5FA7
:102120003F4F41E050E0BE016B5F7F4F8F2D0E941B
:10213000C50F833021F0115031F780E001C081E0FC
:102140000F900F900F900F900F90DF91CF911F91F4
:102150000F91FF900895DB01282F30E0109769F070
:10216000C90169E070E00E94011BFC01E055FC4FD1
:1021700099E001900D929A95E1F7C90169E070E04C
:102180000E94011BDC01AE53BC4FFC01E055FC4F2B
:1021900089E001900D928A95E1F70895282F30E0AB
:1021A000C90169E070E00E94011BFC01EE53FC4F85
:1021B000C90169E070E00E94011B49E050E0BF01E5
:1021C00080559C4F0E94821B08950F931F93CF93BD
:1021D000DF9300D000D0CDB7DEB7182F83E0809317
:1021E000750380E88093760381E08093770340E273
:1021F00050E060E870E088E793E00E94981B04E0FC
:102200009E012F5F3F4F43E250E065E773E0812F6F
:102210000E94C50F91E0813009F490E0892F8195EB
:102220000F900F900F900F90DF91CF911F910F9112
:1022300008950F931F93CF93DF9300D000D0CDB7B5
:10224000DEB7182F83E08093750380EC80937603CC
:102250008BE18093770381E090E0611102C080E020
:1022600090E040E250E0BC0188E793E00E94981BB8
:1022700004E09E012F5F3F4F43E250E065E773E0CB
:10228000812F0E94C50F91E0813009F490E0892FE1
:1022900081950F900F900F900F90DF91CF911F912C
:1022A0000F910895CF92DF92EF92FF920F931F93B9
:1022B000CF93DF93CDB7DEB727970FB6F894DEBF85
:1022C0000FBECDBF182F1092750303E09E012B5F48
:1022D0003F4F41E050E065E773E00E94C50FE12EFB
:1022E000F12C833031F0F701EF51FD4F85E0808311
:1022F000B7C0909106018091A6039230B8F0883063
:1023000028F08FE097E20197F1F706C0863038F0A9
:10231000EFE6F7E13197F1F700C000000DC084301F
:1023200058F087E893E10197F1F7F6CF843048F74A
:10233000833071F38230A9F38F8180FF0AC0F701E7
:10234000EF51FD4F9081911102C095E0908381FF84
:1023500004C0F701EF51FD4F1082F701EF51FD4F1F
:102360006F018081833061F128F48130A9F18230DE
:10237000C9F03FC08430E9F08530D9F5812F0E9443
:10238000E510882341F0812F0E94E510882389F110
:10239000F60110822EC0F701ED51FD4F8081882398
:1023A000A9F020C061E0812F0E941911811121C084
:1023B0001DC060E0812F0E94191181111AC00AC04E
:1023C000F701ED51FD4F8081811113C060E0812F35
:1023D0000E94191181E00BC0F701ED51FD4F808182
:1023E000882339F061E0812F0E94191183E0F60102
:1023F000808381E08093750304E09E012F5F3F4F4F
:1024000041E050E065E773E0812F0E94C50FA82FDF
:10241000843031F529813A813227232732274B81B5
:10242000BC81C70169E070E00E94011BFC01E0551E
:10243000FC4FA083348323834183B283403811F45B
:1024400081E88183C70169E070E00E94011B80552B
:102450009C4FFC018281803829F421E8228302C04C
:102460008FEF01C080E027960FB6F894DEBF0FBE55
:10247000CDBFDF91CF911F910F91FF90EF90DF9033
:10248000CF9008950C94521187E691E00895E82FBB
:10249000F0E0E351FD4F10820895E82FF0E0E151A4
:1024A000FD4F60830895DB01109769F090E069E0CB
:1024B00070E00E94011BFC01E055FC4F99E0019087
:1024C0000D929A95E1F70895282F30E0C90169E04F
:1024D00070E00E94011BFC01EE53FC4FC90169E052
:1024E00070E00E94011B49E050E0BF0180559C4F05
:1024F0000E94821B08950F931F93CF93DF93CDB754
:10250000DEB728970FB6F894DEBF0FBECDBF182FE9
:1025100084E589831A821B8208E09E012F5F3F4F6A
:1025200043E050E0B901812F0E94C50F883009F5C2
:10253000FE0131969E01295F3F4F80E091918927EE
:10254000E217F307D9F79885891313C0812F90E01C
:1025500069E070E00E94011BFC01E055FC4F86E041
:1025600080838D8181838E8182838F81838380E0CC
:1025700001C081E028960FB6F894DEBF0FBECDBF34
:10258000DF91CF911F910F9108950C947B12AF9220
:10259000BF92CF92DF92EF92FF920F931F93CF9350
:1025A000DF93DB01282F30E0C90169E070E00E9471
:1025B000011BFC01E055FC4F85E080838D919C91CF
:1025C00011979087878312966C91129713965C915E
:1025D000139714964C91149715969C9115971696EF
:1025E0008C911697858317968C918683D901A35178
:1025F000BD4F5D018C91E901C551DD4F6E01D901DF
:10260000A751BD4F7D01890109511D4FE901CB51F2
:10261000DD4FD601882379F08C91681B6183D70147
:102620008C91581B5283D8018C91481B438388811D
:10263000981B94830DC06C93D7015C93D8014C9385
:102640009883118212821382148281E0E5018883CB
:10265000DF91CF911F910F91FF90EF90DF90CF907E
:10266000BF90AF9008950F931F93CF93DF93CDB793
:10267000DEB728970FB6F894DEBF0FBECDBF182F78
:1026800080E4898383E08A83E12FF0E0E151FD4F0C
:1026900081E09081911101C080E08B8308E09E0170
:1026A0002F5F3F4F43E050E0B901812F0E94C50FDB
:1026B000883041F4BE016F5F7F4F812F0E94C712A7
:1026C00080E001C081E028960FB6F894DEBF0FBE0F
:1026D000CDBFDF91CF911F910F910895E82FF0E0CA
:1026E000E351FD4F10820E94331391E0811190E07D
:1026F000892F08950C94331383E891E0089585E7BA
:1027000091E008952091C80025FFFCCFFC01808155
:102710008093CE000895CF93DF931F92CDB7DEB79D
:10272000898361E070E0CE0101960E94821380E00F
:1027300090E00F90DF91CF91089588E08093C900D9
:1027400086E08093CA001092CB001092CD0080E109
:102750008093CC0081E991E09093D7038093D603D6
:102760000895F8940E94090C8FE39CE90197F1F712
:1027700000C00000F894E0E0F8E3099408950E9496
:10278000090CF894E0E0F0E009940895EDE9F3E035
:1027900080E090E023E0EE3AF207D9F02191922711
:1027A000092E0294202D2F702927392F3025330F21
:1027B000307E2327302D3927307F3695092E000CA7
:1027C000331F9695969596959F7193279827822FFC
:1027D000E1CF08950E94C6139093AF038093AE0398
:1027E00043E150E060E070E08DE993E00C94881ED6
:1027F000CF93DF9343E150E060E070E08DE993E038
:102800000E94781E80919D0390919E038D3E9E4F65
:1028100091F083E1EDE9F3E0DF011D928A95E9F79C
:102820008DEE9EEF90939E0380939D030E9428144B
:102830000E94EA1309C0C091AE03D091AF030E9479
:10284000C613C817D90729F7DF91CF910C94190542
:10285000CF93DF9300D000D000D0CDB7DEB786E0B5
:10286000EBEAF1E0DE01119601900D928A95E1F715
:1028700086E0FE013196AFE9B3E001900D928A95B2
:10288000E1F7EDE9F3E0108685E0818782878387B1
:10289000848726960FB6F894DEBF0FBECDBFDF91BA
:1028A000CF910895CF93DF93FC01108281E0818363
:1028B00080E1828381E1838382E1848383E1858374
:1028C00026E0AAEFA20FB0E0CD0165E070E00E9423
:1028D000011B8F549E4FEC0149815A816B817C8191
:1028E000452B462B472B79F0EF01C20FD11DCD01AF
:1028F00065E070E00E94011B8F549E4FDC018C91BB
:1029000088832F5FDECF822FDF91CF9108950F93C1
:102910001F93CF93DF93DB018031D1F028F488231C
:1029200059F0813061F005C08231D1F0B0F08331CF
:10293000D1F0E1EBF1E020C08091A5030BC086E06F
:10294000EFE9F3E001900D928A95E1F786E032C05D
:102950008091A6038C9381E02DC08091A703FACFCC
:102960008091A803F7CF8091A903F4CF3596EF01AA
:1029700025979881891751F0018112812381348133
:10298000011511052105310589F713C04091AA03EE
:102990005091AB036091AC037091AD034023512380
:1029A0006223732381E0452B462B472B99F680E069
:1029B000D1CF80E0DF91CF911F910F910895CF93F8
:1029C000DF936115710509F465C0FB018031E1F009
:1029D00028F4882359F0813069F005C08231E1F094
:1029E000B8F08331E9F0A1EBB1E024C0808180939D
:1029F000A5034CC086E0AFE9B3E001900D928A9543
:102A0000E1F70E94EA1342C080818093A6033EC092
:102A100080818093A7033AC080818093A80336C049
:102A200080818093A90332C01596ED012597988186
:102A3000891761F011964D915D916D917C9114977C
:102A4000411551056105710579F724C020818091F8
:102A5000AA039091AB03A091AC03B091AD032223E4
:102A600029F0482B592B6A2B7B2B08C04095509599
:102A700060957095482359236A237B234093AA03CA
:102A80005093AB036093AC037093AD030E94EA13C1
:102A900081E001C080E0DF91CF9108958091320301
:102AA000823059F482EF92E0FA0191838083109290
:102AB00032038091F10290E0089580E090E0089563
:102AC000CF93BA01C22F81E080933203422F532F5C
:102AD00082EF92E00E948F1BC093F10280E0CF91C1
:102AE00008958F929F92AF92BF92CF92DF92EF9212
:102AF000FF920F931F93CF93DF93CDB7DEB7C054F0
:102B0000D1090FB6F894DEBF0FBECDBF20913203BE
:102B1000213029F008F451C1223029F44EC13091FE
:102B2000F102311103C01092320347C1FC019091B0
:102B3000F202973009F493C068F5933009F46AC043
:102B400090F4913009F45EC0923009F033C14EE345
:102B500064EF72E08091F3020E9487148093F10287
:102B60008091F1026EC0953009F461C008F06BC02D
:102B7000E090A501F090A601B70183EF92E00E94DA
:102B80009F1BF70101900020E9F7EE19EF5FE0933A
:102B9000F10210C1913F09F4FCC050F4913809F4DE
:102BA0006CC0903F09F4CEC0903809F003C112C048
:102BB0009E3F69F048F4923F09F0FCC083EF92E039
:102BC0000E9452148F5FF4C00E94B113F3C00E94A0
:102BD000BF13F0C08091F302843008F0EBC0409145
:102BE000F40250E00DE325EF32E0B9010E94C50F79
:102BF0008093F1028091F1028093F4028091F102BE
:102C00008D5FD6C064EF72E08091F3020E94DF1402
:102C100082E0CEC0309709F4CDC00190F081E02D64
:102C2000309709F4C7C08091F3020995C3C064E9E5
:102C300078E083EF92E00E94721B84E998E00E94A2
:102C4000791B8E5FB5C0E091F302E43008F0B2C0AA
:102C5000F0E0E05DFD4F80818093F4020CC030977E
:102C600051F00280F381E02D309729F06091F40259
:102C70008091F302099583E09BC080E4E2EFF2E0EB
:102C8000DE01119601900D928A95E1F74FE350E035
:102C90006FEF70E083EF92E00E94981BCC24C39406
:102CA000D12C41E050E0E1E0F0E0EC0FFD1FE40F3B
:102CB000F51F4D3351050CF043C080818F3F09F45F
:102CC0003FC0E1805A0193E0A90EB11C3396EE207B
:102CD000A9F1E3E0F0E0EC0FFD1FE40FF51F108118
:102CE000812E912C96012F5F3F4FA901480D591D50
:102CF000403451052CF5F12C2E503D4F012FA701EA
:102D000061E070E06C0F7D1F6A0D7B1D0E94C50F96
:102D100090E0F601EE50FD4F009711F4106804C0EA
:102D2000881599050CF4106410838FEF881A980A9F
:102D3000C80CD91CA5014E0D5F1DB5CFA501B9CF9B
:102D40008FE336C08FEF8093F30280E88093F40224
:102D500082E08093F5022093F60283E08093F702ED
:102D600084E08093F80285E08093F90286E0809306
:102D7000FA0287E08093FB0281E88093FC0282EFF5
:102D80008093FD0281EF8093FE029093FF028EE01C
:102D90000FC02093F102309769F00480F581E02D97
:102DA000309741F083EF92E009959091F102890FFD
:102DB0008093F10282E080933203C05CDF4F0FB654
:102DC000F894DEBF0FBECDBFDF91CF911F910F9161
:102DD000FF90EF90DF90CF90BF90AF909F908F903B
:102DE0000895A3E3B3E0FC012491422F50E04D93FA
:102DF0005D930196222349F023E0A137B20799F7AA
:102E00001092720310927103089508951092800039
:102E10008DE0809381000895BC01809173039091AF
:102E2000740386179707E1F070937403609373033C
:102E30001092850010928400072E000C880B990BCD
:102E400029E03DE340E050E00E94121B28EE33E011
:102E500040E050E00E942B1B3093890020938800B3
:102E60000895B19B04C082E086BB81E0089580E0B4
:102E7000089582E084BD85E085BD089516BC8AEF83
:102E800087BD0895A99B04C082E085BB81E00895B9
:102E900080E00895AA27BB27E82FF92F222741E0D9
:102EA00088272395D9F04899FCCF0FC0522F2BE4E7
:102EB0002395BAF04899FCCF321B441F08F005C097
:102EC000681749F08395419341E03BE4339542F024
:102ED000489BFCCFEBCF8FEF8A950895882309F0AC
:102EE0008FEF0895E82FF92F6623F1F1662371F132
:102EF0006A955191B0E8352F3B2399F40000509A20
:102F000044E14A95F1F70000509842E04A95F1F704
:102F1000B69561F300000000000000000000000012
:102F2000EACF509A44E04A95F1F70000000050982B
:102F30004DE04A95F1F700000000B695B9F20000A7
:102F400000000000000000000000D5CF00000000DD
:102F5000000000000000000000000000509A44E063
:102F60004A95F1F7000050980895AA27BB27E82F4B
:102F7000F92F222741E088272395D9F04A99FCCFE1
:102F80000FC0522F2BE42395BAF04A99FCCF321B85
:102F9000441F08F005C0681749F08395419341E04C
:102FA0003BE4339542F04A9BFCCFEBCF8FEF8A9501
:102FB0000895882309F08FEF0895E82FF92F6623ED
:102FC000F1F1662371F16A955191B0E8352F3B23F9
:102FD00099F40000529A44E14A95F1F700005298A2
:102FE00042E04A95F1F7B69561F300000000000059
:102FF000000000000000EACF529A44E04A95F1F741
:103000000000000052984DE04A95F1F700000000E2
:10301000B695B9F2000000000000000000000000BA
:10302000D5CF0000000000000000000000000000FC
:103030000000529A44E04A95F1F700005298089532
:10304000AA27BB27E82FF92F222741E088272395BD
:10305000D9F04999FCCF0FC0522F2BE42395BAF039
:103060004999FCCF321B441F08F005C0681749F08E
:103070008395419341E03BE4339542F0499BFCCF7B
:10308000EBCF8FEF8A950895882309F08FEF08958D
:10309000E82FF92F6623F1F1662371F16A955191BA
:1030A000B0E8352F3B2399F40000519A44E14A954A
:1030B000F1F70000519842E04A95F1F7B69561F3B7
:1030C000000000000000000000000000EACF519A5C
:1030D00044E04A95F1F70000000051984DE04A9510
:1030E000F1F700000000B695B9F200000000000002
:1030F000000000000000D5CF00000000000000002C
:103100000000000000000000519A44E04A95F1F7E9
:10311000000051980895AA27BB27E82FF92F2227EE
:1031200041E088272395D9F04B99FCCF0FC0522F4F
:103130002BE42395BAF04B99FCCF321B441F08F0C7
:1031400005C0681749F08395419341E03BE433950E
:1031500042F04B9BFCCFEBCF8FEF8A9508958823ED
:1031600009F08FEF0895E82FF92F6623F1F1662318
:1031700071F16A955191B0E8352F3B2399F4000025
:10318000539A44E14A95F1F70000539842E04A957A
:10319000F1F7B69561F300000000000000000000A8
:1031A0000000EACF539A44E04A95F1F7000000008E
:1031B00053984DE04A95F1F700000000B695B9F23A
:1031C000000000000000000000000000D5CF00005B
:1031D0000000000000000000000000000000539A02
:1031E00044E04A95F1F70000539808958DEA9EED6A
:1031F0009093D9038093D803089581E02091D80358
:103200003091D9032D3A3E4D09F480E0819508951F
:1032100090EF980F943210F48C50089590EC980F22
:103220009C3010F48650089520E030E0F901E75416
:10323000F74FE491A9014E5F5F4F8E1305C0F9016E
:10324000E654F74F849108959A014839510571F772
:1032500088E30895CF93DF93CDB7DEB72D970FB6F0
:10326000F894DEBF0FBECDBF1A861B861C861D8656
:103270000E94E6040E949D130E94F8130E94061704
:103280000E9439170E94F618E091A5038E2F90E056
:10329000FC013197E531F10520F4E65CFF4F0C9419
:1032A0004A1B80E491E00E94F11630C080E391E077
:1032B0000E94F11681E690E006C08BE191E00E9449
:1032C000F11682E690E090935901809358011EC058
:1032D00083E091E00E94F11683E690E00DC08EEE4F
:1032E00090E00E94F11684E690E006C084ED90E044
:1032F0000E94F11685E690E0909359018093580161
:1033000082E08093060102C00E9430058091060190
:10331000823009F587EA91E090930B0180930A01CE
:1033200084E590E090930D0180930C0183E08093FD
:1033300011018CE0EEE1F1E0AAE2B1E001900D9222
:103340008A95E1F78CE0E2E1F1E0AEE1B1E00190D5
:103350000D928A95E1F710E0809106011817D0F4DC
:10336000C12ED12CC60161E270E00E94011B895B75
:103370009D4F7C010E94780CC6016CE070E00E94B9
:10338000011B895F9E4FDC015296FC92EE92519791
:103390001F5FE2CF789487E091E00E942A0C0E94A0
:1033A0003E1710E00E94FD1881110E94B1130E9487
:1033B000190C80E091E00E9471150E944217882349
:1033C00011F000E00CC0113041F0C8F0123009F4E7
:1033D000A8C0133009F4B3C0D3C000E06AC0809124
:1033E0000601081780F7802F90E061E270E00E94EC
:1033F000011B895B9D4F0E94A00E0F5FF0CF809153
:1034000046028111BCC08091A60390E00E940C1777
:103410000E94311711E08111B3C0B1C0A02EB12CB0
:103420006501CC0CDD1CEE24E394F12CEC0EFD1EAA
:10343000EC0CFD1CF70181859285892B09F0D8C021
:10344000802F0E94F904D7011A969C938E931997A6
:10345000009709F456C0DC011696ED91FC91179780
:10346000309709F4C5C0802F0995F701E184F284F3
:10347000E114F10409F445C0D7011296ED91FC91D5
:103480001397802F0995F501E757FD4F8823B9F071
:1034900080818F5F80838F3198F0A1E0B0E0AC0F26
:1034A000BD1FAC0DBD1D1A961C921E92199710825D
:1034B0000F5F80910601081708F4B0CF2EC010826C
:1034C000D7011496ED91FC911597802F09958823CB
:1034D00079F3D7011896ED91FC911997BE016F5FB2
:1034E0007F4F802F0995C50161E270E00E94011BAA
:1034F000BE016F5F7F4F895B9D4F0E94860C12E07B
:10350000D7CFC50161E270E00E94011B60E070E06E
:10351000895B9D4F0E94860CCBCF113081F112E068
:103520002FC00E94E30B811108C0809106018230F8
:10353000B0F30E94BD0B882391F313E021C00E94D9
:10354000E30B882351F00E94800C8C0187E492E009
:103550000E94C70EB8010E94ED0B809106018230D7
:1035600070F00E94BD0B882351F00E94800C8C01EA
:1035700088E692E00E94C70EB8010E94C70B10E0D7
:1035800000E080910601081708F00CCFE02EF12C26
:10359000C70161E270E00E94011B895B9D4F0E94A0
:1035A000AE0EB82EF701EA5CFD4F6F018081082E48
:1035B000000C990B2B2D30E082179307B9F0EE0C1D
:1035C000FF1CE1E0F0E0EC0FFD1FEE0DFF1D01849C
:1035D000F285E02D309741F00284F385E02D30979D
:1035E00019F06B2D802F0995D601BC920F5FC9CFC2
:1035F000E1E0F0E0EC0FFD1FEC0DFD1DE184F28435
:103600003BCF0024552704C0080E591F880F991F6F
:10361000009729F076956795B8F37105B9F7802D75
:10362000952F0895EE27FF27AA27BB2708C0A20FD2
:10363000B31FE41FF51F220F331F441F551F96951C
:1036400087957795679598F37040A9F7009799F754
:10365000BD01CF010895052E97FB1EF400940E9432
:10366000421B57FD07D00E94501B07FC03D04EF4AD
:103670000C94421B50954095309521953F4F4F4FEC
:103680005F4F089590958095709561957F4F8F4F0E
:103690009F4F0895EE0FFF1F0590F491E02D0994C0
:1036A000A1E21A2EAA1BBB1BFD010DC0AA1FBB1F46
:1036B000EE1FFF1FA217B307E407F50720F0A21BB8
:1036C000B30BE40BF50B661F771F881F991F1A9425
:1036D00069F760957095809590959B01AC01BD014F
:1036E000CF010895FB01DC0105900D920020E1F768
:1036F0000895FC0105900020E9F7809590958E0FC4
:103700009F1F0895FB01DC0104C08D910190801979
:1037100021F441505040C8F7881B990B0895FB01D4
:10372000DC0102C001900D9241505040D8F708953D
:10373000DC0101C06D9341505040E0F70895FB015A
:10374000DC0101900D920020E1F70895A0E0B0E0C7
:10375000ECEAFBE10C94C31EAE014B5F5F4FFA0134
:1037600061917191AF018091D6039091D7030E942E
:10377000E21BE2E00C94DF1EA0E0B0E0E2ECFBE133
:103780000C94C11EAE01495F5F4FDA016D917D91CE
:10379000AD0104ED13E0F80182819381DC01139601
:1037A0002C911397286013962C930E94E21BD8014A
:1037B0001296ED91FC9113972381277F2383E4E0F8
:1037C0000C94DD1EABE0B0E0E8EEFBE10C94B31E20
:1037D0006C017B018A01FC0117821682838181FFC3
:1037E000CFC1CE0101963C01F6019381F70193FD13
:1037F000859193FF81917F01882309F4BDC18532B2
:1038000039F493FD859193FF81917F01853229F4ED
:10381000B60190E00E94DC1DE7CF912C212C312CC9
:10382000FFE1F315E0F08B3279F038F4803279F073
:103830008332A9F4232D206110C08D3259F08033DA
:1038400071F4232D216009C0832D8260382EE32D71
:10385000E46024C0F32DF86027C0322E29C037FC65
:103860002FC020ED280F2A3098F436FE07C0892D8E
:103870006AE00E94AA1E922E980E1AC0822D6AE05B
:103880000E94AA1E222E280E832D8062382E10C080
:103890008E3231F436FC70C1E32DE0643E2E08C058
:1038A0008C3621F4F32DF0683F2E02C0883641F4A7
:1038B000F70193FD859193FF81917F018111B0CF35
:1038C000982F9F7D9554933028F40C5F1F4F2FE362
:1038D00029830DC0833631F0833771F0833509F0C9
:1038E00059C021C0F801808189830E5F1F4F882451
:1038F0008394912C530113C02801F2E04F0E511C08
:10390000F801A080B18036FE03C0692D70E002C0CE
:103910006FEF7FEFC5010E94D11D4C018201F32D95
:10392000FF773F2E16C0280122E0420E511CF801FD
:10393000A080B18036FE03C0692D70E002C06FEF39
:103940007FEFC5010E94C61D4C01F32DF0683F2E8C
:10395000820133FC1BC0822D90E088169906B0F4DA
:10396000B60180E290E00E94DC1D2A94F4CFF501BC
:1039700037FC859137FE81915F01B60190E00E948E
:10398000DC1D21102A9421E0821A910881149104EF
:1039900071F7E8C0843611F0893641F5F80137FE39
:1039A00007C060817181828193810C5F1F4F08C0C5
:1039B00060817181072E000C880B990B0E5F1F4FE1
:1039C000F32DFF763F2E97FF09C090958095709557
:1039D00061957F4F8F4F9F4FF0683F2E2AE030E078
:1039E000A3010E94181E882E861845C0853731F421
:1039F000232D2F7EB22E2AE030E025C0932D997F13
:103A0000B92E8F36C1F018F4883579F0B5C08037FB
:103A100019F0883721F0B0C0E92FE061BE2EB4FE66
:103A20000DC0FB2DF460BF2E09C034FE0AC0292F43
:103A30002660B22E06C028E030E005C020E130E06C
:103A400002C020E132E0F801B7FE07C06081718159
:103A5000828193810C5F1F4F06C06081718180E07D
:103A600090E00E5F1F4FA3010E94181E882E86183B
:103A7000FB2DFF773F2E36FE0DC0232D2E7FA22E6D
:103A8000891458F434FE0BC032FC09C0832D8E7E9D
:103A9000A82E05C0B82CA32C03C0B82C01C0B92C8B
:103AA000A4FE0FC0FE01E80DF11D8081803321F4DA
:103AB0009A2D997EA92E09C0A2FE06C0B394B39494
:103AC00004C08A2D867809F0B394A3FC11C0A0FE2F
:103AD00006C0B21488F4280C922C9B180EC0B214A5
:103AE00060F4B60180E290E00E94DC1DB394F7CF51
:103AF000B21418F42B1802C0982C212CA4FE10C06C
:103B0000B60180E390E00E94DC1DA2FE17C0A1FC7C
:103B100003C088E790E002C088E590E0B6010CC0E1
:103B20008A2D867859F0A1FE02C08BE201C080E2A6
:103B3000A7FC8DE2B60190E00E94DC1D891438F4E8
:103B4000B60180E390E00E94DC1D9A94F7CF8A943E
:103B5000F301E80DF11D8081B60190E00E94DC1DAB
:103B60008110F5CF222009F43FCEB60180E290E02B
:103B70000E94DC1D2A94F6CFF6018681978102C04F
:103B80008FEF9FEF2B96E2E10C94CF1EFC01059086
:103B9000615070400110D8F7809590958E0F9F1F4F
:103BA0000895FC016150704001900110D8F7809594
:103BB00090958E0F9F1F08950F931F93CF93DF93C0
:103BC000FB01238121FD03C08FEF9FEF2CC022FF5B
:103BD00016C046815781248135814217530744F42A
:103BE000A081B1819D012F5F3F4F318320838C9352
:103BF000268137812F5F3F4F3783268314C08B0187
:103C0000EC01FB010084F185E02D0995892BE1F69B
:103C1000D80116968D919C911797019617969C93B3
:103C20008E931697CE01DF91CF911F910F9108953A
:103C3000FA01AA27283061F1203191F1E8946F93BD
:103C40006E7F6E5F7F4F8F4F9F4FAF4FB1E040D081
:103C5000B4E03ED0670F781F891F9A1FA11D680F1F
:103C6000791F8A1F911DA11D6A0F711D811D911D54
:103C7000A11D22D009F468943F91062E000C301942
:103C8000000C000C3019305D3193CEF6CF01089551
:103C9000462F4770405D4193B3E00FD0C9F7F6CF90
:103CA000462F4F70405D4A3318F0495D31FD405258
:103CB000419302D0A9F7EACFB4E0A69597958795EE
:103CC00077956795BA95C9F70097610571050895CD
:103CD0009B01AC010A2E0694579547953795279579
:103CE000BA95C9F7620F731F841F951FA01D089511
:103CF000DC01CB01FC01F999FECF06C0F2BDE1BDAC
:103D0000F89A319600B40D9241505040B8F708959A
:103D1000DC01A40FB51F4150504048F0CB01840F87
:103D2000951F2E910E94991E41505040D0F7089542
:103D3000262FF999FECF92BD81BDF89A019700B464
:103D4000021639F01FBA20BD0FB6F894FA9AF99A04
:103D50000FBE0895002480FD060E660F11F08695B3
:103D6000D1F7802D08952F923F924F925F926F92DC
:103D70007F928F929F92AF92BF92CF92DF92EF92FB
:103D8000FF920F931F93CF93DF93CDB7DEB7CA1B7C
:103D9000DB0B0FB6F894DEBF0FBECDBF09942A88A7
:103DA000398848885F846E847D848C849B84AA844F
:103DB000B984C884DF80EE80FD800C811B81AA81DC
:103DC000B981CE0FD11D0FB6F894DEBF0FBECDBFA7
:083DD000ED010895F894FFCF06
:103DD800A204A504B70401064E0136023B00039F66
:103DE8000102E8049D0210000000B504B3041500A8
:103DF8007102400000004E15601500000000000030
:103E080000000000000000000000000000000000AA
:103E18000000000000000000000000000000120187
:103E28001001000000409B286000610301020301AB
:103E3800FFFFFFFFFFFF0142125211CE100000AB3F
:103E4800106C107210C5127B12641200005312001D
:103E5800006E137A1333136412471253124D126E05
:103E68001300000002000000008B1300000000F1A6
:103E78000133031B022902040309103030303030AB
:103E88003124020000002301000000250400000086
:103E98003208000000341000000000000000004953
:103EA800643A20253034782020202825643A2025BB
:103EB80030327820253032782025303278290D0AA2
:103EC8000072006100700068006E006500740020D8
:103ED8000074006500630068006E006F006C006F7E
:103EE800006700690065007300000031003200338C
:103EF800003400350036000000332E362E31000025
:00000001FF
