:100000000C94A3040C94C0040C94C0040C94C0047D
:100010000C94C0040C94C0040C94C0040C94C00450
:100020000C94C0040C94C0040C94C0040C942406DA
:100030000C9493060C94C0040C94C0040C94C0045B
:100040000C94C0040C94C0040C94C0040C94C00420
:100050000C94C0040C94C0040C94C0040C94C00410
:100060000C94C0040C94C0040C94C0040C94C00400
:100070000C94C004E90CC30C680DF20CFB0C680D69
:10008000680D680D680D080DD60CDC0CE60C090235
:10009000540003010080190904000001030000005E
:1000A00009210101000122E8040705810310000174
:1000B00009040100010300000009210101000122DF
:1000C0001500070582034000010904020001030036
:1000D000000009210101000122E804070583031043
:1000E000000109023B00020100801909040000011F
:1000F0000300000009210101000122E80407058135
:10010000031000010904010001030000000921019E
:10011000010001221500070582034000010600FFCF
:100120000901A101150026FF00750895280901B1F4
:1001300000C005010905A1010901A1008501050112
:1001400075109506150026007D093009310933091F
:1001500034093509328102C0A100050915002501C5
:100160007501951019012910750195108102C005BE
:100170000F0992A1028502099F09A009A509A615E8
:10018000002501350045017501950481029504752E
:10019000018103099415002501350045017501957C
:1001A0000181020922150125283501452875079589
:1001B000018102C00921A10285010922150125281A
:1001C000350145287508950191020925A1020926E6
:1001D0000927093009310932093309340940094135
:1001E000094209430928250C15013501450C7508FC
:1001F00095019100C0095009540951150026FF7F4F
:10020000350046FF7F66031055FD7510950391027A
:1002100055006600000952150026FF003500461003
:1002200027750895019102095315012508350145E7
:10023000087508950191020955A1020501093009C7
:100240003115002501750195029102C0050F09566F
:1002500095019102950591030957A1020B01000A2E
:10026000000B02000A0066140055FE150026FF0070
:10027000350047A08C0000660000750895029102C9
:100280005500660000C0050F09A766031055FD154F
:100290000026FF7F350046FF7F75109501910266AD
:1002A00000005500C0050F095AA102850209221558
:1002B00001252835014528750895019102095B093A
:1002C0005D150026FF0035004610279502910209B2
:1002D0005C095E66031055FD26FF7F46FF7F7510A3
:1002E000910245006600005500C0095FA102850328
:1002F0000922150125283501452875089501910227
:100300000923150025013500450175049501910269
:100310000958A1020B01000A000B02000A00750235
:1003200095029102C01580257F36F0D84610270926
:100330006075089501910236F0D8461027096109C9
:100340006295029102150026FF003500461027092C
:1003500063096475089502910209654610279501A5
:100360009102C0096EA102850409221501252835D4
:100370000145287508950191020970150026FF00B6
:100380003500461027750895019102096F158025E3
:100390007F36F0D846102795019102097166140046
:1003A00055FE150026FF00350047A08C0000910285
:1003B000097226FF7F46FF7F66031055FD75109575
:1003C0000191026600005500C00973A1028505096C
:1003D0002215012528350145287508950191020946
:1003E000701601FF26FF0036F0D8461027751095CD
:1003F000019102C00974A102850609221501252870
:100400003501452875089501910209750976158011
:10041000257F36F0D8461027750895029102C0094D
:1004200068A102850709221501252835014528758F
:100430000895019102096C15002610273500461019
:100440002775109501910209691581257F350046B0
:10045000FF007508950C920201C00966A10285088B
:100460000501093009311581257F350046FF0075EA
:100470000895029102C0050F0977A102850A092299
:10048000150125283501452875089501910209783F
:10049000A1020979097A097B1501250375089501DF
:1004A0009100C0097C150026FF00350046FF009131
:1004B00002C00990A102850B0922252815013501EA
:1004C0004528750895019102C00996A102850C097D
:1004D0009709980999099A099B099C1501250675A0
:1004E0000895019100C0097DA102850D097E1500C6
:1004F00026FF003500461027750895019102C009B6
:100500006BA102850E0922150125283501452875A4
:100510000895019102096D150026FF00350046FF80
:1005200000750895019102095166031055FD1500EB
:1005300026FF7F350046FF7F75109501910255001B
:10054000660000C009ABA10285090925A1020926A0
:1005500009270930093109320933093409400941B1
:10056000094209430928250C15013501450C750878
:100570009501B100C00501093B150026FF013500BA
:1005800046FF01750A9501B1027506B101C0050F5C
:100590000989A1028502092225281501350145286E
:1005A00075089501B102098BA102098C098D098E8C
:1005B000250315013501450375089501B100C009F2
:1005C000AC150027FFFF0000350047FFFF00007556
:1005D000109501B100C0097FA10285030980751043
:1005E00095011500350027FFFF000047FFFF0000C1
:1005F000B102098326FF0046FF0075089501B1028C
:1006000009A909AA750195021500250135004501C2
:10061000B10275069501B103C0C00D0A0025303244
:10062000582000556E68616E646C656420636F6E5F
:1006300074726F6C207772697465205B25645D202D
:100640003A2000743A20253032782C2072713A20FA
:100650003078253032782C2076616C3A2025303481
:10066000780D0A00556E6B6E6F776E207374726929
:100670006E672069640D0A00556E68616E646C6572
:100680006420636C61737320625265717565737465
:10069000203078253032780A0043464720455033D1
:1006A000206661696C0D0A004346472045503220A0
:1006B0006661696C0D0A004346472045503120664B
:1006C00061696C0D0A0057414B455550490D0A00B0
:1006D000696D706F737369626C650A005768617445
:1006E0003F0A0063726561746520656666656374C0
:1006F0002025640A00536574206F7574707574202A
:100700007265706F7274203078253032780D0A006F
:10071000556E756E73656420656666656374202525
:10072000640A0053746F700D0A0053746172742070
:10073000736F6C6F0D0A0053746172740D0A00457B
:100740004646454354204F503A20726F6D3D257305
:100750002C206964783D30782530327800436F6E04
:100760007374616E7420666F7263652025640D0A70
:1007700000706572696F646963206D61673A202556
:100780006400736574206566666563742025640D76
:100790000A0070696420706F6F6C0D0A00646973E1
:1007A00061626C65206163747561746F72730D0AA8
:1007B000006566662E20626C6B2E206964782025A9
:1007C000640D0A006566662E20736574207374617B
:1007D0007420307825303278203078253032780D0A
:1007E0000A00736872740A00556E68616E646C6505
:1007F000642068696420676574207265706F727424
:1008000020747970653D3078253032782C207271F3
:100810003D3078253032782C207756616C3D307829
:10082000253034782C20774C656E3D307825303477
:10083000780D0A00556E6B6E6F776E206665617479
:100840007572652025640D0A006372656174652008
:100850006566666563740D0A0073696D756C746115
:100860006E656F7573206D61780D0A00626C6F6341
:100870006B206C6F61640D0A0047657420696E70AF
:100880007574207265706F7274202564203F3F0D6F
:100890000A00455320706C6179696E670D0A004744
:1008A0006574206A6F79207265706F72740D0A002A
:1008B0000080010000400200002004000010080039
:1008C00020001000100020000800400004008000FC
:1008D00002000001010000020008000400040008FA
:1008E00000020010000100200000000001000100D3
:1008F0000200020000100400100008000040100078
:10090000002020000800000104008000000800040E
:100910000004000800010010000200200000000098
:1009200039633365613862382D373533662D31319F
:1009300065352D613064632D30303162666361331B
:1009400063353933000011241FBECFEFD4E0DEBF82
:10095000CDBF12E0A0E0B1E0E6EFF5E302C0059004
:100960000D92A43BB107D9F724E0A4EBB2E001C09B
:100970001D92AD35B207E1F70E9436150C94F91AB5
:100980000C9400008093C8020895262F823050F402
:1009900090E06FE170E00E94CE16622F87539D4F6A
:1009A0000C94D50B08950C949B0C0C94EF0B15B87C
:1009B0008FEF84B98CEF87B918B81BB880E78AB974
:1009C000E1E6F0E080E880831082109264001092EB
:1009D00065000895CF93C82F0E940B0EEC2FF0E016
:1009E000EC54FD4F8083813049F0823071F488EA05
:1009F00091E00E941518CF910C940A1180E991E0C2
:100A00000E941518CF910C94211080E090E0CF91B6
:100A10000895E2E0F4E0AAEBB2E0819190E08D93DA
:100A20009D9384E0E830F807C1F71092C702109256
:100A3000C6028AEB92E09093870180938601089525
:100A400080E090E02091090430E08217930744F49D
:100A5000EFE9FFE03197F1F700C000000196F2CF17
:100A600008950F93FB018093E900CA01241735070D
:100A700008F4C9018E0F9F1F002341F0E817F90702
:100A800061F024912093F1003196F8CFE817F9072F
:100A900021F021912093F100F9CF0F910895CF9289
:100AA000DF92EF92FF920F931F93CF93DF936C012E
:100AB000EB01142FE12CF12CB6016E0D7F1D012FDF
:100AC000C134D105B0F020E430E040E450E080E0F3
:100AD0000E9431058091E8008E7F8093E80080E4D9
:100AE000E80EF11CC054D1098091E80080FFFCCFD2
:100AF000E3CF9E01AE0180E00E943105DF91CF91EE
:100B00001F910F91FF90EF90DF90CF900895EF929B
:100B1000FF920F93CF93DF937B01EA018093E9006B
:100B20009091E80090FF25C02881398137FF06C0E9
:100B30008091F0008E7F8093F0001BC09091E800C0
:100B40009E7F9093E8002881398148815981FB017B
:100B50006081718100E00E943105F70111821082ED
:100B60008FEF9FEF998388838091E8008F77809340
:100B7000E800DF91CF910F91FF90EF9008951092D0
:100B8000E90081E08093EB001092EC009CE49093EC
:100B9000F0009091ED0092639093ED001092E800C8
:100BA0009091EE0097FF4FC08093E9008093EB0097
:100BB00091EC9093EC008093F00022E12093ED0003
:100BC0001092E8003091EE0037FD03C087EB96E00D
:100BD00012C032E03093E9008093EB009093EC0078
:100BE00032E33093ED001092E8003091EE0037FDD3
:100BF00009C088EA96E09F938F930E94F3170F90A5
:100C00000F900895E0910803F09109033285333085
:100C1000D0F033E03093E9008093EB009093EC0048
:100C20008093F0002093ED001092E8008091EE0098
:100C300087FD09C089E996E09F938F930E94F3177F
:100C40000F900F90FFCF08951F920F920FB60F9243
:100C500011242F933F934F935F936F937F938F93C1
:100C60009F93AF93BF93CF93EF93FF93C091E10016
:100C7000C0FF0DC08091E1008E7F8093E10081E094
:100C800080939A038091E20080618093E200C4FF28
:100C900018C08091E1008F7E8093E10080919A03DB
:100CA000882379F010929A0386EC96E09F938F93B5
:100CB0000E94F3178091E2008F7E8093E2000F90F4
:100CC0000F90C3FF09C010929A030E94BF05809144
:100CD000E100877F8093E100C2FF05C08091E100C1
:100CE0008B7F8093E100C5FF05C08091E1008F7D7F
:100CF0008093E100C6FF05C08091E1008F7B809367
:100D0000E100FF91EF91CF91BF91AF919F918F91B2
:100D10007F916F915F914F913F912F910F900FBEF7
:100D20000F901F9018951F920F920FB60F921124DB
:100D30006F927F928F929F92AF92BF92CF92DF92EB
:100D4000EF92FF920F931F932F933F934F935F93D5
:100D50006F937F938F939F93AF93BF93EF93FF9383
:100D6000CF93DF9300D000D0CDB7DEB7B090F400C2
:100D7000B0FEC2C21092E9001091E80013FF0AC24F
:100D80008091F20090E0EAE5F3E09F012A553340BC
:100D90002817390720F42091F1002193F6CF809194
:100DA000E800877F8093E80080915A0387FD79C02F
:100DB000982F9F7119F09130D1F173C080915B032E
:100DC000853019F0893019F16EC080915C038093F1
:100DD000E3008091E80080FFFCCF8091E8008E7FE7
:100DE0008093E8008091E80080FFFCCF8091E300D1
:100DF00080688093E30080915C0390915D03892B70
:100E000011F481E001C082E0809357014AC08091D3
:100E10005C0380935903811102C082E001C083E02A
:100E2000809357018091E80080FFFCCF0DC0807651
:100E30008032C9F580915B03893061F08A3021F5F9
:100E40008091E80080FFFCCF8091E8008E7F809346
:100E5000E80027C08091E80080FFFCCF8091E80087
:100E60008E7F8093E80088E0EAE5F3E0ADE4B3E04C
:100E700001900D928A95E1F710924C0310924B036A
:100E800081E080934A030DC01F928F9388E796E01C
:100E90009F938F930E94F3170F900F900F900F90D6
:100EA00002C0A12C02C0AA24A39490915A0397FFD8
:100EB00051C1292F2F7180915B03213009F4AEC0FD
:100EC00020F0223009F41CC147C18630B1F08830CF
:100ED00009F016C1809157012091600330916103A0
:100EE000833029F0198200E041E050E0AAC000E020
:100EF00041E050E069E573E001C1E0905C03F090EF
:100F00005D038F2D992782309105A9F083309105DB
:100F1000F9F0019709F020C1E0910803F09109036D
:100F200000810170209160033091610361817281C1
:100F300042E150E0E3C0E0910803F09109034081F1
:100F40004270609160037091610383819481A0C0BD
:100F5000FF24E114F10409F448C0C0900803D090C4
:100F60000903D60117968C9190E08E159F050CF41D
:100F70004CC06090600370906103B1E0EB1AF1081F
:100F8000EE0CFF1CD6011896ED91FC911997EE0D11
:100F9000FF1D0190F081E02D812C912C8191919188
:100FA000892B21F0BFEF8B1A9B0AF8CF880C991C74
:100FB00082E0880D898383E08A8300E0930142E028
:100FC00050E0BE016F5F7F4F80E00E9431059301CA
:100FD00022503109D6011896ED91FC911997EE0D2A
:100FE000FF1D60817181A40189C084E0898383E051
:100FF0008A8389E08B8380E18C8320916003309128
:10100000610300E044E050E01CC084E696E09F935A
:101010008F930E94F3170F900F9082C0907619F073
:101020009032C9F199C0882319F0863071F094C0CC
:1010300019821A82209160033091610300E042E03E
:1010400050E0BE016F5F7F4F59C080915D0390E01B
:10105000829709F081C080915E0390915F03E091D7
:101060000803F0910903228530E02817390708F4B6
:1010700073C04081447020916003309161036AE045
:1010800070E00E94CE16E80FF91FB901858596859C
:101090000E944F0545C0813009F05EC020915E037B
:1010A00030915F03A0910803B09109031A968C91C7
:1010B0001A9790E08217930798F1C9016AE070E0EF
:1010C0000E94CE168A0F9B1FFC01E188F288E11472
:1010D000F10409F441C0AE014F5F5F4F6AE573E070
:1010E00087859089F70109950097D1F020916003D9
:1010F0003091610369817A8100E0AC0180E00EC02B
:1011000081112AC019821A822091600330916103F3
:1011100000E042E050E0BE016F5F7F4F0E9431056A
:10112000A1101AC08091E8008E7F8093E800809122
:10113000E80080FF05C08091E8008E7F8093E80082
:101140008091E80082FFF3CF8091E8008B7F80934D
:10115000E80020C0AA20F1F080915D038F93809178
:101160005C038F9380915B031F928F9380915A034E
:101170001F928F9383E496E09F938F930E94F317BF
:101180008091EB0080628093EB000FB6F894DEBF95
:101190000FBECDBF12FF36C0E090F200F12CEAE5A1
:1011A000F3E0CF018A5593408E159F0520F480917E
:1011B000F1008193F6CF8091E8008B7F8093E80067
:1011C00080914A038823F1F080914B0390914C0366
:1011D0008E0D9F1D80349105A8F480914B03909152
:1011E0004C03A7016AE573E0865F9C4F0E94C81715
:1011F00080914B0390914C038E0D9F1D90934C0357
:1012000080934B0316FF78C08091E8008F7B80931A
:10121000E80080914A03882309F46EC000914B03D3
:1012200010914C0380914D0380768032A1F520917E
:10123000510330915203A0910803B09109031A960B
:101240008C911A9790E08217930708F453C0C90154
:101250006AE070E00E94CE168A0F9B1FFC01E388B3
:10126000F488E114F104B9F098014AE053E06DE428
:1012700073E087859089F7010995882331F0809183
:10128000EB0080628093EB0035C08091E8008E7F98
:101290008093E8002FC01F930F9383E296E09F9303
:1012A0008F930E94F3178AE0E82E83E0F82EC8019E
:1012B000865F9C4F6C010F900F900F900F900DE187
:1012C00016E0EC14FD0471F0D7018D917D011F92A1
:1012D0008F931F930F930E94F3170F900F900F900F
:1012E0000F90EFCF8AE196E09F938F930E94F317C0
:1012F0000F900F9010924A03B1FE07C045E551E0F0
:1013000067E573E081E00E948705B3FE07C043E50F
:1013100051E065E573E083E00E9487050F900F9030
:101320000F900F90DF91CF91FF91EF91BF91AF910F
:101330009F918F917F916F915F914F913F912F91ED
:101340001F910F91FF90EF90DF90CF90BF90AF90E3
:101350009F908F907F906F900F900FBE0F901F9077
:101360001895209153013091540181E02F3F3F4F58
:1013700009F080E008954FB7209153013091540156
:101380002F3F3F4FC9F7F89490935603809355032E
:10139000709354016093530183E08093E90080913E
:1013A000F00081608093F0004FBF089520915501B7
:1013B0003091560181E02F3F3F4F09F080E00895C2
:1013C0004FB720915501309156012F3F3F4FC9F73C
:1013D000F894909358038093570370935601609349
:1013E000550181E08093E9008091F0008160809355
:1013F000F0004FBF0895E0EEF0E0808181608083CF
:101400001092E200E8EDF0E080818F7780838081A8
:1014100080628083089580910703882321F08130C2
:1014200051F0109207038091E0008E7F8093E000DE
:1014300081E080930703089520E22093D80021E003
:101440002093E0001092E2001092E30090930903D1
:10145000809308038091D8008F778093D800809183
:10146000D80080628093D8001092FB001092630035
:1014700084E089BD89B5826089BD09B400FEFDCFD5
:101480008091D80080688093D8008091D8008F7DAB
:101490008093D8000E94BF058091E1008E7F8093E9
:1014A000E10089E78093E2000895FC0181E08083F8
:1014B00080E090E030E82EE3DF01A80FB91F11961D
:1014C0003C93119712962C9302968C309105A1F7BC
:1014D0001586168608952FE1FC0111922A95E9F7E9
:1014E00008960C94550A8FE090E008956F927F92D1
:1014F0008F929F92AF92BF92CF92DF92EF92FF9224
:101500000F931F93CF93DF93CDB7DEB72C970FB612
:10151000F894DEBF0FBECDBF8C017B0108960E9400
:10152000550AE114F10409F42BC1D7018C918430E0
:1015300021F0853009F443C023C1F7018281992746
:1015400087FD9095803BFFEF9F0714F480EB9FEFA2
:101550008135910514F080E590E068EC70E00E9420
:10156000CE16FC01D70111968C91992787FD909595
:10157000803BBFEF9B0714F480EB9FEF8135910513
:1015800014F080E590E068EC70E00E94CE16805880
:10159000914C9C838B8320E83EE32E1B3F0B3A83C8
:1015A0002983F80181878C81828723878A818487B8
:1015B000D70113966D917C91149780E1DCC0D7011F
:1015C00011964C91842F992787FD90958C39BFEF08
:1015D0009B0714F48CE99FEF8536910514F084E69F
:1015E00090E0F701A281BB27A7FDB095AC39FFEFD2
:1015F000BF0714F4ACE9BFEFA536B10514F0A4E6BB
:10160000B0E0F7016380772467FC7094FCE96F1603
:10161000FFEF7F0624F43CE9632E77247A9425E6D5
:10162000621671041CF024E6622E712CF7012481ED
:10163000332727FD30952C39FFEF3F0714F42CE9B1
:101640003FEF2536310514F024E630E0F701A580A0
:10165000B12CC680D12C60EA70E00E94CE164C01FD
:10166000CD0160E67FEF0E94CE16DC01C30160EA87
:1016700070E00E94CE16FC01C90160E67FEF0E9477
:10168000CE169C0140910D04C50140FF10C08F573C
:1016900091096EE770E00E94CE169C838B83C60191
:1016A0008F5791096EE770E00E94CE1617C06FE366
:1016B00070E00E94CE1681385EE3950714F080E852
:1016C0009EE39C838B83C6016FE370E00E94CE167D
:1016D00081385EE3950714F080E89EE39A8389835E
:1016E00041FF0EC08B819C819195819591099C83CE
:1016F0008B8389819A819195819591099A838983B8
:1017000080E8881A81EC980A9C868B86A058B14C98
:10171000BA87A9876F0140E8C41A41ECD40AD88679
:10172000CF82B9016058714C7E836D834B815C819F
:101730004058514C5C834B8329813A812058314C6D
:101740003A832983F80181868C858287A3878A85DD
:101750008487C5868885868767878E81808B418B45
:101760008C81828B238B8A81848BD70117966D9114
:101770007C91189780E00E94B50DF801858B968BBF
:101780002C960FB6F894DEBF0FBECDBFDF91CF9180
:101790001F910F91FF90EF90DF90CF90BF90AF908F
:1017A0009F908F907F906F900895FC0162830895C1
:1017B000FC01828181110FC08181882349F08381DE
:1017C00087FD03C0848187FF03C081E0808301C05F
:1017D00010828081089581E0089508960895EF921F
:1017E000FF920F931F93CF93DF93EC018B017A014C
:1017F000FB0182819381292F33272130310521F08C
:101800002330310569F171C0813079F42896F701F0
:10181000D183C0838FE998E09F938F930E94F31741
:101820000F900F908FE090E07FC0823099F48F8B03
:10183000188E8D81898F82E998E09F938F930E9403
:10184000F3176796F701D183C0830F900F9083E061
:1018500090E06AC099279F938F9389E798E03DC0F5
:10186000823051F48F8B81E0888F898F8AE08A8F54
:101870008B8F8CE698E00BC08330B1F48F8B81E0C6
:10188000888F898F9FEF9A8F8B8F89E598E09F9340
:101890008F930E94F3176796F701D183C0830F904F
:1018A0000F9085E090E040C0893091F48F8B81E00B
:1018B000888F89E498E09F938F930E94F31767962F
:1018C000F701D183C0830F900F9082E090E02CC08D
:1018D00099279F938F9384E398E09F938F930E941F
:1018E000F3170F900F900F900F90F80187818F934F
:1018F00086818F9383818F9382818F9381811F92C1
:101900008F9380811F928F9388EE97E09F938F93A0
:101910000E94F3178DB79EB70A960FB6F8949EBF34
:101920000FBE8DBF80E090E0DF91CF911F910F91AE
:10193000FF90EF900895EF92FF920F931F93CF9334
:10194000DF937C01EA012115310549F482EE97E02D
:101950009F938F930E94F3170F900F90E0C0FB01AD
:10196000838190E08230910509F0B7C08881082F0B
:1019700010E0F8013197ED30F10508F0A9C0E65C00
:10198000FF4F0C94FE168A811F928F9389811F92BC
:101990008F9384EC97E09F938F930E94F3170F909F
:1019A0000F900F900F900F900F90BBC089811F92E6
:1019B0008F9381EB97E09EC08DE997E09F938F9383
:1019C0000E94F317F701148213827BC082E997E02B
:1019D0009FC08981F701858389811F928F9382E857
:1019E00097E088C08A81F70184838A811F928F9350
:1019F00081E797E07FC08981813009F092C08A81B8
:101A0000F70183838A811F928F938DE597E072C0DF
:101A10002430310509F083C08B8190E063E0880FAA
:101A2000991F6A95E1F7F701978386838981282FAB
:101A30002F7787FF03C08DE492E002C081E592E03A
:101A40001F922F939F938F938FE397E09F938F9392
:101A50000E94F31789818F770F900F900F900F904E
:101A60000F900F90853038F4833048F4813039F08E
:101A7000823049F156C08D3008F053C024C0CA816D
:101A8000C23071F0C330B1F0C13009F04AC087E311
:101A900097E09F938F930E94F317F701C1833CC097
:101AA0008AE297E09F938F930E94F31781E0F701FA
:101AB000818332C083E297E09F938F930E94F31754
:101AC000F701118229C01F928F9380E197E012C025
:101AD0001F928F9385EF96E00DC00397B9F488812C
:101AE000893089F48981F701858389811F928F93D9
:101AF00083EE96E09F938F930E94F3170F900F90C1
:101B00000F900F900EC08CED96E002C080ED96E035
:101B10009F938F930E94F3170F900F9002C08FEF47
:101B200001C080E0DF91CF911F910F91FF90EF9066
:101B30000895CF93DF9320E030E0FC01A591B491AC
:101B4000FC01329645915491109759F04115510579
:101B500041F0A623B723AB2B11F0242B352B049691
:101B6000ECCFC901DF91CF910895882329F080310E
:101B700039F480EB98E002C08CEE98E00C94990D5B
:101B800080E090E008958AB1807F8AB98BB1807F30
:101B90008BB9249A2C980895EF92FF920F931F937C
:101BA000CF93DF93582FCB0179011FB75130A1F0AC
:101BB00048F0523061F0533031F5CBECD4E1E3EF33
:101BC000F4E10EC0CAE8D3E1E2EBF3E109C0C0E6FC
:101BD000D4E1E8E8F4E104C0C5EFD3E1EDE1F4E1DC
:101BE000F894642F0995602FC701FE0109951FBF66
:101BF00092E0980F923038F0EFE3F1E03197F1F78F
:101C000000C0000001C080E0DF91CF911F910F91D3
:101C1000FF90EF9008950F931F93CF93DF9300D021
:101C200000D01F92CDB7DEB71D8204E09E012F5F6A
:101C30003F4F41E050E0BE016B5F7F4F0E94CC0DF3
:101C40008823B1F18330B9F599812A81022F10E000
:101C5000192B3B811F923F931F922F931F929F93AB
:101C60001F928F931F932F9384E592E09F938F93FE
:101C70000E94DF170FB6F894DEBF0FBECDBF812FD5
:101C800099278F7099278830910561F028F405977E
:101C900091F481E090E014C08930910579F00B97C0
:101CA00069F009C00032184049F483E090E008C0B0
:101CB00080E090E005C084E090E002C082E090E027
:101CC0000F900F900F900F900F90DF91CF911F9179
:101CD0000F910895DB01282F30E0109769F0C901BA
:101CE00061E170E00E94CE16FC01ED5EFB4F81E1E8
:101CF00001900D928A95E1F7C90161E170E00E94BF
:101D0000CE16DC01AB5CBB4FFC01ED5EFB4F81E10D
:101D100001900D928A95E1F70895E82FF0E0E356DF
:101D2000FC4F60830895FF920F931F93CF93DF932F
:101D300000D000D01F92CDB7DEB7F82EE82FF0E02C
:101D4000E556FC4F10821FE02FEF86E791E021500F
:101D500080409040E1F700C000001D8204E09E0139
:101D60002F5F3F4F41E050E0BE016B5F7F4F8F2DF3
:101D70000E94CC0D833021F0115031F780E001C07A
:101D800081E00F900F900F900F900F90DF91CF9107
:101D90001F910F91FF900895282F30E0C90161E154
:101DA00070E00E94CE16FC01EB5CFB4FC90161E1C3
:101DB00070E00E94CE1641E150E0BF018D5E9B4F66
:101DC0000E94BB1708950F931F93CF93DF9300D00A
:101DD00000D0CDB7DEB7182F83E08093D80380E81A
:101DE0008093D90381E08093DA0340E250E060E819
:101DF00070E08BED93E00E94D11704E09E012F5F0D
:101E00003F4F43E250E068ED73E0812F0E94CC0D1C
:101E100091E0813009F490E0892F81950F900F9027
:101E20000F900F90DF91CF911F910F9108950F9315
:101E30001F93CF93DF9300D000D0CDB7DEB7182F1C
:101E400083E08093D80380EC8093D9038BE1809367
:101E5000DA0321E030E0611102C020E030E040E22E
:101E600050E0B9018BED93E00E94D11704E09E0190
:101E70002F5F3F4F43E250E068ED73E0812F0E94F7
:101E8000CC0D91E0813009F490E0892F81950F907D
:101E90000F900F900F90DF91CF911F910F910895A8
:101EA000DF92EF92FF920F931F93CF93DF93CDB703
:101EB000DEB727970FB6F894DEBF0FBECDBFD82E82
:101EC0001092D80303E09E012B5F3F4F41E050E0AA
:101ED00068ED73E00E94CC0DED2CF12C833031F0D5
:101EE000F701E556FC4F85E0808398C08F8180FF25
:101EF0000AC0F701E556FC4F9081911102C095E0B0
:101F0000908381FF04C0F701E556FC4F10828701E2
:101F100005561C4FF8018081833061F128F481302F
:101F2000A9F18230C9F03FC08430E9F08530D9F59D
:101F30008D2D0E94E30E882341F08D2D0E94E30E2B
:101F4000882389F1F80110822EC0F701E356FC4F77
:101F500080818823A9F020C061E08D2D0E94170F99
:101F6000811121C01DC060E08D2D0E94170F8111CD
:101F70001AC00AC0F701E356FC4F8081811113C0DB
:101F800060E08D2D0E94170F81E00BC0F701E35632
:101F9000FC4F8081882339F061E08D2D0E94170F5E
:101FA00083E0F801808381E08093D80304E09E0100
:101FB0002F5F3F4F41E050E068ED73E08D2D0E94B0
:101FC000CC0DB82F843051F5A9814A812B813C81F9
:101FD000C70161E170E00E94CE16FC01ED5EFB4F8F
:101FE000B083842F90E09A2B948383832183328360
:101FF000A583468327833087203811F481E88183C5
:10200000C70161E170E00E94CE168D5E9B4FFC011E
:102010008281803829F421E8228302C08FEF01C039
:1020200080E027960FB6F894DEBF0FBECDBFDF91DC
:10203000CF911F910F91FF90EF90DF9008950C9436
:10204000500F88E591E00895E82FF0E0E955FC4F46
:1020500010820895DB01109769F090E061E170E073
:102060000E94CE16FC01ED5EFB4F81E101900D92C6
:102070008A95E1F70895E82FF0E0E755FC4F60837B
:102080000895282F30E0C90161E170E00E94CE166A
:10209000FC01EB5CFB4FC90161E170E00E94CE16D0
:1020A00041E150E0BF018D5E9B4F0E94BB17089538
:1020B000AF92BF92DF92EF92FF920F931F93CF9355
:1020C000DF93FB01282F30E0C90161E170E00E943D
:1020D000CE16EC01CD5EDB4F45E04883418150E0F8
:1020E000542F44276081462B58874F83E280F3802A
:1020F0000481158146814D8347814E83DC01A45EB6
:10210000BB4F88E001900D928A95E1F7C90189558E
:102110009C4F5C01FC01D080B9016B557C4FA9013B
:102120004D555C4FC9018F559C4FD901A156BC4FED
:10213000FB01DD2079F02081E21AE982FA01208199
:10214000F21AFA82FC018081081B0B838C91181B08
:102150001C830DC0E082FA01F082FC0100831C9315
:1021600019821A821B821C8281E0F5018083DF9133
:10217000CF911F910F91FF90EF90DF90BF90AF90A4
:1021800008950F931F93CF93DF93CDB7DEB72897B2
:102190000FB6F894DEBF0FBECDBF182F80E4898341
:1021A00083E08A83E12FF0E0E755FC4F81E09081E6
:1021B000911101C080E08B8308E09E012F5F3F4FAB
:1021C00043E050E0B901812F0E94CC0D883041F4EA
:1021D000BE016F5F7F4F812F0E94581080E001C0C9
:1021E00081E028960FB6F894DEBF0FBECDBFDF9119
:1021F000CF911F910F910895E82FF0E0E955FC4F22
:1022000010820E94C11091E0811190E0892F089501
:102210000C94C11086E691E008952091C80025FF36
:10222000FCCFFC0180818093CE000895CF93DF9393
:102230001F92CDB7DEB7898361E070E0CE010196D1
:102240000E940D1180E090E00F90DF91CF910895F2
:1022500088E08093C90086E08093CA001092CB008A
:102260001092CD0080E18093CC0084E791E09093C0
:102270005A048093590408950E94FB09F894E0E001
:10228000F0EF09940895E0E0F4E080E090E024E0CD
:10229000E131F207D9F021919227092E0294202DE5
:1022A0002F702927392F3025330F307E2327302DEB
:1022B0003927307F3695092E000C331F9695969559
:1022C00096959F7193279827822FE1CF08950E94BA
:1022D0004311909312048093110443E150E060E0B5
:1022E00070E080E094E00C94261ACF93DF9343E1F2
:1022F00050E060E070E080E094E00E94161A809167
:102300000004909101048D3E9E4F91F083E1E0E046
:10231000F4E0DF011D928A95E9F78DEE9EEF909330
:102320000104809300040E94A5110E94671109C056
:10233000C0911104D09112040E944311C817D9070B
:1023400029F7DF91CF910C940905CF93DF9300D04B
:1023500000D000D0CDB7DEB786E0EAE8F1E0DE01DC
:10236000119601900D928A95E1F786E0FE01319673
:10237000A2E0B4E001900D928A95E1F71092080472
:1023800085E08093090480930A0480930B04809372
:102390000C0426960FB6F894DEBF0FBECDBFDF91BA
:1023A000CF910895CF93DF93EB01813159F140F440
:1023B0008130F1F0D0F08031E9F58091090437C027
:1023C000833131F110F1833231F1843299F580910A
:1023D0000D0490910E04A0910F04B0911004B695D5
:1023E000A79597958795817022C0809108041FC09A
:1023F00086E0E2E0F4E0DB0101900D928A95E1F7DE
:1024000086E019C080910A0412C080910B040FC0AD
:1024100080910C040CC080910D0490910E04A09149
:102420000F04B091100481709927AA27BB278883D5
:1024300081E001C080E0DF91CF910895FB013097EA
:1024400009F458C0813109F150F48130A1F078F0DD
:10245000803109F04FC080818093090447C08331E7
:10246000E1F0B8F08332E9F0843251F143C0808169
:10247000809308043BC086E0A2E0B4E001900D9296
:102480008A95E1F70E94671131C0808180930A0428
:102490002DC0808180930B0429C0808180930C041F
:1024A00025C0208180910D0490910E04A0910F040D
:1024B000B0911004222311F0816010C08E7F0EC0F5
:1024C000208180910D0490910E04A0910F04B09191
:1024D0001004222311F0826001C08D7F80930D04CF
:1024E00090930E04A0930F04B09310040E94671100
:1024F00081E0089580E008958091D503823059F4F9
:102500008CEA93E0FA01918380831092D503809145
:10251000AB0390E0089580E090E00895CF93DF93BF
:102520001F92CDB7DEB7BA0181E08093D503A90130
:102530008CEA93E029830E94C81729812093AB037A
:1025400080E00F90DF91CF9108950F93CF93DF93A9
:102550002091D503213029F008F49EC0223029F4BF
:102560009BC02091AB03211103C01092D50394C0EE
:102570002091AC03253009F464C038F5223009F409
:1025800049C058F4213009F084C06EEA73E08091AC
:10259000AD030E941E1282E07AC0233009F446C0C7
:1025A000243009F076C0C0918801D0918901BE0124
:1025B0008DEA93E00E94D817FE0101900020E9F710
:1025C000EC1BEF5FE093AB0364C0273009F450C00D
:1025D00008F443C0203831F02F3F09F05AC00E9460
:1025E0003C1157C08091AD03843008F052C0409137
:1025F000AE0350E006E22FEA33E0B9010E94CC0DB1
:102600008093AB038091AB038093AE038091AB03C7
:102610008D5F3DC047E26EEA73E08091AD030E949A
:10262000D2118093AB038091AB0315C0009789F161
:10263000DC01ED91FC91309761F18091AD0309953A
:1026400028C060E279E08DEA93E00E94AB1780E257
:1026500099E00E94B2178E5F1AC0E091AD03E4309A
:10266000C0F4F0E0EC54FD4F80818093AE030EC0C7
:10267000009761F0DC011296ED91FC911397309771
:1026800029F06091AE038091AD03099583E08093BA
:10269000AB0382E08093D503DF91CF910F91089532
:1026A00090938501809384010895109280008DE0BD
:1026B000809381000895BC018091D6039091D70347
:1026C00086179707F1F07093D7036093D6031092A3
:1026D000850010928400882777FD8095982F29E047
:1026E0003DE340E050E00E940417B901CA0128EE22
:1026F00033E040E050E00E94DF16309389002093E1
:1027000088000895B19B04C082E086BB81E00895F3
:1027100080E00895AA27BB27E82FF92F222741E060
:1027200088272395D9F04899FCCF0FC0522F2BE46E
:102730002395BAF04899FCCF321B441F08F005C01E
:10274000681749F08395419341E03BE4339542F0AB
:10275000489BFCCFEBCF8FEF8A950895882309F033
:102760008FEF0895E82FF92F6623F1F1662371F1B9
:102770006A955191B0E8352F3B2399F40000509AA7
:1027800044E14A95F1F70000509842E04A95F1F78C
:10279000B69561F30000000000000000000000009A
:1027A000EACF509A44E04A95F1F7000000005098B3
:1027B0004DE04A95F1F700000000B695B9F200002F
:1027C00000000000000000000000D5CF0000000065
:1027D000000000000000000000000000509A44E0EB
:1027E0004A95F1F7000050980895AA27BB27E82FD3
:1027F000F92F222741E088272395D9F04A99FCCF69
:102800000FC0522F2BE42395BAF04A99FCCF321B0C
:10281000441F08F005C0681749F08395419341E0D3
:102820003BE4339542F04A9BFCCFEBCF8FEF8A9588
:102830000895882309F08FEF0895E82FF92F662374
:10284000F1F1662371F16A955191B0E8352F3B2380
:1028500099F40000529A44E14A95F1F70000529829
:1028600042E04A95F1F7B69561F3000000000000E0
:10287000000000000000EACF529A44E04A95F1F7C8
:102880000000000052984DE04A95F1F7000000006A
:10289000B695B9F200000000000000000000000042
:1028A000D5CF000000000000000000000000000084
:1028B0000000529A44E04A95F1F7000052980895BA
:1028C000AA27BB27E82FF92F222741E08827239545
:1028D000D9F04999FCCF0FC0522F2BE42395BAF0C1
:1028E0004999FCCF321B441F08F005C0681749F016
:1028F0008395419341E03BE4339542F0499BFCCF03
:10290000EBCF8FEF8A950895882309F08FEF089514
:10291000E82FF92F6623F1F1662371F16A95519141
:10292000B0E8352F3B2399F40000519A44E14A95D1
:10293000F1F70000519842E04A95F1F7B69561F33E
:10294000000000000000000000000000EACF519AE3
:1029500044E04A95F1F70000000051984DE04A9597
:10296000F1F700000000B695B9F200000000000089
:10297000000000000000D5CF0000000000000000B3
:102980000000000000000000519A44E04A95F1F771
:10299000000051980895AA27BB27E82FF92F222776
:1029A00041E088272395D9F04B99FCCF0FC0522FD7
:1029B0002BE42395BAF04B99FCCF321B441F08F04F
:1029C00005C0681749F08395419341E03BE4339596
:1029D00042F04B9BFCCFEBCF8FEF8A950895882375
:1029E00009F08FEF0895E82FF92F6623F1F16623A0
:1029F00071F16A955191B0E8352F3B2399F40000AD
:102A0000539A44E14A95F1F70000539842E04A9501
:102A1000F1F7B69561F3000000000000000000002F
:102A20000000EACF539A44E04A95F1F70000000015
:102A300053984DE04A95F1F700000000B695B9F2C1
:102A4000000000000000000000000000D5CF0000E2
:102A50000000000000000000000000000000539A89
:102A600044E04A95F1F7000053980895CF93DF931F
:102A7000CDB7DEB769970FB6F894DEBF0FBECDBFF6
:102A80001E8A1F8A188E198E1A8A1B8A1C8A1D8A12
:102A90000E94D7040E9428110E9475110E945513AC
:102AA00080910804803119F160F48130A9F08230FE
:102AB00009F040C083E292E00E94501381E290E06E
:102AC00011C08131D9F08231A9F589E192E00E94EB
:102AD000501381E390E018C089EF91E00E945013F9
:102AE00080E290E090934C0180934B0123C08FEBE8
:102AF00091E00E94501382E290E006C08FEE91E0D8
:102B00000E94501380E390E090934C0180934B011E
:102B10008EE890E0909308018093070184E590E0AF
:102B200090930A018093090183E080930E0102E0F3
:102B300010E002C001E010E059ECC52E52E0D52EA5
:102B4000E12CF12CC6010E946B0A81E0E816F10429
:102B500019F482E090E002C080E090E06AE070E06A
:102B60000E94CE168C5F9E4FDC015096DC92CE9276
:102B70001F97BFEFEB1AFB0AEFE1CE0ED11CE01658
:102B8000F10604F3789484E091E00E941C0A512C31
:102B90000E940B0A80E091E00E94A512F1E05F160E
:102BA000D9F05F1648F082E0581609F48EC093E021
:102BB000591609F496C0B8C08091C8028111B0C0FE
:102BC0008091090490E00E945B130E9482135524B7
:102BD00053948111A9C0A4C0DE0156965D01FE0187
:102BE00072966F0149EC842E42E0942EE12CF12C78
:102BF000D5018D919C91892B89F48E2D0E94EA0438
:102C0000F50191838083009749F0DC011696ED91E0
:102C1000FC911797309711F08E2D0995F501608082
:102C2000718061147104C1F14E2CD3011296ED91A3
:102C3000FC9113978E2D0995F601882379F0208158
:102C400031812F5F3F4F318320832F31310544F095
:102C5000D5011D921C921182108223C01182108214
:102C6000D3011496ED91FC911597842D0995882335
:102C7000C1F0D3011896ED91FC911997BE016F5FD9
:102C80007F4F842D0995BE016F5F7F4FC4010E9465
:102C9000760A32E0532E05C060E070E0C4010E9465
:102CA000760ABFEFEB1AFB0AE2E0AE0EB11CF2E0CF
:102CB000CF0ED11C8FE1880E911CE016F1060CF4AA
:102CC00097CF91E0591230C02BC00E94D6098111D4
:102CD00029C00230110541F50E94B109811122C0BD
:102CE00023C00E94D609882351F00E94730A7C01F8
:102CF00089EC92E00E94ED0BB7010E94E0090230DE
:102D0000110571F40E94B109882351F00E94730AE1
:102D10007C0188EE92E00E94ED0BB7010E94BB0996
:102D2000512C02C023E0522E88EBC82E82E0D82E10
:102D3000DE0156965D0199EC892E92E0992EE12CE8
:102D4000F12CC4010E94D80B782EF6014081552742
:102D500047FD5095282F30E04217530779F0D501F1
:102D6000ED91FC91309741F00284F385E02D30978E
:102D700019F0682F8E2D0995F6017082FFEFEF1A7A
:102D8000FF0A8FE1880E911C9FEFC91AD90AA2E0B1
:102D9000AA0EB11CE016F106A4F2FACE00245527C3
:102DA00004C0080E591F880F991F009729F07695C7
:102DB0006795B8F37105B9F7802D952F0895052E05
:102DC00097FB1EF400940E94F61657FD07D00E9450
:102DD0005B1707FC03D04EF40C94F6165095409503
:102DE000309521953F4F4F4F5F4F089590958095B7
:102DF000709561957F4F8F4F9F4F0895EE0FFF1F86
:102E00000590F491E02D099468940013E894A0E0F3
:102E1000B0E0EDE0F7E10C942C17EFEFE7F9590182
:102E20006A015E23550FEE08FE2C87019B01AC0161
:102E30009E23990F660B762FCB010E947D17CDB78D
:102E4000DEB7EAE00C9448172F923F924F925F92C0
:102E50006F927F928F929F92AF92BF92CF92DF92AA
:102E6000EF92FF920F931F93CF93DF93CDB7DEB70F
:102E7000CA1BDB0B0FB6F894DEBF0FBECDBF0994A3
:102E80002A88398848885F846E847D848C849B84FA
:102E9000AA84B984C884DF80EE80FD800C811B8108
:102EA000AA81B981CE0FD11D0FB6F894DEBF0FBE37
:102EB000CDBFED010895A1E21A2EAA1BBB1BFD0197
:102EC0000DC0AA1FBB1FEE1FFF1FA217B307E40709
:102ED000F50720F0A21BB30BE40BF50B661F771F61
:102EE000881F991F1A9469F7609570958095909541
:102EF0009B01AC01BD01CF010895DF93CF939F9259
:102F0000A0E49A2E0024D001E001F0011695079567
:102F1000F794E794D794C794B794A79448F41068AB
:102F2000A20FB31FC41FD51FE61FF71F081E191ECF
:102F3000220F331F441F551F661F771F881F991FBD
:102F40009A9421F79D01AE01BF01C00111249F9009
:102F5000CF91DF910895FB01DC0105900D920020D7
:102F6000E1F70895FC0105900020E9F78095909520
:102F70008E0F9F1F0895FB01DC0104C08D9101900D
:102F8000801921F441505040C8F7881B990B0895CF
:102F9000FB01DC0102C001900D9241505040D8F776
:102FA0000895DC0101C06D9341505040E0F7089551
:102FB000FB01DC0101900D920020E1F70895A0E0F3
:102FC000B0E0E5EEF7E10C943417FE01359661911F
:102FD0007191AF018091590490915A040E94421856
:102FE000E2E00C945017A0E0B0E0E9EFF7E10C94B8
:102FF0003217FE0137966191719109E514E0D8010D
:103000008D919C91DC0113962C9113972860139657
:103010002C93AF010E944218D801ED91FC912381BD
:10302000277F2383E4E00C944E170F931F93CF93D5
:10303000DF93E0915904F0915A04238121FF1BC0D2
:10304000EC0100E010E089916091590470915A04FC
:10305000DB011896ED91FC911997882331F00995C1
:10306000892B89F30FEF1FEFEECF8AE00995892BAB
:1030700011F4C80102C08FEF9FEFDF91CF911F9134
:103080000F910895ACE0B0E0E8E4F8E10C94241767
:103090007C016B018A01FC0117821682838181FF0A
:1030A000BFC1CE0101964C01F7019381F60193FD5A
:1030B000859193FF81916F01882309F4ADC1853219
:1030C00039F493FD859193FF81916F01853229F445
:1030D000B70190E00E945E1AE7CF512C312C20E01E
:1030E0002032A0F48B3269F030F4803259F0833210
:1030F00069F420612EC08D3239F0803339F42160BB
:1031000028C02260246025C0286023C027FD29C074
:1031100030ED380F3A3088F426FF07C0852D6AE07D
:103120000E94F01A582E530E14C0832D6AE00E949C
:10313000F01A382E330E20620CC08E3221F426FD98
:103140006BC1206406C08C3611F4206802C088363A
:1031500041F4F60193FD859193FF81916F018111F7
:10316000BFCF982F9F7D9554933028F40C5F1F4F4D
:10317000FFE3F9830DC0833631F0833771F0833577
:1031800009F05BC022C0F801808189830E5F1F4F68
:1031900044244394512C540115C03801F2E06F0EC1
:1031A000711CF801A080B18026FF03C0652D70E07E
:1031B00002C06FEF7FEFC5012C870E94531A2C01CC
:1031C00083012C852F77222E17C03801F2E06F0E75
:1031D000711CF801A080B18026FF03C0652D70E04E
:1031E00002C06FEF7FEFC5012C870E94481A2C01A7
:1031F0002C852068222E830123FC1BC0832D90E0A8
:1032000048165906B0F4B70180E290E00E945E1AB9
:103210003A94F4CFF50127FC859127FE81915F0157
:10322000B70190E00E945E1A31103A94F1E04F1A13
:1032300051084114510471F7E5C0843611F0893604
:1032400039F5F80127FF07C0608171818281938180
:103250000C5F1F4F08C060817181882777FD8095C2
:10326000982F0E5F1F4F2F76B22E97FF09C09095B3
:103270008095709561957F4F8F4F9F4F2068B22E3C
:103280002AE030E0A4010E94901AA82EA81844C099
:10329000853729F42F7EB22E2AE030E025C0F22FA8
:1032A000F97FBF2E8F36C1F018F4883579F0B4C09D
:1032B000803719F0883721F0AFC02F2F2061B22E50
:1032C000B4FE0DC08B2D8460B82E09C024FF0AC047
:1032D0009F2F9660B92E06C028E030E005C020E19F
:1032E00030E002C020E132E0F801B7FE07C06081A3
:1032F0007181828193810C5F1F4F06C06081718153
:1033000080E090E00E5F1F4FA4010E94901AA82E4B
:10331000A818FB2DFF77BF2EB6FE0BC02B2D2E7FDE
:10332000A51450F4B4FE0AC0B2FC08C02B2D2E7EAA
:1033300005C07A2C2B2D03C07A2C01C0752C24FFDC
:103340000DC0FE01EA0DF11D8081803311F4297E4C
:1033500009C022FF06C07394739404C0822F86783C
:1033600009F0739423FD13C020FF06C05A2C731478
:1033700018F4530C5718732C731468F4B70180E2D7
:1033800090E02C870E945E1A73942C85F5CF7314FD
:1033900010F4371801C0312C24FF12C0B70180E3AC
:1033A00090E02C870E945E1A2C8522FF17C021FF17
:1033B00003C088E590E002C088E790E0B7010CC048
:1033C000822F867859F021FD02C080E201C08BE295
:1033D00027FD8DE2B70190E00E945E1AA51438F433
:1033E000B70180E390E00E945E1A5A94F7CFAA9446
:1033F000F401EA0DF11D8081B70190E00E945E1A90
:10340000A110F5CF332009F44FCEB70180E290E050
:103410000E945E1A3A94F6CFF7018681978102C026
:103420008FEF9FEF2C96E2E10C944017DC01CB016B
:10343000FC01F999FECF06C0F2BDE1BDF89A3196C4
:1034400000B40D9241505040B8F70895DC01A40F2C
:10345000B51F4150504048F0CB01840F951F2E916D
:103460000E94371A41505040D0F70895262FF999FD
:10347000FECF92BD81BDF89A019700B4021639F0D3
:103480001FBA20BD0FB6F894FA9AF99A0FBE0895A4
:10349000FC010590615070400110D8F7809590951F
:1034A0008E0F9F1F0895FC01615070400190011024
:1034B000D8F7809590958E0F9F1F08950F931F93B7
:1034C000CF93DF93182F092FEB018B8181FD03C070
:1034D0008FEF9FEF20C082FF10C04E815F812C8153
:1034E0003D81421753077CF4E881F9819F012F5FEA
:1034F0003F4F39832883108306C0E885F985812FE3
:103500000995892B29F72E813F812F5F3F4F3F83FC
:103510002E83812F902FDF91CF911F910F910895CE
:10352000FA01AA27283061F1203191F1E8946F93D4
:103530006E7F6E5F7F4F8F4F9F4FAF4FB1E040D098
:10354000B4E03ED0670F781F891F9A1FA11D680F36
:10355000791F8A1F911DA11D6A0F711D811D911D6B
:10356000A11D22D009F468943F91062E000C301959
:10357000000C000C3019305D3193CEF6CF01089568
:10358000462F4770405D4193B3E00FD0C9F7F6CFA7
:10359000462F4F70405D4A3318F0495D31FD40526F
:1035A000419302D0A9F7EACFB4E0A6959795879505
:1035B00077956795BA95C9F70097610571050895E4
:1035C0009B01AC010A2E0694579547953795279590
:1035D000BA95C9F7620F731F841F951FA01D089528
:1035E000002480FD060E660F11F08695D1F7802D20
:0635F0000895F894FFCFDE
:1035F600C204C504064101E2003B0003820102E861
:103606000432010000D504D30415001D0100007C1E
:10361600128E12E80432010000D504D30400000023
:103626000000000000000000000000000000000094
:103636000012010101000000409B281D000003014B
:10364600020301FFFFFFFF011F10500FCC0E000009
:103656006A0E8D0E930E0811C110411024102A1007
:103666003B10FC10000000020000000016110000D4
:1036760000007602C901A002AE023030303030318F
:103686004465746563746564204E363420636F6EDA
:1036960074726F6C6C6572004465746563746564FE
:1036A60020474320636F6E74726F6C6C65720044C2
:1036B60000750061006C002000470043002F004E9B
:1036C6000036003400200074006F002000550053BF
:1036D6000042002000760033002E00330000004434
:1036E60000750061006C0020004E0036003400209A
:1036F6000074006F00200055005300420020007641
:103706000033002E00330000004400750061006C99
:10371600002000470061006D0065006300750062CF
:10372600006500200074006F002000550053004221
:10373600002000760033002E003300000059657328
:10374600004E6F0049643A20253034782020202826
:1037560025643A20253032782025303278202530ED
:103766003278290D0A0072006100700068006E0050
:1037760065007400200074006500630068006E0038
:103786006F006C006F006700690065007300000041
:103796003100320033003400350036000000332E8D
:0437A600332E32008C
:00000001FF
