:020000040000FA
:200000000C9447000C9428020C9464000C9464000C9464000C9464000C9464000C94640017
:200020000C9464000C9464000C9464000C9464000C9464000C9464000C9464000C946400A0
:200040000C9442040C9464000C9464000C9464000C9464000C9464000C9464000C9464009E
:200060000C9464000C94640035396135663737322D383335332D313165362D626463642D5D
:20008000303031626663613363353933000011241FBECFEFD4E0DEBFCDBF11E0A0E0B1E05D
:2000A000EAE7FCE002C005900D92A831B107D9F721E0A8E1B1E001C01D92AB37B207E1F73E
:2000C0000E9471050C943B060C940000AB014C5F5F4F9C01285F3F4FFC0190E880E0A191C9
:2000E000A111892B9695E217F307C9F7DB018D93BD01CF01A417B50761F708959B01285FA3
:200100003F4F90E8492F4823FB014193BF019695E217F307B9F70895880F990B20911A01F4
:2001200030911B01820F931F90931B0180931A018937910524F0299A88E790E007C088389F
:200140002FEF92071CF4299A88E89FEF20911A0130911B01281B390B30931B0120931A013A
:2001600008952998880F990B2091180130911901820F931F9093190180931801893791053F
:2001800024F0299A88E790E007C088382FEF92071CF4299A88E89FEF2091180130911901F5
:2001A000281B390B30931901209318010895CF92DF92EF92FF920F931F93CF93DF93CDB7E2
:2001C000DEB7A0970FB6F894DEBF0FBECDBF7C018E010F5F1F4F80E2F80111928A95E9F727
:2001E00080915F01833009F4BDC0883021F0823009F0DCC02DC082E080934C0110924D01B2
:2002000010924E012091620130916301C90184E0989F812D9927112481708983832F881F56
:200220008827881F8A83809161010E948C00C82E809160010E94B100D82EBE016F5E7F4F9F
:200240008C2D0E947E00BE01675E7F4F8D2DB8C095E090934C0110924D0180934E018091F9
:200260007A012091600130916101813059F0F8F0823049F527FB882780F9898326FB8827D6
:2002800080F908C0832F881F8827881F898327FB882780F98A83C901E5E096958795EA95B6
:2002A000E1F781708D878E878F87888B0CC025FB882780F98B8327FB882780F9898326FB8A
:2002C000882780F98A83C901892F992782958695877081708B8734FB882780F98C8724FBF2
:2002E000882780F98C83C90153E0969587955A95E1F7582F51705D83C90196958795969558
:200300008795482F41704E83C9019695879581708F83B901617077276887207C307C203CF8
:20032000304C09F043C0552339F010927A010E94750481E090E009C0442351F081E08093B6
:200340007A010E94750482E090E00E9416042EC0882361F182E080937A010E94750483E020
:2003600090E0F3CF209160013091610127FB882780F9898326FB882780F98A8324FB88279C
:2003800080F98C8323FB882780F98D8322FB882780F98E8321FB882780F98F83C901817018
:2003A0009927888725FB222720F92B83BE016F5E7F4F80E00E947E00BE01675E7F4F8FEF94
:2003C0000E947E00B701C8010E946600A0960FB6F894DEBF0FBECDBFDF91CF911F910F91D7
:2003E000FF90EF90DF90CF900895F8940E945604E0E0FCE109940895823040F190911C0104
:20040000923521F590911D01913031F000F19F3FE9F40E94F5011AC088E2ECE1F1E0DF01D8
:200420001D928A95E9F710921C0180917A0180931D019093240182E08093250164E171E019
:2004400086E291E00E940C068EE0089580E008951F921FB64F930F931F93EF93FF937F9325
:20046000AF93BF93ACE1B1E00027E3EDF2E049B14470440F440F440F440F440F042B49B18B
:200480004470E9F31AE01A9521F049B14470D9F701C0099416E01A95F1F749B14470440FA8
:2004A000440F440F440F042B49B14470E9F31AE01A9521F049B14470D9F701C0099416E0FE
:2004C0001A95F1F749B14470440F440F440F042B49B14470E9F31AE01A9521F049B14470BD
:2004E000D9F701C0099416E01A95F1F749B14470440F440F042B49B14470E9F31AE01A958B
:2005000021F049B14470D9F701C0099416E01A95F1F749B14470440F042B49B14470E9F3A7
:200520001AE01A9521F049B14470D9F701C0099416E01A95F1F749B14470042B49B144700D
:20054000E9F31AE01A9521F049B14470D9F701C0099416E01A95F1F749B144704695042BE4
:2005600049B14470E9F31AE01A9521F049B14470D9F701C0099416E01A95F1F749B1447020
:2005800046954695042B49B14470E9F30D931AE01A9521F049B14470D9F701C0099415E0C1
:2005A0001A95F1F761CF0CE1A01B91F1A13011F10F921F922F933F934F935F936F937F93A9
:2005C0008F939F93AF93BF93FF938A2F1124ECEFF1E00995082FFF91BF91AF919F918F91C2
:2005E0007F916F915F914F913F912F911F900F901FD00EC0ACE1B1E00C91013011F422D09D
:2006000007C0003019F00F3F09F002C016D000C041E0EFE4F1E04083E09ABF91AF917F9189
:20062000FF91EF911F910F914F911FBE1F901895ECE1F1E0702F13D00895ECE4F1E073E090
:200640000ED00895E0E5F1E07081772319F4E4E4F1E002C0E8E4F1E074E001D008953F9365
:200660007723D9F1772359F17A95019110E8302F312381F40000529A4FE04A95F1F700008F
:200680005298169579F3000000000000000000000000EDCF529A44E04A95F1F700000000C6
:2006A00052984AE04A95F1F7000000001695D1F2000000000000000000000000D8CF00004A
:2006C0000000000000000000000000000000529A44E04A95F1F7000052983F910895FC01EF
:2006E00020812F3F59F0022E000C330B2617370719F4FC01418308950296F1CF0895FC0150
:200700002081223011F48181089580E00895FC018081833031F0843061F0813079F481814E
:2007200008959281218181E097FD06C029173CF405C081E02181928192170CF480E00895BB
:20074000CF92DF92EF92FF920F931F93CF93DF937B016A019A012C5F3F4FF901349740816C
:20076000442331F0F9013197408132974083F3CFEC012196FE01319780818F3FC1F198811B
:20078000860124E09202000D111D1124F8019081923089F09330D9F0913039F5970144E04E
:2007A0008402200D311D1124C9010E948703F8019181892B19C0F70124E08202E00DF11DFA
:2007C00011248081823089F48181F8010DC0970144E08402200D311D1124C9010E94870304
:2007E000882319F0F801828181832296C3CFDF91CF911F910F91FF90EF90DF90CF90089562
:200800008093510108952998219A089520915101222331F021E0892B09F020E0822F90E085
:20082000892B11F0299A089529980895CF93DF93EC0181E090E00E9406042FEF87EE93E001
:20084000215080409040E1F700C0000080E090E00E9406042FEF87EE93E02150804090407C
:20086000E1F700C00000219721F7DF91CF9108958AE090E00E9416041092510180E090E049
:200880000C94060478941F920F920FB60F9211248F93809152018C3318F48F5F8093520110
:2008A0008F910F900FBE0F901F901895EEE6F0E080818E7F80830895EEE6F0E080818160D9
:2008C0008083089514BC85E085BD81E080936E00109252010895809152018C3320F01092B8
:2008E000520181E0089580E0089549E050E060E070E082E791E00C94230688E0E0E0F1E025
:20090000A2E7B1E001900D928A95E1F710927A010C94750449E050E060E070E082E791E09D
:200920000E94130648E050E060E071E082E791E00E94FF05009721F00E947D0481E090E0F7
:200940000895449A80E48A95F1F7449828E030E080E090E29A95F1F74598880F339B8160B1
:20096000E0E2EA95F1F7459A2150310991F78093590128E030E0F0E2FA95F1F74598880FFA
:20098000339B816090E29A95F1F7459A2150310991F780935A01EFE8F1E03197F1F700C087
:2009A000000028E030E0F0E2FA95F1F74598880F339B816090E29A95F1F7459A21503109A0
:2009C00091F780935B0128E030E0E0E2EA95F1F74598880F339B8160F0E2FA95F1F7459A94
:2009E0002150310991F780935C0180E00895CF93CFB7F8943C9A3D9A3B98439A459A4498CB
:200A00000E94A104CFBF80E0CF910895FC01892B09F44AC04091590150915A01852F8F70D2
:200A20008F3021F481E08093540105C01092540161E0813009F060E080915401882329F008
:200A400083E08083418342832FC0252F30E0842F90E06623E9F048E04083322F2227822B8D
:200A6000932B9483838390915B01892F8F7797FF8195818390915C01892F8F7797FD8195CA
:200A8000828380915301803178F4109253010CC01092530162E06083322F2227822B932BDD
:200AA00092838183438354838091590190915A01A0915B01B0915C0180935501909356018B
:200AC000A0935701B0935801089544E050E065E571E089E591E00E94FF05089588E091E068
:200AE00008951AB88BB18B6F8BB9509A17B88FEF88B982E08093690091E09DBB1092440107
:200B0000109245011092460110924701109248011092490110924A0110924B0195E09093D0
:200B20004C0110924D0180934E010E94030481E090E00E9416040E948A04892B21F082E089
:200B400090E00E9416040E9462040E946E0590935E0180935D01DC01ED91FC910995E09162
:200B60005D01F0915E010280F381E02D0995E0915D01F0915E010680F781E02D8FE591E0F7
:200B8000099584E491E00E94D70088E491E00E94D700789486E090E00E9416048FE39CE97A
:200BA0000197F1F700C00000E0915D01F0915E010280F381E02D099580914F01882371F335
:200BC00010924F01E0915D01F0915E010680F781E02D8FE591E0099580915001811103C02F
:200BE00088E491E002C084E491E00E94D7009091500181E0911180E080935001CFCFFB0131
:200C0000DC0104C08D910190801921F441505040C8F7881B990B0895FB01DC0101900D9209
:200C20000020E1F70895DC01CB01FC01F999FECF06C0F2BDE1BDF89A319600B40D924150CA
:200C40005040B8F70895DC01CB0103C02D910E942E0641505040D0F70895262FF999FECF7F
:200C60001FBA92BD81BD20BD0FB6F894FA9AF99A0FBE01960895F894FFCF5346324E3634DB
:120C80007631F704A1046505060500000000312E350012
:0437FC0012345678B5
:203800000C94341C0C944A1D0C94511C0C94511C0C94511C0C94511C0C94511C0C94511C63
:203820000C94511C0C94511C0C94511C0C94511C0C94511C0C94511C0C94511C0C94511C20
:203840000C94511C0C94511C0C94511C0C94511C0C94511C0C94511C0C94511C0C94511C00
:203860000C94511C0C94511C11241FBECFEFD4E0DEBFCDBF11E0A0E0B1E0ECEBFEE302C005
:2038800005900D92A430B107D9F721E0A4E0B1E001C01D92A13BB207E1F70E94741E0C94D1
:2038A0005C1F0C94001CF894299881E085BF15BEE0E0F0E009940895CF93DF938130D9F4F0
:2038C00080918901813071F018F08F3F09F0DEC085E08093890110928A0182E080938B019E
:2038E00083E0D5C01092890110928A0110928B0110928C01A7C0823008F4C8C090918901D2
:20390000923509F0C3C090918A01913F09F43EC038F49130B9F008F4BAC0903F79F1B6C032
:20392000993F09F498C020F4923F09F446C0AEC09E3F09F499C09F3F09F0A8C081E080931E
:203940000401A1C088E2E9E8F1E0DF011D928A95E9F782E08093890180E880938A0188E3F7
:2039600080938B0110928C019093910160E071E083E991E00E94551F8EE089C080918801EF
:20398000811176C081E0809388017DC080918B0140918C0150E0582B60E070E0E5E0440FCF
:2039A000551F661F771FEA95D1F720E230E089E891E00E946B1E80E26AC020918B01809138
:2039C0008C0190918801911153C090E0922BEC01C370DD27DE0125E0AA0FBB1F2A95E1F79C
:2039E000A85FBE4F20E2EDE8F1E001900D922A95E1F7AC0160E070E032E076956795579502
:203A000047953A95D1F7509307014093060120910601309107013695322F222737952795F0
:203A2000309307012093060110928901239761F421E020938A0190938B0180938C0182E0D6
:203A40008093880184E023C010928A0190938B0180938C01F7CF9091880181E0911101C0D3
:203A600080E0809389010DC080918801882321F081E0809389010BC01092890183E08093BB
:203A8000880181E004C01092890101C080E0DF91CF9108951F921FB64F930F931F93EF9380
:203AA000FF937F93AF93BF93A9E8B1E00027E5EFFDE149B14470440F440F440F440F440F86
:203AC000042B49B14470E9F31AE01A9521F049B14470D9F701C0099416E01A95F1F749B110
:203AE0004470440F440F440F440F042B49B14470E9F31AE01A9521F049B14470D9F701C014
:203B0000099416E01A95F1F749B14470440F440F440F042B49B14470E9F31AE01A9521F061
:203B200049B14470D9F701C0099416E01A95F1F749B14470440F440F042B49B14470E9F30F
:203B40001AE01A9521F049B14470D9F701C0099416E01A95F1F749B14470440F042B49B118
:203B60004470E9F31AE01A9521F049B14470D9F701C0099416E01A95F1F749B14470042BB5
:203B800049B14470E9F31AE01A9521F049B14470D9F701C0099416E01A95F1F749B14470CA
:203BA0004695042B49B14470E9F31AE01A9521F049B14470D9F701C0099416E01A95F1F74E
:203BC00049B1447046954695042B49B14470E9F30D931AE01A9521F049B14470D9F701C02F
:203BE000099415E01A95F1F761CF09E8A01B11F10F921F922F933F934F935F936F937F93F0
:203C00008F939F93AF93BF93FF938A2F1124ECE5FCE10995082FFF91BF91AF919F918F9149
:203C20007F916F915F914F913F912F911F900F900DD000C0E09ABF91AF917F91FF91EF91FF
:203C40001F910F914F911FBE1F901895E9E8F1E0702F01D008953F937723D9F1772359F132
:203C60007A95019110E8302F312381F40000529A4FE04A95F1F700005298169579F30000A0
:203C800000000000000000000000EDCF529A44E04A95F1F70000000052984AE04A95F1F7B6
:203CA000000000001695D1F2000000000000000000000000D8CF00000000000000000000EF
:203CC000000000000000529A44E04A95F1F7000052983F910895FA01DC0102C005900D92E8
:203CE00021503040D8F70895CF93DF9300D000D0CDB7DEB71AB88BEF8BB9509A17B88FEF23
:203D000088B9219A299881E085BF92E095BF909369008DBBF89424E030E040E050E0BA01FC
:203D2000CE0101960E946B1E89818F3F61F48A818F3F49F48B8111E08F3F31F48C818F3FE4
:203D400019F410E001C011E024E030E04CEF57E360E070E0CE0101960E946B1E898182314D
:203D600051F48A81843339F48B81863521F48C81883709F496C080E0809305017894299ACC
:203D80002FEF84E39CE0215080409040E1F700C00000299880910501882331F080910401CF
:203DA000811102C00E94531CC12CD12C760113E001E085E0B82E91E1A92E22E0922E809102
:203DC0008801813051F008F451C08230E9F0833009F04AC00E94531C47C08FB7F894E0E070
:203DE000F0E0F999FECF07B600FCFDCF10935700E89507B600FCFDCFE058FF4FE11528E38C
:203E0000F20779F78FBF30C04FB7F894F999FECF07B600FCFDCF80E090E0FC01E85FFE4F24
:203E20002081FC01E75FFE4F5081E0910601F0910701E80FF91F30E0352B0901009357000C
:203E4000E895112402968038910539F7E0910601F0910701B0925700E89507B600FCFDCFFE
:203E6000A0925700E8954FBF1092880180910501811115C08FEFC81AD80AE80AF80A91EFCF
:203E8000C91699E4D90692E0E906F10408F497CF85B1892585B9C12CD12C760190CF299A8A
:203EA0008ECF81E0111168CF66CFFB01DC0101900D920020E1F70895F894FFCF312E30002F
:0400000500003800BF
:00000001FF
