:100000000C94E9020C9406030C9406030C9406036A
:100010000C9406030C9406030C9406030C9406033C
:100020000C9406030C9406030C9406030C94340CF5
:100030000C949B0C0C9406030C9406030C9406037E
:100040000C9406030C9406030C9406030C9406030C
:100050000C9406030C9406030C9406030C940603FC
:100060000C9406030C9406030C9406030C940603EC
:100070000C940603A904AC04AF04B204B504BF0495
:10008000BF04BF04BF04BF04BF04BF04BF04BF0458
:10009000BF04BF04B804BB04A60444423920746FF3
:1000A000205553422076322E3020283470206D6F38
:1000B0006465290044423920746F205553422076EC
:1000C000322E3020286D6F757365206D6F64652941
:1000D0000044423920746F205553422076322E302E
:1000E00020283370206D6F646529004442392074E4
:1000F0006F205553422076322E3020283270206DEA
:100100006F64652900534D5320746F20555342206E
:1001100076322E300044423920746F2055534220ED
:1001200076322E300009023B0002010080190904DA
:100130000000010300000009210101000122440028
:1001400007058103100001090401000103000000FC
:100150000921010100012215000705820340000169
:1001600009026D0004010080190904000001030068
:10017000000009210101000122360007058103105A
:100180000001090401000103000000092101010030
:100190000122150007058203400001090402000145
:1001A0000300000009210101000122360007058338
:1001B00003100001090403000103000000092101EC
:1001C00001000122360007058403100001090254D2
:1001D0000003010080190904000001030000000968
:1001E00021010100012236000705810310000109E9
:1001F0000401000103000000092101010001221592
:100200000007058203400001090402000103000009
:1002100000092101010001223600070583031000B7
:100220000109023B000201008019090400000103DA
:1002300000000009210101000122D8000705810307
:10024000100001090401000103000000092101015F
:1002500000012215000705820340000109023B004E
:1002600002010080190904000001030000000921B7
:100270000101000122360007058103100001090475
:100280000100010300000009210101000122150005
:10029000070582034000010600FF0901A1011500C6
:1002A00026FF007508953F0901B100C0050109044A
:1002B000A1010901A1008501050175109502150034
:1002C00026FF00093009318102C0A100050915008F
:1002D00025017501951019012910750195108102EC
:1002E000C0C005010904A1010901A10085020501A1
:1002F00075109502150026FF00093009318102C0F2
:10030000A100050915002501750195101901291095
:10031000750195108102C0C005010904A101090100
:10032000A1008503050175109502150026FF00093F
:100330003009318102C0A1000509150025017501B0
:10034000951019012910750195108102C0C0050191
:100350000904A1010901A100850405017510950298
:10036000150026FF00093009318102C0A1000509EE
:1003700015002501750195101901291075019510B9
:100380008102C0C005010902A1010901A100850186
:10039000050919012904150025019504750181023B
:1003A0009501750481030501093009311581257F07
:1003B0007508950281061581257F350045000938AD
:1003C000750895018106C0C005010905A101090153
:1003D000A1008501050175089502150026FF000999
:1003E0003009318102C0A100050915002501750100
:1003F000951019012910750195108102C0C00100E6
:1004000001000200020004000400080008000000CF
:1004100000004000010010000200200004008000E5
:100420000800000410000002200000014000000845
:1004300080000100001002000020040000400800BD
:1004400000800000000040000100100002002000B9
:1004500004008000080000041000000220000001D9
:100460004000000880000000000020000100100093
:10047000020001000400020008000400100008004F
:100480002000000000002000010010000200000019
:100490000000100001002000020001000400020022
:1004A00008000400100008002000000000001000F8
:1004B0000100200002000000000001000100000017
:1004C000000030010000003102000000260400009E
:1004D000002708000000281000000029200000006C
:1004E0002A4000000032800000002B000100002C98
:1004F0000008000023008000001500100000160016
:100500002000002D00400000000000000064613366
:1005100062346130302D343430392D343762322D2D
:10052000386163652D32666230613036633731364B
:1005300064000D0A00253032582000556E68616E47
:10054000646C656420636F6E74726F6C207772697F
:100550007465205B25645D203A2000743A202530C4
:1005600032782C2072713A203078253032782C2065
:1005700076616C3A20253034780D0A00556E6B6E2A
:100580006F776E20737472696E672069640D0A005C
:10059000556E68616E646C656420636C6173732072
:1005A0006252657175657374203078253032780A2F
:1005B00000434647204550206661696C0D0A00499A
:1005C0006E76616C69642065702073697A650D0AC6
:1005D000000011241FBECFEFD4E0DEBFCDBF11E07D
:1005E000A0E0B1E0E4EDFFE202C005900D92A63D6F
:1005F000B107D9F723E0A6EDB1E001C01D92AC37F9
:10060000B207E1F70E9460120C94E8170C94000006
:1006100089E085B983E084B918B888E087B988E3B0
:100620008AB987EC8BB921E030E080E80FB6F89406
:1006300080936100209361000FBE109264001092BD
:1006400065000FB6F894A89580916000886180934A
:100650006000109260000FBE08958093E401089539
:10066000FC01108281E0818380E1828380E38383C7
:1006700084E00895FC01108280E1818383E082831D
:1006800084E0838380E284838AE0858386E0089522
:100690000C942B0B0C94110B1F93CF93DF93182FFB
:1006A0000E942309EC01E881F981812F0995CE018F
:1006B000DF91CF911F910895A9E3B3E0E6EDF1E05A
:1006C0008D9190E08193919381E0E23EF807C1F72C
:1006D0001092E3011092E20186ED91E09093760191
:1006E000809375010895CF93DF93CDB7DEB76397FD
:1006F0000FB6F894DEBF0FBECDBF7C014E018CE07B
:10070000880E911C88E0D4011D928A95E9F710E0CB
:10071000812F90E08E159F0574F41F5F69E070E0F3
:100720000E941C14212F45E659E065E08B519E4F35
:100730000E94E60AEDCF82E08093160185EE91E0FB
:1007400090931E0180931D01B4E0EB16F10449F56E
:100750008AE990E00E944E0A8DE490E090935E0159
:1007600080935D018CEA92E090931A0180931901C5
:1007700088ED90E0909318018093170181E292E058
:100780009093100180930F018BE390E090931201FE
:100790008093110178948CE091E00E94601010E049
:1007A00023C0FFCF023009F486C0033009F48BC0A8
:1007B0000E94100A81110E94C50A0E944F1080E019
:1007C00091E00E94BC10013089F060F78091E40153
:1007D0008111EECF8091400390E00E94210A0E9497
:1007E000460A01E08111E4CF00E0E2CF740189E024
:1007F000C82E82E0D82E95EEA92E91E0B92E10E0F9
:1008000035C0812F0E944C03D7018D939C93009794
:1008100009F447C0DC011496ED91FC9115973097CF
:1008200009F46DC0812F0995D701ED91FC913097A6
:10083000C1F10280F381E02D812F0995F601882313
:10084000E1F080818F5F80838F31C0F0D7011D92EE
:100850001C9210821F5FF2E0EF0EF11C8FEFC81A9E
:10086000D80AA9E0AA0EB11C143009F1F701808161
:100870009181892B09F043C0C4CF1082812F0E943F
:100880001212882339F3BE016F5F7F4F812F0E94C0
:100890002912BE016F5F7F4FC5010E94040B02E069
:1008A000D9CF60E070E0C5010E94040BD3CF0130C6
:1008B00009F07ECF99CF0E941910882309F478CFD0
:1008C00010E003E075CF0E941910882309F470CF5F
:1008D000812F90E069E070E00E941C148B519E4FC4
:1008E0007C010E94000B6C01C7010E940F0BB60136
:1008F0000E9423101F5F143008F45ACF75CFD70120
:10090000ED91FC9196CF40E050E0FC0125913491AF
:10091000FC013296A591B4912115310551F0109743
:1009200041F026233723232B11F04A2B5B2B04960F
:10093000ECCFCA01089590E0FC01E054F109E331E5
:10094000F105E8F4E65CFF4F0C9465148EEF93E03C
:1009500014C08AEB94E011C08EEA94E00EC086E8E1
:1009600094E00BC082E994E008C08AE694E005C0F8
:1009700086E494E002C082E194E00C94830480E079
:1009800090E0089560E070E0CB01089580E0089564
:100990000F931F93CF93DF9300D000D000D0CDB73B
:1009A000DEB786E0EEE8F1E0DE01119601900D92EF
:1009B0008A95E1F786E0FE013196A9E3B3E0019064
:1009C0000D928A95E1F707E313E085E0F80181874E
:1009D0008287838784870E94C604F80180870E94EB
:1009E000C204F801658776878787908B26960FB6B5
:1009F000F894DEBF0FBECDBFDF91CF911F910F9155
:100A00000895CF92DF92EF92FF920F931F93DB0135
:100A10008131F1F030F4813079F058F08031A9F073
:100A200005C08331D9F0B8F08333E1F022EC34E033
:100A300033C080913F0314C086E0E9E3F3E0019006
:100A40000D928A95E1F786E046C08091400308C088
:100A50008091410305C08091420302C0809143030D
:100A60008C9338C0009144031091450320914603B4
:100A700030914703B901A80189E0769567955795AC
:100A800047958A95D1F7417012FD42604C9322C080
:100A9000891761F02B5F3F4FF90194913196C59012
:100AA000D590E590F4909111F3CF14C04091440398
:100AB0005091450360914603709147034C215D219D
:100AC0006E217F2191E0452B462B472B09F490E0C6
:100AD0009C93E0CF81E01F910F91FF90EF90DF900A
:100AE000CF9008956115710509F48EC0DB01813145
:100AF00011F130F4813081F058F08031C1F005C03F
:100B0000833109F1E0F0833311F122EC34E04EC07F
:100B10008C9180933F0374C086E0FB01A9E3B3E0AE
:100B200001900D928A95E1F70E94870A69C08C9125
:100B30008093400365C08C918093410361C08C9188
:100B4000809342035DC08C918093430359C02C91E4
:100B5000233008F022E08091440390914503A09156
:100B60004603B0914703997F20FD92608093440330
:100B700090934503A0934603B093470321FF40C0E1
:100B80008091440390914503A0914603B09147039F
:100B900094608093440390934503A0934603B093DD
:100BA00047032EC0891761F02B5F3F4FF9019491E5
:100BB000319645915591659174919111F3CF24C06F
:100BC0002C918091440390914503A0914603B091EC
:100BD0004703222329F0482B592B6A2B7B2B08C073
:100BE0004095509560957095482359236A237B233F
:100BF0004093440350934503609346037093470327
:100C00000E94870A81E0089580E0089543B126B1EB
:100C1000E22FE078F0E085E0F595E7958A95E1F739
:100C2000207322952F702E2B942F9074692F70E0D3
:100C300093E0759567959A95E1F7622B942F9072E2
:100C4000292F30E035952795262B842F8071880F2A
:100C5000822B08958FB7249A2C9A8FBF089581E034
:100C600008950F931F93CF93DF93EC018C01085FDE
:100C70001F4F469A85E38A95F1F700000E94060609
:100C80008883469885E38A95F1F700000E9406065E
:100C900089832296C017D10761F7DF91CF911F9109
:100CA0000F910895811123C0549A5C9A2FE788E32D
:100CB00091E0215080409040E1F700C00000539A3D
:100CC0005B9A8FE39CE90197F1F700C000003C9824
:100CD000449A3D98459A3F98479A26982E9A249888
:100CE0002C9A25982D9A46983E9A10922E02089595
:100CF0008F929F92AF92BF92CF92DF92EF92FF922C
:100D00000F931F93CF93DF93CDB7DEB762970FB6E4
:100D1000F894DEBF0FBECDBF182F811166C0469874
:100D200087EC90E00197F1F700C00000DE0111961A
:100D30005D01C12CD12C7D010FE082E1C816D104E8
:100D4000A1F0C0FE0EC02C9A1D9BFECF0E9406068D
:100D50008F708027F50181935F01FFEFCF1ADF0AC3
:100D6000ECCF2C981D99FECFF1CF2C9A469A898111
:100D70008F30A1F58A818F3089F54E0193E0890E7D
:100D8000911C2DE132E046E050E0D4018D914D01FF
:100D90008E3029F08F3031F482E090E005C083E09E
:100DA00090E002C080E090E0F90181936701C40EF9
:100DB000D51E60E070E08617970739F0D601BD9028
:100DC0006D01B1926F5F7F4FF6CF480F591F2C5FB7
:100DD0003F4FB2E02D323B07C1F607C080E00E94D2
:100DE000520610922E028FEF46C0812F90E0FC0138
:100DF000EE0FFF1FEE0FFF1FE35EFD4F208122303D
:100E0000D1F0233079F56BE070E00E941C14DC0116
:100E1000A65BBC4F228130E084E0220F331F8A950D
:100E2000E1F78381382B8181282B12963C932E93F6
:100E3000119787E115C06BE070E00E941C14DC0183
:100E4000A65BBC4F228130E094E0220F331F9A95BD
:100E5000E1F78181282B12963C932E93119786E01F
:100E60008C9308C06BE070E00E941C14865B9C4F62
:100E7000FC01108280E062960FB6F894DEBF0FBED0
:100E8000CDBFDF91CF911F910F91FF90EF90DF9039
:100E9000CF90BF90AF909F908F900895AF92BF92E8
:100EA000CF92DF92EF92FF920F931F93CF93DF9336
:100EB000CDB7DEB728970FB6F894DEBF0FBECDBF13
:100EC000D82E811131C0469887EC90E00197F1F758
:100ED00000C00000FE0131967F0100E010E0BE2E50
:100EE000CF2C8FE0A82E0830110599F000FF0DC01F
:100EF0002C9A1D9BFECF0E9406068F708A25F70153
:100F000081937F010F5F1F4FEECF2C981D99FECF6D
:100F1000F2CF2C9A469A88E0EB2DFC2DADE0B2E0A2
:100F200001900D928A95E1F78D2D90E06BE070E0D5
:100F30000E941C14FC01E65BFC4F89E18083209138
:100F4000100230E0209530952F70332734832383AF
:100F500090911102892F8295807F909112029F704B
:100F6000982B9095918390911302892F8295807F81
:100F7000909114029F70982B9095928380E0289610
:100F80000FB6F894DEBF0FBECDBFDF91CF911F919A
:100F90000F91FF90EF90DF90CF90BF90AF900895AA
:100FA000AF92BF92CF92DF92EF92FF920F931F9377
:100FB000CF93DF93CDB7DEB728970FB6F894DEBF97
:100FC0000FBECDBF90912E02882379F091110AC0F7
:100FD00090E06BE070E00E941C14865B9C4FDC018B
:100FE0001C927EC0853008F0B5C0082F9111B8C0A2
:100FF0001FB7F894E4E6AE2EB12CC12CD12CE12C15
:10100000F12C0E94060685FF04C0BFEFEB1AFB0A15
:1010100003C0EFEFCE1ADE0AF2E0FA95F1F700C056
:1010200081E0A81AB10869F71FBF92E2C916D1047E
:101030000CF458C0A2E2EA16F1040CF453C01FB736
:10104000F89428E7F22E0E940606B2E0BA95F1F76E
:1010500000C085FF04C0FA94F110F5CF7AC078E79C
:10106000F72E0E940606E2E0EA95F1F700C085FD42
:1010700067C0FA94F110F5CF6CC0EA94EE2009F441
:1010800068C00E940606F2E0FA95F1F700C085FDFF
:10109000F4CF0E9406068F70F82A1FBFC02ED12CF5
:1010A000C6016BE070E00E941C148C01065B1C4FB3
:1010B00088E1F80180830E94060684FD4DC081E02E
:1010C00090E0D80113969C938E931297C6016BE023
:1010D00070E00E941C14865B9C4FDC011196FC9210
:1010E00080E0A0C0CE0101960E943106FE0131963B
:1010F000CE010996DF012C91233379F411962C91BE
:1011000011972F3351F41296A817B907A1F70E942F
:101110002A0681E080932E0223C02081203321F50E
:1011200021812B3309F53296E817F907B1F70E94B0
:101130002A0681E080932D02802F0E944E0772C004
:101140000E940606F82EF29480EFF82298E7E92E26
:1011500098CF1FBF8FEF66C0F80113821282B6CFFF
:10116000802F0E9478065EC02A81822F8C7009F041
:1011700057C08C818F7011F437E101C036E0E02F49
:10118000F0E0CF016BE070E00E941C14865B9C4F86
:10119000DC013C933730E9F0373141F1363009F06A
:1011A0009FCF498140954F73CF016BE070E00E9463
:1011B0001C14865B9C4F2095207330E0220F331F58
:1011C000220F331F242BDC0112963C932E93119790
:1011D00087CFCF016BE070E00E941C14865B9C4FB0
:1011E000298120952F7330E0FC0117C0498140957B
:1011F0004F73CF016BE070E00E941C14FC01E65BB2
:10120000FC4F9D8190959F702095207330E0220FB8
:10121000331F220F331F392B242B3283218360CFBE
:1012200037E0ADCF28960FB6F894DEBF0FBECDBF26
:10123000DF91CF911F910F91FF90EF90DF90CF90B2
:10124000BF90AF90089587E691E008950F931F93A4
:10125000CF93DF93FC012081253889F5EC010E94B2
:10126000310680912E02888790912D0299878823DC
:1012700079F080E00E94780680E1EDE1F2E0DE01A5
:101280001A9601900D928A95E1F70AE110E002C0EA
:101290000AE010E080912D02882379F080E00E941E
:1012A0004E07DE01A00FB11F80E1EDE0F2E00190FA
:1012B0000D928A95E1F7005F1F4F802F01C080E0FB
:1012C000DF91CF911F910F9108950F931F93CF93AB
:1012D000DF93EA01688320E829832A831B821C822A
:1012E000009709F46DC08C01FC018081873109F4FD
:1012F00045C030F4863009F441C0873011F160C038
:10130000883199F0893109F05BC0F80163817481FB
:1013100082E50E949B048B839C83F8018181805825
:101320008983828180588A834BC0F80162817381EE
:1013300080E40E949B048B839C83F80181818983D4
:101340003FC0F801618172818091440380FD10C02B
:1013500060FF02C011E001C010E861FD1EEF62FFF6
:1013600002C001E001C000E863FF06C00EEF04C048
:1013700010E800E883E41EC081E41CC0F80161812C
:1013800072818091440380FD10C060FF02C011E0B3
:1013900001C010E861FD1EEF62FF02C001E001C064
:1013A00000E863FF06C00EEF04C010E800E881E526
:1013B00001C080E50E949B048B839C8309831A8370
:1013C000DF91CF911F910F910895DC01FA016083A5
:1013D0001182128213821482892BD1F08C9189316F
:1013E000B9F413962D913C911497A901417055279A
:1013F000942F21FD926022FD946023FD98609183DB
:1014000011968C911197828312968C91819583838A
:1014100008958DEA9EED90937B0380937A0308955F
:1014200081E020917A0330917B032D3A3E4D09F4FF
:1014300080E081950895109280008DE08093810076
:101440000895BC0180912F02909130028617970772
:10145000E1F07093300260932F0210928500109299
:101460008400072E000C880B990B24E83EE140E035
:1014700050E00E942D1428EE33E040E050E00E943E
:10148000461430938900209388000895B19B04C0CE
:1014900082E086BB81E0089580E00895A1E3B2E098
:1014A000FC012491422F50E04D935D93019622233D
:1014B00049F022E0AF36B20799F71092700210920D
:1014C0006F0208950895E7E3F3E080E090E023E001
:1014D000E834F207D9F021919227092E0294202DA9
:1014E0002F702927392F3025330F307E2327302DB9
:1014F0003927307F3695092E000C331F9695969527
:1015000096959F7193279827822FE1CF08950E9487
:10151000630A909349038093480343E150E060E0FD
:1015200070E087E393E00C948617CF93DF9343E159
:1015300050E060E070E087E393E00E9476178091CE
:101540003703909138038D3E9E4F91F083E1E7E39E
:10155000F3E0DF011D928A95E9F78DEE9EEF9093FF
:101560003803809337030E94C8040E94870A09C089
:10157000C0914803D09149030E94630AC817D90754
:1015800029F7DF91CF910C945C03F8940E943F10EF
:101590008FE19EE40197F1F700C00000F894E0E0CD
:1015A000F8E3099408950E943F10F894E0E0F0E019
:1015B0000994089580E090E008951092C90087E7AB
:1015C00091E0909379038093780308951F93CF93CC
:1015D000DF93EC01FA01122F89E0DE011D928A955A
:1015E000E9F7698358874F83AE014E5F5F4F68818B
:1015F00080E090E009951883DF91CF911F910895C5
:10160000FC01818190E00895DC01CB01AD014E5FCA
:101610005F4F1796ED91FC9118976C910994029683
:101620000895DB011296EC91129713962C9130E0FD
:101630002130310569F4E13059F49C012E5F3F4FB0
:10164000FA0131832083DC0111968C9190E008959A
:1016500080E090E0089581E0232B09F080E08195FF
:1016600008950F93FB018093E900CA012417350701
:1016700008F4C9018E0F9F1F002341F08E179F07AA
:1016800061F024912093F1003196F8CF8E179F07D7
:1016900021F021912093F100F9CF0F910895CF927D
:1016A000DF92EF92FF920F931F93CF93DF936C0122
:1016B000122FEA016417750708F4EB01E12CF12CF5
:1016C000B6016E0D7F1D012FC134D105B0F020E4AD
:1016D00030E040E450E080E00E94310B8091E8006F
:1016E0008E7F8093E80080E4E80EF11CC054D1099D
:1016F0008091E80080FFFCCFE3CF9E01AE0180E047
:101700000E94310B8091E8008E7F8093E8008091E9
:10171000E80080FFFCCFDF91CF911F910F91FF90E8
:10172000EF90DF90CF900895EF92FF920F93CF93B9
:10173000DF938093E9009091E80090FF28C0FA01C0
:101740002081318137FF06C08091F0008E7F809329
:10175000F0001DC0EA017B019091E8009E7F90930C
:10176000E8002081318140815181FB0160817181DC
:1017700000E00E94310BF701118210828FEF9FEF82
:10178000998388838091E8008F778093E800DF91C8
:10179000CF910F91FF90EF9008951092E90081E0B2
:1017A0008093EB001092EC008CE48093F000809129
:1017B000ED0082638093ED001092E8008091EE00CE
:1017C00087FF51C020E030E041E0A1ECE0917202DF
:1017D000F0917302828590E02817390744F581E083
:1017E000820F8093E9004093EB00A093EC004093BC
:1017F000F000E0917202F0917302C9016CE070E0B8
:101800000E941C14E80FF91F87859089803191058B
:10181000D1F024F4089761F480E016C0803291057D
:1018200021F08034910569F003C080E20DC0089575
:101830008FEB95E09F938F930E94BA140F900F90B7
:10184000089580E301C080E182608093ED001092F2
:10185000E8008091EE0087FD03C081EB95E0EACFC0
:101860002F5F3F4FB3CF08951F920F920FB60F9285
:1018700011242F933F934F935F936F937F938F9395
:101880009F93AF93BF93CF93EF93FF93C091E100EA
:10189000C0FF0DC08091E1008E7F8093E10081E068
:1018A0008093C8028091E20080618093E200C4FFCF
:1018B00010C08091E1008F7E8093E1008091C8028A
:1018C000882339F01092C8028091E2008F7E8093C5
:1018D000E200C3FF09C01092C8020E94CD0B8091A4
:1018E000E100877F8093E100C2FF05C08091E100A5
:1018F0008B7F8093E100C5FF05C08091E1008F7D63
:101900008093E100C6FF05C08091E1008F7B80934A
:10191000E100FF91EF91CF91BF91AF919F918F9196
:101920007F916F915F914F913F912F910F900FBEDB
:101930000F901F9018951F920F920FB60F921124BF
:101940006F927F928F929F92AF92BF92CF92DF92CF
:10195000EF92FF920F931F932F933F934F935F93B9
:101960006F937F938F939F93AF93BF93EF93FF9367
:10197000CF93DF93CDB7DEB72C97DEBFCDBF70908E
:10198000F40070FE9BC21092E9006090E80063FED4
:10199000E6C12091F20030E0FE01319680E090E057
:1019A000FE2E0F2F8217930740F48830910529F0FF
:1019B0004091F10041930196F5CF8091E800877F37
:1019C0008093E800898187FD6CC0982F9F7119F082
:1019D0009130D1F166C08A81853019F0893001F1EA
:1019E00062C08B818093E3008091E80080FFFCCF90
:1019F0008091E8008E7F8093E8008091E80080FF6E
:101A0000FCCF8091E30080688093E3008B819C8110
:101A1000892B11F481E001C082E080938D0141C0E7
:101A20008B818093C702811102C082E001C083E0F4
:101A300080938D018091E80080FFFCCF8091E800C9
:101A40008E7F8093E8002DC08076803261F58A8198
:101A50008930D1F48091E80080FFFCCF8091E800CC
:101A60008E7F8093E80088E0EF2DF02FA7EBB2E0A7
:101A700001900D928A95E1F71092B6021092B5028C
:101A800081E08093B4020DC01F928F9380E995E0AE
:101A90009F938F930E94BA140F900F900F900F9006
:101AA00002C010E001C011E0998197FF3CC1292FCD
:101AB0002F718A81213009F4A6C020F0223009F468
:101AC0000AC133C18630A1F0883009F004C1809189
:101AD0008D012F813885833029F0198600E041E09F
:101AE00050E0A2C000E041E050E067EC72E0F1C0DD
:101AF0008B819C81292F332722303105A1F023309F
:101B00003105F1F02130310509F00FC1E091720289
:101B1000F0917302008101702F813885618172819B
:101B200042E150E0D6C0E0917202F0917302208150
:101B300022704F815885658176818381948198C018
:101B40009927009709F444C0A0907202B0907302E4
:101B5000D50117962C91179730E0281739070CF408
:101B600049C0CF80D88401977C01EE0CFF1C1896E9
:101B7000ED91FC911997EE0DFF1D0190F081E02D84
:101B8000812C912C81919191892B21F0BFEF8B1A9F
:101B90009B0AF8CF880C991C82E0880D898783E026
:101BA0008A8700E0960142E050E0BE01675F7F4F08
:101BB00080E00E94310B960122503109F5018085A9
:101BC0009185FC01EE0DFF1D60817181A40181C032
:101BD0008091940190919501A0919601B091970107
:101BE00089879A87AB87BC872F81388500E044E0DE
:101BF00050E01AC08CE795E09F938F930E94BA142F
:101C00000F900F9076C0907619F09032A1F18DC0B0
:101C1000882319F0863061F088C019861A862F81D2
:101C2000388500E042E050E0BE01675F7F4F51C061
:101C30008C8190E0829709F078C08D819E81E0913F
:101C40007202F0917302228530E02817390708F4F8
:101C50006CC020812470AF81B8856CE070E00E9478
:101C60001C14E80FF91F63857485AD018585968581
:101C70000E944F0B3EC0813009F057C02D813E813C
:101C8000A0917202B09173021A968C911A9790E00B
:101C90008217930770F1C9016CE070E00E941C1478
:101CA0008A0F9B1FFC01C388D488C114D104E9F1B9
:101CB000AE01475F5F4F6F2D702F81899289F601CA
:101CC00009950097B1F02F81388569857A8500E004
:101CD000AC0180E00CC0811128C019861A862F81C2
:101CE000388500E042E050E0BE01675F7F4F0E9410
:101CF000310B11111AC08091E8008E7F8093E800AB
:101D00008091E80080FF05C08091E8008E7F80937D
:101D1000E8008091E80082FFF3CF8091E8008B7F9C
:101D20008093E8001CC01123D1F08C818F938B81AC
:101D30008F938A811F928F9389811F928F938BE556
:101D400095E09F938F930E94BA148091EB0080627C
:101D50008093EB000FB6F894DEBF0FBECDBF62FEDE
:101D600033C08091F2009091B402992341F190E048
:101D70002091B5023091B602280F391F2034310569
:101D8000F0F42091B5023091B6022C583D4F4091AD
:101D9000F20050E0F901BF01621B730B6417750775
:101DA00020F46091F1006193F6CF2091B50230915B
:101DB000B602820F931F9093B6028093B502809172
:101DC000E8008B7F8093E80066FE78C08091E80091
:101DD0008F7B8093E8008091B402882309F46EC061
:101DE0000091B5021091B6028091B70280768032E0
:101DF000A1F52091BB023091BC02A0917202B0917A
:101E000073021A968C911A9790E08217930708F440
:101E100053C0C9016CE070E00E941C148A0F9B1F24
:101E2000FC01E588F688E114F104B9F0980144E773
:101E300052E067EB72E081899289F7010995882366
:101E400031F08091EB0080628093EB0035C080918F
:101E5000E8008E7F8093E8002FC01F930F938BE3E1
:101E600095E09F938F930E94BA1484E7E82E82E056
:101E7000F82E0C581D4F0F900F900F900F9095E378
:101E8000C92E95E0D92E0E151F0571F0D7018D9141
:101E90007D011F928F93DF92CF920E94BA140F9010
:101EA0000F900F900F90EFCF82E395E09F938F9369
:101EB0000E94BA140F900F901092B40271FE07C0E6
:101EC0004BE851E065EC72E081E00E94940B72FEF9
:101ED00007C049E851E063EC72E082E00E94940B95
:101EE00073FE07C047E851E061EC72E083E00E94B6
:101EF000940B74FE07C045E851E06FEB72E084E09C
:101F00000E94940B2C960FB6F894DEBF0FBECDBF87
:101F1000DF91CF91FF91EF91BF91AF919F918F9101
:101F20007F916F915F914F913F912F911F910F91F1
:101F3000FF90EF90DF90CF90BF90AF909F908F90E9
:101F40007F906F900F900FBE0F901F90189520916B
:101F500085013091860181E02F3F3F4F09F080E0FD
:101F600008959C019FB740918501509186014F3F94
:101F70005F4FC9F7F8943093C0022093BF0270936B
:101F800086016093850184E08093E9008091F000F0
:101F900081608093F0009FBF089520918701309168
:101FA000880181E02F3F3F4F09F080E008959C01B8
:101FB0009FB740918701509188014F3F5F4FC9F70C
:101FC000F8943093C2022093C10270938801609309
:101FD000870183E08093E9008091F0008160809325
:101FE000F0009FBF08952091890130918A0181E01E
:101FF0002F3F3F4F09F080E008959C019FB740912B
:10200000890150918A014F3F5F4FC9F7F89430938F
:10201000C4022093C30270938A016093890182E015
:102020008093E9008091F00081608093F0009FBF71
:10203000089520918B0130918C0181E02F3F3F4F1B
:1020400009F080E008959C019FB740918B01509169
:102050008C014F3F5F4FC9F7F8943093C60220932D
:10206000C50270938C0160938B0181E08093E9003D
:102070008091F00081608093F0009FBF0895E0EEB2
:10208000F0E08081816080831092E200E8EDF0E072
:1020900080818F77808380818062808308958091A2
:1020A0007102882321F0813051F0109271028091E9
:1020B000E0008E7F8093E00081E0809371020895BC
:1020C00020E22093D80021E02093E0001092E2006B
:1020D0001092E30090937302809372028091D80073
:1020E0008F778093D8008091D80080628093D80049
:1020F0001092FB001092630084E089BD89B5826074
:1021000089BD09B400FEFDCF8091D800806880931E
:10211000D8008091D8008F7D8093D8000E94CD0B8D
:102120008091E1008E7F8093E10089E78093E20057
:10213000089580910A03823059F48AEC92E0FA0102
:102140009183808310920A038091C90290E00895E0
:1021500080E090E00895CF93BA01C22F81E0809390
:102160000A03422F532F8AEC92E00E94AA14C093D4
:10217000C90280E0CF910895CF93DF9320910A03A5
:10218000213029F008F44BC1223029F448C13091A4
:10219000C902311103C010920A0341C1FC019091A0
:1021A000CA02963009F467C028F5933009F442C09A
:1021B00088F49130B9F1923009F01DC14EE36CEC16
:1021C00072E08091CB020E9401058093C902809148
:1021D000C9024FC09430D9F1953009F00CC16DE0BF
:1021E00075E08BEC92E00E948D148DE095E00E94EA
:1021F00094143FC0913F09F4EEC038F4973009F4CD
:1022000045C0903F09F450C0F6C09E3F41F020F415
:10221000923F09F4D8C0EFC00E94C50AFDC00E94D9
:10222000D30AFAC06CEC72E08091CB020E94720576
:1022300082E0F0C0309709F4EFC00190F081E02D0A
:10224000309709F4E9C08091CB020995E5C0C091AF
:102250006501D0916601BE018BEC92E00E94B3143F
:10226000FE0101900020E9F7EC1BEF5FE093C9024B
:10227000D3C08E5FCFC08091CB02843008F0CCC039
:102280000E9456128C598093CC020CC0309751F0AA
:102290000280F381E02D309729F06091CC0280918B
:1022A000CB02099583E0B6C02093C902A091C90270
:1022B00081E08A0F8093C902B0E0A653BD4F8FEF33
:1022C0008C93A091C90281E08A0F8093C902B0E08B
:1022D000A653BD4F8EEF8C93A091C90281E08A0F67
:1022E0008093C902B0E0A653BD4F82E08C93A091C9
:1022F000C90281E08A0F8093C902B0E0A653BD4FA6
:102300002C93A091C90281E08A0F8093C902B0E0AA
:10231000A653BD4F83E08C93A091C90281E08A0F40
:102320008093C902B0E0A653BD4F84E08C93A09186
:10233000C90281E08A0F8093C902B0E0A653BD4F65
:1023400085E08C93A091C90281E08A0F8093C90235
:10235000B0E0A653BD4F86E08C93A091C90281E006
:102360008A0F8093C902B0E0A653BD4F87E08C93DB
:10237000A091C90281E08A0F8093C902B0E0A65300
:10238000BD4F9C93A091C90281E08A0F8093C9023E
:10239000B0E0A653BD4F81EF8C93A091C90281E0BC
:1023A0008A0F8093C902B0E0A653BD4F82EF8C9391
:1023B0000284F385E02D309779F18091C90290E095
:1023C00086539D4F13C02093C902309729F1068090
:1023D000F781E02D07C02093C9023097E9F004800F
:1023E000F581E02D3097C1F08BEC92E0099590914A
:1023F000C902890F0FC0309779F00084F185E02D74
:10240000309751F06091C90270E040E450E08AECEE
:1024100092E009958093C90282E080930A03DF91DC
:10242000CF910895282F30E0C9016BE070E00E9441
:102430001C14FC01E55FFC4FC9016BE070E00E94D9
:102440001C144BE050E0BF01865B9C4F0E949D1422
:102450000895DB01282F30E0109769F0C9016BE087
:1024600070E00E941C14FC01E65BFC4F9BE00190B5
:102470000D929A95E1F7C9016BE070E00E941C147F
:10248000DC01A55FBC4FFC01E65BFC4F8BE00190DB
:102490000D928A95E1F7089590E06BE070E00E945C
:1024A0001C14865B9C4FFC011082089590E06BE049
:1024B00070E00E941C14865B9C4FFC018081089593
:1024C000CF93DF93CDB7DEB763970FB6F894DEBF37
:1024D0000FBECDBF3E014CE0640E711C88E0D301FD
:1024E0001D928A95E9F70E9408030E94DD0A0E9466
:1024F000950A0E941B0A0E94090A80913F038A30B4
:1025000091F038F4833009F440C0843009F45EC09F
:1025100005C08031C9F0803209F45CC085E191E0EA
:102520000E944E0A0AC085E091E00E944E0A8FE4A4
:1025300090E090935E0180935D01A12CB12C75E633
:10254000C72E79E0D72E70C08BEE90E00E944E0A25
:102550008DEC91E09093100180930F0184E590E061
:10256000909312018093110183E0809316018BE414
:1025700090E090935E0180935D01A12CB12C65E603
:10258000C62E69E0D62E12E050C081ED90E00E9488
:102590004E0A80E691E09093100180930F018DE642
:1025A00090E0909312018093110184E080931601D2
:1025B0008CE490E090935E0180935D01A12CB12C9E
:1025C00055E6C52E59E0D52E13E02FC084E090E0EB
:1025D0000E94730384EB90E00E944E0A8EE490E028
:1025E00090935E0180935D0185E291E090931001EC
:1025F00080930F018BE390E090931201809311017F
:1026000084E893E090931A018093190184E490E0A8
:1026100090931801809317013AE0A32EBB24B39442
:1026200045EEC42E49E0D42E11E025EE822E21E0A5
:10263000922E90E080E0E92EF82E21E0A60165E0E0
:10264000C4010E94E60A97012F5F3F4FE110790114
:10265000C7016CE070E00E941C14845F9E4FFC0177
:10266000928A818A922F832FF9E08F0E911C211775
:1026700010F378948CE091E00E94601000E04A2C06
:10268000512C0E94100A81110E94C50A0E944F100D
:1026900080E091E00E94BC100130D9F038F00230A7
:1026A00009F47BC0033009F48DC0EBCF8091E401C5
:1026B0008111BCC0AA2011F0C20103C08091400367
:1026C00090E00E94210A0E94460A01E08111D9CFC0
:1026D000ADC0730189E0C82E82E0D82E95EE892E18
:1026E00091E0992E312CD7018D919C91892B09F085
:1026F0009FC0832D0E944C03F70191838083009734
:10270000B9F1DC011496ED91FC911597309709F41D
:102710008FC0832D0995D701ED91FC91309741F140
:102720000280F381E02D832D0995F601882351F075
:1027300080818F5F80838F3130F0D7011D921C9292
:1027400010821BC01082832D0E941212811102C0C0
:10275000BB2099F0BE016F5F7F4F832D0E9429122D
:10276000BE016F5F7F4FC4010E94040B02E005C0F1
:1027700060E070E0C4010E94040B3394F2E0EF0EBD
:10278000F11C4FEFC41AD40A89E0880E911C131172
:10279000AACF013009F075CF49C00E9419108111EC
:1027A0000FC0113009F46DCF0E94CD0F811108C008
:1027B000133009F066CF0E94A70F882309F461CF78
:1027C00003E05FCF0E941910882361F085EE91E04D
:1027D0000E94000B7C0185EE91E00E940F0BB70177
:1027E0000E942310113011F10E94CD0F882361F057
:1027F0008EEE91E00E94000B7C018EEE91E00E9433
:102800000F0BB7010E94D70F133081F40E94A70F5E
:10281000882361F087EF91E00E94000B7C0187EF35
:1028200091E00E940F0BB7010E94B10F00E029CF89
:10283000D701ED91FC9174CF0024552704C0080EF8
:10284000591F880F991F009729F076956795B8F35F
:102850007105B9F7802D952F0895EE27FF27AA2738
:10286000BB2708C0A20FB31FE41FF51F220F331FA1
:10287000441F551F969587957795679598F37040F7
:10288000A9F7009799F7BD01CF010895052E97FB91
:102890001EF400940E945D1457FD07D00E946B1433
:1028A00007FC03D04EF40C945D1450954095309580
:1028B00021953F4F4F4F5F4F0895909580957095AC
:1028C00061957F4F8F4F9F4F0895EE0FFF1F05902B
:1028D000F491E02D0994A1E21A2EAA1BBB1BFD0165
:1028E0000DC0AA1FBB1FEE1FFF1FA217B307E407EF
:1028F000F50720F0A21BB30BE40BF50B661F771F47
:10290000881F991F1A9469F7609570958095909526
:102910009B01AC01BD01CF010895FB01DC010590D5
:102920000D920020E1F70895FC0105900020E9F7E1
:10293000809590958E0F9F1F0895FB01DC0104C0C8
:102940008D910190801921F441505040C8F7881BA7
:10295000990B0895FB01DC0102C001900D924150DA
:102960005040D8F70895FB01DC0101900D92002042
:10297000E1F70895A0E0B0E0E0ECF4E10C94BF17BB
:10298000AE01495F5F4FDA016D917D91AD0106E7C0
:1029900013E0F80182819381DC0113962C91139747
:1029A000286013962C930E94E014D8011296ED91A2
:1029B000FC9113972381277F2383E4E00C94DB179A
:1029C000ABE0B0E0E6EEF4E10C94B1176C017B01F2
:1029D0008A01FC0117821682838181FFCFC1CE015B
:1029E00001963C01F6019381F70193FD859193FFD8
:1029F00081917F01882309F4BDC1853239F493FDAB
:102A0000859193FF81917F01853229F4B60190E091
:102A10000E94DA16E7CF912C212C312CFFE1F3151F
:102A2000E0F08B3279F038F4803279F08332A9F417
:102A3000232D206110C08D3259F0803371F4232D85
:102A4000216009C0832D8260382EE32DE46024C00C
:102A5000F32DF86027C0322E29C037FC2FC020ED9F
:102A6000280F2A3098F436FE07C0892D6AE00E94AC
:102A7000A817922E980E1AC0822D6AE00E94A817FD
:102A8000222E280E832D8062382E10C08E3231F413
:102A900036FC70C1E32DE0643E2E08C08C3621F474
:102AA000F32DF0683F2E02C0883641F4F70193FD04
:102AB000859193FF81917F018111B0CF982F9F7DE8
:102AC0009554933028F40C5F1F4F2FE329830DC0DA
:102AD000833631F0833771F0833509F059C021C056
:102AE000F801808189830E5F1F4F88248394912C85
:102AF000530113C02801F2E04F0E511CF801A080D1
:102B0000B18036FE03C0692D70E002C06FEF7FEF29
:102B1000C5010E94CF164C018201F32DFF773F2E95
:102B200016C0280122E0420E511CF801A080B1809D
:102B300036FE03C0692D70E002C06FEF7FEFC50164
:102B40000E94C4164C01F32DF0683F2E820133FC25
:102B50001BC0822D90E088169906B0F4B60180E281
:102B600090E00E94DA162A94F4CFF50137FC8591A3
:102B700037FE81915F01B60190E00E94DA162110C4
:102B80002A9421E0821A91088114910471F7E8C017
:102B9000843611F0893641F5F80137FE07C06081AF
:102BA0007181828193810C5F1F4F08C060817181A8
:102BB000072E000C880B990B0E5F1F4FF32DFF762D
:102BC0003F2E97FF09C090958095709561957F4F36
:102BD0008F4F9F4FF0683F2E2AE030E0A3010E9404
:102BE0001617882E861845C0853731F4232D2F7E81
:102BF000B22E2AE030E025C0932D997FB92E8F3672
:102C0000C1F018F4883579F0B5C0803719F08837ED
:102C100021F0B0C0E92FE061BE2EB4FE0DC0FB2D47
:102C2000F460BF2E09C034FE0AC0292F2660B22EE0
:102C300006C028E030E005C020E130E002C020E11D
:102C400032E0F801B7FE07C0608171818281938113
:102C50000C5F1F4F06C06081718180E090E00E5FC5
:102C60001F4FA3010E941617882E8618FB2DFF7791
:102C70003F2E36FE0DC0232D2E7FA22E891458F430
:102C800034FE0BC032FC09C0832D8E7EA82E05C0F9
:102C9000B82CA32C03C0B82C01C0B92CA4FE0FC0C3
:102CA000FE01E80DF11D8081803321F49A2D997E7B
:102CB000A92E09C0A2FE06C0B394B39404C08A2D05
:102CC000867809F0B394A3FC11C0A0FE06C0B2142C
:102CD00088F4280C922C9B180EC0B21460F4B60134
:102CE00080E290E00E94DA16B394F7CFB21418F4A1
:102CF0002B1802C0982C212CA4FE10C0B60180E332
:102D000090E00E94DA16A2FE17C0A1FC03C088E77B
:102D100090E002C088E590E0B6010CC08A2D86786C
:102D200059F0A1FE02C08BE201C080E2A7FC8DE257
:102D3000B60190E00E94DA16891438F4B60180E3F7
:102D400090E00E94DA169A94F7CF8A94F301E80D86
:102D5000F11D8081B60190E00E94DA168110F5CF56
:102D6000222009F43FCEB60180E290E00E94DA16FC
:102D70002A94F6CFF6018681978102C08FEF9FEFEC
:102D80002B96E2E10C94CD17FC0105906150704048
:102D90000110D8F7809590958E0F9F1F0895FC0124
:102DA0006150704001900110D8F7809590958E0F7A
:102DB0009F1F08950F931F93CF93DF93FB012381F0
:102DC00021FD03C08FEF9FEF2CC022FF16C046816C
:102DD0005781248135814217530744F4A081B18182
:102DE0009D012F5F3F4F318320838C932681378154
:102DF0002F5F3F4F3783268314C08B01EC01FB010B
:102E00000084F185E02D0995892BE1F6D80116960D
:102E10008D919C911797019617969C938E93169778
:102E2000CE01DF91CF911F910F910895FA01AA274A
:102E3000283061F1203191F1E8946F936E7F6E5FDD
:102E40007F4F8F4F9F4FAF4FB1E040D0B4E03ED0A7
:102E5000670F781F891F9A1FA11D680F791F8A1F8E
:102E6000911DA11D6A0F711D811D911DA11D22D0F3
:102E700009F468943F91062E000C3019000C000CE8
:102E80003019305D3193CEF6CF010895462F47704B
:102E9000405D4193B3E00FD0C9F7F6CF462F4F7096
:102EA000405D4A3318F0495D31FD4052419302D0F4
:102EB000A9F7EACFB4E0A69597958795779567959A
:102EC000BA95C9F700976105710508959B01AC019A
:102ED0000A2E06945795479537952795BA95C9F7C1
:102EE000620F731F841F951FA01D0895DC01CB0185
:102EF000FC01F999FECF06C0F2BDE1BDF89A31960A
:102F000000B40D9241505040B8F70895DC01A40F71
:102F1000B51F4150504048F0CB01840F951F2E91B2
:102F20000E94971741505040D0F70895262FF999E5
:102F3000FECF92BD81BDF89A019700B4021639F018
:102F40001FBA20BD0FB6F894FA9AF99A0FBE0895E9
:102F5000002480FD060E660F11F08695D1F7802DB6
:102F600008952F923F924F925F926F927F928F922D
:102F70009F92AF92BF92CF92DF92EF92FF920F9308
:102F80001F93CF93DF93CDB7DEB7CA1BDB0B0FB612
:102F9000F894DEBF0FBECDBF09942A8839884888CF
:102FA0005F846E847D848C849B84AA84B984C88465
:102FB000DF80EE80FD800C811B81AA81B981CE0F5C
:102FC000D11D0FB6F894DEBF0FBECDBFED01089541
:042FD000F894FFCFA3
:102FD4002D0300003A033003260900000653015C68
:102FE400023B00037101023600C803100000004ACE
:102FF40003480315009702400000009910AB1036F7
:1030040000C803100000004A0348033600C8031038
:103014000000004A03480300000000000000000014
:1030240000000012010101000000409B284A00003A
:10303400030102030198015206D007000000002F8B
:10304400069E013102C8010000000200000000DAFF
:103054000A00000000FFFFFFFFFFFFFFFF01303009
:103064003030303104030910322E302E3300720018
:103074006100700068006E00650074002000740038
:103084006500630068006E006F006C006F006700ED
:103094006900650073000000310032003300340021
:0630A400350036000000BB
:00000001FF
