:100000000C9401030C941E030C941E030C941E0309
:100010000C941E030C941E030C941E030C941E03DC
:100020000C941E030C941E030C941E030C94C10C20
:100030000C94280D0C941E030C941E030C941E03A8
:100040000C941E030C941E030C941E030C941E03AC
:100050000C941E030C941E030C941E030C941E039C
:100060000C941E030C941E030C941E030C941E038C
:100070000C941E03BC04BF04C204C504C804D2040B
:10008000D204D204D204D204D204D204D204D204C0
:10009000D204D204CB04CE04B90444423920746F94
:1000A000205553422076322E3020283470206D6F38
:1000B0006465290044423920746F205553422076EC
:1000C000322E3020286D6F757365206D6F64652941
:1000D0000044423920746F205553422076322E302E
:1000E00020283370206D6F646529004442392074E4
:1000F0006F205553422076322E3020283270206DEA
:100100006F64652900534D5320746F20555342206E
:1001100076322E300044423920746F2055534220ED
:1001200076322E300009023B0002010080190904DA
:100130000000010300000009210101000122440028
:1001400007058103100001090401000103000000FC
:100150000921010100012215000705820340000169
:1001600009026D0004010080190904000001030068
:10017000000009210101000122360007058103105A
:100180000001090401000103000000092101010030
:100190000122150007058203400001090402000145
:1001A0000300000009210101000122360007058338
:1001B00003100001090403000103000000092101EC
:1001C00001000122360007058403100001090254D2
:1001D0000003010080190904000001030000000968
:1001E00021010100012236000705810310000109E9
:1001F0000401000103000000092101010001221592
:100200000007058203400001090402000103000009
:1002100000092101010001223600070583031000B7
:100220000109023B000201008019090400000103DA
:1002300000000009210101000122D8000705810307
:10024000100001090401000103000000092101015F
:1002500000012215000705820340000109023B004E
:1002600002010080190904000001030000000921B7
:100270000101000122360007058103100001090475
:100280000100010300000009210101000122150005
:10029000070582034000010600FF0901A1011500C6
:1002A00026FF007508953F0901B100C0050109044A
:1002B000A1010901A1008501050175109502150034
:1002C00026FF00093009318102C0A100050915008F
:1002D00025017501951019012910750195108102EC
:1002E000C0C005010904A1010901A10085020501A1
:1002F00075109502150026FF00093009318102C0F2
:10030000A100050915002501750195101901291095
:10031000750195108102C0C005010904A101090100
:10032000A1008503050175109502150026FF00093F
:100330003009318102C0A1000509150025017501B0
:10034000951019012910750195108102C0C0050191
:100350000904A1010901A100850405017510950298
:10036000150026FF00093009318102C0A1000509EE
:1003700015002501750195101901291075019510B9
:100380008102C0C005010902A1010901A100850186
:10039000050919012904150025019504750181023B
:1003A0009501750481030501093009311581257F07
:1003B0007508950281061581257F350045000938AD
:1003C000750895018106C0C005010905A101090153
:1003D000A1008501050175089502150026FF000999
:1003E0003009318102C0A100050915002501750100
:1003F000951019012910750195108102C0C00100E6
:1004000001000200020004000400080008000000CF
:1004100000004000010010000200200004008000E5
:100420000800000410000002200000014000000845
:1004300080000100001002000020040000400800BD
:1004400000800000000040000100100002002000B9
:1004500004008000080000041000000220000001D9
:100460004000000880000000000020000100100093
:10047000020001000400020008000400100008004F
:100480002000000000002000010010000200000019
:100490000000100001002000020001000400020022
:1004A00008000400100008002000000000001000F8
:1004B0000100200002000000000001000100000017
:1004C000000064613362346130302D343430392DB2
:1004D000343762322D386163652D326662306130A7
:1004E00036633731366400736872740A00556E687B
:1004F000616E646C6564206869642067657420724D
:1005000065706F727420747970653D307825303273
:10051000782C2072713D3078253032782C20775637
:10052000616C3D3078253034782C20774C656E3DF9
:100530003078253034780D0A0047657420696E7074
:100540007574207265706F7274202564203F3F0DB2
:100550000A00476574206A6F79207265706F727443
:100560000D0A000D0A00253032582000556E6861D2
:100570006E646C656420636F6E74726F6C2077724A
:10058000697465205B25645D203A2000743A20255B
:100590003032782C2072713A203078253032782C25
:1005A0002076616C3A20253034780D0A00556E6B48
:1005B0006E6F776E20737472696E672069640D0ABE
:1005C00000556E68616E646C656420636C61737362
:1005D00020625265717565737420307825303278E9
:1005E0000A00434647204550206661696C0D0A00A9
:1005F000496E76616C69642065702073697A650D57
:100600000A0011241FBECFEFD4E0DEBFCDBF12E041
:10061000A0E0B1E0E0E8F1E302C005900D92A43063
:10062000B107D9F724E0A4E0B2E001C01D92AA30DE
:10063000B207E1F70E9412130C94BE180C9400004C
:1006400089E085B983E084B918B888E087B988E182
:100650008AB987EE8BB921E030E080E80FB6F894D4
:1006600080936100209361000FBE1092640010928D
:1006700065000FB6F894A89580916000886180931A
:100680006000109260000FBE0895809312020895DA
:10069000FC01108281E0818380E1828380E3838397
:1006A00084E00895FC01108280E1818383E08283ED
:1006B00084E0838380E284838AE0858386E00895F2
:1006C0000C94B00B0C945F0B1F93CF93DF93182FF8
:1006D0000E946909EC01E881F981812F0995CE0119
:1006E000DF91CF911F910895A7ECB3E0E4E0F2E031
:1006F0008D9190E08193919382E0E031F807C1F70A
:10070000109211021092100284E092E09093760110
:10071000809375010895CF93DF93CDB7DEB76397CC
:100720000FB6F894DEBF0FBECDBF7C014E018CE04A
:10073000880E911C88E0D4011D928A95E9F710E09B
:10074000812F90E08E159F0574F41F5F61E170E0CA
:100750000E94D114212F4BEA59E065E08D5E9D4F38
:100760000E94270BEDCF82E08093160183E192E097
:1007700090931E0180931D01B4E0EB16F10449F53E
:100780008AE990E00E94960A8DE490E090935E01E1
:1007900080935D018CEA92E090931A018093190195
:1007A00088ED90E0909318018093170181E292E028
:1007B0009093100180930F018BE390E090931201CE
:1007C0008093110178948CE091E00E940C1110E06C
:1007D00023C0FFCF023009F485C0033009F48AC07A
:1007E0000E94560A81110E940D0B0E94FB1080E0AE
:1007F00091E00E946E11013089F060F78091120241
:100800008111EECF8091CE0390E00E94670A0E9492
:100810008E0A01E08111E4CF00E0E2CF640187E5B8
:10082000E82E82E0F82E93E1A92E92E0B92E10E096
:100830002BC0812F0E946403D6018D939C93009757
:1008400049F5D601ED91FC91309709F441C0028041
:10085000F381E02D812F0995F701882329F180810B
:100860008F5F80838F3108F1D6011D921C92108218
:100870001F5FF2E0CF0ED11C8FEFE81AF80AA1E15A
:10088000AA0EB11C143051F1F60180819181892B9F
:10089000C1F6CFCFDC011496ED91FC9115973097FE
:1008A00081F2812F0995CDCF1082812F0E94C41231
:1008B0008823F1F2BE016F5F7F4F812F0E94DB1210
:1008C000BE016F5F7F4FC5010E94520B02E0D0CF87
:1008D00060E070E0C5010E94520BCACF013009F000
:1008E0007FCF9ACF0E94C510882309F479CF10E0FA
:1008F00003E076CF0E94C510882309F471CF812FC1
:1009000090E061E170E00E94D1148D5E9D4F7C010A
:100910000E944E0B6C01C7010E945D0BB6010E9444
:10092000CF101F5F143008F45BCF76CF40E050E06B
:10093000FC0125913491FC013296A591B4912115C9
:10094000310551F0109741F026233723232B11F066
:100950004A2B5B2B0496ECCFCA01089590E0FC0172
:10096000E054F109E331F105E8F4E65CFF4F0C9443
:1009700001158EEF93E014C08AEB94E011C08EEA6B
:1009800094E00EC086E894E00BC082E994E008C0D1
:100990008AE694E005C086E494E002C082E194E037
:1009A0000C94960480E090E0089560E070E0CB0144
:1009B000089580E008950F931F93CF93DF9300D0A5
:1009C00000D000D0CDB7DEB786E0EEE8F1E0DE0182
:1009D000119601900D928A95E1F786E0FE0131961D
:1009E000A7ECB3E001900D928A95E1F705EC13E0D6
:1009F00085E0F80181878287838784870E94D904F4
:100A0000F80180870E94D504F8016587768787877B
:100A1000908B26960FB6F894DEBF0FBECDBFDF9148
:100A2000CF911F910F9108950F931F93CF93DF9351
:100A3000282FDB018131D9F040F4813079F058F072
:100A40008031B1F58091CE0314C08331C1F0A0F0A4
:100A50008333C1F02DC08091CD030BC086E0E7EC5D
:100A6000F3E001900D928A95E1F786E053C0809102
:100A7000CF038C9381E04EC08091D003FACF809158
:100A8000D103F7CF0091D2031091D3032091D40367
:100A90003091D503B901A80189E0769567955795FE
:100AA00047958A95D1F7417012FD42604C93E2CF91
:100AB00030E0E32FF0E0CF0165E070E00E94D11458
:100AC0008C569E4FEC018881882321F1281320C089
:100AD000CF0165E070E00E94D1148C569E4FEC016E
:100AE00009811A812B813C814091D2035091D3031B
:100AF0006091D4037091D503402351236223732363
:100B000081E0452B462B472B09F0B3CF80E0B1CFD6
:100B10003F5FCFCFDF91CF911F910F9108950F933A
:100B20001F93CF93DF936115710509F4AAC0FB01F0
:100B3000282F8131F9F050F4813091F068F0803144
:100B400009F04FC080818093CE0397C08331D1F0EC
:100B5000A8F08333D9F045C080818093CD038DC048
:100B600086E0A7ECB3E001900D928A95E1F70E9430
:100B7000CF0A83C080818093CF037FC08081809320
:100B8000D0037BC080818093D10377C02081233044
:100B900008F022E08091D2039091D303A091D40376
:100BA000B091D503997F20FD92608093D2039093FA
:100BB000D303A093D403B093D50321FF5EC08091EB
:100BC000D2039091D303A091D403B091D503946044
:100BD0008093D2039093D303A093D403B093D5030F
:100BE0004CC030E0A32FB0E0CD0165E070E00E9482
:100BF000D1148C569E4FEC018881882309F442C0A1
:100C0000281339C080810091D2031091D303209121
:100C1000D4033091D503882389F0CD0165E070E0DD
:100C20000E94D1148C569E4FEC0189819A81AB8130
:100C3000BC81082B192B2A2B3B2B14C0CD0165E05E
:100C400070E00E94D1148C569E4FFC0181819281EC
:100C5000A381B48180959095A095B0950823192320
:100C60002A233B230093D2031093D3032093D4036E
:100C70003093D50302C03F5FB5CF0E94CF0A81E019
:100C800001C080E0DF91CF911F910F91089543B192
:100C900026B1E22FE078F0E085E0F595E7958A95BA
:100CA000E1F7207322952F702E2B942F9074692FCB
:100CB00070E093E0759567959A95E1F7622B942F14
:100CC0009072292F30E035952795262B842F80713F
:100CD000880F822B089581E008950F931F93CF937F
:100CE000DF93EC0121968C01075F1F4F469A85E345
:100CF0008A95F1F700000E944706FE013197808334
:100D0000469885E38A95F1F700000E94470688839C
:100D10002296C017D10751F7DF91CF911F910F9104
:100D20000895811123C0549A5C9A2FE788E391E0DB
:100D3000215080409040E1F700C00000539A5B9A38
:100D40008FE39CE90197F1F700C000003C98449ABA
:100D50003D98459A3F98479A26982E9A24982C9A1F
:100D600025982D9A46983E9A10927C0208958F926B
:100D70009F92AF92BF92CF92DF92EF92FF920F932A
:100D80001F93CF93DF93CDB7DEB762970FB6F8947A
:100D9000DEBF0FBECDBF182F811167C0469887EC0C
:100DA00090E00197F1F700C00000DE0111965D01AF
:100DB000E12CF12C6D010FE082E1E816F104A1F0C5
:100DC000E0FE04C02C9A1D9BFECF03C02C981D99F9
:100DD000FECF0E9447068F708027F50181935F0147
:100DE000FFEFEF1AFF0AE8CF2C9A469A89818F30DD
:100DF000A9F58A818F3091F54E0193E0890E911CFF
:100E0000EBE6F2E046E050E0D4018D914D018E30EA
:100E100029F08F3031F422E030E005C023E030E0EB
:100E200002C020E030E02083B601640F751F80E02F
:100E300090E08217930751F0DB01BD90BD01019650
:100E40007F01E80EF91ED701BC92F3CF480F591F5E
:100E50003496B2E0EB37FB07B9F607C080E00E949A
:100E6000910610927C028FEF46C0812F90E0FC012A
:100E7000EE0FFF1FEE0FFF1FE559FD4F20812230BF
:100E8000D1F0233079F56BE070E00E94D114DC01E1
:100E9000A852BC4F228130E084E0220F331F8A9594
:100EA000E1F78381382B8181282B12963C932E9376
:100EB000119787E115C06BE070E00E94D114DC014E
:100EC000A852BC4F228130E094E0220F331F9A9544
:100ED000E1F78181282B12963C932E93119786E09F
:100EE0008C9308C06BE070E00E94D11488529C4F34
:100EF000FC01108280E062960FB6F894DEBF0FBE50
:100F0000CDBFDF91CF911F910F91FF90EF90DF90B8
:100F1000CF90BF90AF909F908F900895AF92BF9267
:100F2000CF92DF92EF92FF920F931F93CF93DF93B5
:100F3000CDB7DEB728970FB6F894DEBF0FBECDBF92
:100F4000D82E811132C0469887EC90E00197F1F7D6
:100F500000C00000FE0131967F0100E010E0BE2ECF
:100F6000CF2C8FE0A82E08301105A1F000FF04C09F
:100F70002C9A1D9BFECF03C02C981D99FECF0E947A
:100F800047068F70982F9A25F70191937F010F5F85
:100F90001F4FE9CF2C9A469A88E0EB2DFC2DABE54C
:100FA000B2E001900D928A95E1F78D2D90E06BE013
:100FB00070E00E94D114FC01E852FC4F89E180836B
:100FC00020915E0230E0209530952F7033273483D6
:100FD000238390915F02892F8295807F9091600298
:100FE0009F70982B9095918390916102892F8295A3
:100FF000807F909162029F70982B9095928380E001
:1010000028960FB6F894DEBF0FBECDBFDF91CF910B
:101010001F910F91FF90EF90DF90CF90BF90AF9016
:101020000895AF92BF92CF92DF92EF92FF920F930B
:101030001F93CF93DF93CDB7DEB728970FB6F89401
:10104000DEBF0FBECDBF90917C02882379F0911155
:101050000AC090E06BE070E00E94D11488529C4F6F
:10106000DC011C925FC0853008F0BAC0082F9111D6
:10107000BDC01FB7F894E4E6AE2EB12CC12CD12C24
:10108000E12CF12C0E94470685FF04C0BFEFEB1A4C
:10109000FB0A03C0EFEFCE1ADE0AFAE1FA95F1F788
:1010A00000C081E0A81AB10869F71FBF92E2C91613
:1010B000D104D4F1A2E2EA16F104B4F169C0EA94D1
:1010C000EE2009F48CC00E944706F2E0FA95F1F791
:1010D00000C085FDF4CF0E9447068F70F82A1FBF1D
:1010E000C02ED12CC6016BE070E00E94D1148C019F
:1010F00008521C4F88E1F80180830E94470684FD56
:1011000071C081E090E0D80113969C938E93129762
:10111000C6016BE070E00E94D11488529C4FDC0144
:101120001196FC9280E0C4C0CE0101960E946D062B
:10113000FE013196CE010996DF012C91233389F40B
:1011400011962C9111972F3361F41296A817B907B5
:10115000A1F78FB7249A2C9A8FBF81E080937C02ED
:1011600045C02081203309F045C021812B3309F08F
:1011700041C03296E817F907A1F78FB7249A2C9A45
:101180008FBF81E080937B02802F0E948E0790C0EA
:101190001FB7F89428E7F22E0E944706B2E0BA95EE
:1011A000F1F700C085FF04C0FA94F110F5CF17C025
:1011B00078E7F72E0E944706E2E0EA95F1F700C0D3
:1011C00085FD04C0FA94F110F5CF09C00E944706CE
:1011D000F82EF29480EFF82298E7E92E74CF1FBF23
:1011E0008FEF66C0F8011382128292CF802F0E9487
:1011F000B7065EC02A81822F8C7009F057C08C819F
:101200008F7011F036E001C037E1E02FF0E0CF0140
:101210006BE070E00E94D11488529C4FDC013C933B
:101220003730E9F0373141F1363009F07BCF498171
:1012300040954F73CF016BE070E00E94D11488524B
:101240009C4F2095207330E0220F331F220F331F55
:10125000242BDC0112963C932E93119763CFCF0180
:101260006BE070E00E94D11488529C4F2981209538
:101270002F7330E0FC0117C0498140954F73CF01B7
:101280006BE070E00E94D114FC01E852FC4F209505
:10129000207330E0220F331F220F331F9D81909562
:1012A0009F70392B242B328321833CCF37E0ADCF85
:1012B00028960FB6F894DEBF0FBECDBFDF91CF9159
:1012C0001F910F91FF90EF90DF90CF90BF90AF9064
:1012D000089587E691E008950F931F93CF93DF93CE
:1012E000FC012081253889F5EC010E946D06809172
:1012F0007C02888790917B029987882379F080E02F
:101300000E94B70680E1EBE6F2E0DE011A9601905A
:101310000D928A95E1F70AE110E002C00AE010E0C0
:1013200080917B02882379F080E00E948E07DE01A5
:10133000A00FB11F80E1EBE5F2E001900D928A95DC
:10134000E1F7005F1F4F802F01C080E0DF91CF9158
:101350001F910F9108950F931F93CF93DF93EA018D
:10136000688320E829832A831B821C82009709F462
:101370006DC08C01FC018081873109F445C030F4D7
:10138000863009F441C0873011F160C0883199F08E
:10139000893109F05BC0F8016381748182E50E94A4
:1013A000AE048B839C83F80181818058898382817C
:1013B00080588A834BC0F8016281738180E40E9467
:1013C000AE048B839C83F801818189833FC0F8013F
:1013D000618172818091D20380FD10C060FF02C0E4
:1013E00011E001C010E861FD1EEF62FF02C001E0E4
:1013F00001C000E863FF06C00EEF04C010E800E87B
:1014000083E41EC081E41CC0F80161817281809177
:10141000D20380FD10C060FF02C011E001C010E8DF
:1014200061FD1EEF62FF02C001E001C000E863FF42
:1014300006C00EEF04C010E800E881E501C080E5B9
:101440000E94AE048B839C8309831A83DF91CF9122
:101450001F910F910895DC01FA01608311821282BD
:1014600013821482892BD1F08C918931B9F41396AF
:101470002D913C911497A90141705527942F21FD7E
:10148000926022FD946023FD9860918311968C9167
:101490001197828312968C918195838308958DEAAA
:1014A0009EED9093090480930804089581E02091B3
:1014B0000804309109042D3A3E4D09F480E08195ED
:1014C0000895109280008DE0809381000895BC0102
:1014D00080917D0290917E0286179707F1F07093BC
:1014E0007E0260937D021092850010928400072E88
:1014F000000C880B990B24E83EE140E050E00E948C
:101500000715B901CA0128EE33E040E050E00E941F
:10151000E21430938900209388000895B19B04C0A1
:1015200082E086BB81E0089580E00895AFE7B2E0F5
:10153000FC012491422F50E04D935D9301962223AC
:1015400049F022E0AD3BB20799F71092BE0210922B
:10155000BD0208950895E5ECF3E080E090E023E01B
:10156000E63DF207D9F021919227092E0294202D11
:101570002F702927392F3025330F307E2327302D28
:101580003927307F3695092E000C331F9695969596
:1015900096959F7193279827822FE1CF08950E94F7
:1015A000AB0A9093D7038093D60343E150E060E009
:1015B00070E085EC93E00C949318CF93DF9343E1B4
:1015C00050E060E070E085EC93E00E948318809129
:1015D000C5039091C6038D3E9E4F91F083E1E5ECEB
:1015E000F3E0DF011D928A95E9F78DEE9EEF90936F
:1015F000C6038093C5030E94DB040E94CF0A09C082
:10160000C091D603D091D7030E94AB0AC817D9075F
:1016100029F7DF91CF910C9474030E94EB10F8949A
:10162000E0E0F0EF099408950E94EB10F894E0E0F8
:10163000F0E00994089580E090E008951092C900C8
:1016400087E791E0909307048093060408950F9331
:101650001F93CF93DF931F92CDB7DEB78C01FA01B2
:1016600081E1D8011D928A95E9F7D80111966C9312
:10167000119750965C934E931F97A8014E5F5F4F52
:101680006C9180E090E0298309952981F8012083FD
:101690000F90DF91CF911F910F910895FC018181EF
:1016A00090E00895DC01CB01AD014E5F5F4F1F96C6
:1016B000ED91FC9150976C910994029608950F93C7
:1016C0001F93CF93DF938C01EB012A813B81832F02
:1016D0009927019711F5213089F4C8010296FA0182
:1016E0009183808382E595E09F938F930E94DB1521
:1016F000F801818190E00F900F902DC0223069F0A9
:1017000033273F932F9389E395E09F938F930E9414
:10171000DB150F900F900F900F908F818F938E811C
:101720008F938B818F938A818F9389811F928F935F
:1017300088811F928F938DEE94E09F938F930E94E8
:10174000DB158DB79EB70A960FB6F8949EBF0FBEF5
:101750008DBF80E090E0DF91CF911F910F910895B0
:10176000232B51F487EE94E09F938F930E94DB1517
:101770000F900F908FEF089580E008950F93FB0175
:101780008093E900CA012417350708F4C9018E0FB8
:101790009F1F002341F0E817F90761F0249120937F
:1017A000F1003196F8CFE817F90721F02191209345
:1017B000F100F9CF0F910895CF92DF92EF92FF924F
:1017C0000F931F93CF93DF936C01122FEA016417DD
:1017D000750708F4EB01E12CF12CB6016E0D7F1DAD
:1017E000012FC134D105B0F020E430E040E450E0F6
:1017F00080E00E94BE0B9091E8009E7F9093E800ED
:1018000080E4E80EF11CC054D1098091E80080FF0B
:10181000FCCFE3CF9E01AE0180E00E94BE0B809121
:10182000E8008E7F8093E8008091E80080FFFCCF85
:10183000DF91CF911F910F91FF90EF90DF90CF90AC
:101840000895EF92FF920F93CF93DF938093E90077
:101850009091E80090FF28C0FA012081318137FF84
:1018600006C08091F0008E7F8093F0001DC0EA01D9
:101870007B019091E8009E7F9093E8002081318168
:1018800040815181FB016081718100E00E94BE0BAB
:10189000F701118210828FEF9FEF998388838091E7
:1018A000E8008F778093E800DF91CF910F91FF9050
:1018B000EF9008951092E90081E08093EB00109280
:1018C000EC008CE48093F0008091ED0082638093C3
:1018D000ED001092E8008091EE0087FF51C020E0FB
:1018E00030E041E0A1ECE091C002F091C1028285BC
:1018F00090E02817390744F581E0820F8093E900D2
:101900004093EB00A093EC004093F000E091C00204
:10191000F091C102C9016CE070E00E94D114E80F9F
:10192000F91F8785908980319105D1F024F40897BB
:1019300061F490E016C08032910521F08034910569
:1019400069F003C090E20DC0089580EF95E09F9389
:101950008F930E94DB150F900F90089590E301C0C4
:1019600090E192609093ED001092E8008091EE007B
:1019700087FD03C082EE95E0EACF2F5F3F4FB3CFE4
:1019800008951F920F920FB60F9211242F933F9339
:101990004F935F936F937F938F939F93AF93BF9377
:1019A000CF93EF93FF93C091E100C0FF0DC08091F2
:1019B000E1008E7F8093E10081E080935603809167
:1019C000E20080618093E200C4FF10C08091E100DA
:1019D0008F7E8093E10080915603882339F0109226
:1019E00056038091E2008F7E8093E200C3FF09C01E
:1019F000109256030E945A0C8091E100877F8093D9
:101A0000E100C2FF05C08091E1008B7F8093E1007F
:101A1000C5FF05C08091E1008F7D8093E100C6FF86
:101A200005C08091E1008F7B8093E100FF91EF91F1
:101A3000CF91BF91AF919F918F917F916F915F9166
:101A40004F913F912F910F900FBE0F901F901895BF
:101A50001F920F920FB60F9211246F927F928F9266
:101A60009F92AF92BF92CF92DF92EF92FF920F932D
:101A70001F932F933F934F935F936F937F938F9316
:101A80009F93AF93BF93EF93FF93CF93DF9300D0D8
:101A900000D0CDB7DEB77090F40070FEBDC21092DA
:101AA000E9006090E80063FE05C28091F20090E0DA
:101AB000E6E1F3E09F01265133402817390720F46F
:101AC0002091F1002193F6CF8091E800877F8093E9
:101AD000E8008091160387FD73C0982F9F7121F055
:101AE000913009F43FC06CC080911703853019F024
:101AF000893019F167C0809118038093E3008091C9
:101B0000E80080FFFCCF8091E8008E7F8093E800A2
:101B10008091E80080FFFCCF8091E3008068809393
:101B2000E3008091180390911903892B11F481E04F
:101B300001C082E080938D0143C08091180380939F
:101B40001503811102C082E001C083E080938D0102
:101B50008091E80080FFFCCF8091E8008E7F809329
:101B6000E8002EC08076803269F5809117038930B5
:101B7000D1F48091E80080FFFCCF8091E8008E7F57
:101B80008093E80088E0E6E1F3E0A5E0B3E00190AF
:101B90000D928A95E1F7109204031092030381E0FD
:101BA000809302030DC01F928F9381EC95E09F9369
:101BB0008F930E94DB150F900F900F900F9002C033
:101BC00010E001C011E09091160397FF53C1292F37
:101BD0002F7180911703213009F4AEC020F022301C
:101BE00009F41EC149C18630B1F0883009F018C12E
:101BF00080918D0120911C0330911D03833029F0C9
:101C0000198200E041E050E0AAC000E041E050E06D
:101C100065E173E003C18091180390911903292FA6
:101C2000332722303105B1F02330310511F1213055
:101C3000310509F021C1E091C002F091C10200819B
:101C4000017020911C0330911D036181728142E17A
:101C500050E0E4C0E091C002F091C1022081227006
:101C600040911C0350911D0365817681838194818D
:101C70009FC09927009709F446C0A090C002B09079
:101C8000C102D50117962C91179730E02817390714
:101C90000CF449C080901C0390901D0301977C01B7
:101CA000EE0CFF1C1896ED91FC911997EE0DFF1D9F
:101CB0000190F081E02DC12CD12C81919191892B43
:101CC00021F0BFEFCB1ADB0AF8CFCC0CDD1C82E091
:101CD0008C0D898383E08A8300E0940142E050E028
:101CE000BE016F5F7F4F80E00E94BE0B94012250C7
:101CF0003109F50180859185FC01EE0DFF1D6081A4
:101D00007181A6018BC084E0898383E08A8389E0A6
:101D10008B8380E18C8320911C0330911D0300E0B4
:101D200044E050E01CC08DEA95E09F938F930E94A1
:101D3000DB150F900F9084C0907619F09032D9F196
:101D40009BC0882319F0863071F096C019821A82E0
:101D500020911C0330911D0300E042E050E0BE01E1
:101D60006F5F7F4F5BC08091190390E0829709F00D
:101D700083C080911A0390911B03E091C002F091FF
:101D8000C102228530E02817390708F475C0208188
:101D90002470A0911C03B0911D036CE070E00E94C0
:101DA000D114E80FF91F63857485AD01858596858B
:101DB0000E94DC0B45C0813009F05EC020911A03FF
:101DC00030911B03A091C002B091C1021A968C9170
:101DD0001A9790E08217930798F1C9016CE070E0C0
:101DE0000E94D1148A0F9B1FFC01E388F488E11440
:101DF000F10409F441C0AE014F5F5F4F66E173E04B
:101E000081899289F70109950097D1F020911C03EF
:101E100030911D0369817A8100E0AC0180E00EC041
:101E200081112AC019821A8220911C0330911D034E
:101E300000E042E050E0BE016F5F7F4F0E94BE0BAA
:101E400011111AC08091E8008E7F8093E800809184
:101E5000E80080FF05C08091E8008E7F8093E80055
:101E60008091E80082FFF3CF8091E8008B7F809320
:101E7000E80020C01123F1F0809119038F93809125
:101E800018038F93809117031F928F9380911603ED
:101E90001F928F938CE895E09F938F930E94DB15A0
:101EA0008091EB0080628093EB000FB6F894DEBF68
:101EB0000FBECDBF62FE36C00091F20010E0E6E139
:101EC000F3E0CF01865193408017910720F4809171
:101ED000F1008193F6CF8091E8008B7F8093E8003A
:101EE000809102038823F1F0809103039091040311
:101EF000800F911F80349105A8F480910303909185
:101F00000403A80166E173E08E539D4F0E94CB1538
:101F10008091030390910403080F191F1093040389
:101F20000093030366FE78C08091E8008F7B809366
:101F3000E80080910203882309F46EC00091030336
:101F4000109104038091050380768032A1F52091E1
:101F5000090330910A03A091C002B091C1021A9600
:101F60008C911A9790E08217930708F453C0C90127
:101F70006CE070E00E94D1148A0F9B1FFC01E58881
:101F8000F688E114F104B9F0980142EC52E065E002
:101F900073E081899289F7010995882331F0809156
:101FA000EB0080628093EB0035C08091E8008E7F6B
:101FB0008093E8002FC01F930F938CE695E09F93CA
:101FC0008F930E94DB1582ECE82E82E0F82E0E53F0
:101FD0001D4F0F900F900F900F9096E6C92E95E031
:101FE000D92EE016F10671F0D7018D917D011F9277
:101FF0008F93DF92CF920E94DB150F900F900F907E
:102000000F90EFCF83E695E09F938F930E94DB15AF
:102010000F900F901092020371FE07C04BE851E041
:1020200063E173E081E00E94210C72FE07C049E881
:1020300051E061E173E082E00E94210C73FE07C071
:1020400047E851E06FE073E083E00E94210C74FEEA
:1020500007C045E851E06DE073E084E00E94210C88
:102060000F900F900F900F90DF91CF91FF91EF9114
:10207000BF91AF919F918F917F916F915F914F91A0
:102080003F912F911F910F91FF90EF90DF90CF9094
:10209000BF90AF909F908F907F906F900F900FBEEA
:1020A0000F901F901895209185013091860181E055
:1020B0002F3F3F4F09F080E008959C019FB740916A
:1020C0008501509186014F3F5F4FC9F7F8943093D7
:1020D0000E0320930D03709386016093850184E0C5
:1020E0008093E9008091F00081608093F0009FBFB1
:1020F0000895209187013091880181E02F3F3F4F63
:1021000009F080E008959C019FB7409187015091AC
:1021100088014F3F5F4FC9F7F89430931003209325
:102120000F03709388016093870183E08093E90037
:102130008091F00081608093F0009FBF089520910E
:10214000890130918A0181E02F3F3F4F09F080E003
:1021500008959C019FB74091890150918A014F3F9A
:102160005F4FC9F7F89430931203209311037093D3
:102170008A016093890182E08093E9008091F000F8
:1021800081608093F0009FBF089520918B01309172
:102190008C0181E02F3F3F4F09F080E008959C01C2
:1021A0009FB740918B0150918C014F3F5F4FC9F712
:1021B000F894309314032093130370938C0160936D
:1021C0008B0181E08093E9008091F0008160809331
:1021D000F0009FBF0895E0EEF0E080818160808391
:1021E0001092E200E8EDF0E080818F7780838081BB
:1021F0008062808308958091BF02882321F081301E
:1022000051F01092BF028091E0008E7F8093E00039
:1022100081E08093BF02089520E22093D80021E05E
:102220002093E0001092E2001092E3009093C1022C
:102230008093C0028091D8008F778093D8008091DE
:10224000D80080628093D8001092FB001092630047
:1022500084E089BD89B5826089BD09B400FEFDCFE7
:102260008091D80080688093D8008091D8008F7DBD
:102270008093D8000E945A0C8091E1008E7F809359
:10228000E10089E78093E20008958091980382300D
:1022900059F488E593E0FA019183808310929803C2
:1022A0008091570390E0089580E090E00895CF93E7
:1022B000DF931F92CDB7DEB7BA0181E08093980318
:1022C000A90188E593E029830E94CB1529812093F9
:1022D000570380E00F90DF91CF910895CF93DF9364
:1022E00020919803213029F008F44BC1223029F4C1
:1022F00048C130915703311103C01092980341C176
:10230000FC0190915803963009F467C028F593308A
:1023100009F442C088F49130B9F1923009F01DC13E
:102320004EE36AE573E0809159030E94140580939F
:102330005703809157034FC09430D9F1953009F07D
:102340000CC162EC74E089E593E00E94AE1582EC6A
:1023500094E00E94B5153FC0913F09F4EEC038F4F7
:10236000973009F445C0903F09F450C0F6C09E3F35
:1023700041F020F4923F09F4D8C0EFC00E940D0B49
:10238000FDC00E94140BFAC06AE573E08091590306
:102390000E948F0582E0F0C0309709F4EFC00190F1
:1023A000F081E02D309709F4E9C080915903099537
:1023B000E5C0C0916501D0916601BE0189E593E059
:1023C0000E94D415FE0101900020E9F7EC1BEF5F9D
:1023D000E0935703D3C08E5FCFC080915903843000
:1023E00008F0CCC00E9408138C5980935A030CC08B
:1023F000309751F00280F381E02D309729F0609101
:102400005A0380915903099583E0B6C0209357037E
:10241000A091570381E08A0F80935703B0E0A85A38
:10242000BC4F8FEF8C93A091570381E08A0F80936C
:102430005703B0E0A85ABC4F8EEF8C93A09157037E
:1024400081E08A0F80935703B0E0A85ABC4F82E026
:102450008C93A091570381E08A0F80935703B0E0DB
:10246000A85ABC4F2C93A091570381E08A0F809308
:102470005703B0E0A85ABC4F83E08C93A091570358
:1024800081E08A0F80935703B0E0A85ABC4F84E0E4
:102490008C93A091570381E08A0F80935703B0E09B
:1024A000A85ABC4F85E08C93A091570381E08A0F16
:1024B00080935703B0E0A85ABC4F86E08C93A0915C
:1024C000570381E08A0F80935703B0E0A85ABC4FAE
:1024D00087E08C93A091570381E08A0F8093570384
:1024E000B0E0A85ABC4F9C93A091570381E08A0F9B
:1024F00080935703B0E0A85ABC4F81EF8C93A09112
:10250000570381E08A0F80935703B0E0A85ABC4F6D
:1025100082EF8C930284F385E02D309779F18091DE
:10252000570390E0885A9C4F13C02093570330976D
:1025300029F10680F781E02D07C0209357033097DB
:10254000E9F00480F581E02D3097C1F089E593E052
:10255000099590915703890F0FC0309779F0008447
:10256000F185E02D309751F06091570370E040E421
:1025700050E088E593E009958093570382E08093CB
:102580009803DF91CF910895282F30E0C9016BE0C7
:1025900070E00E94D114FC01E756FC4FC9016BE0CA
:1025A00070E00E94D1144BE050E0BF0188529C4F74
:1025B0000E94BE150895DB01282F30E0109769F0C6
:1025C000C9016BE070E00E94D114FC01E852FC4F9D
:1025D0009BE001900D929A95E1F7C9016BE070E0E4
:1025E0000E94D114DC01A756BC4FFC01E852FC4FFD
:1025F0008BE001900D928A95E1F7089590E06BE0F1
:1026000070E00E94D11488529C4FFC011082089502
:1026100090E06BE070E00E94D11488529C4FFC0166
:1026200080810895CF93DF93CDB7DEB763970FB660
:10263000F894DEBF0FBECDBF4E012CE0820E911C80
:1026400088E0D4011D928A95E9F70E9420030E9438
:102650001E0B0E94DD0A0E94610A0E944F0A8091AF
:10266000CD038A3091F038F4833009F440C08430CF
:1026700009F45EC005C08031C9F0803209F45CC045
:1026800085E191E00E94960A0AC085E091E00E94EF
:10269000960A8FE490E090935E0180935D01512C47
:1026A000412C7BEAC72E79E0D72E70C08BEE90E0EC
:1026B0000E94960A8DEC91E09093100180930F0197
:1026C00084E590E0909312018093110183E0809360
:1026D00016018BE490E090935E0180935D01512C94
:1026E000412C6BEAC62E69E0D62E02E050C081ED87
:1026F00090E00E94960A80E691E09093100180930A
:102700000F018DE690E0909312018093110184E017
:10271000809316018CE490E090935E0180935D01BC
:10272000512C412C5BEAC52E59E0D52E03E02FC079
:1027300084E090E00E948B0384EB90E00E94960A74
:102740008EE490E090935E0180935D0185E291E0DC
:102750009093100180930F018BE390E0909312010E
:102760008093110184E893E090931A0180931901FA
:1027700084E490E090931801809317013AE0532E7F
:10278000442443944BE2C42E4AE0D42E01E023E1DA
:10279000A22E22E0B22E90E080E0E92EF82E21E079
:1027A000A60165E0C5010E94270B97012F5F3F4FEF
:1027B000E114F10409F07901C7016CE070E00E94B6
:1027C000D114845F9E4FFC01B28AA18A922F832F7D
:1027D000F1E1AF0EB11C201700F378948CE091E08A
:1027E0000E940C1110E0652C712C0E94560A811178
:1027F0000E940D0B0E94FB1080E091E00E946E1180
:102800001130D9F038F0123009F480C0133009F4D7
:1028100092C0EBCF809112028111C1C0552011F0FE
:10282000C30103C08091CE0390E00E94670A0E941A
:102830008E0A11E08111D9CFB2C0640183E1A82EC4
:1028400082E0B82E97E5E92E92E0F92E3E2C27E59E
:1028500032E0321AD6018D919C91892B89F4832D17
:102860000E946403F60191838083009749F0DC01A4
:102870001496ED91FC911597309711F0832D0995E1
:10288000D601ED91FC91309741F10280F381E02D6A
:10289000832D0995F701882351F080818F5F808314
:1028A0008F3130F0D6011D921C9210821BC0108215
:1028B000832D0E94C412811102C0442099F0BE01F0
:1028C0006F5F7F4F832D0E94DB12BE016F5F7F4FD2
:1028D000C5010E94520B12E005C060E070E0C50126
:1028E0000E94520BF2E0CF0ED11C2FEFE21AF20A37
:1028F00031E1A30EB11C8E2DA7E5B2E08A1B801733
:1029000008F4A4CF113009F070CF49C00E94C5105F
:10291000882311F013E069CF013009F466CF0E94DB
:1029200079108111F7CF033009F05FCF0E94531067
:102930008111F0CF5ACF0E94C510882361F083E146
:1029400092E00E944E0B7C0183E192E00E945D0BBD
:10295000B7010E94CF10013011F10E947910882335
:1029600061F084E292E00E944E0B7C0184E292E0EE
:102970000E945D0BB7010E948310033081F40E9416
:102980005310882361F085E392E00E944E0B7C0196
:1029900085E392E00E945D0BB7010E945D1010E09C
:1029A00024CF0024552704C0080E591F880F991FF3
:1029B000009729F076956795B8F37105B9F7802DE2
:1029C000952F0895052E97FB1EF400940E94F9148C
:1029D00057FD07D00E945E1507FC03D04EF40C94FF
:1029E000F91450954095309521953F4F4F4F5F4FCB
:1029F000089590958095709561957F4F8F4F9F4F6B
:102A00000895EE0FFF1F0590F491E02D099468944E
:102A10000013E894A0E0B0E0E0E1F5E10C942F159C
:102A2000EFEFE7F959016A015E23550FEE08FE2C1E
:102A300087019B01AC019E23990F660B762FCB017A
:102A40000E948015CDB7DEB7EAE00C944B152F92AB
:102A50003F924F925F926F927F928F929F92AF922E
:102A6000BF92CF92DF92EF92FF920F931F93CF937B
:102A7000DF93CDB7DEB7CA1BDB0B0FB6F894DEBF12
:102A80000FBECDBF09942A88398848885F846E8438
:102A90007D848C849B84AA84B984C884DF80EE8082
:102AA000FD800C811B81AA81B981CE0FD11D0FB68B
:102AB000F894DEBF0FBECDBFED010895A1E21A2E3E
:102AC000AA1BBB1BFD010DC0AA1FBB1FEE1FFF1FD2
:102AD000A217B307E407F50720F0A21BB30BE40B22
:102AE000F50B661F771F881F991F1A9469F7609569
:102AF0007095809590959B01AC01BD01CF01089523
:102B0000DF93CF939F92A0E49A2E0024D001E0019E
:102B1000F00116950795F794E794D794C794B79466
:102B2000A79448F41068A20FB31FC41FD51FE61F57
:102B3000F71F081E191E220F331F441F551F661F43
:102B4000771F881F991F9A9421F79D01AE01BF013D
:102B5000C00111249F90CF91DF910895FB01DC010A
:102B600005900D920020E1F70895FC0105900020EA
:102B7000E9F7809590958E0F9F1F0895FB01DC016A
:102B800004C08D910190801921F441505040C8F744
:102B9000881B990B0895FB01DC0102C001900D9286
:102BA00041505040D8F70895FB01DC0101900D928F
:102BB0000020E1F70895A0E0B0E0E1EEF5E10C942B
:102BC0003515AE01495F5F4FDA016D917D91AD0121
:102BD00004E014E0F80182819381DC0113962C91CA
:102BE0001397286013962C930E940116D801129611
:102BF000ED91FC9113972381277F2383E4E00C94CC
:102C00005115ACE0B0E0E7E0F6E10C9427157C014B
:102C10006B018A01FC0117821682838181FFBFC18B
:102C2000CE0101964C01F7019381F60193FD859148
:102C300093FF81916F01882309F4ADC1853239F486
:102C400093FD859193FF81916F01853229F4B7013E
:102C500090E00E94EB17E7CF512C312C20E020327E
:102C6000A0F48B3269F030F4803259F0833269F489
:102C700020612EC08D3239F0803339F4216028C0B4
:102C80002260246025C0286023C027FD29C030EDC4
:102C9000380F3A3088F426FF07C0852D6AE00E947D
:102CA000B518582E530E14C0832D6AE00E94B51833
:102CB000382E330E20620CC08E3221F426FD6BC1FB
:102CC000206406C08C3611F4206802C0883641F4B6
:102CD000F60193FD859193FF81916F018111BFCF23
:102CE000982F9F7D9554933028F40C5F1F4FFFE37E
:102CF000F9830DC0833631F0833771F0833509F0E5
:102D00005BC022C0F801808189830E5F1F4F44247D
:102D10004394512C540115C03801F2E06F0E711C20
:102D2000F801A080B18026FF03C0652D70E002C0CD
:102D30006FEF7FEFC5012C870E94E0172C01830104
:102D40002C852F77222E17C03801F2E06F0E711CF0
:102D5000F801A080B18026FF03C0652D70E002C09D
:102D60006FEF7FEFC5012C870E94D5172C012C85B2
:102D70002068222E830123FC1BC0832D90E048167F
:102D80005906B0F4B70180E290E00E94EB173A9444
:102D9000F4CFF50127FC859127FE81915F01B701F2
:102DA00090E00E94EB1731103A94F1E04F1A51086D
:102DB0004114510471F7E5C0843611F0893639F5B4
:102DC000F80127FF07C060817181828193810C5FC8
:102DD0001F4F08C060817181072E000C880B990B72
:102DE0000E5F1F4F2F76722E97FF09C0909580952A
:102DF000709561957F4F8F4F9F4F2068722E2AE00C
:102E000030E0A4010E942318A82EA81844C08537DA
:102E100029F42F7EB22E2AE030E025C0F22FF97F70
:102E2000BF2E8F36C1F018F4883579F0B4C08037E2
:102E300019F0883721F0AFC02F2F2061B22EB4FED9
:102E40000DC08B2D8460B82E09C024FF0AC09F2FAF
:102E50009660B92E06C028E030E005C020E130E0E1
:102E600002C020E132E0F801B7FE07C06081718145
:102E7000828193810C5F1F4F06C06081718180E069
:102E800090E00E5F1F4FA4010E942318A82EA818DF
:102E9000FB2DFF777F2E76FE0BC0372D3E7FA514CE
:102EA00050F474FE0AC072FC08C0372D3E7E05C087
:102EB000BA2C372D03C0BA2C01C0B52C34FF0DC07D
:102EC000FE01EA0DF11D8081803311F4397E09C0C5
:102ED00032FF06C0B394B39404C0832F867809F000
:102EE000B39433FD13C030FF06C05A2CB31418F44A
:102EF000530C5B18B32CB31468F4B70180E290E074
:102F00003C870E94EB17B3943C85F5CFB31410F4C3
:102F10003B1801C0312C34FF12C0B70180E390E0B0
:102F20003C870E94EB173C8532FF17C031FD03C080
:102F300088E790E002C088E590E0B7010CC0832FDD
:102F4000867859F031FF02C08BE201C080E237FD84
:102F50008DE2B70190E00E94EB17A51438F4B70199
:102F600080E390E00E94EB175A94F7CFAA94F40103
:102F7000EA0DF11D8081B70190E00E94EB17A110CE
:102F8000F5CF332009F44FCEB70180E290E00E94E4
:102F9000EB173A94F6CFF7018681978102C08FEF45
:102FA0009FEF2C96E2E10C944315FC0105906150D3
:102FB00070400110D8F7809590958E0F9F1F08954F
:102FC000FC016150704001900110D8F780959095F8
:102FD0008E0F9F1F08950F931F93CF93DF93FB01D5
:102FE000238121FD03C08FEF9FEF28C022FF16C071
:102FF00046815781248135814217530744F4A081CB
:10300000B1819D012F5F3F4F318320838C932681B7
:1030100037812F5F3F4F3783268310C0EB01092F85
:10302000182F0084F185E02D0995892BE1F68E811A
:103030009F8101969F838E83812F902FDF91CF9167
:103040001F910F910895FA01AA27283061F12031CC
:1030500091F1E8946F936E7F6E5F7F4F8F4F9F4F1C
:10306000AF4FB1E040D0B4E03ED0670F781F891F6A
:103070009A1FA11D680F791F8A1F911DA11D6A0F3C
:10308000711D811D911DA11D22D009F468943F91ED
:10309000062E000C3019000C000C3019305D3193F5
:1030A000CEF6CF010895462F4770405D4193B3E0BF
:1030B0000FD0C9F7F6CF462F4F70405D4A3318F056
:1030C000495D31FD4052419302D0A9F7EACFB4E007
:1030D000A6959795879577956795BA95C9F70097BF
:1030E0006105710508959B01AC010A2E0694579560
:1030F000479537952795BA95C9F7620F731F841FB7
:10310000951FA01D0895DC01CB01FC01F999FECFAC
:1031100006C0F2BDE1BDF89A319600B40D9241505F
:103120005040B8F70895DC01A40FB51F415050403E
:1031300048F0CB01840F951F2E910E94A418415096
:103140005040D0F70895262FF999FECF92BD81BD4A
:10315000F89A019700B4021639F01FBA20BD0FB6D5
:10316000F894FA9AF99A0FBE0895002480FD060E8D
:10317000660F11F08695D1F7802D0895F894FFCF52
:1031800045030000520348036C0900000653015C2C
:10319000023B00037101023600C803100000006208
:1031A00003600315009702400000004511571136D7
:1031B00000C80310000000620360033600C803105B
:1031C0000000006203600300000000000000000037
:1031D00000000012010101000000409B284A00008D
:1031E0000301020301C60191061108000000006BF3
:1031F00006CC017F02F60100000002000000001B67
:103200000B00000000FFFFFFFFFFFFFFFF0130305A
:10321000303030313001000000310200000026045F
:1032200000000027080000002810000000292000EE
:1032300000002A4000000032800000002B00010046
:10324000000000000000322E302E320072006100BB
:10325000700068006E006500740020007400650056
:10326000630068006E006F006C006F00670069000B
:103270006500730000003100320033003400350077
:043280003600000014
:00000001FF
