:100000000C94F9020C9416030C9416030C9416032A
:100010000C9416030C9416030C9416030C941603FC
:100020000C9416030C9416030C9416030C94B70C42
:100030000C941E0D0C9416030C9416030C941603CA
:100040000C9416030C9416030C9416030C941603CC
:100050000C9416030C9416030C9416030C941603BC
:100060000C9416030C9416030C9416030C941603AC
:100070000C941603B204B504B804BB04BE04C8044F
:10008000C804C804C804C804C804C804C804C80410
:10009000C804C804C104C404AF0444423920746FC6
:1000A000205553422076322E3020283470206D6F38
:1000B0006465290044423920746F205553422076EC
:1000C000322E3020286D6F757365206D6F64652941
:1000D0000044423920746F205553422076322E302E
:1000E00020283370206D6F646529004442392074E4
:1000F0006F205553422076322E3020283270206DEA
:100100006F6465290044423920746F2055534220A2
:1001100076322E300009023B0002010080190904EA
:100120000000010300000009210101000122440038
:10013000070581031000010904010001030000000C
:100140000921010100012215000705820340000179
:1001500009026D0004010080190904000001030078
:10016000000009210101000122360007058103106A
:100170000001090401000103000000092101010040
:100180000122150007058203400001090402000155
:100190000300000009210101000122360007058348
:1001A00003100001090403000103000000092101FC
:1001B00001000122360007058403100001090254E2
:1001C0000003010080190904000001030000000978
:1001D00021010100012236000705810310000109F9
:1001E00004010001030000000921010100012215A2
:1001F000000705820340000109040200010300001A
:1002000000092101010001223600070583031000C7
:100210000109023B000201008019090400000103EA
:1002200000000009210101000122D8000705810317
:10023000100001090401000103000000092101016F
:1002400000012215000705820340000109023B005E
:1002500002010080190904000001030000000921C7
:100260000101000122360007058103100001090485
:100270000100010300000009210101000122150015
:10028000070582034000010600FF0901A1011500D6
:1002900026FF007508953F0901B100C0050109045A
:1002A000A1010901A1008501050175109502150044
:1002B00026FF00093009318102C0A100050915009F
:1002C00025017501951019012910750195108102FC
:1002D000C0C005010904A1010901A10085020501B1
:1002E00075109502150026FF00093009318102C002
:1002F000A1000509150025017501951019012910A6
:10030000750195108102C0C005010904A101090110
:10031000A1008503050175109502150026FF00094F
:100320003009318102C0A1000509150025017501C0
:10033000951019012910750195108102C0C00501A1
:100340000904A1010901A1008504050175109502A8
:10035000150026FF00093009318102C0A1000509FE
:1003600015002501750195101901291075019510C9
:100370008102C0C005010902A1010901A100850196
:10038000050919012904150025019504750181024B
:100390009501750481030501093009311581257F17
:1003A0007508950281061581257F350045000938BD
:1003B000750895018106C0C005010905A101090163
:1003C000A1008501050175089502150026FF0009A9
:1003D0003009318102C0A100050915002501750110
:1003E000951019012910750195108102C0C00100F6
:1003F00001000200020004000400080008000000E0
:1004000000004000010010000200200004008000F5
:100410000800000410000002200000014000000855
:1004200080000100001002000020040000400800CD
:1004300000800000000040000100100002002000C9
:1004400004008000080000041000000220000001E9
:1004500040000008800000000000200001001000A3
:10046000020001000400020008000400100008005F
:100470002000000000002000010010000200000029
:100480000000100001002000020001000400020032
:100490000800040010000800200000000000100008
:1004A0000100200002000000000001000100000027
:1004B000000064613362346130302D343430392DC2
:1004C000343762322D386163652D326662306130B7
:1004D00036633731366400736872740A00556E688B
:1004E000616E646C6564206869642067657420725D
:1004F00065706F727420747970653D307825303284
:10050000782C2072713D3078253032782C20775647
:10051000616C3D3078253034782C20774C656E3D09
:100520003078253034780D0A0047657420696E7084
:100530007574207265706F7274202564203F3F0DC2
:100540000A00476574206A6F79207265706F727453
:100550000D0A000D0A00253032582000556E6861E2
:100560006E646C656420636F6E74726F6C2077725A
:10057000697465205B25645D203A2000743A20256B
:100580003032782C2072713A203078253032782C35
:100590002076616C3A20253034780D0A00556E6B58
:1005A0006E6F776E20737472696E672069640D0ACE
:1005B00000556E68616E646C656420636C61737372
:1005C00020625265717565737420307825303278F9
:1005D0000A00434647204550206661696C0D0A00B9
:1005E000496E76616C69642065702073697A650D67
:1005F0000A0011241FBECFEFD4E0DEBFCDBF12E052
:10060000A0E0B1E0EEE3F1E302C005900D92A2306C
:10061000B107D9F724E0A2E0B2E001C01D92A830F2
:10062000B207E1F70E94FF120C949D180C94000091
:1006300089E085B983E084B918B888E087B988E192
:100640008AB987EE8BB921E030E080E80FB6F894E4
:1006500080936100209361000FBE1092640010929D
:1006600065000FB6F894A89580916000886180932A
:100670006000109260000FBE0895809310020895EC
:10068000FC01108281E0818380E1828380E38383A7
:1006900084E00895FC01108280E1818383E08283FD
:1006A00084E0838380E2848385E008950C94A60B24
:1006B0000C94550B1F93CF93DF93182F0E945F0963
:1006C000EC01E881F981812F0995CE01DF91CF916D
:1006D0001F910895A5ECB3E0E2E0F2E08D9190E087
:1006E0008193919382E0EE30F807C1F710920F02E8
:1006F00010920E0282E092E0909374018093730155
:100700000895CF93DF93CDB7DEB763970FB6F89414
:10071000DEBF0FBECDBF7C014E018CE0880E911C68
:1007200088E0D4011D928A95E9F710E0812F90E0CE
:100730008E159F0574F41F5F61E170E00E94B01494
:10074000212F41EA59E065E08F5E9D4F0E941D0B0D
:10075000EDCF82E08093140181E192E090931C013F
:1007600080931B01B4E0EB16F10449F58AE990E0AF
:100770000E948C0A8DE490E090935C0180935B0171
:100780008CE992E0909318018093170188ED90E036
:10079000909316018093150181E192E090930E01F0
:1007A00080930D018BE390E09093100180930F01F3
:1007B00078948AE091E00E94021110E023C0FFCFFC
:1007C000023009F485C0033009F48AC00E944C0A43
:1007D00081110E94030B0E94F11080E091E00E94C1
:1007E0006411013089F060F7809110028111EECF21
:1007F0008091CC0390E00E945D0A0E94840A01E08F
:100800008111E4CF00E0E2CF640185E5E82E82E0CB
:10081000F82E91E1A92E92E0B92E10E02BC0812F85
:100820000E945A03D6018D939C93009749F5D601F7
:10083000ED91FC91309709F441C00280F381E02DE5
:10084000812F0995F701882329F180818F5F8083AB
:100850008F3108F1D6011D921C9210821F5FF2E0C9
:10086000CF0ED11C8FEFE81AF80AA1E1AA0EB11C35
:10087000143051F1F60180819181892BC1F6CFCFDF
:10088000DC011496ED91FC911597309781F2812F40
:100890000995CDCF1082812F0E94B1128823F1F2E9
:1008A000BE016F5F7F4F812F0E94C812BE016F5F34
:1008B0007F4FC5010E94480B02E0D0CF60E070E09E
:1008C000C5010E94480BCACF013009F07FCF9ACFF3
:1008D0000E94BB10882309F479CF10E003E076CFA3
:1008E0000E94BB10882309F471CF812F90E061E151
:1008F00070E00E94B0148F5E9D4F7C010E94440BFB
:100900006C01C7010E94530BB6010E94C5101F5F06
:10091000143008F45BCF76CF40E050E0FC01259125
:100920003491FC013296A591B4912115310551F015
:10093000109741F026233723232B11F04A2B5B2BF2
:100940000496ECCFCA01089590E0FC01E054F1094F
:10095000E331F105E8F4E65CFF4F0C94E0148EEE11
:1009600093E014C08AEA94E011C08EE994E00EC0CE
:1009700086E794E00BC082E894E008C08AE594E042
:1009800005C086E394E002C082E094E00C948C04FD
:1009900080E090E0089560E070E0CB01089580E091
:1009A00008950F931F93CF93DF9300D000D000D012
:1009B000CDB7DEB786E0ECE8F1E0DE0111960190FC
:1009C0000D928A95E1F786E0FE013196A5ECB3E041
:1009D00001900D928A95E1F703EC13E085E0F801B0
:1009E00081878287838784870E94CF04F80180876C
:1009F0000E94CB04F801658776878787908B2696BF
:100A00000FB6F894DEBF0FBECDBFDF91CF911F911F
:100A10000F9108950F931F93CF93DF93282FDB013E
:100A20008131D9F040F4813079F058F08031B1F55E
:100A30008091CC0314C08331C1F0A0F08333C1F0A6
:100A40002DC08091CB030BC086E0E5ECF3E0019074
:100A50000D928A95E1F786E053C08091CD038C9387
:100A600081E04EC08091CE03FACF8091CF03F7CFC3
:100A70000091D0031091D1032091D2033091D30380
:100A8000B901A80189E076956795579547958A95AC
:100A9000D1F7417012FD42604C93E2CF30E0E32F7A
:100AA000F0E0CF0165E070E00E94B0148E569E4FDA
:100AB000EC018881882321F1281320C0CF0165E053
:100AC00070E00E94B0148E569E4FEC0109811A818D
:100AD0002B813C814091D0035091D1036091D2038E
:100AE0007091D303402351236223732381E0452B6C
:100AF000462B472B09F0B3CF80E0B1CF3F5FCFCF7C
:100B0000DF91CF911F910F9108950F931F93CF9372
:100B1000DF936115710509F4AAC0FB01282F81310B
:100B2000F9F050F4813091F068F0803109F04FC055
:100B300080818093CC0397C08331D1F0A8F08333B8
:100B4000D9F045C080818093CB038DC086E0A5ECB1
:100B5000B3E001900D928A95E1F70E94C50A83C027
:100B600080818093CD037FC080818093CE037BC042
:100B700080818093CF0377C02081233008F022E06A
:100B80008091D0039091D103A091D203B091D3036F
:100B9000997F20FD92608093D0039093D103A0931E
:100BA000D203B093D30321FF5EC08091D003909114
:100BB000D103A091D203B091D30394608093D0036A
:100BC0009093D103A093D203B093D3034CC030E0F1
:100BD000A32FB0E0CD0165E070E00E94B0148E5606
:100BE0009E4FEC018881882309F442C0281339C044
:100BF00080810091D0031091D1032091D2033091D4
:100C0000D303882389F0CD0165E070E00E94B01421
:100C10008E569E4FEC0189819A81AB81BC81082B55
:100C2000192B2A2B3B2B14C0CD0165E070E00E94EC
:100C3000B0148E569E4FFC0181819281A381B481B4
:100C400080959095A095B095082319232A233B23DE
:100C50000093D0031093D1032093D2033093D30396
:100C600002C03F5FB5CF0E94C50A81E001C080E0AD
:100C7000DF91CF911F910F91089543B126B1E22FDB
:100C8000E078F0E085E0F595E7958A95E1F7207347
:100C900022952F702E2B942F9074692F70E093E083
:100CA000759567959A95E1F7622B942F9072292F8D
:100CB00030E035952795262B842F8071880F822B65
:100CC000089581E008950F931F93CF93DF93EC0174
:100CD00021968C01075F1F4F469A85E38A95F1F7AD
:100CE00000000E943D06FE0131978083469885E30F
:100CF0008A95F1F700000E943D0688832296C0176E
:100D0000D10751F7DF91CF911F910F910895811174
:100D100023C0549A5C9A2FE788E391E021508040E9
:100D20009040E1F700C00000539A5B9A8FE39CE982
:100D30000197F1F700C000003C98449A3D98459A0D
:100D40003F98479A26982E9A24982C9A25982D9A5F
:100D500046983E9A10927A0208958F929F92AF928F
:100D6000BF92CF92DF92EF92FF920F931F93CF9398
:100D7000DF93CDB7DEB762970FB6F894DEBF0FBE34
:100D8000CDBF182F811167C0469887EC90E001977E
:100D9000F1F700C00000DE0111965D01E12CF12C9D
:100DA0006D010FE082E1E816F104A1F0E0FE04C05D
:100DB0002C9A1D9BFECF03C02C981D99FECF0E943C
:100DC0003D068F708027F50181935F01FFEFEF1AD9
:100DD000FF0AE8CF2C9A469A89818F30A9F58A813B
:100DE0008F3091F54E0193E0890E911CE9E6F2E017
:100DF00046E050E0D4018D914D018E3029F08F30C6
:100E000031F422E030E005C023E030E002C020E011
:100E100030E02083B601640F751F80E090E08217F8
:100E2000930751F0DB01BD90BD0101967F01E80EF3
:100E3000F91ED701BC92F3CF480F591F3496B2E088
:100E4000E937FB07B9F607C080E00E9487061092D9
:100E50007A028FEF46C0812F90E0FC01EE0FFF1F5A
:100E6000EE0FFF1FE759FD4F20812230D1F02330D4
:100E700079F56BE070E00E94B014DC01AA52BC4F1F
:100E8000228130E084E0220F331F8A95E1F78381CD
:100E9000382B8181282B12963C932E93119787E152
:100EA00015C06BE070E00E94B014DC01AA52BC4F88
:100EB000228130E094E0220F331F9A95E1F781817F
:100EC000282B12963C932E93119786E08C9308C0A2
:100ED0006BE070E00E94B0148A529C4FFC011082BB
:100EE00080E062960FB6F894DEBF0FBECDBFDF91F3
:100EF000CF911F910F91FF90EF90DF90CF90BF9017
:100F0000AF909F908F900895AF92BF92CF92DF9253
:100F1000EF92FF920F931F93CF93DF93CDB7DEB77E
:100F200028970FB6F894DEBF0FBECDBFD82E811123
:100F300032C0469887EC90E00197F1F700C00000BE
:100F4000FE0131967F0100E010E0BE2ECF2C8FE035
:100F5000A82E08301105A1F000FF04C02C9A1D9B9B
:100F6000FECF03C02C981D99FECF0E943D068F70C6
:100F7000982F9A25F70191937F010F5F1F4FE9CFBB
:100F80002C9A469A88E0EB2DFC2DA9E5B2E0019061
:100F90000D928A95E1F78D2D90E06BE070E00E9454
:100FA000B014FC01EA52FC4F89E1808320915C027D
:100FB00030E0209530952F70332734832383909130
:100FC0005D02892F8295807F90915E029F70982BA1
:100FD0009095918390915F02892F8295807F909167
:100FE00060029F70982B9095928380E028960FB6B0
:100FF000F894DEBF0FBECDBFDF91CF911F910F914F
:10100000FF90EF90DF90CF90BF90AF900895AF9298
:10101000BF92CF92DF92EF92FF920F931F93CF93E5
:10102000DF93CDB7DEB728970FB6F894DEBF0FBEBB
:10103000CDBF90917A02882379F091110AC090E097
:101040006BE070E00E94B0148A529C4FDC011C924D
:101050005FC0853008F0BAC0082F9111BDC01FB71E
:10106000F894E4E6AE2EB12CC12CD12CE12CF12C5D
:101070000E943D0685FF04C0BFEFEB1AFB0A03C0C8
:10108000EFEFCE1ADE0AFAE1FA95F1F700C081E03F
:10109000A81AB10869F71FBF92E2C916D104D4F1AA
:1010A000A2E2EA16F104B4F169C0EA94EE2009F470
:1010B0008CC00E943D06F2E0FA95F1F700C085FD74
:1010C000F4CF0E943D068F70F82A1FBFC02ED12C8E
:1010D000C6016BE070E00E94B0148C010A521C4FF4
:1010E00088E1F80180830E943D0684FD71C081E0A3
:1010F00090E0D80113969C938E931297C6016BE0F3
:1011000070E00E94B0148A529C4FDC011196FC9250
:1011100080E0C4C0CE0101960E946306FE013196B4
:10112000CE010996DF012C91233389F411962C917D
:1011300011972F3361F41296A817B907A1F78FB74B
:10114000249A2C9A8FBF81E080937A0245C0208137
:10115000203309F045C021812B3309F041C032967C
:10116000E817F907A1F78FB7249A2C9A8FBF81E06F
:1011700080937902802F0E94840790C01FB7F89453
:1011800028E7F22E0E943D06B2E0BA95F1F700C0C2
:1011900085FF04C0FA94F110F5CF17C078E7F72E59
:1011A0000E943D06E2E0EA95F1F700C085FD04C02B
:1011B000FA94F110F5CF09C00E943D06F82EF29482
:1011C00080EFF82298E7E92E74CF1FBF8FEF66C03B
:1011D000F8011382128292CF802F0E94AD065EC06A
:1011E0002A81822F8C7009F057C08C818F7011F08A
:1011F00036E001C037E1E02FF0E0CF016BE070E0B6
:101200000E94B0148A529C4FDC013C933730E9F0C5
:10121000373141F1363009F07BCF498140954F732A
:10122000CF016BE070E00E94B0148A529C4F209571
:10123000207330E0220F331F220F331F242BDC01D9
:1012400012963C932E93119763CFCF016BE070E021
:101250000E94B0148A529C4F298120952F7330E050
:10126000FC0117C0498140954F73CF016BE070E0DE
:101270000E94B014FC01EA52FC4F2095207330E02C
:10128000220F331F220F331F9D8190959F70392BA2
:10129000242B328321833CCF37E0ADCF28960FB685
:1012A000F894DEBF0FBECDBFDF91CF911F910F919C
:1012B000FF90EF90DF90CF90BF90AF90089585E6BC
:1012C00091E008950F931F93CF93DF93FC0120814A
:1012D000253889F5EC010E94630680917A0288879F
:1012E000909179029987882379F080E00E94AD0679
:1012F00080E1E9E6F2E0DE011A9601900D928A950E
:10130000E1F70AE110E002C00AE010E08091790202
:10131000882379F080E00E948407DE01A00FB11FCE
:1013200080E1E9E5F2E001900D928A95E1F7005F36
:101330001F4F802F01C080E0DF91CF911F910F914F
:1013400008950F931F93CF93DF93EA01688320E8FA
:1013500029832A831B821C82009709F46DC08C01AB
:10136000FC018081873109F445C030F4863009F4EE
:1013700041C0873011F160C0883199F0893109F09E
:101380005BC0F8016381748182E50E94A4048B83B1
:101390009C83F801818180588983828180588A8367
:1013A0004BC0F8016281738180E40E94A4048B83A6
:1013B0009C83F801818189833FC0F801618172813A
:1013C0008091D00380FD10C060FF02C011E001C019
:1013D00010E861FD1EEF62FF02C001E001C000E8FD
:1013E00063FF06C00EEF04C010E800E883E41EC0EF
:1013F00081E41CC0F801618172818091D00380FD7D
:1014000010C060FF02C011E001C010E861FD1EEFD6
:1014100062FF02C001E001C000E863FF06C00EEFFA
:1014200004C010E800E881E501C080E50E94A40442
:101430008B839C8309831A83DF91CF911F910F9136
:101440000895DC01FA0160831182128213821482F2
:10145000892BD1F08C918931B9F413962D913C915F
:101460001497A90141705527942F21FD926022FD08
:10147000946023FD9860918311968C9111978283DB
:1014800012968C918195838308958DEA9EED9093B9
:10149000070480930604089581E0209106043091AA
:1014A00007042D3A3E4D09F480E08195089510928D
:1014B00080008DE0809381000895BC0180917B02C3
:1014C00090917C0286179707F1F070937C026093ED
:1014D0007B021092850010928400072E000C880B6E
:1014E000990B24E83EE140E050E00E94E614B90187
:1014F000CA0128EE33E040E050E00E94C11430936E
:101500008900209388000895B19B04C082E086BBC7
:1015100081E0089580E00895ADE7B2E0FC012491F8
:10152000422F50E04D935D930196222349F022E033
:10153000AB3BB20799F71092BC021092BB02089520
:101540000895E3ECF3E080E090E023E0E43DF2076F
:10155000D9F021919227092E0294202D2F7029274E
:10156000392F3025330F307E2327302D3927307F18
:101570003695092E000C331F9695969596959F717A
:1015800093279827822FE1CF08950E94A10A909374
:10159000D5038093D40343E150E060E070E083EC36
:1015A00093E00C947218CF93DF9343E150E060E036
:1015B00070E083EC93E00E9462188091C3039091E5
:1015C000C4038D3E9E4F91F083E1E3ECF3E0DF0135
:1015D0001D928A95E9F78DEE9EEF9093C403809358
:1015E000C3030E94D1040E94C50A09C0C091D4035C
:1015F000D091D5030E94A10AC817D90729F7DF9116
:10160000CF910C946A030E94E110F894E0E0F0EFAF
:10161000099408950E94E110F894E0E0F0E0099444
:10162000089580E090E008951092C90085E791E068
:10163000909305048093040408950F931F93CF9310
:10164000DF931F92CDB7DEB78C01FA0181E1D8019B
:101650001D928A95E9F7D80111966C9311975096CF
:101660005C934E931F97A8014E5F5F4F6C9180E093
:1016700090E0298309952981F80120830F90DF915B
:10168000CF911F910F910895FC01818190E0089501
:10169000DC01CB01AD014E5F5F4F1F96ED91FC91D8
:1016A00050976C910994029608950F931F93CF93CE
:1016B000DF938C01EB012A813B81832F99270197CE
:1016C00011F5213089F4C8010296FA0191838083D3
:1016D00082E495E09F938F930E94BA15F80181816F
:1016E00090E00F900F902DC0223069F033273F9388
:1016F0002F9389E295E09F938F930E94BA150F90E4
:101700000F900F900F908F818F938E818F938B818D
:101710008F938A818F9389811F928F9388811F92E3
:101720008F938DED94E09F938F930E94BA158DB7A0
:101730009EB70A960FB6F8949EBF0FBE8DBF80E08D
:1017400090E0DF91CF911F910F910895232B51F4D9
:1017500087ED94E09F938F930E94BA150F900F909E
:101760008FEF089580E008950F93FB018093E900C7
:10177000CA012417350708F4C9018E0F9F1F0023E3
:1017800041F0E817F90761F024912093F1003196B8
:10179000F8CFE817F90721F021912093F100F9CF54
:1017A0000F910895CF92DF92EF92FF920F931F93C4
:1017B000CF93DF936C01122FEA016417750708F4C9
:1017C000EB01E12CF12CB6016E0D7F1D012FC13410
:1017D000D105B0F020E430E040E450E080E00E9429
:1017E000B40B9091E8009E7F9093E80080E4E80EAF
:1017F000F11CC054D1098091E80080FFFCCFE3CFF9
:101800009E01AE0180E00E94B40B8091E8008E7FC3
:101810008093E8008091E80080FFFCCFDF91CF91BA
:101820001F910F91FF90EF90DF90CF900895EF926E
:10183000FF920F93CF93DF938093E9009091E8009C
:1018400090FF28C0FA012081318137FF06C08091C6
:10185000F0008E7F8093F0001DC0EA017B01909123
:10186000E8009E7F9093E800208131814081518182
:10187000FB016081718100E00E94B40BF7011182CD
:1018800010828FEF9FEF998388838091E8008F7794
:101890008093E800DF91CF910F91FF90EF90089532
:1018A0001092E90081E08093EB001092EC008CE450
:1018B0008093F0008091ED0082638093ED001092A0
:1018C000E8008091EE0087FF51C020E030E041E069
:1018D000A1ECE091BE02F091BF02828590E0281752
:1018E000390744F581E0820F8093E9004093EB00D3
:1018F000A093EC004093F000E091BE02F091BF0293
:10190000C9016CE070E00E94B014E80FF91F8785F0
:10191000908980319105D1F024F4089761F490E02A
:1019200016C08032910521F08034910569F003C022
:1019300090E20DC0089580EE95E09F938F930E94F2
:10194000BA150F900F90089590E301C090E1926056
:101950009093ED001092E8008091EE0087FD03C0A7
:1019600082ED95E0EACF2F5F3F4FB3CF08951F92EE
:101970000F920FB60F9211242F933F934F935F93C3
:101980006F937F938F939F93AF93BF93CF93EF9377
:10199000FF93C091E100C0FF0DC08091E1008E7FF8
:1019A0008093E10081E0809354038091E2008061A4
:1019B0008093E200C4FF10C08091E1008F7E80938D
:1019C000E10080915403882339F0109254038091F0
:1019D000E2008F7E8093E200C3FF09C0109254039F
:1019E0000E94500C8091E100877F8093E100C2FF4C
:1019F00005C08091E1008B7F8093E100C5FF05C0A9
:101A00008091E1008F7D8093E100C6FF05C0809149
:101A1000E1008F7B8093E100FF91EF91CF91BF9127
:101A2000AF919F918F917F916F915F914F913F9176
:101A30002F910F900FBE0F901F9018951F920F922D
:101A40000FB60F9211246F927F928F929F92AF9256
:101A5000BF92CF92DF92EF92FF920F931F932F933B
:101A60003F934F935F936F937F938F939F93AF9326
:101A7000BF93EF93FF93CF93DF9300D000D0CDB708
:101A8000DEB77090F40070FEBDC21092E900609065
:101A9000E80063FE05C28091F20090E0E4E1F3E02B
:101AA0009F01245133402817390720F42091F10079
:101AB0002193F6CF8091E800877F8093E8008091A2
:101AC000140387FD73C0982F9F7121F0913009F4A2
:101AD0003FC06CC080911503853019F0893019F131
:101AE00067C0809116038093E3008091E80080FF37
:101AF000FCCF8091E8008E7F8093E8008091E80021
:101B000080FFFCCF8091E30080688093E3008091A8
:101B1000160390911703892B11F481E001C082E034
:101B200080938B0143C0809116038093130381112E
:101B300002C082E001C083E080938B018091E800C5
:101B400080FFFCCF8091E8008E7F8093E8002EC05C
:101B50008076803269F5809115038930D1F48091C7
:101B6000E80080FFFCCF8091E8008E7F8093E80042
:101B700088E0E4E1F3E0A3E0B3E001900D928A9500
:101B8000E1F7109202031092010381E080930003B9
:101B90000DC01F928F9381EB95E09F938F930E94CE
:101BA000BA150F900F900F900F9002C010E001C077
:101BB00011E09091140397FF53C1292F2F71809149
:101BC0001503213009F4AEC020F0223009F41EC103
:101BD00049C18630B1F0883009F018C180918B017D
:101BE00020911A0330911B03833029F0198200E001
:101BF00041E050E0AAC000E041E050E063E173E062
:101C000003C18091160390911703292F33272230A7
:101C10003105B1F02330310511F12130310509F0E2
:101C200021C1E091BE02F091BF02008101702091BC
:101C30001A0330911B036181728142E150E0E4C0DC
:101C4000E091BE02F091BF022081227040911A0300
:101C500050911B0365817681838194819FC0992770
:101C6000009709F446C0A090BE02B090BF02D50113
:101C700017962C91179730E0281739070CF449C0B4
:101C800080901A0390901B0301977C01EE0CFF1CBF
:101C90001896ED91FC911997EE0DFF1D0190F081C2
:101CA000E02DC12CD12C81919191892B21F0BFEF96
:101CB000CB1ADB0AF8CFCC0CDD1C82E08C0D8983BB
:101CC00083E08A8300E0940142E050E0BE016F5F50
:101CD0007F4F80E00E94B40B940122503109F5013E
:101CE00080859185FC01EE0DFF1D60817181A6014B
:101CF0008BC084E0898383E08A8389E08B8380E1E1
:101D00008C8320911A0330911B0300E044E050E0E3
:101D10001CC08DE995E09F938F930E94BA150F9098
:101D20000F9084C0907619F09032D9F19BC088232F
:101D300019F0863071F096C019821A8220911A0328
:101D400030911B0300E042E050E0BE016F5F7F4F27
:101D50005BC08091170390E0829709F083C0809167
:101D6000180390911903E091BE02F091BF02228501
:101D700030E02817390708F475C020812470A0913D
:101D80001A03B0911B036CE070E00E94B014E80FDE
:101D9000F91F63857485AD01858596850E94D20BF8
:101DA00045C0813009F05EC02091180330911903BD
:101DB000A091BE02B091BF021A968C911A9790E042
:101DC0008217930798F1C9016CE070E00E94B0148B
:101DD0008A0F9B1FFC01E388F488E114F10409F4E5
:101DE00041C0AE014F5F5F4F64E173E0818992892A
:101DF000F70109950097D1F020911A0330911B0348
:101E000069817A8100E0AC0180E00EC081112AC0B6
:101E100019821A8220911A0330911B0300E042E0DC
:101E200050E0BE016F5F7F4F0E94B40B11111AC0CA
:101E30008091E8008E7F8093E8008091E80080FF29
:101E400005C08091E8008E7F8093E8008091E800D3
:101E500082FFF3CF8091E8008B7F8093E80020C061
:101E60001123F1F0809117038F93809116038F93C4
:101E7000809115031F928F93809114031F928F936B
:101E80008CE795E09F938F930E94BA158091EB00A9
:101E900080628093EB000FB6F894DEBF0FBECDBF1B
:101EA00062FE36C00091F20010E0E4E1F3E0CF0101
:101EB000845193408017910720F48091F100819321
:101EC000F6CF8091E8008B7F8093E800809100033B
:101ED0008823F1F08091010390910203800F911FFC
:101EE00080349105A8F48091010390910203A80128
:101EF00064E173E080549D4F0E94AA158091010314
:101F000090910203080F191F10930203009301031D
:101F100066FE78C08091E8008F7B8093E800809116
:101F20000003882309F46EC000910103109102039D
:101F30008091030380768032A1F5209107033091D0
:101F40000803A091BE02B091BF021A968C911A9715
:101F500090E08217930708F453C0C9016CE070E069
:101F60000E94B0148A0F9B1FFC01E588F688E114DB
:101F7000F104B9F0980140EC52E063E073E081892C
:101F80009289F7010995882331F08091EB008062F6
:101F90008093EB0035C08091E8008E7F8093E8004D
:101FA0002FC01F930F938CE595E09F938F930E9412
:101FB000BA1580ECE82E82E0F82E00541D4F0F90E9
:101FC0000F900F900F9096E5C92E95E0D92EE01650
:101FD000F10671F0D7018D917D011F928F93DF92F1
:101FE000CF920E94BA150F900F900F900F90EFCFE5
:101FF00083E595E09F938F930E94BA150F900F9001
:102000001092000371FE07C049E851E061E173E0FE
:1020100081E00E94170C72FE07C047E851E06FE0B4
:1020200073E082E00E94170C73FE07C045E851E0A0
:102030006DE073E083E00E94170C74FE07C043E874
:1020400051E06BE073E084E00E94170C0F900F905A
:102050000F900F90DF91CF91FF91EF91BF91AF91D2
:102060009F918F917F916F915F914F913F912F91B0
:102070001F910F91FF90EF90DF90CF90BF90AF90A6
:102080009F908F907F906F900F900FBE0F901F903A
:102090001895209183013091840181E02F3F3F4FBB
:1020A00009F080E008959C019FB740918301509111
:1020B00084014F3F5F4FC9F7F89430930C0320938E
:1020C0000B03709384016093830184E08093E900A3
:1020D0008091F00081608093F0009FBF089520916F
:1020E00085013091860181E02F3F3F4F09F080E06C
:1020F00008959C019FB740918501509186014F3F03
:102100005F4FC9F7F89430930E0320930D0370933B
:1021100086016093850183E08093E9008091F0005F
:1021200081608093F0009FBF0895209187013091D6
:10213000880181E02F3F3F4F09F080E008959C0126
:102140009FB740918701509188014F3F5F4FC9F77A
:10215000F8943093100320930F03709388016093D9
:10216000870182E08093E9008091F0008160809394
:10217000F0009FBF08952091890130918A0181E08C
:102180002F3F3F4F09F080E008959C019FB7409199
:10219000890150918A014F3F5F4FC9F7F8943093FE
:1021A00012032093110370938A016093890181E0E7
:1021B0008093E9008091F00081608093F0009FBFE0
:1021C0000895E0EEF0E08081816080831092E2006B
:1021D000E8EDF0E080818F7780838081806280836A
:1021E00008958091BD02882321F0813051F0109232
:1021F000BD028091E0008E7F8093E00081E08093BB
:10220000BD02089520E22093D80021E02093E00051
:102210001092E2001092E3009093BF028093BE02FE
:102220008091D8008F778093D8008091D800806209
:102230008093D8001092FB001092630084E089BD67
:1022400089B5826089BD09B400FEFDCF8091D800B8
:1022500080688093D8008091D8008F7D8093D800CB
:102260000E94500C8091E1008E7F8093E10089E70D
:102270008093E200089580919603823059F486E5B8
:1022800093E0FA0191838083109296038091550325
:1022900090E0089580E090E00895CF93DF931F923F
:1022A000CDB7DEB7BA0181E080939603A90186E538
:1022B00093E029830E94AA1529812093550380E089
:1022C0000F90DF91CF910895CF93DF9320919603E4
:1022D000213029F008F442C1223029F43FC1309165
:1022E0005503311103C01092960338C1FC0190913F
:1022F0005603963009F4EEC038F5933009F4C9C09E
:1023000090F4913009F4BDC0923009F013C14EE34E
:1023100068E573E0809157030E940A058093550396
:1023200080915503D5C0943009F4C0C0953009F0B0
:1023300001C162EB74E087E593E00E948D1582EBAA
:1023400094E00E949415C4C0913F09F4E3C008F0E2
:102350008BC0973009F4C8C0903F09F0EBC02093C0
:102360005503E091550381E08E0F80935503F0E013
:10237000EA5AFC4F8FEF8083E091550381E08E0F86
:1023800080935503F0E0EA5AFC4F8EEF8083E09192
:10239000550381E08E0F80935503F0E0EA5AFC4F1D
:1023A00082E08083E091550381E08E0F8093550396
:1023B000F0E0EA5AFC4F2083E091550381E08E0F54
:1023C00080935503F0E0EA5AFC4F83E08083E0916C
:1023D000550381E08E0F80935503F0E0EA5AFC4FDD
:1023E00084E08083E091550381E08E0F8093550354
:1023F000F0E0EA5AFC4F85E08083E091550381E0EC
:102400008E0F80935503F0E0EA5AFC4F86E08083FC
:10241000E091550381E08E0F80935503F0E0EA5A76
:10242000FC4F87E08083E091550381E08E0F80931D
:102430005503F0E0EA5AFC4F9083E091550381E0A8
:102440008E0F80935503F0E0EA5AFC4F81EF8083B2
:10245000E091550381E08E0F80935503F0E0EA5A36
:10246000FC4F82EF808377C09E3F41F020F4923F83
:1024700009F448C05FC00E94030B6DC00E940A0BA4
:102480006AC068E573E0809157030E94850582E089
:1024900060C0309709F45FC00190F081E02D309763
:1024A00009F459C080915703099555C0C091630143
:1024B000D0916401BE0187E593E00E94B315FE014F
:1024C00001900020E9F7EC1BEF5FE093550343C058
:1024D0008E5F3FC0809157038430E8F50E94F5126B
:1024E0008C59809358030CC0309751F00280F381CF
:1024F000E02D309729F0609158038091570309959A
:1025000083E027C020935503309729F10680F78197
:10251000E02D07C0209355033097E9F00480F58142
:10252000E02D3097C1F087E593E009959091550330
:10253000890F0FC0309779F00084F185E02D309736
:1025400051F06091550370E040E450E086E593E07F
:1025500009958093550382E080939603DF91CF9194
:102560000895282F30E0C9016BE070E00E94B0149C
:10257000FC01E956FC4FC9016BE070E00E94B01409
:102580004BE050E0BF018A529C4F0E949D15089578
:10259000DB01282F30E0109769F0C9016BE070E093
:1025A0000E94B014FC01EA52FC4F9BE001900D9296
:1025B0009A95E1F7C9016BE070E00E94B014DC016C
:1025C000A956BC4FFC01EA52FC4F8BE001900D92E2
:1025D0008A95E1F7089590E06BE070E00E94B014F6
:1025E0008A529C4FFC011082089590E06BE070E0ED
:1025F0000E94B0148A529C4FFC0180810895CF93B1
:10260000DF93CDB7DEB763970FB6F894DEBF0FBE8A
:10261000CDBF4E012CE0820E911C88E0D4011D92AA
:102620008A95E9F70E9418030E94140B0E94D30AAE
:102630000E94570A0E94450A8091CB03843009F416
:1026400056C018F4833091F105C0803171F08032AA
:1026500009F451C085E091E00E948C0A512C312C84
:1026600071EAA72E79E0B72E70C08BEE90E00E9441
:102670008C0A8DEB91E090930E0180930D0184E51F
:1026800090E09093100180930F0183E080931401F8
:102690008BE490E090935C0180935B01512C312C92
:1026A00061EAA62E69E0B62E02E050C081ED90E00E
:1026B0000E948C0A80E591E090930E0180930D01B9
:1026C0008DE690E09093100180930F0184E0809359
:1026D00014018CE490E090935C0180935B01512C99
:1026E000312C51EAA52E59E0B52E03E02FC084E02D
:1026F00090E00E94810384EB90E00E948C0A8EE4BB
:1027000090E090935C0180935B0185E191E0909370
:102710000E0180930D018BE390E090931001809364
:102720000F0184E793E0909318018093170184E4EC
:1027300090E090931601809315013AE0532E3324D4
:10274000339441E2A42E4AE0B42E01E021E1C22EEE
:1027500022E0D22E90E080E0E92EF82E21E0A501C3
:1027600065E0C6010E941D0B97012F5F3F4FE114EA
:10277000F10409F07901C7016CE070E00E94B01427
:10278000865F9E4FFC01D28AC18A922F832FF1E18E
:10279000CF0ED11C201700F378948AE091E00E94BC
:1027A000021110E0652C712C0E944C0A81110E94CC
:1027B000030B0E94F11080E091E00E94641111303F
:1027C000D9F038F0123009F480C0133009F492C007
:1027D000EBCF809110028111C1C0552011F0C301CF
:1027E00003C08091CC0390E00E945D0A0E94840A9D
:1027F00011E08111D9CFB2C0640181E1A82E82E03D
:10280000B82E95E5E92E92E0F92E4E2C25E532E022
:10281000421AD6018D919C91892B89F4842D0E94B6
:102820005A03F60191838083009749F0DC011496E6
:10283000ED91FC911597309711F0842D0995D601F3
:10284000ED91FC91309741F10280F381E02D842DD0
:102850000995F701882351F080818F5F80838F3144
:1028600030F0D6011D921C9210821BC01082842D64
:102870000E94B112811102C0332099F0BE016F5F36
:102880007F4F842D0E94C812BE016F5F7F4FC5012C
:102890000E94480B12E005C060E070E0C5010E9494
:1028A000480BF2E0CF0ED11C2FEFE21AF20A31E111
:1028B000A30EB11C8E2DA5E5B2E08A1B801708F48B
:1028C000A4CF113009F070CF49C00E94BB108823FB
:1028D00011F013E069CF013009F466CF0E946F1048
:1028E0008111F7CF033009F05FCF0E9449108111A9
:1028F000F0CF5ACF0E94BB10882361F081E192E0B3
:102900000E94440B7C0181E192E00E94530BB701CD
:102910000E94C510013011F10E946F10882361F0F0
:1029200082E292E00E94440B7C0182E292E00E94EB
:10293000530BB7010E947910033081F40E944910B3
:10294000882361F083E392E00E94440B7C0183E3DF
:1029500092E00E94530BB7010E94531010E024CF65
:102960000024552704C0080E591F880F991F00978F
:1029700029F076956795B8F37105B9F7802D952FF5
:102980000895052E97FB1EF400940E94D81457FD5D
:1029900007D00E943D1507FC03D04EF40C94D814C8
:1029A00050954095309521953F4F4F4F5F4F08957B
:1029B00090958095709561957F4F8F4F9F4F0895AB
:1029C000EE0FFF1F0590F491E02D09946894001319
:1029D000E894A0E0B0E0EFEEF4E10C940E15EFEF18
:1029E000E7F959016A015E23550FEE08FE2C8701B5
:1029F0009B01AC019E23990F660B762FCB010E94A1
:102A00005F15CDB7DEB7EAE00C942A152F923F92FE
:102A10004F925F926F927F928F929F92AF92BF92EE
:102A2000CF92DF92EF92FF920F931F93CF93DF939A
:102A3000CDB7DEB7CA1BDB0B0FB6F894DEBF0FBEF7
:102A4000CDBF09942A88398848885F846E847D8444
:102A50008C849B84AA84B984C884DF80EE80FD8046
:102A60000C811B81AA81B981CE0FD11D0FB6F894BC
:102A7000DEBF0FBECDBFED010895A1E21A2EAA1B45
:102A8000BB1BFD010DC0AA1FBB1FEE1FFF1FA2171E
:102A9000B307E407F50720F0A21BB30BE40BF50B1B
:102AA000661F771F881F991F1A9469F760957095A4
:102AB000809590959B01AC01BD01CF010895DF93F6
:102AC000CF939F92A0E49A2E0024D001E001F00160
:102AD00016950795F794E794D794C794B794A7945D
:102AE00048F41068A20FB31FC41FD51FE61FF71FBD
:102AF000081E191E220F331F441F551F661F771F04
:102B0000881F991F9A9421F79D01AE01BF01C00152
:102B100011249F90CF91DF910895FB01DC01059076
:102B20000D920020E1F70895FC0105900020E9F7DF
:102B3000809590958E0F9F1F0895FB01DC0104C0C6
:102B40008D910190801921F441505040C8F7881BA5
:102B5000990B0895FB01DC0102C001900D924150D8
:102B60005040D8F70895FB01DC0101900D92002040
:102B7000E1F70895A0E0B0E0E0ECF5E10C94141565
:102B8000AE01495F5F4FDA016D917D91AD0102E0C9
:102B900014E0F80182819381DC0113962C91139744
:102BA000286013962C930E94E015D8011296ED919F
:102BB000FC9113972381277F2383E4E00C94301545
:102BC000ACE0B0E0E6EEF5E10C9406157C016B019B
:102BD0008A01FC0117821682838181FFBFC1CE0169
:102BE00001964C01F7019381F60193FD859193FFC6
:102BF00081916F01882309F4ADC1853239F493FDC9
:102C0000859193FF81916F01853229F4B70190E09E
:102C10000E94CA17E7CF512C312C20E02032A0F4BB
:102C20008B3269F030F4803259F0833269F42061DC
:102C30002EC08D3239F0803339F4216028C02260F3
:102C4000246025C0286023C027FD29C030ED380F3F
:102C50003A3088F426FF07C0852D6AE00E94941858
:102C6000582E530E14C0832D6AE00E949418382EFB
:102C7000330E20620CC08E3221F426FD6BC120641D
:102C800006C08C3611F4206802C0883641F4F60183
:102C900093FD859193FF81916F018111BFCF982F93
:102CA0009F7D9554933028F40C5F1F4FFFE3F98309
:102CB0000DC0833631F0833771F0833509F05BC086
:102CC00022C0F801808189830E5F1F4F4424439402
:102CD000512C540115C03801F2E06F0E711CF8013F
:102CE000A080B18026FF03C0652D70E002C06FEFA9
:102CF0007FEFC5012C870E94BF172C0183012C8513
:102D00002F77222E17C03801F2E06F0E711CF801E8
:102D1000A080B18026FF03C0652D70E002C06FEF78
:102D20007FEFC5012C870E94B4172C012C852068E9
:102D3000222E830123FC1BC0832D90E048165906E8
:102D4000B0F4B70180E290E00E94CA173A94F4CF41
:102D5000F50127FC859127FE81915F01B70190E085
:102D60000E94CA1731103A94F1E04F1A51084114E9
:102D7000510471F7E5C0843611F0893639F5F80150
:102D800027FF07C060817181828193810C5F1F4F93
:102D900008C060817181072E000C880B990B0E5FB3
:102DA0001F4F2F76722E97FF09C0909580957095D2
:102DB00061957F4F8F4F9F4F2068722E2AE030E041
:102DC000A4010E940218A82EA81844C0853729F42F
:102DD0002F7EB22E2AE030E025C0F22FF97FBF2EE1
:102DE0008F36C1F018F4883579F0B4C0803719F007
:102DF000883721F0AFC02F2F2061B22EB4FE0DC056
:102E00008B2D8460B82E09C024FF0AC09F2F9660C6
:102E1000B92E06C028E030E005C020E130E002C055
:102E200020E132E0F801B7FE07C060817181828144
:102E300093810C5F1F4F06C06081718180E090E03C
:102E40000E5F1F4FA4010E940218A82EA818FB2D88
:102E5000FF777F2E76FE0BC0372D3E7FA51450F4F2
:102E600074FE0AC072FC08C0372D3E7E05C0BA2C25
:102E7000372D03C0BA2C01C0B52C34FF0DC0FE01A4
:102E8000EA0DF11D8081803311F4397E09C032FFD3
:102E900006C0B394B39404C0832F867809F0B3942A
:102EA00033FD13C030FF06C05A2CB31418F4530C72
:102EB0005B18B32CB31468F4B70180E290E03C8750
:102EC0000E94CA17B3943C85F5CFB31410F43B1895
:102ED00001C0312C34FF12C0B70180E390E03C8781
:102EE0000E94CA173C8532FF17C031FD03C088E736
:102EF00090E002C088E590E0B7010CC0832F86788F
:102F000059F031FF02C08BE201C080E237FD8DE253
:102F1000B70190E00E94CA17A51438F4B70180E306
:102F200090E00E94CA175A94F7CFAA94F401EA0DD0
:102F3000F11D8081B70190E00E94CA17A110F5CF62
:102F4000332009F44FCEB70180E290E00E94CA1707
:102F50003A94F6CFF7018681978102C08FEF9FEFF9
:102F60002C96E2E10C942215FC0105906150704012
:102F70000110D8F7809590958E0F9F1F0895FC0142
:102F80006150704001900110D8F7809590958E0F98
:102F90009F1F08950F931F93CF93DF93FB0123810E
:102FA00021FD03C08FEF9FEF28C022FF16C046818E
:102FB0005781248135814217530744F4A081B181A0
:102FC0009D012F5F3F4F318320838C932681378172
:102FD0002F5F3F4F3783268310C0EB01092F182F37
:102FE0000084F185E02D0995892BE1F68E819F8182
:102FF00001969F838E83812F902FDF91CF911F9118
:103000000F910895FA01AA27283061F1203191F13A
:10301000E8946F936E7F6E5F7F4F8F4F9F4FAF4FE0
:10302000B1E040D0B4E03ED0670F781F891F9A1FEF
:10303000A11D680F791F8A1F911DA11D6A0F711DA7
:10304000811D911DA11D22D009F468943F91062E87
:10305000000C3019000C000C3019305D3193CEF6A5
:10306000CF010895462F4770405D4193B3E00FD0E4
:10307000C9F7F6CF462F4F70405D4A3318F0495DCF
:1030800031FD4052419302D0A9F7EACFB4E0A695B2
:103090009795879577956795BA95C9F700976105D4
:1030A000710508959B01AC010A2E0694579547952A
:1030B00037952795BA95C9F7620F731F841F951F1F
:1030C000A01D0895DC01CB01FC01F999FECF06C0DB
:1030D000F2BDE1BDF89A319600B40D9241505040D6
:1030E000B8F70895DC01A40FB51F4150504048F0D7
:1030F000CB01840F951F2E910E94831841505040A0
:10310000D0F70895262FF999FECF92BD81BDF89A88
:10311000019700B4021639F01FBA20BD0FB6F8941B
:10312000FA9AF99A0FBE0895002480FD060E660FE4
:0E31300011F08695D1F7802D0895F894FFCF09
:10313E003D0300004A03400362090651014C023B65
:10314E0000036F01023600B803100000005803564A
:10315E000315008702400000003B114D113600B8E8
:10316E000310000000580356033600B80310000089
:10317E00005803560300000000000000000000008D
:10318E000012010101000000409B284A00000301CB
:10319E00020301C40187060708000000006106CA89
:1031AE00017D02F4010000000200000000110B007E
:1031BE00000000FFFFFFFFFFFFFFFF013030303048
:1031CE003031300100000031020000002604000002
:1031DE000027080000002810000000292000000031
:1031EE002A4000000032800000002B000100000089
:1031FE0000000000322E302E31007200610070008F
:10320E0068006E00650074002000740065006300A5
:10321E0068006E006F006C006F006700690065004B
:10322E0073000000310032003300340035003600E8
:02323E0000008E
:00000001FF
