:020000040000FA
:200000000C9410050C949D050C942D050C942D050C942D050C942D050C942D050C942D05FD
:200020000C942D050C942D050C942D050C942D050C942D050C942D050C942D050C942D0530
:200040000C942D050C942D050C942D050C942D050C942D050C942D050C942D050C942D0510
:200060000C942D050C942D051D0C150C110C190C250C250C250C150C250C250C250C210CDC
:200080001D0C33623437623863352D653562662D343139372D393734642D35346334623080
:2000A00061303234633100000800000008000000040000000400000002000000010000009A
:2000C00001000000020000008000000100000000400000020000000010000010000000201A
:2000E000000000004000000020000000200000100000000010000008000000000001000156
:200100000000000000080002000000040000000400000008000000000000000000000000C5
:200120000800000008000000040000000400000002000000010000000100000002000000A1
:2001400080000001000000004000000200000000100000100000000020000000400000203C
:2001600000000000200000100000000010000008000000000001000100000000000800022B
:2001800000000000000400040000000400000000000000000000000004000000040000004B
:2001A000020000000100000001000000020000008000000100000000400000020000000076
:2001C00010000010000000002000000040000000080000002000001000000000100000084F
:2001E0000000000000010001000000000008000400000004000000020000000800000000E3
:200200000000000000000000080000000800000004000000040000000200000001000000C3
:200220000100000002000000800000010000000040000002000000001000001000000000D8
:200240002000000040000020000000002000001000000000100000080000000000010001D4
:20026000000000000008000400000004000000020000000800000000000000000000000064
:20028000080000000800000004000000040000000200000001000000010000000200000040
:2002A0008000000100000000400000020000000010000010000000200000000040000010EB
:2002C0000000000020000000200000001000000800000000000100040000000000020002BD
:2002E0000000000800000001000000040000000000000000000000000800000008000000E1
:2003000004000000040000000200000001000000010000000200000080000001000000004E
:200320004000000200000000100000100000000020000000400000100000000020000020AB
:20034000000000001000000800000000000100040000000000020002000000080000000173
:20036000000000040000000000000000000000000800000008000000040000000400000061
:20038000020000000100000001000000020000008000000100000000400000020000000094
:2003A000100000100000002000000000400000100000000020000000200000001000000855
:2003C000000000000001000400000000000200020000000000040001000000000008000007
:2003E0000000000000000000080000000800000004000000040000000200000001000000E2
:200400000100000002000000800000010000000040000002000000001000001000000000F6
:200420002000000040000010000000002000002000000000100000080000000000010004EF
:2004400000000000000200020000000000040001000000000008000000000000000000404B
:20046000000000010000002000000002000000080000000800000010000000040000000035
:200480000400001000000000100000001000000020000000400000000200000020000001A5
:2004A00000000000080000004000000004000002000000000100000080000000020000006B
:2004C00000000000000000200000000100000040000000020000001000000004000000089D
:2004E000000000080000000004000010000000001000000010000000200000004000000060
:20050000020000002000000100000000080000004000000004000002000000000100000069
:200520008000000002000000000000000000001000000001000000400000000200000000E6
:2005400004000010000000001000000800000080000000004000000020000000400000044B
:200560000000000020000000020000002000000100000000080000004000000004000002EA
:20058000000000000100000080000000020000000800000010000028000000001000005038
:2005A000940000001000000000000003000000400000000100000020000000020000000031
:2005C0000400001000000000100000080000008000000000400000002000000040000004CB
:2005E00000000000200000000200000020000001000000000800000040000000040000026A
:20060000000000000100000080000000020000000800000010000018000000001000000017
:20062000000000030000001000000008000000400000000100000008000000040000002032
:20064000000000020000000004000010000000010000000008000000400000000400000235
:200660000000000001000000800000000200000020000000400000000200000020000080F5
:20068000000000001000000400000000100000001000000010000000000000000000001006
:2006A0000000000100000040000000020000000800000004000000200000000800000000C3
:2006C0000400001000000001000000000800000040000000040000020000000001000000B6
:2006E000800000000200000020000000100000000200000010000080000000004000000472
:20070000000000002000000010000000100000000000000300000000000000000000001086
:20072000000000010000004000000002000000080000000400000020000000080000000042
:20074000040000100000000100000000080000004000000004000002000000000100000035
:200760008000000002000000200000004000000002000000200000800000000010000004E1
:20078000000000001000000010000000100000000000000000000040000000010000008068
:2007A0000000000200000010000000100000002000000000100000080000000008000004D3
:2007C0000000000004000002000000000100000100000000020000000000000000000040CF
:2007E00000000002000000800000000100000010000000100000002000000000100000081E
:200800000000000008000004000000000400000200000000010000010000000002000000C2
:20082000000000000000008000000002000000400000000100000000800000040000000071
:200840004000000800000010000000100000002000000000100000002000000040000000A0
:2008600010000000200000080000000008000004000000000400000200000000010000012C
:20088000000000000200000000000000000000008000000100000080000000020000001043
:2008A000000000100000002000000008000000002000000040000000100000002000004030
:2008C0004000000010000008000000000800000400000000040000020000000001000001AC
:2008E000000000000200000000000000000000800000000100000040000000020000001023
:2009000000000010000000200000000800000000200000004000000010000000200000000F
:20092000C000000010000008000000000800000400000000040000020000000001000001CB
:2009400000000000020000000000000000000080000000010000000080000008000000008C
:20096000400000040000004000000002000000100000001000000020000000001000000899
:20098000000000000800000400000000040000020000000001000001000000000200000041
:2009A000200000004000000010000000200000000000000000000080000000020000000025
:2009C0008000000100000000400000040000004000000008000000100000001000000020CA
:2009E0000000000010000008000000000800000400000000040000020000000001000001CB
:200A0000000000000200000020000000400000001000000020000000000000000000000044
:200A200011241FBECFEFD4E0DEBFCDBF11E0A0E0B1E0EEEDF6E202C005900D92A636B107CA
:200A4000D9F722E0A6E6B1E001C01D92A730B207E1F70E9471120C946D130C940000CF9388
:200A6000DF93CDB7DEB72B970FB6F894DEBF0FBECDBFBE016F5F7F4F0E94FD0BCE01019677
:200A80000E94280C2B960FB6F894DEBF0FBECDBFDF91CF9108950C94EE080C94210880919B
:200AA000660190916701892B69F40E94ED119093670180936601009729F0DC01ED91FC91F8
:200AC00080E0099580916601909167010895823050F190916901913041F030F19F3F19F5FD
:200AE000F894E0E0FCE109941EC088E2E8E6F1E0DF011D928A95E9F71092680110926901A4
:200B000010926A0110926B0110926C0185E0809370019093710162E671E082E791E00E9418
:200B200034138EE0089580E0089590916801923511F40C9467050C94730C1F921FB64F937D
:200B40000F931F93EF93FF937F93AF93BF93A8E6B1E00027E8E4F6E049B14470440F440F4B
:200B6000440F440F440F042B49B14470E9F31FE11A9521F049B14470D9F701C0099418E02F
:200B80001A95F1F749B14470440F440F440F440F042B49B14470E9F31FE11A9521F049B151
:200BA0004470D9F701C0099418E01A95F1F749B14470440F440F440F042B49B14470E9F364
:200BC0001FE11A9521F049B14470D9F701C0099418E01A95F1F749B14470440F440F042B67
:200BE00049B14470E9F31FE11A9521F049B14470D9F701C0099418E01A95F1F749B1447092
:200C0000440F042B49B14470E9F31FE11A9521F049B14470D9F701C0099418E01A95F1F79D
:200C200049B14470042B49B14470E9F31FE11A9521F049B14470D9F701C0099418E01A950A
:200C4000F1F749B144704695042B49B14470E9F31FE11A9521F049B14470D9F701C00994CE
:200C600018E01A95F1F749B1447046954695042B49B14470E9F30D931FE11A9521F049B16E
:200C80004470D9F701C0099415E01A95F1F761CF08E6A01B01F10F921F922F933F934F9353
:200CA0005F936F937F938F939F93AF93BF938A2F1124E5E9F5E00995082F1DD0BF91AF9163
:200CC0009F918F917F916F915F914F913F912F911F900F9000C041E0E1EAF1E04083E09A4C
:200CE000BF91AF917F91FF91EF911F910F914F911FBE1F901895E8E6F1E0702F0DD0089523
:200D00000091A0010F7F19F4E0E9F1E002C0E8E9F1E078E001D008953F937723F1F177235A
:200D200049F17A95019110E8302F312379F40000529A4FE04A95F1F75298169581F30000D5
:200D400000000000000000000000EECF529A44E04A95F1F7000052984AE04A95F1F7000024
:200D600000001695E1F2000000000000000000000000DACF0000000000000000000000004C
:200D80000000000000000000000000000000529A46E04A95F1F7000052983F9108954CE1F6
:200DA00050E060E070E08AED91E00C944B138CE1EAEDF1E0DF011D928A95E9F788E0EAE0B8
:200DC000F1E0AAEDB1E001900D928A95E1F70C94CF064CE150E060E070E08AED91E00E9407
:200DE0003B1348E050E06AE071E08AED91E00E942713009721F00E94D70681E090E0089559
:200E000081E00895CF93DF9300D000D0CDB7DEB781116CC0449A70E47A95F1F74498DE01A5
:200E2000119682E022E030E040E050E0E8E0F0E090E060E870E27A95F1F745983399962B44
:200E400070E27A95F1F7459A6695319799F7692F60956D934130510579F4692F6F706B3044
:200E600031F06E3031F0911107C083E005C088E001C089E024E030E04F5F5F4F421753074C
:200E8000ACF2823069F42230310529F09B8197FD07C080E005C090E29A95F1F73399F9CF4B
:200EA0008093F601893011F18330E9F049815A8160E070E0883049F04093F7015093F80114
:200EC0006093F9017093FA0111C02C818B8190E0A0E0B0E0DC0199278827B22B482B592BFD
:200EE0006A2B7B2BE9CF89818093F70180E00F900F900F900F90DF91CF910895CF93CFB7B9
:200F0000F8943C9A3D9A3B98439A459A44980E940207CFBFCF91089582E191E008952BE07B
:200F2000829FC0011124BC016E557E4F4BE050E08A509E4F0E942713089590E06115710556
:200F400069F02BE0289FF001299FF00D1124EA50FE4FDB0101900D922A95E1F72BE0289F7F
:200F6000F001299FF00D1124DF01AE55BE4FEA50FE4F01900D922A95E1F708952BE0829F7F
:200F8000C0011124FC01EA50FE4F108208952BE0829FC0011124FC01EA50FE4F8081089564
:200FA000082E000C990BAA0BBB0B8D339105A105B105FCF09C01AD012C533109410951098A
:200FC000AAE0B0E00E94E21229E030E040E050E00E94B612DA01C901CC96A11DB11D89363C
:200FE0009105A105B10554F188E690E0A0E0B0E00895843C2FEF9207A207B207FCF49C01C9
:20100000AD01245C3F4F4F4F5F4FAAE0B0E00E94E21229E030E040E050E00E94B612DA016A
:20102000C901CC97A109B10988392FEF9207A207B20724F488E99FEFAFEFBFEF089580E0E5
:201040000895CF93DF93EC018BE0FE01A3EBB1E001900D928A95E1F78881843009F467C0A1
:2010600028F4813041F08230C9F1B5C08830B1F18D3009F0B0C08885998586FF03C02FE18E
:2010800037E01DC087FF03C02FE936E018C083FF03C02FEA35E013C084FF03C02FE235E05B
:2010A0000EC092FF03C027E236E009C085FF03C027EC34E004C094FF8EC02FE534E0309328
:2010C000200120931F01A0E0B0E08093EE019093EF01A093F001B093F10179C089819A8140
:2010E000AB81BC8187FF03C027EB39E013C084FF03C02FE439E00EC097FF03C02FEE38E072
:2011000009C096FF03C02FE838E004C086FF63C027E238E030932201209321018093E20141
:201120009093E301A093E401B093E50150C08B819C819C0122273F70232BE1F58B819C814C
:2011400097FF03C027EE33E026C09C01207333272033310519F42FE732E01DC085FF03C0BC
:201160002FE633E018C084FF03C027EF32E013C083FF03C027E032E00EC082FF03C027E9AE
:2011800031E009C081FF03C02FE131E004C080FF22C027EA30E030931E0120931D01A0E098
:2011A000B0E08093EA019093EB01A093EC01B093ED010DC0A0E0B0E08093F2019093F30147
:2011C000A093F401B093F5010E94CF06B7CFDF91CF910C94CF06DF91CF910895EF92FF92ED
:2011E0000F931F93CF93DF93CDB7DEB72F970FB6F894DEBF0FBECDBF8091510190915201CA
:20120000A0915301B09154018C879D87AE87BF878E01045F1F4F7E0180E1E80EF11C0E159B
:201220001F0581F1F80181918F0189838230A9F048F4813011F58091EE019091EF019A8701
:2012400089871BC08330B1F08430B9F48091EA019091EB019D838C8310C08091E2019091D1
:20126000E301A091E401B091E5018A839B83AC83BD8303C08091E6018A83CE0101960E94E3
:201280002108CDCF2F960FB6F894DEBF0FBECDBFDF91CF911F910F91FF90EF900895CF9251
:2012A000DF92EF92FF920F931F93CF93DF93CDB7DEB728970FB6F894DEBF0FBECDBF7C01E7
:2012C0008B01C0902301D090240148E050E0B601CE0101960E941E1349815A816B817C81B3
:2012E000411551056105710519F1F701818190E0A0E0B0E084239523A623B7234817590721
:201300006A077B0789F4F80147815085618572858D819E81AF81B885842B952BA62BB72B2E
:2013200087839087A187B287F8E0CF0ED11CCDCF28960FB6F894DEBF0FBECDBFDF91CF9118
:201340001F910F91FF90EF90DF90CF900895CF92DF92EF92FF920F931F93CF93DF93CDB734
:20136000DEB728970FB6F894DEBF0FBECDBFFB01C0902101D0902201DC0111964D915D9191
:201380006D917C911497411551056105710519F41092B20117C04232B0E35B076105710591
:2013A00019F42CE93FEF07C0413250436105710549F424E630E03093B1012093B00121E003
:2013C0002093B2012091B201211103C08F017C0124C08091B001838346C084239523A62367
:2013E000B723481759076A077B07A1F4D80117964D915D916D917C911A978D819E81AF8161
:20140000B885842B952BA62BB72BF80187839087A187B287F8E0CF0ED11C48E050E0B60141
:20142000CE0101960E941E1349815A816B817C81F70181819281A381B4814115510561056D
:20144000710559F695FF04C08EEFD80115968C93F70181819281A381B48194FF04C08EEF15
:20146000D80116968C9328960FB6F894DEBF0FBECDBFDF91CF911F910F91FF90EF90DF9026
:20148000CF900895CF92DF92EF92FF920F931F93CF93DF93CDB7DEB728970FB6F894DEBF7E
:2014A0000FBECDBF7C018B01C0901D01D0901E0148E050E0B601CE0101960E941E134981CB
:2014C0005A816B817C81411551056105710519F1F70183819481A0E0B0E084239523A6236D
:2014E000B723481759076A077B0789F4F80147815085618572858D819E81AF81B885842B27
:20150000952BA62BB72B87839087A187B287F8E0CF0ED11CCDCFF80187819085A185B28525
:20152000A0FF02C02FE72483A1FF03C021E8F8012483A2FF03C021E8F8012383A3FF03C010
:201540002FE7F801238396FF03C02EEFF801258395FF03C08EEFF801868328960FB6F894DB
:20156000DEBF0FBECDBFDF91CF911F910F91FF90EF90DF90CF900895082E000C990B861B55
:20158000910967FD9395803891052CF480382FEF920724F008958FE790E0089580E89FEF1E
:2015A0000895CF92DF92EF92FF920F931F93CF93DF93CDB7DEB728970FB6F894DEBF0FBEEF
:2015C000CDBFC0901F01D0902001FC01208531852115310519F41092AF0113C02230F2E371
:2015E0003F0719F42CE93FEF05C02115324B49F424E630E03093AE012093AD0121E02093FF
:20160000AF012091AF01211103C08B017C0127C08091AD01FB018383BEC0F7018085918582
:20162000A0E0B0E084239523A623B723481759076A077B0789F4F8014781508561857285F6
:201640008D819E81AF81B885842B952BA62BB72B87839087A187B287F8E0CF0ED11C48E082
:2016600050E0B601CE0101960E941E1349815A816B817C81411551056105710571F6DD8070
:20168000F7018181882379F16091B501F70182810E94BC0A0E94D007F80181836091B60113
:2016A000F70183810E94BC0A0E94D007F80182836091B701F70184810E94BC0A0E94D007C8
:2016C000F80183836091B801F70185810E94BC0A0E94D007F8018483F7018681F801858382
:2016E000F70187813AC0F70182819091B501891B880F880F0E94D007F8018183F7018381DA
:201700009091B601891B880F880F0E94D007F8018283F70184819091B701891B880F880F00
:20172000880F0E94D007F8018383F70185819091B801891B880F880F880F0E94D007F801E7
:201740008483F7018681880F880F880FF8018583F7018781880F880F880FF8018683D0FE28
:201760000CC0F80187819085A185B28596FF03C08EEF858302C0F8011582D1FE0CC0F80167
:2017800087819085A185B28595FF03C08EEF868302C0F801168228960FB6F894DEBF0FBE26
:2017A000CDBFDF91CF911F910F91FF90EF90DF90CF900895DC01FB0119968C91199780FF30
:2017C00009C047815085618572854160478350876187728781FF09C04781508561857285E0
:2017E0004260478350876187728711968C911197818312968C91828308950F931F932BE08F
:20180000DB011D922A95E9F7DC01EC910E2F10E0F8013197ED30F105C0F4EC5CFF4F0C9459
:20182000D5121F910F910C944F091F910F910C94A7091F910F910C94420A1F910F910C94AD
:20184000D10A1F910F910C94DA0B1F910F910895FC012091A001978180852223F1F0909336
:201860009001806880939101818180588093920182818058809393018381805880939401C4
:2018800084818058809395018581809396018681809397011092A0011EC09093980180689B
:2018A000809399018181805880939A018281805880939B018381805880939C018481805800
:2018C00080939D01858180939E01868180939F0181E08093A0019781808590932501806882
:2018E00080932601089581E08093CF01809168018134D1F028F4882349F0803421F13BC01C
:201900008234B1F08F3FB9F51092CE018091550190915601A0915701809368019093690112
:20192000A0936A0183E008958AE0E5E2F1E003C08AE0E8E5F1E0A8E6B1E001900D928A95CE
:20194000E1F78AE0089580916A0181708093CE018091A001882321F088E0E8E9F1E003C01E
:2019600088E0E0E9F1E0A8E6B1E001900D928A95E1F788E0089580E008958091CE010895A0
:201980000C94EE088091CF01882319F01092CF0181E008958F3F2FEF920719F41092D201A5
:2019A00035C02091D201223041F1233089F1213079F0892B39F081E08093D2011092D1010B
:2019C0001092D001FB010190F081E02D09951EC02091D0013091D1012F5F3F4F3093D10147
:2019E0002093D001213A310520F082E08093D2010DC0892B99F281E00895892B39F483E02C
:201A00008093D2011092D1011092D00180E008952091D0013091D1012F5F3F4F3093D10136
:201A20002093D001213A310510F01092D201892BE1F6ECCFCF93DF93CDB7DEB72B970FB662
:201A4000F894DEBF0FBECDBF6C0184E090E00E94CD0D10E0E12CF12C560184E0A80EB11CEF
:201A6000E114F10409F47CC0D70116968D909C9017978114910431F00E94BD0C682F80E01B
:201A8000F4010995113009F042C0D7011296ED91FC91139780E00995811137C0B50181E0A4
:201AA00090E00E94CA0C882371F0BE016F5F7F4F80E00E949D07D6011296ED91FC911397FD
:201AC000CE010196099512E080E00E948F07882339F2BE016F5F7F4F80E00E949D07D601CA
:201AE0001896ED91FC911997309731F0CE010196099581111092D201D6011696ED91FC91FC
:201B00001797CE0101960995ABCF10E0DDCF1230F1F00E94EC0D8823B9F2D601ED91FC9107
:201B200009957C01009771F0DC011896ED91FC91199780E009958111C6CFB50180E090E0A1
:201B40000E94CA0C84E090E00E94CD0DBDCFF7018285882351F00E94C20C8823E1F30EC089
:201B6000113009F492CF1230A1F684E090E00E94CD0D0E94EC0D882309F4A5CF11E0A4CF82
:201B8000109280008DE0809381000895109285001092840082E086BB08952091D3013091B2
:201BA000D40128173907B9F09093D4018093D301109285001092840029E03DE3DC010E9454
:201BC000DB1228EE33E040E050E00E94B61230938900209388000895B19B04C082E086BB5E
:201BE00081E0089580E0089514B88EEF85B9259A2D98249A2C9883E087B980EC88B981E0AC
:201C00008AB988EE8BB90895399A8AE08A95F1F700C03A9A85E08A95F1F700000895399A76
:201C200085E08A95F1F700003A98329BFECF95E09A95F1F70000399885E08A95F1F7000003
:201C40008FE193E00197F1F700C00000089528E030E090E8482F492311F0399801C0399AEB
:201C600045E04A95F1F700003A98329BFECF4AE04A95F1F700C03A9A45E04A95F1F700009B
:201C800096952150310931F785E08A95F1F70000399845E04A95F1F700003A98329BFECFB1
:201CA00085E08A95F1F70000319B0BC045E04A95F1F700003A9A85E08A95F1F7000080E095
:201CC000089545E04A95F1F700003A9A85E08A95F1F7000081E008958093D50108953A98E5
:201CE0003998429841983A98329BFECF399808950895EF92FF921F93CF93DF937C01162F8F
:201D00000E94040E8091D5010E94270E882369F0E701E10EF11C10E0CE15DF0539F089916F
:201D20000E94270E182F8111F7CF10E00E940F0E812FDF91CF911F91FF90EF9008951F93F1
:201D4000CF93DF93182FC92FD62F0E94040E8091D50181600E94270E882351F0E12FFC2FF1
:201D600080E090E0C0E02D2F30E0215031093AC00E940F0E80E042C0AAE0AA95F1F700C050
:201D80003A98329BFECFA5E0AA95F1F700003199452BA5E0AA95F1F700003A9AAAE0AA95A8
:201DA000F1F700C056956150710931F7419345E04A95F1F7000082179307DCF03998A5E028
:201DC000AA95F1F700003A98329BFECF4AE04A95F1F700C03A9AA5E0AA95F1F7000039986E
:201DE0000196C1E08D1738F468E070E050E840E0C3CF399AE4CF0E940F0E8C2FDF91CF9189
:201E00001F9108950C946F0EAF92BF92CF92DF92EF92FF920F931F93CF93DF93EC015B0171
:201E20006A0179018A81E881F9810190F081E02D880F0995A114B10421F4E114F10489F4A5
:201E400026C0C114D104C9F3E881F9810280F381E02D6A2DC60109958111EFCF8FEF9FEFF8
:201E600018C00115110599F0E881F9810480F581E02D6E2DC801099521E030E0882311F02C
:201E800020E030E088279927821B930B02C080E090E0DF91CF911F910F91FF90EF90DF9059
:201EA000CF90BF90AF9008950F931F93CF93DF9300D0CDB7DEB769834A8300E010E020E0FE
:201EC00030E0AE014F5F5F4F62E070E00E94040FEFE3F6E03197F1F700C000000F900F904A
:201EE000DF91CF911F910F910895811102C00C94020F0895AF92BF92CF92DF92EF92FF920D
:201F00000F931F93CF93DF931F92CDB7DEB77C0169835A01690100E010E020E030E0AE0112
:201F20004F5F5F4F61E070E00E94040F811118C08FE396E00197F1F700C000008501960150
:201F400040E050E060E070E0C7010E94040F811107C08FE396E00197F1F700C0000080E043
:201F60000F90DF91CF911F910F91FF90EF90DF90CF90BF90AF900895AF92BF92CF92DF9237
:201F8000EF92FF920F931F93CF93DF93CDB7DEB72B970FB6F894DEBF0FBECDBF823008F03B
:201FA000A9C0AFE5BAEE1197F1F700C00000E82EF12C6701CC0CDD1C86010E0D1F1D005C86
:201FC0001E4F45E560EFC8010E94540F811192C040E06BEFC8010E94540F81118BC021E043
:201FE00030E0AE01455F5F4F6FEFC8010E947A0F811180C021E030E0AE01465F5F4F6AEF40
:20200000C8010E947A0F811175C0F601E852FE4F8A8590E0982F88272B85822B918380831E
:20202000C70189529E4F5C01DC011C92BFEF23ED80E3B15020408040E1F700C0000080814D
:2020400091819E7F019709F04FC021E030E0AE01475F5F4F6EEFC8010E947A0F882311F0A0
:20206000D12C40C08985833019F4DD24D3943AC028E030E0AE014F5F5F4F60E0C8010E9465
:202080007A0F8111EDCF8F8180FDEACF43E06EEFC8010E94540F8111E3CFAFE1BEE41197B7
:2020A000F1F700C0000028E030E0AE014F5F5F4F60E0C8010E947A0F8111D2CF28E030E0D6
:2020C000AE014F5F5F4F60E0C8010E947A0FD82E8111C6CF8F8180FDC8CF49856EEFC8017C
:2020E0000E94540FF501D082F701EA52FE4F81E0808301C080E02B960FB6F894DEBF0FBE11
:20210000CDBFDF91CF911F910F91FF90EF90DF90CF90BF90AF900895CF92DF92EF92FF9228
:202120000F931F93CF93DF93CDB7DEB761970FB6F894DEBF0FBECDBF823010F08FEF3EC1F0
:20214000E82EF12C198A6701CC0CDD1CC6018E0D9F1D8E010F5F1F4F28E030E0AE014F5E73
:202160005F4F61E070E0805C9E4F0E94040F8111E5CFF601E852FE4F80819181298183306E
:20218000910509F09EC08330910529F08130914071F040E001C041E08BE08E9DF0018F9D58
:2021A000F00D1124EA50FE4F81E080830BC08BE08E9DF0018F9DF00D1124EA50FE4F8DE05E
:2021C000808340E0D701AA52BE4F8C91F701E952FE4F882341F08D81811105C08E8181117C
:2021E00002C081E080831C9250819A818B813C81552309F14BE04E9DF0014F9DF00D1124BF
:20220000EA50FE4F20582283905894838058838380E8830F85838D8186838E8187838F81FB
:202220009885982789279827809590959187808781E0818344C05BE05E9DF0015F9DF00D71
:202240001124EA50FE4F522F5F7350525283592F5F7350525383207C269526952695907C4D
:20226000929596959770922B282F221F2227221F922B90519483982F9F71905195838076AB
:2022800086958695932F929596959770892B8683832F8F7187838D819E8198278927982719
:2022A0008095909591878087411114828BE08E9DF0018F9DF00D1124EA50FE4F118280E07E
:2022C0007DC08430910508F05EC08130910509F45ACF8BE08E9DF0018F9DF00D1124EA50D5
:2022E000FE4F8CE08083205821838A81805882834E81842F8C7090E09595879595958795A4
:202300002B8154E0259F90011124822B932B925094838383842F807390E034E09595879579
:202320003A95E1F72C8154E0259F90011124822B932B9250968385838D8124E0829FC00129
:202340001124242F2295269526952370822B92509087878340FF03C01286118604C081E02F
:2023600090E09287818741FDAACF8BE08E9DF0018F9DF00D1124EA50FE4F818592858260AA
:20238000928781879CCF8131910591F48BE08E9DF0018F9DF00D1124EA50FE4F8EE0808307
:2023A00030E020953095287733273283218387CF813051E0950709F08CCFE5CE61960FB6AA
:2023C000F894DEBF0FBECDBFDF91CF911F910F91FF90EF90DF90CF90089585E391E008956C
:2023E000F8942C98EFE9F1E03197F1F700C0000080FF02C02C9A01C02C988695EFE9F1E024
:202400003197F1F700C0000080FF02C02C9A01C02C988695EFE9F1E03197F1F700C000008C
:2024200080FF02C02C9A01C02C988695EFE9F1E03197F1F700C0000080FF02C02C9A01C014
:202440002C988695EFE9F1E03197F1F700C0000080FF02C02C9A01C02C988695EFE9F1E034
:202460003197F1F700C0000080FF02C02C9A01C02C988695EFE9F1E03197F1F700C000002C
:2024800080FF02C02C9A01C02C98EFE9F1E03197F1F700C00000869511F02C9A01C02C9830
:2024A0008FE991E00197F1F700C000002C9AEFE9F1E03197F1F700C000002C9A8FE991E065
:2024C0000197F1F700C00000789480E090E00895249A2C9A83E491E09093040280930302A6
:2024E0000895CF93DF93CDB7DEB72B970FB6F894DEBF0FBECDBF8E010F5F1F4F8BE0F8017A
:2025000011928A95E9F70FB6F894A89580916000886180936000109260000FBE0E94F40D4C
:202520000E94681282E08093690081E08DBB0E94E9060E94C00D0E94C00CC8010E94280CEB
:2025400085E02C9AEFE8F1E03197F1F700C000002C98EFECF7E03197F1F700C00000815081
:2025600081F7789480E091E00E941A0D052E97FB1EF400940E94CD1257FD07D00E94ED1285
:2025800007FC03D04EF40C94CD1250954095309521953F4F4F4F5F4F0895909580957095B9
:2025A00061957F4F8F4F9F4F0895EE0FFF1F0590F491E02D09940E940F13B7FF0895821B5B
:2025C000930B08950E940F13A59F900DB49F900DA49F800D911D11240895A1E21A2EAA1B4B
:2025E000BB1BFD010DC0AA1FBB1FEE1FFF1FA217B307E407F50720F0A21BB30BE40BF50B98
:20260000661F771F881F991F1A9469F760957095809590959B01AC01BD01CF010895A29F49
:20262000B001B39FC001A39F700D811D1124911DB29F700D811D1124911D0895FB01DC01D1
:2026400002C005900D9241505040D8F70895FB01DC0104C08D910190801921F441505040DC
:20266000C8F7881B990B0895FB01DC0101900D920020E1F70895DC01CB01FC01F999FECF14
:2026800006C0F2BDE1BDF89A319600B40D9241505040B8F70895DC01A40FB51F4150504089
:2026A00048F0CB01840F951F2E910E945C1341505040D0F70895262FF999FECF92BD81BD39
:2026C000F89A019700B4021639F01FBA20BD0FB6F894FA9AF99A0FBE0895F894FFCF4F0595
:2026E0004D054B052F05000058324743576969327E07020700000000000700E7031F07B739
:2027000009DF07008080808080808000006C0E790E9F0E750F8C1000000000BC0F002F0181
:20272000520000000200000000F0110000000002030401090003008082827C88242400015D
:04274000312E360000
:0437FC0012345678B5
:203800000C94341C0C94531C0C94511C0C94511C0C94511C0C94511C0C94511C0C94511C5B
:203820000C94511C0C94511C0C94511C0C94511C0C94511C0C94511C0C94511C0C94511C20
:203840000C94511C0C94511C0C94511C0C94511C0C94511C0C94511C0C94511C0C94511C00
:203860000C94511C0C94511C11241FBECFEFD4E0DEBFCDBF11E0A0E0B1E0E6E8FEE302C00E
:2038800005900D92A430B107D9F721E0A4E0B1E001C01D92A13BB207E1F70E947F1E0C94C6
:2038A000411F0C94001C1F921FB64F930F931F93EF93FF937F93AF93BF93A4E0B1E000273A
:2038C000EEEFFCE149B14470440F440F440F440F440F042B49B14470E9F31AE01A9521F06E
:2038E00049B14470D9F701C0099416E01A95F1F749B14470440F440F440F440F042B49B13C
:203900004470E9F31AE01A9521F049B14470D9F701C0099416E01A95F1F749B14470440FF3
:20392000440F440F042B49B14470E9F31AE01A9521F049B14470D9F701C0099416E01A95ED
:20394000F1F749B14470440F440F042B49B14470E9F31AE01A9521F049B14470D9F701C079
:20396000099416E01A95F1F749B14470440F042B49B14470E9F31AE01A9521F049B14470FB
:20398000D9F701C0099416E01A95F1F749B14470042B49B14470E9F31AE01A9521F049B151
:2039A0004470D9F701C0099416E01A95F1F749B144704695042B49B14470E9F31AE01A95AD
:2039C00021F049B14470D9F701C0099416E01A95F1F749B1447046954695042B49B144702C
:2039E000E9F30D931AE01A9521F049B14470D9F701C0099415E01A95F1F761CF04E0A01B5A
:203A000011F10F921F922F933F934F935F936F937F938F939F93AF93BF93FF938A2F11246E
:203A2000E8E8FDE10995082FFF91BF91AF919F918F917F916F915F914F913F912F911F9074
:203A40000F900DD000C0E09ABF91AF917F91FF91EF911F910F914F911FBE1F901895E4E0D3
:203A6000F1E0702F01D008953F937723D9F1772359F17A95019110E8302F312381F400008D
:203A8000529A4FE04A95F1F700005298169579F3000000000000000000000000EDCF529A9B
:203AA00044E04A95F1F70000000052984AE04A95F1F7000000001695D1F2000000000000D2
:203AC000000000000000D8CF00000000000000000000000000000000529A44E04A95F1F768
:203AE000000052983F91089514B88EEF85B980E387B987EE88B981E08AB988EE8BB9089594
:203B0000F89481E085BF15BEE0E0F0E009940895CF93DF938130D9F480910401813071F05D
:203B200018F08F3F09F0DEC085E0809304011092050182E08093060183E0D5C010920401D8
:203B4000109205011092060110920701A7C0823008F4C8C090910401923509F0C3C0909143
:203B60000501913F09F43EC038F49130B9F008F4BAC0903F79F1B6C0993F09F498C020F478
:203B8000923F09F446C0AEC09E3F09F499C09F3F09F0A8C081E080932C01A1C088E2E4E041
:203BA000F1E0DF011D928A95E9F79093040180E88093050188E3809306011092070185E069
:203BC00080930C0160E071E08EE091E00E943A1F8EE089C08091B001811176C081E08093A5
:203BE000B0017DC0809106014091070150E0582B60E070E0E5E0440F551F661F771FEA957D
:203C0000D1F720E230E084E091E00E94761E80E26AC020910601809107019091B0019111EE
:203C200053C090E0922BEC01C370DD27DE0125E0AA0FBB1F2A95E1F7A05DBE4F20E2E8E03E
:203C4000F1E001900D922A95E1F7AC0160E070E032E076956795579547953A95D1F7509334
:203C60002F0140932E0120912E0130912F013695322F22273795279530932F0120932E016F
:203C800010920401239761F421E020930501909306018093070182E08093B00184E023C002
:203CA000109205019093060180930701F7CF9091B00181E0911101C080E0809304010DC076
:203CC0008091B001882321F081E0809304010BC01092040183E08093B00181E004C010928D
:203CE000040101C080E0DF91CF910895FA01DC0102C005900D9221503040D8F70895CF93B4
:203D0000DF9300D000D0CDB7DEB70E94741D81E085BF92E095BF909369008DBBF89424E076
:203D200030E040E050E0BA01CE0101960E94761E89818F3F61F48A818F3F49F48B8111E08C
:203D40008F3F31F48C818F3F19F410E001C011E024E030E04CEF57E360E070E0CE01019667
:203D60000E94761E8981823151F48A81843339F48B81863521F48C81883709F477C080E0E0
:203D800080932D0178942FEF84E39CE0215080409040E1F700C0000080912D01882331F031
:203DA00080912C01811102C00E94801D13E001E085E0F82E91E1E92E8091B001813051F096
:203DC00008F451C08230E9F0833009F04AC00E94801D47C08FB7F894E0E0F0E0F999FECF8E
:203DE00007B600FCFDCF10935700E89507B600FCFDCFE058FF4FE11528E3F20779F78FBF04
:203E000030C04FB7F894F999FECF07B600FCFDCF80E090E0FC01E05DFE4F2081FC01EF5CFC
:203E2000FE4F5081E0912E01F0912F01E80FF91F30E0352B090100935700E8951124029656
:203E40008038910539F7E0912E01F0912F01F0925700E89507B600FCFDCFE0925700E89572
:203E60004FBF1092B00180912D01A6CF81E0111187CF85CFFB01DC0101900D920020E1F7FF
:0A3E80000895F894FFCF312E3100B1
:0400000500003800BF
:00000001FF
