:100000000C947F020C949C020C949C020C949C0215
:100010000C949C020C949C020C949C020C949C02E8
:100020000C949C020C949C020C949C020C94381925
:100030000C949F190C949C020C949C020C949C02AE
:100040000C949C020C949C020C949C020C949C02B8
:100050000C949C020C949C020C949C020C949C02A8
:100060000C949C020C949C020C949C020C949C0298
:100070000C949C02575553424D6F7465206D6F75FB
:1000800073652076322E3200322D706C6179657284
:1000900020575553424D6F74652076322E32003111
:1000A0002D706C6179657220575553424D6F7465A0
:1000B0002076322E320009023B000201008019092D
:1000C0000400000103000000092101010001224495
:1000D000000705810310000109040100010300006D
:1000E00000092101010001221500070582034000DB
:1000F00001090254000301008019090400000103F2
:10010000000000092101010001223E0007058103D2
:100110001000010904010001030000000921010190
:100120000001223E000705820310000109040200BD
:10013000010300000009210101000122150007054B
:10014000830340000109023B0002010080190904F9
:1001500000000103000000092101010001223E000E
:1001600007058103100001090401000103000000DC
:100170000921010100012215000705820340000149
:100180000600FF0901A101150026FF007508953F33
:100190000901B100C005010902A1010901A1008501
:1001A000010509190129041500250195047501812E
:1001B0000295017504810305010930093115812576
:1001C0007F7508950281061581257F350045000958
:1001D00038750895018106C0C005010905A101090E
:1001E00001A1008501050175109506150026007D09
:1001F0000930093109330934093509328102C0A1B6
:1002000000050915002501750195101901291075C2
:100210000195108102C0C0100000000100000040E4
:1002200000000002000000080000000400000020A0
:100230000000000800000080000000100000000026
:10024000400000200000000004000040000000000A
:100250001000008000000001000000000100000408
:10026000000000000200000200000000400000004A
:10027000800000008000000000000000000000205E
:10028000000000010000004000000002000000002B
:10029000100000040000000004000008000000102E
:1002A0000000001000000008000000200000000016
:1002B00020000040000000000200008000000080DC
:1002C0000000000001000004000000000200000027
:1002D0000800000004000000010000000800000108
:1002E000000000001000000040000000200000029C
:1002F00000000000400000008000000080000000BE
:1003000000000000000000010000000100000002E9
:1003100000000002000000008000000080000000DB
:10032000010000004000000000000000000000404C
:10033000000000010000002000000002000000108A
:100340000000000400000008000000080000000099
:10035000000000000000001000000001000000404C
:10036000000000020000002000000004000000085F
:1003700000000008000000800000001000000004E1
:100380000000002000000000040000400000000009
:1003900010000080000000000000000000000008C5
:1003A00000000001000000002000000200000080AA
:1003B0000000000400000020000000080000000011
:1003C00002000010000000040000002000000010E7
:1003D000000000400000000010000080000000004D
:1003E00004000000010000000000000000000030D8
:1003F0000100000031020000002604000000270870
:10040000000000281000000029200000002A400001
:10041000000032800000002B000100002C000800CA
:1004200000230080000015001000001600200000CE
:100430002D004000000000000000653765383539A8
:1004400066362D616431622D313165372D39653362
:10045000392D303031626663613363353933000DD5
:100460000A00253032582000556E68616E646C6554
:100470006420636F6E74726F6C207772697465208C
:100480005B25645D203A2000743A20253032782CB8
:100490002072713A203078253032782C2076616CC9
:1004A0003A20253034780D0A00556E6B6E6F776EEA
:1004B00020737472696E672069640D0A00556E6856
:1004C000616E646C656420636C6173732062526555
:1004D0007175657374203078253032780A00434690
:1004E00047204550206661696C0D0A00496E7661AF
:1004F0006C69642065702073697A650D0A001124A7
:100500001FBECFEFD4E0DEBFCDBF11E0A0E0B1E071
:10051000EEEAF9E402C005900D92A83FB107D9F7C1
:1005200023E0A8EFB1E001C01D92A538B207E1F7C2
:100530000E94641F0C94D5240C94000015B88FEF12
:1005400084B98CEF87B918B81BB880E78AB9E1E69F
:10055000F0E080E8808310821092640010926500C1
:100560000FB6F894A8958091600088618093600030
:10057000109260000FBE0895809306020895FC015A
:1005800090916003903151F028F4992379F09930DB
:1005900091F404C0903251F0913269F489E0808383
:1005A00080E1818381E2828383E00895108280E28A
:1005B000818382E0089580E008956230710544F0FF
:1005C000FC0120812D3F11F40C9472140C942A1616
:1005D00080E008950C942F180C941518CF93DF9396
:1005E000EC01188281E0898380916003805282301F
:1005F00060F487E28A8386E28B8385E18C8386E1DF
:100600008D838DE28E8387E01CC080E18A8381E345
:100610008B8387E28C8388E28D8389E28E838AE2F2
:100620008F8382E3888785E1898786E18A8780E0F6
:100630000E948414882321F087E18B878CE001C01D
:100640008BE0DF91CF9108951F93CF93DF93182F05
:100650000E942716EC01E885F985812F09958823EA
:1006600011F0CE0102C080E090E0DF91CF911F91A8
:100670000895AAE5B3E0E8EFF1E08D9190E0819371
:10068000919382E0E430F807C1F7109205021092CE
:10069000040288EF91E0909396018093950108956C
:1006A0008F929F92AF92BF92CF92DF92EF92FF9282
:1006B0000F931F93C12CD12C7601FC01059115914C
:1006C00025913491FC01349685909590A590B49035
:1006D000011511052105310599F081149104A1043A
:1006E000B10471F00423152326233723012B022B99
:1006F000032B21F0C828D928EA28FB280896DDCF4B
:10070000C701B6011F910F91FF90EF90DF90CF903E
:10071000BF90AF909F908F9008958233B1F038F4DE
:10072000803369F08133C1F48FE792E013C08433E2
:1007300049F070F0853381F48FE993E00BC087E0D6
:1007400093E008C087E192E005C08FE293E002C029
:1007500087E593E00C94500360E070E0CB010895CE
:1007600060E070E0CB01089580E008950F931F933F
:10077000CF93DF9300D000D000D0CDB7DEB786E0B6
:10078000EEEAF1E0DE01119601900D928A95E1F713
:1007900086E0FE013196AAE5B3E001900D928A95BC
:1007A000E1F708E513E085E0F801818782870E9480
:1007B000B403F80180870E94B003F801638774874F
:1007C0008587968726960FB6F894DEBF0FBECDBFFD
:1007D000DF91CF911F910F910895CF92DF92EF9209
:1007E000FF920F931F93DB018131F9F030F48130D8
:1007F00081F060F08031B1F006C08731E1F08333E1
:10080000F1F08431A9F02FEE33E033C08091600322
:1008100014C086E0EAE5F3E001900D928A95E1F7D5
:1008200086E046C08091610308C08091620305C0E4
:100830008091660302C0809165038C9338C000915B
:100840006303109164032091650330916603B9013D
:10085000A80189E076956795579547958A95D1F7D0
:10086000417012FD42604C9322C0891761F02B5FEA
:100870003F4FF90194913196C590D590E590F49051
:100880009111F3CF14C040916303509164036091C0
:100890006503709166034C215D216E217F2191E0FB
:1008A000452B462B472B09F490E09C93E0CF81E049
:1008B0001F910F91FF90EF90DF90CF9008956115F9
:1008C000710509F4B1C0DB01813121F130F48130CF
:1008D00091F068F08031D1F007C0873199F183330E
:1008E00009F44CC08431D1F02FEE33E076C08C9106
:1008F0008093600395C086E0FB01AAE5B3E0019018
:100900000D928A95E1F70E948B178AC08C91809393
:10091000610386C08C918093620382C0409163031F
:10092000509164036091650370916603772740934B
:1009300063035093640360936503709366038C9123
:10094000782B13C040916303509164036091650359
:10095000709166036627409363035093640360932A
:100960006503709366038C91682B409363035093E7
:100970006403609365037093660352C02C91233027
:1009800008F022E08091630390916403A0916503D5
:10099000B0916603997F20FD9260809363039093EA
:1009A0006403A0936503B093660321FF39C080916F
:1009B000630390916403A0916503B0916603946012
:1009C0008093630390936403A0936503B0936603DD
:1009D00027C0891761F02B5F3F4FF9019491319641
:1009E00045915591659174919111F3CF1DC02C9152
:1009F0008091630390916403A0916503B0916603B5
:100A0000222329F0482B592B6A2B7B2BAECF409504
:100A1000509560957095482359236A237B23A5CF71
:100A20000E948B1781E0089580E008956817790788
:100A30001CF4861B970B089522273327261B370BA0
:100A4000821793071CF4860F971F089580E090E0AB
:100A500008950F931F93CF93DF931F92CDB7DEB707
:100A60008C0141E0BE016F5F7F4F84E10E94ED0386
:100A700039813323C9F0E1E4F2E081E090E0A8019C
:100A800048235923452B11F0308307C020812223AE
:100A900021F0082B192B21502083880F991F3196A4
:100AA00022E0E135F20759F7C8010F90DF91CF91AD
:100AB0001F910F9108954F925F926F927F92AF9224
:100AC000BF92CF92DF92EF92FF920F931F93CF933B
:100AD000DF93CDB7DEB72C970FB6F894DEBF0FBE0D
:100AE000CDBFDA016C93FA019A01245F3F4F50E8C1
:100AF0004EE35183428332962E173F07D1F71D965E
:100B00001C921D971E961C921E97009709F492C482
:100B10008D01FC0180818E3009F47BC148F48C305A
:100B200009F4A0C008F092C0813009F48FC082C4DB
:100B30008C3109F474C118F48B3141F07BC48E31CF
:100B400009F4D0C18F3109F413C274C4A581B681F0
:100B50002281022E000C330B203E4FEF340714F499
:100B600020EE3FEF2132310514F020E230E08181A8
:100B7000082E000C990B803E6FEF960714F480EE60
:100B80009FEF8132910514F080E290E064EF71E014
:100B90000E9408217C0198878F83C9016CE07EEF59
:100BA0000E9408219C019E838D838481863020F0E1
:100BB0008C3118F08BE101C086E090E06CED75E0BF
:100BC0000E940821885293429A838983838190E00E
:100BD0004097409163035091640360916503709165
:100BE000660354FF05C03195219531093E832D835D
:100BF00055FF05C0F194E194F108F886EF824F812A
:100C000058854058514C58874F832D813E8120583C
:100C1000314C3E832D8368E17CEF0E94082180588F
:100C2000914C9C838B83F801418398859283238325
:100C30009E81948387838C818087898183878A8141
:100C40008487AD0160E070E084E388C1A085B18550
:100C5000718167814281238194818581E68171114F
:100C600095C348C21E821D821C821B821A82198271
:100C70008181082E000C990B8C392FEF920714F408
:100C80008CE99FEF8536910514F084E690E09A8711
:100C900089872281022E000C330B2C394FEF340749
:100CA00014F42CE93FEF2536310514F024E630E04A
:100CB00038872F83C0906303D0906403E09065036E
:100CC000F0906603C4FE10C04381548141156EEF5D
:100CD000560714F440E05EEF4130A2E05A0714F0EA
:100CE00040E052E05E834D83C5FE10C045815681D1
:100CF0004115BEEF5B0714F440E05EEF413062E067
:100D0000560714F040E052E05C834B83C6FE10C0EF
:100D1000478150854115AEEF5A0714F440E05EEF6D
:100D20004130B2E05B0714F040E052E05A8349835F
:100D3000D4FE05C031952195310938872F83D5FE22
:100D400005C09195819591099A8789878F819885AA
:100D500060E67FEF0E9408216C018D819E816EE12B
:100D600070E00E9408217C018B819C816EE170E023
:100D70000E940821DC0189819A816EE170E00E9465
:100D800008219C0189859A8560EA70E00E9408210B
:100D90008058914C9A87898740E8C41A41ECD40A5C
:100DA000D886CF82B7016058714C7E836D83AD01C8
:100DB0004058514C5C834B832058314C3A832983F3
:100DC000D80111968C9311978A8512968C9312975D
:100DD0001396CC921397888514968C931497159636
:100DE0006C9315978E8116968C93169717964C9345
:100DF00017978C8118968C93189719962C9319979E
:100E00008A811A968C934185528560E070E080E378
:100E100068C14181528160E070E082E39FC0A1819E
:100E2000B281AF3F2FE0B20739F480E89EE39E83A2
:100E30008D839C838B8320C0838194818D5F9240BE
:100E400067E170E00E9408219C01CD018D5E934016
:100E500061E170E00E9408218058914C9E838D834F
:100E60002058314C3C832B83858190E06EE370E009
:100E70000E9408218058914C9A8389838D81D801E2
:100E800011968C9311978E8112968C9312978B8169
:100E900013968C9313978C8114968C931497898155
:100EA00015968C9315978A8116968C931697868142
:100EB00082FF06C01D968C911D9781601D968C93B4
:100EC000868181FF07C0D8011D968C911D97826095
:100ED0001D968C93868180FFADC2F8018585846064
:100EE0008587A8C2A381B4818281082E000C990B4A
:100EF000803E2FEF920714F480EE9FEF8132910530
:100F000014F080E290E06CE07EEF0E9408219C01EA
:100F10008181082E000C990B803E4FEF940714F44A
:100F200080EE9FEF8132910514F080E290E064EF53
:100F300071E00E9408218058914C9C838B8320583B
:100F4000314C3A832983F80181838C818283238306
:100F50008A818483AD0160E070E083E30E948D03A9
:100F6000CB010E942905D8011D968C93F801C0C0C1
:100F7000278130858281082E000C990B803E4FEF2F
:100F8000940714F480EE9FEF8132910514F080E213
:100F900090E06CE07EEF0E940821DC018181082E48
:100FA000000C990B803E6FEF960714F480EE9FEFD4
:100FB0008132910514F080E290E064EF71E00E94CC
:100FC00008218058914C9C878B87A058B14CBA87D8
:100FD000A9878581082E000C990B803EAFEF9A07F8
:100FE00014F480EE9FEF8132910514F080E290E0DE
:100FF00064EF71E00E9408218058914C98878F839C
:101000008681082E000C990B803EBFEF9B0714F4DD
:1010100080EE9FEF8132910514F080E290E064EF62
:1010200071E00E9408218058914C9E838D838481B9
:10103000082E000C990B803F4FEF940714F480EFBB
:101040009FEF8131910514F080E190E060ED77E051
:101050000E9408218058914C9C838B83838190E06F
:101060008032910514F08FE190E0409768EE73E0D4
:101070000E9408218058914C9A8389839B85D801CE
:1010800011969C9311979C8512969C931297998523
:1010900013969C9313979A8514969C9314979F810B
:1010A00015969C931597988516969C9316979D81F7
:1010B00017969C9317979E8118969C9318979B81DF
:1010C00019969C9319979C811A969C931A971B9634
:1010D0008C931B978A811C968C93A90160E070E029
:1010E00085E30E948D03CB010E942905F8018587C5
:1010F0009687A0C1042E000C550B403EFFEF5F0702
:1011000014F440EE5FEF4132510514F040E250E03C
:101110005C874B87022E000C330B203E4FEF3407C9
:1011200014F420EE3FEF2132310514F020E230E0DC
:101130003A872987292F990F330B203F9FEF3907D3
:1011400014F420EF3FEF2131310514F020E130E0BD
:1011500038872F83082E000C990B803FFFEF9F07E5
:1011600014F480EF9FEF8131910514F080E190E05D
:101170009E838D83F0E0E132F10514F0E0E2F0E0CF
:10118000FC83EB83862F90E08132910514F080E29E
:1011900090E09A83898380E290E0409063035090CE
:1011A0006403609065037090660347FE04C01C8270
:1011B0001B821A82198241FE19C0A0FF03C09A87C0
:1011C000898708C0B6FF06C022273327281B390BA2
:1011D0003A872987A1FF04C091958195910902C0A2
:1011E000B7FF02C09C878B87AC7FBF738B859C85C4
:1011F000A984BA84CF80D884ED80FE80EB81FC8105
:1012000029813A81772331F160EA70E00E94082158
:101210009C878B87C50160E67FEF0E9408219A8733
:101220008987C60160EA70E00E94082198878F8351
:10123000C70160E67FEF0E9408219E838D83CF0166
:101240006EE370E00E9408219C838B83C9016EE3EA
:1012500070E025C064EF71E00E9408219C878B87B5
:10126000C5016CE07EEF0E9408219A878987C6013C
:1012700068EE73E00E94082198878F83C70168E1B8
:101280007CEF0E9408219E838D83CF0164EF71E083
:101290000E9408219C838B83C90164EF71E00E9446
:1012A00008219A83898343FE10C02B853C8589855C
:1012B0009A854F8158855C874B874D815E815A871F
:1012C000498738872F839E838D8354FE0EC089857E
:1012D0009A859195819591099A8789878D819E81BB
:1012E0009195819591099E838D8355FE0EC08B85C6
:1012F0009C859195819591099C878B878F81988595
:1013000091958195910998878F83EB84FC84F0E80F
:10131000EF1AF1ECFF0AFC86EB86E985FA856F018E
:1013200020E8C21A21ECD20ADA86C9866F81788554
:101330006058714C78876F834D815E814058514C65
:101340005E834D8389819A818058914C9A838983E9
:101350002B813C812058314C3C832B83F801E18266
:101360009C859283C3829A859483658398859683AE
:1013700047839E81908721879C81928783878A817A
:101380008487AD0160E070E081E3E8CD042E000CBD
:10139000550B4C393FEF530714F44CE95FEF4536DA
:1013A000510514F044E650E05C874B87022E000C98
:1013B000330B2C394FEF340714F42CE93FEF25366B
:1013C000310514F024E630E03A872987292F990F58
:1013D000330B2C399FEF390714F42CE93FEF2536F6
:1013E000310514F024E630E038872F83082E000CF6
:1013F000990B8C39FFEF9F0714F48CE99FEF85362A
:10140000910514F084E690E09E838D83F0E0EF3F39
:10141000F10511F4EEEFF0E0FC83EB83862F90E012
:101420008F3F910511F48EEF90E09A83898384E6D3
:1014300090E0B3CE2C960FB6F894DEBF0FBECDBFB2
:10144000DF91CF911F910F91FF90EF90DF90CF90A0
:10145000BF90AF907F906F905F904F9008954F92A4
:101460005F926F927F928F929F92AF92BF92CF9234
:10147000DF92EF92FF920F931F93CF93DF93EA01D6
:10148000688319821A821B821C82009709F448C360
:101490008C01DC018C918D3009F4CCC038F48130A2
:1014A00009F4C8C08C3009F4BEC13AC38C3109F4C8
:1014B00062C28C3209F499C28B3109F031C3F80150
:1014C000C580D6807601F0E8EF22FF24D80111967E
:1014D0008C91082E000C990B803EBFEF9B0714F4F3
:1014E00080EE9FEF8132910514F080E290E064E09D
:1014F00070E00E9416055C01F8018281082E000C44
:10150000990B803EFFEF9F0714F480EE9FEF81322E
:10151000910514F080E290E064E070E00E9416050E
:101520004091630350916403609165037091660379
:1015300054FF03C091958195910955FF03C0B19463
:10154000A194B108C5FE10C0B7FE03C023E0A20EEF
:10155000B11CB594A794B594A79497FD039695955F
:101560008795959587950BC0B7FE03C0AFEFAA1A74
:10157000BA0AB594A79497FD019695958795EF289B
:1015800021F4AA8281958B833AC042FF03C09195D2
:101590008195910997FD079623E0959587952A9562
:1015A000E1F7AC0197FF04C044275527481B590BAE
:1015B00049305105FCF420913F0230914002232B29
:1015C00079F429E030E0241B350B3093400220935E
:1015D0003F02009729F014F48FEF01C081E08C8363
:1015E00080913F0290914002019790934002809336
:1015F0003F0205C068E070E00E9416058C831982E6
:10160000F8018581968180719071892B11F081E0BC
:101610008983D80115968D919C911697807494704A
:10162000892B19F0898182608983F801858183FD86
:10163000D9C176C2D80112968C91082E000C990B54
:10164000803EBFEF9B0714F480EE9FEF813291053F
:1016500014F080E290E061E070E00E941605D82E60
:10166000E92EF8018381082E000C990B803EFFEFD4
:101670009F0714F480EE9FEF8132910514F080E211
:1016800090E061E070E00E941605B82EC92ED801E6
:1016900014968C91082E000C990B803FBFEF9B078E
:1016A00014F480EF9FEF8131910514F080E190E018
:1016B00061E070E00E941605F82EA92EF8018581E0
:1016C000082E000C990B803FFFEF9F0714F480EF6A
:1016D0009FEF8131910514F080E190E061E070E0CE
:1016E0000E941605D80118966D917C91199765FF97
:1016F00005C0E8E0F0E028E030E004C0E1E0F0E020
:1017000023E030E063FF02C021E030E060FD10C064
:1017100076FD09C04B2D5C2D57FF02C04F5F5F4F18
:101720005595479506C044275527421B530B01C0CA
:10173000A90161FF04C03195219531090AC077FDE7
:1017400008C02D2D3E2D37FF02C02F5F3F4F35952E
:10175000279575FD07C071FF06C0882799278E1B46
:101760009F0B01C0CF0140906303509064036090D1
:1017700065037090660343FE07C0342F252FAC012C
:10178000832F922F2F2D3A2D54FE03C05195419552
:10179000510955FE03C03195219531092A834195A0
:1017A0004B832091630322FF03C09195819591099A
:1017B000AC0197FF04C044275527481B590B4930FB
:1017C0005105FCF420913D0230913E02232B79F427
:1017D00029E030E0241B350B30933E0220933D027C
:1017E000009729F014F48FEF01C081E08C83809181
:1017F0003D0290913E02019790933E0280933D02FC
:1018000005C068E070E00E9416058C831982F8011B
:10181000808586FF02C081E08983D80118968C916B
:1018200084FDA6C07DC18090630390906403A09066
:101830006503B090660396FE50C1CC24C394D12CAE
:10184000F8018181082E000C990B8C39FFEF9F075E
:1018500014F48CE99FEF8536910514F084E690E04E
:1018600068E070E00E9416057C01D80112968C9108
:10187000082E000C990B8C39BFEF9B0714F48CE9F0
:101880009FEF8536910514F084E690E068E070E003
:101890000E941605D1101FC094FE03C0919581953A
:1018A000910995FE03C0F194E194F108F7FE03C09D
:1018B000E7E0EE0EF11C73E0F594E7947A95E1F71A
:1018C000EA8297FD079663E0959587956A95E1F71B
:1018D00081958B833AC082FE03C0919581959109D1
:1018E00097FD079653E0959587955A95E1F7AC01DA
:1018F00097FF04C044275527481B590B4930510511
:10190000FCF420913B0230913C02232B79F429E036
:1019100030E0241B350B30933C0220933B020097B0
:1019200029F014F48FEF01C081E08C8380913B0299
:1019300090913C02019790933C0280933B0205C03A
:1019400068E070E00E9416058C831982D801199610
:101950008C9180FF06C0DD2011F082E001C081E0A3
:101960008983CC2009F4DCC0F801818581FFD8C0CF
:1019700089818260B0C0D80111962D913C91129757
:101980002F3FBFE03B0709F0B4C040E080E090E0AB
:1019900020E030E02A8381958B8340933A02D8017E
:1019A00011968D919C9112979093390280933802F1
:1019B00013968D919C9114979093370280933602E1
:1019C00016968C9182FF02C081E08983F80186819E
:1019D00081FF03C0898182608983D80116968C912A
:1019E00080FF9EC08981846076C0F8018781E1E034
:1019F00083FF02C0E0E01EC0809135028823D1F051
:101A0000D80111968D919C911297209133023091BB
:101A10003402821B930B13962D913C9114974091A5
:101A2000310250913202241B350B8115B4E09B0723
:101A300064F404C020E030E080E090E08115FCEF29
:101A40009F072CF480E09CEF02C080E094E0BC0192
:101A500097FF02C0695F7F4F43E0759567954A9590
:101A6000E1F7A90137FF02C0495F5F4FF3E05595E9
:101A70004795FA95E1F76A834B83E0933502A3E03B
:101A8000660F771FAA95E1F7861B970BD801119671
:101A90006D917C911297FB01E81BF90BF0933402D6
:101AA000E093330213E0440F551F1A95E1F7241B0E
:101AB000350B13968D919C911497821B930B9093E9
:101AC00032028093310215968D919C911697813048
:101AD000914030F181E0898323C0D80119968D911E
:101AE0009C911A9796958795B82FB170DB2EC12CD3
:101AF000A7CE80913A02882389F080913802909194
:101B00003902281B390BF8018381948140913602F8
:101B100050913702841B950B41E03CCF41E036CF1A
:101B2000DF91CF911F910F91FF90EF90DF90CF90B9
:101B3000BF90AF909F908F907F906F905F904F90ED
:101B40000895529A83E08A95F1F70000509A00C0F8
:101B500000C000000895529A00C000C000005098D4
:101B6000489BFECF00C000C00000529800C000C0DB
:101B7000000081FD06C08BEB92E00197F1F700C0F9
:101B80000000089528E030E090E8482F492311F044
:101B9000529801C0529A00C000C000005098489B63
:101BA000FECF43E04A95F1F70000509A00C000C014
:101BB000000096952150310941F700C000C0000097
:101BC000529800C000C000005098489BFECF00C053
:101BD00000C000004A9B09C000C000C00000509A2D
:101BE00000C000C0000080E0089500C000C00000F8
:101BF000509A00C000C0000081E008958093510217
:101C000008955098529858985A985098489BFECFEB
:101C1000529808950895EF92FF920F931F93CF93D8
:101C2000DF93E82ED92FC62FF42E0E94A10D8091AC
:101C300051020E94C20D882371F00E2D1D2FD0E09D
:101C4000CC2351F0F80181918F010E94C20DD82F51
:101C5000C1508111F5CFD0E0F0FC04C08F2D0E945F
:101C6000AB0D06C05098489BFECF00C000C00000DE
:101C70008D2FDF91CF911F910F91FF90EF900895DD
:101C80000F931F93CF93DF93082FC92F162FD42FB5
:101C90000E94A10D8091510281600E94C20D882393
:101CA00051F0E02FFC2F80E090E0C0E0212F30E0E9
:101CB0002150310936C08D2F0E94AB0D80E03EC00F
:101CC000A3E0AA95F1F700005098489BFECF00C012
:101CD00000C000004A99452B00C000C00000509A87
:101CE000A3E0AA95F1F7000056956150710941F7FC
:101CF000419300C000C0000082179307CCF05298B7
:101D000000C000C000005098489BFECF43E04A95B9
:101D1000F1F70000509A00C000C0000052980196F0
:101D2000C1E0811738F468E070E050E840E0C8CFC7
:101D3000529AE6CF8D2F0E94AB0D8C2FDF91CF9161
:101D40001F910F910895539A83E08A95F1F700004F
:101D5000519A00C000C000000895539A00C000C00E
:101D600000005198499BFECF00C000C0000053986E
:101D700000C000C0000081FD06C08BEB92E001971F
:101D8000F1F700C00000089528E030E090E8482F07
:101D9000492311F0539801C0539A00C000C00000BD
:101DA0005198499BFECF43E04A95F1F70000519AC4
:101DB00000C000C0000096952150310941F700C0D5
:101DC00000C00000539800C000C000005198499B1B
:101DD000FECF00C000C000004B9B09C000C000C087
:101DE0000000519A00C000C0000080E0089500C0CB
:101DF00000C00000519A00C000C0000081E00895BA
:101E00008093520208955198539859985B9851982D
:101E1000499BFECF539808950895EF92FF920F9338
:101E20001F93CF93DF937C01162F042F0E94A30EE4
:101E3000809152020E94C40E882369F0E701E10EEE
:101E4000F11C10E0CE15DF0539F089910E94C40E17
:101E5000182F8111F7CF10E000FD04C0802F0E94E1
:101E6000AD0E06C05198499BFECF00C000C00000D7
:101E7000812FDF91CF911F910F91FF90EF900895E7
:101E80000F931F93CF93DF93082FC92F162FD42FB3
:101E90000E94A30E8091520281600E94C40E88238A
:101EA00051F0E02FFC2F80E090E0C0E0212F30E0E7
:101EB0002150310936C08D2F0E94AD0E80E03EC00A
:101EC000A3E0AA95F1F700005198499BFECF00C00E
:101ED00000C000004B99452B00C000C00000519A83
:101EE000A3E0AA95F1F7000056956150710941F7FA
:101EF000419300C000C0000082179307CCF05398B4
:101F000000C000C000005198499BFECF43E04A95B5
:101F1000F1F70000519A00C000C0000053980196EC
:101F2000C1E0811738F468E070E050E840E0C8CFC5
:101F3000539AE6CF8D2F0E94AD0E8C2FDF91CF915B
:101F40001F910F9108950E94A30E539A00C000C0E4
:101F50000000519800C000C00000539800C000C0AD
:101F600000008BEB92E00197F1F700C0000099B1FF
:101F7000892F827091FF04C089B183FB882780F983
:101F800008950C94010E0C94030FAF92BF92CF9260
:101F9000DF92EF92FF920F931F93CF93DF93EC01A9
:101FA0005B016A0179018A81E881F9810190F08100
:101FB000E02D880F0995A114B10421F4E114F10476
:101FC00091F428C0C114D104C9F3E881F9810280D9
:101FD000F381E02D40E06A2DC60109958111EECF15
:101FE0008FEF9FEF19C001151105A1F0E881F9816C
:101FF0000480F581E02D42E06E2DC801099521E0B5
:1020000030E0882311F020E030E088279927821BF8
:10201000930B02C080E090E0DF91CF911F910F9170
:10202000FF90EF90DF90CF90BF90AF900895FF9218
:102030000F931F93CF93DF931F92CDB7DEB76983C2
:10204000FFB6F8948A01AE014F5F5F4F61E070E028
:102050000E94C50FFFBE0F90DF91CF911F910F918E
:10206000FF9008950F931F93CF93DF9300D0CDB7C8
:10207000DEB769834A8300E010E020E030E0AE0183
:102080004F5F5F4F62E070E00E94C50FEFE3F6E044
:102090003197F1F700C000000F900F90DF91CF91C2
:1020A0001F910F910895EF92FF920F931F93CF937B
:1020B000DF931F92CDB7DEB7182FE62E042FF22E36
:1020C00041E0BE016F5F7F4F87E10E94ED03811108
:1020D00002C082E389838981853010F485E0898399
:1020E000402F000F550B4E0D511DE7FC5A954F0D1B
:1020F000511DF7FC5A9580915302882311F08150AD
:102100001FC08091730190917401841B950B97FF00
:1021100003C0919581959109298130E0E12FF0E08C
:10212000E85AFD4F281739071CF48AE080830AC05B
:102130008081882339F081508083811103C088E237
:102140008093530250937401409373010F90DF9179
:10215000CF911F910F91FF90EF900895811102C0D0
:102160000C94C10F813011F40C94C30F0895AF92F9
:10217000BF92CF92DF92EF92FF920F931F93CF9374
:10218000DF931F92CDB7DEB77C0169835A016901E5
:1021900000E010E020E030E0AE014F5F5F4F61E013
:1021A00070E00E94C50F811118C08FE396E001977F
:1021B000F1F700C000008501960140E050E060E0CA
:1021C00070E0C7010E94C50F811107C08FE396E040
:1021D0000197F1F700C0000080E00F90DF91CF91F0
:1021E0001F910F91FF90EF90DF90CF90BF90AF9035
:1021F0000895FF920F931F93CF93DF931F92CDB754
:10220000DEB7182FF62E072F41E0BE016F5F7F4F1C
:1022100087E10E94ED03811102C084E089838981F6
:1022200090E06AE070E00E94082180579E4F2F2DB9
:10223000302F37FF03C0319521953109E12FF0E0B0
:10224000EA5AFD4F8217930728F48081883038F4CA
:102250008F5F04C08081882311F0815080830F90AC
:10226000DF91CF911F910F91FF900895DF92EF9230
:10227000FF920F931F93CF93DF93CDB7DEB766978F
:102280000FB6F894DEBF0FBECDBF382F823008F0F6
:102290001AC3082F10E0C80163E070E00E94082113
:1022A000FC01E158FE4FC801805A9D4F7C01DC01C2
:1022B0008C91811106C09FEF98879F8346E050E084
:1022C00002C048E050E0D32E9A01AE014F5F5F4F4D
:1022D00060E0CF010E941710F801882321F0EC5A2A
:1022E000FD4F1082F0C2E65AFD4F8081882369F1CC
:1022F000C80163E070E00E94082126E030E0AE01F2
:102300004F5E5F4F63E08B579E4F0E941710811105
:1023100011C02D894B8969898D2D0E9453106989BF
:102320007A89762767277627E4E075956795EA9599
:10233000E1F708C020E040E060E08D2D0E945310DE
:1023400060E070E08D2D0E94F910F801EE0FFF1F84
:10235000EE59FD4F808191818130B1E09B0709F4F6
:1023600016C160F48330910509F4D4C08131910520
:1023700009F4A1C081309105B1F409C18330F3E0C3
:102380009F0709F443C228F48330914009F4A6C0A2
:102390000AC0EE818231AFEF9A0709F40BC2833194
:1023A0009F4F09F4E1C1C8016BE070E00E94082171
:1023B000FC01E759FC4F8CE0808389818058818340
:1023C0008A81805882834E81842F8C7090E09C019A
:1023D00035952795359527959B81892F90E0880F16
:1023E000991F880F991F822B932B9250948383837C
:1023F000242F207330E0B90184E0759567958A95A4
:10240000E1F78C81282F30E0220F331F220F331F7A
:10241000262B372B3250368325832D8130E0220F37
:10242000331F220F331F842F8295869586958370E4
:10243000282B32503087278340FF03C01286118635
:1024400004C081E090E09287818741FD0DC0C80102
:102450006BE070E00E940821FC01E759FC4F2185E8
:102460003285226032872187C8016BE070E00E94CC
:102470000821FC01E759FC4F218532853E773287E0
:10248000218780915802882319F03068328721878C
:1024900080915602843008F414C2C8016BE070E0E9
:1024A0000E940821FC01E759FC4F218532853160EB
:1024B0003287218706C2C8016BE070E00E940821C4
:1024C000FC01E759FC4F8EE080832E8130E020959F
:1024D00030952877332732832183F3C1C8016BE01D
:1024E00070E00E940821FC01E759FC4F8EE18083D7
:1024F00099819F73905291839A819F739052928396
:102500002D813E8132272327322720953095348331
:102510002383D7C1C8016BE070E00E940821FC0151
:10252000E759FC4F8BE1808389818F7380528183CF
:102530008A818F73805282838B818F7183838C8198
:102540008F7184832D813E81322723273227209566
:1025500030952D7F3F7736832583809158028823DD
:1025600019F030683683258380915602843008F450
:10257000A8C1C8016BE070E00E940821FC01E75986
:10258000FC4F258136812260368325839AC12981BB
:102590004A813B81DC808330910571F0813091402C
:1025A000D9F1C8016BE070E00E94082187599C4F67
:1025B00051E0DC015C933AC0C8016BE070E00E941E
:1025C0000821DC01A759BC4F8BE18C932F7320525B
:1025D00012962C9312974F73405213964C93139765
:1025E0003F71305115963C931597ED2DEF7117966D
:1025F000EC93179714961C92149716961C921697A4
:102600008D819E8198278927982780959095199686
:102610009C938E93189755C1C8016BE070E00E949F
:10262000082187599C4F5DE0FC015083D801A25AD4
:10263000BD4F8C91882359F09D81911106C09E81D8
:10264000911103C091E0F701908381508C93D701E1
:102650008C91882381F1C8016BE070E00E94082111
:10266000DC01A759BC4F205812962C931297405862
:1026700014964C931497305813963C931397E0E8B4
:10268000ED0D1596EC9315978D8116968C931697F4
:102690008E8117968C9317978F8198859827892715
:1026A00098278095909519969C938E93189781E022
:1026B00011968C934BC0C8016BE070E00E9408211A
:1026C000DC01A759BC4F822F8F73805212968C93D6
:1026D0001297842F8F73805213968C931397207CBC
:1026E000922F969596959695242F207C2295269547
:1026F0002770292B832F881F8827881F282B20517C
:1027000014962C931497832F8F71805115968C9368
:1027100015973076369536958D2D829586958770EE
:10272000382B16963C931697ED2DEF711796EC9378
:1027300017978D819E819827892798278095909556
:1027400019969C938E93189711961C92C8016BE072
:1027500070E00E940821FC01E759FC4F208531857B
:102760003E7F31872087ADC0C8016BE070E00E94DA
:102770000821DC01A759BC4F8CE28C9389819A8196
:1027800012969C938E9311978B819C8114969C93A7
:102790008E9313972E2F2F7030E0322F22278D81AA
:1027A000282B16963C932E931597E295EF7017966B
:1027B000EC9387C0C8016BE070E00E940821DC0147
:1027C000A759BC4F8CE18C932B81422F4F7050E066
:1027D000542F44278981482B12965C934E9311976E
:1027E000207F30E074E0220F331F7A95E1F78A8171
:1027F000282B14963C932E9313978C8115968C93CB
:1028000015978BEFE8271696EC935BC0C8016BE039
:1028100070E00E940821FC01E759FC4F8FE18083A2
:102820003981832F8F73805281839A81892F8F738F
:10283000805282838C814B81242F20762695269589
:10284000582F529556955770252B2383242F2E7180
:10285000269528502483907C292F22952695277031
:10286000932F907C969596959695922B342F331FA7
:102870003327331F392B35838F7186832D8120FFBA
:1028800002C08F51868340FF0BC0C8016BE070E02F
:102890000E940821FC01E759FC4F91EE930F9583AC
:1028A000C8016BE070E00E94082187599C4F30E01E
:1028B000322F22274E81242B20953095FC01308722
:1028C000278380E001C08FEF66960FB6F894DEBFD5
:1028D0000FBECDBFDF91CF911F910F91FF90EF9071
:1028E000DF900895FC0180916202909163029283CF
:1028F000818380916002838380915E0284838091D2
:102900005C02858386E00895E82FF0E0E65AFD4FEB
:10291000808108950F931F93CF93DF9300D000D051
:1029200000D0CDB7DEB7082F10E0C80163E070E03B
:102930000E94082121E030E0AE014F5F5F4F6EE062
:102940008B579E4F0E941710811108C089818230D9
:1029500029F4F801E65AFD4F81E0808326960FB6F0
:10296000F894DEBF0FBECDBFDF91CF911F910F91C5
:1029700008954F925F926F927F928F929F92AF9243
:10298000BF92CF92DF92EF92FF920F931F93CF935C
:10299000DF93CDB7DEB729970FB6F894DEBF0FBE31
:1029A000CDBF823008F03AC1482E082F10E0C80190
:1029B00063E070E00E94082181589E4F7C01C801AD
:1029C0008C5A9D4F6C01FC018081823061F128F4AA
:1029D000882371F08130A1F021C1843009F47AC0DC
:1029E00008F463C0853009F019C1BB24B39417C142
:1029F00081E0F6018083F801E25AFD4F8FE068C064
:102A00008FE99FE00197F1F700C00000F801E25A5A
:102A1000FD4F8081882311F0815080838081811156
:102A2000FDC082E054C045E560EFC7010E9432104E
:102A3000B82E811113C040E06BEFC7010E94321025
:102A400081111AC021E030E0AE01475F5F4F6FEFA8
:102A5000C7010E94B710B82E882319F0F601108222
:102A6000DDC021E030E0AE014F5F5F4F6AEFC7018C
:102A70000E94B710882319F0F6011082D0C0F80127
:102A8000EE0FFF1FEE59FD4F898190E0982F8827A8
:102A90002985822B9183808383E0F6018083F8016E
:102AA000E25AFD4F88EC8083BAC08FE19EE4019723
:102AB000F1F700C00000F801E25AFD4F8081882341
:102AC00011F08150808380818111A8C084E0F601DB
:102AD0008083A4C0C801805A9D4F3C01FC01108234
:102AE0004801880C991CF401EE59FD4F80819181B9
:102AF0009E7F019709F076C08091630390916403F3
:102B0000A0916503B091660393FF0EC041E06EEFA4
:102B1000C7010E9432108FE19EE40197F1F700C0D7
:102B20000000F30110825EC0C801845A9D4F5C0111
:102B3000FC01108221E030E0AE01475F5F4F6EEF95
:102B4000C7010E94B710582E882311F081E029C0D8
:102B50008985833021F482E0F50180833FC08FE1D5
:102B60009EE40197F1F700C0000043E06EEFC7015B
:102B70000E943210882311F085E023C08FE19EE48B
:102B80000197F1F700C0000028E030E0AE014F5F90
:102B90005F4F60E0C7010E94B710582E882329F0CC
:102BA00086E0F5018083512C1BC028E030E0AE01A7
:102BB0004F5F5F4F60E0C7010E94B710882321F08C
:102BC00087E0F50180830CC08F8180FD07C04985B7
:102BD0006EEFC7010E94321088E0E3CF5524539472
:102BE000F3015082F401EE59FD4F808191818331D0
:102BF0009F4F51F441E06BEFC7010E94321045E551
:102C000060EFC7010E943210F801E25AFD4F15E053
:102C10001083842D0E948A14F6011083B12C8B2D11
:102C200029960FB6F894DEBF0FBECDBFDF91CF91CE
:102C30001F910F91FF90EF90DF90CF90BF90AF90DA
:102C40009F908F907F906F905F904F90089585E751
:102C500091E008952F923F924F925F926F927F92F0
:102C60008F929F92AF92BF92CF92DF92EF92FF929C
:102C70000F931F93CF93DF9300D000D000D0CDB738
:102C8000DEB75C012B013A012DB73EB73E832D83A1
:102C90006DB77EB7641B750B0FB6F8947EBF0FBE81
:102CA0006DBF8DB79EB701964C0192E04916510455
:102CB0000CF492C0D5011C91123809F08DC0BFB739
:102CC000BC83F89460E070E0C4010E949921F40193
:102CD0001083EE24E394F12CCC24C394D12C1B82DA
:102CE0001A82C6010296841595051CF5F6013196E7
:102CF000D501AC0DBD1D2C91223018F0FC81FFBF19
:102D00006BC0EA0DFB1D4081F501E80FF91FE08162
:102D1000D6011396AA0DBB1D34E0C30ED11C6C91D5
:102D20006983EE23A9F0C6018E0F911D481659063E
:102D30004CF4A301B401C5010E9490217C817FBFA6
:102D40008FE34BC0D501AC0DBD1DBB83AA836C01C5
:102D500030E0C90163E070E00E94082185579E4F72
:102D6000DC0112964C93B9812B2E312CC701820DB8
:102D7000931D019686159705E4F6B11102C0EE2366
:102D8000F9F087010E5F1F4F080D191DF0E0C90112
:102D900063E070E00E94082191014A815B81BF01DC
:102DA00085579E4F0E94C50F892B51F0F401EE0DFF
:102DB000FF1D21E02083B7016F5F7F4F7B0191CF23
:102DC000F401EE0DFF1D108272E0E70EF11C898107
:102DD0008183E20CF31C85CF80E0AD81BE810FB60C
:102DE000F894BEBF0FBEADBF26960FB6F894DEBFF7
:102DF0000FBECDBFDF91CF911F910F91FF90EF904C
:102E0000DF90CF90BF90AF909F908F907F906F900A
:102E10005F904F903F902F9008958DEA9EED909394
:102E2000860380938503089581E020918503309186
:102E300086032D3A3E4D09F480E081950895109265
:102E400080008DE0809381000895BC01809166022E
:102E50009091670286179707E1F07093670260937D
:102E600066021092850010928400072E000C880BD9
:102E7000990B29E03DE340E050E00E94192128EE43
:102E800033E040E050E00E943221309389002093EB
:102E900088000895B19B04C082E086BB81E008955C
:102EA00080E00895A8E6B2E0FC012491422F50E0B2
:102EB0004D935D930196222349F022E0A63AB20792
:102EC00099F71092A7021092A60208950895E8E5D6
:102ED000F3E080E090E023E0E736F207D9F02191BB
:102EE0009227092E0294202D2F702927392F302563
:102EF000330F307E2327302D3927307F3695092E2A
:102F0000000C331F9695969596959F719327982759
:102F1000822FE1CF08950E946717909368038093F2
:102F2000670341E150E060E070E088E593E00C94D5
:102F30007324CF93DF9341E150E060E070E088E5D7
:102F400093E00E94632480915803909159038D3E31
:102F50009E4F91F081E1E8E5F3E0DF011D928A9553
:102F6000E9F78DEE9EEF90935903809358030E94EA
:102F7000B6030E948B1709C0C0916703D091680304
:102F80000E946717C817D90729F7DF91CF910C94D2
:102F90003903F8940E94431D8FE39CE90197F1F7F0
:102FA00000C00000F894E0E0F8E3099408950E945E
:102FB000431DF894E0E0F0E00994089580E090E08B
:102FC00008951092C90087E991E09093820380935D
:102FD000810308951F93CF93DF93EC01FA01122F21
:102FE00084E1DE011D928A95E9F769835B8B4A8B48
:102FF000AE014E5F5F4F688180E090E009951883D5
:10300000DF91CF911F910895FC01818190E0089597
:10301000DC01CB01AD014E5F5F4F5296ED91FC910B
:1030200053976C91099402960895DB011296EC91E6
:10303000129713962C9130E02130310569F4E1307C
:1030400059F49C012E5F3F4FFA0131832083DC014C
:1030500011968C9190E0089580E090E0089581E0D1
:10306000232B09F080E0819508950F93FB01809355
:10307000E900CA012417350708F4C9018E0F9F1F04
:10308000002341F08E179F0761F024912093F100F7
:103090003196F8CF8E179F0721F021912093F100F0
:1030A000F9CF0F910895CF92DF92EF92FF920F9395
:1030B0001F93CF93DF936C01122FEA0164177507FA
:1030C00008F4EB01E12CF12CB6016E0D7F1D012FF0
:1030D000C134D105B0F020E430E040E450E080E0BD
:1030E0000E9435188091E8008E7F8093E80080E48C
:1030F000E80EF11CC054D1098091E80080FFFCCF9C
:10310000E3CF9E01AE0180E00E9435188091E80077
:103110008E7F8093E8008091E80080FFFCCFDF91F4
:10312000CF911F910F91FF90EF90DF90CF90089576
:10313000EF92FF920F93CF93DF938093E9009091EA
:10314000E80090FF28C0FA012081318137FF06C0D6
:103150008091F0008E7F8093F0001DC0EA017B011A
:103160009091E8009E7F9093E8002081318140811A
:103170005181FB016081718100E00E943518F701E7
:10318000118210828FEF9FEF998388838091E800EE
:103190008F778093E800DF91CF910F91FF90EF90B0
:1031A00008951092E90081E08093EB001092EC000A
:1031B0008CE48093F0008091ED0082638093ED00B9
:1031C0001092E8008091EE0087FF51C020E030E0CF
:1031D00041E0A1ECE091A902F091AA02828590E081
:1031E0002817390744F581E0820F8093E900409366
:1031F000EB00A093EC004093F000E091A902F09165
:10320000AA02C9016CE070E00E940821E80FF91FD2
:103210008785908980319105D1F024F4089761F475
:1032200080E016C08032910521F08034910569F06C
:1032300003C080E20DC008958CEE94E09F938F93BD
:103240000E94A7210F900F90089580E301C080E1B4
:1032500082608093ED001092E8008091EE0087FD7F
:1032600003C08EED94E0EACF2F5F3F4FB3CF0895B8
:103270001F920F920FB60F9211242F933F934F93EB
:103280005F936F937F938F939F93AF93BF93CF93EE
:10329000EF93FF93C091E100C0FF0DC08091E1006A
:1032A0008E7F8093E10081E08093FF028091E200B5
:1032B00080618093E200C4FF10C08091E1008F7EA6
:1032C0008093E1008091FF02882339F01092FF0281
:1032D0008091E2008F7E8093E200C3FF09C01092CC
:1032E000FF020E94D1188091E100877F8093E10066
:1032F000C2FF05C08091E1008B7F8093E100C5FF94
:1033000005C08091E1008F7D8093E100C6FF05C07C
:103310008091E1008F7B8093E100FF91EF91CF914D
:10332000BF91AF919F918F917F916F915F914F91DD
:103330003F912F910F900FBE0F901F9018951F92E5
:103340000F920FB60F9211246F927F928F929F92DD
:10335000AF92BF92CF92DF92EF92FF920F931F93A3
:103360002F933F934F935F936F937F938F939F938D
:10337000AF93BF93EF93FF93CF93DF93CDB7DEB7B8
:103380002C97DEBFCDBF7090F40070FE9BC21092F0
:10339000E9006090E80063FEE6C12091F20030E0B1
:1033A000FE01319680E090E0FE2E0F2F82179307EA
:1033B00040F48830910529F04091F1004193019645
:1033C000F5CF8091E800877F8093E800898187FDB1
:1033D0006CC0982F9F7119F09130D1F166C08A812D
:1033E000853019F0893001F162C08B818093E30050
:1033F0008091E80080FFFCCF8091E8008E7F809371
:10340000E8008091E80080FFFCCF8091E3008068B5
:103410008093E3008B819C81892B11F481E001C0B2
:1034200082E08093AD0141C08B818093FE028111C7
:1034300002C082E001C083E08093AD018091E8008A
:1034400080FFFCCF8091E8008E7F8093E8002DC044
:103450008076803261F58A818930D1F48091E800EC
:1034600080FFFCCF8091E8008E7F8093E80088E0A9
:10347000EF2DF02FAEEEB2E001900D928A95E1F7BC
:103480001092ED021092EC0281E08093EB020DC0ED
:103490001F928F938DEB94E09F938F930E94A721AF
:1034A0000F900F900F900F9002C010E001C011E03C
:1034B000998197FF3CC1292F2F718A81213009F40E
:1034C000A6C020F0223009F40AC133C18630A1F031
:1034D000883009F004C18091AD012F813885833097
:1034E00029F0198600E041E050E0A2C000E041E090
:1034F00050E06EEF72E0F1C08B819C81292F332761
:1035000022303105A1F023303105F1F021303105B1
:1035100009F00FC1E091A902F091AA0200810170A7
:103520002F8138856181728142E150E0D6C0E091FF
:10353000A902F091AA02208122704F8158856581ED
:1035400076818381948198C09927009709F444C0BB
:10355000A090A902B090AA02D50117962C911797B6
:1035600030E0281739070CF449C0CF80D884019780
:103570007C01EE0CFF1C1896ED91FC911997EE0D55
:10358000FF1D0190F081E02D812C912C8191919172
:10359000892B21F0BFEF8B1A9B0AF8CF880C991C5E
:1035A00082E0880D898783E08A8700E0960142E007
:1035B00050E0BE01675F7F4F80E00E9435189601A2
:1035C00022503109F50180859185FC01EE0DFF1D2A
:1035D00060817181A40181C08091B4019091B50195
:1035E000A091B601B091B70189879A87AB87BC8754
:1035F0002F81388500E044E050E01AC089EA94E069
:103600009F938F930E94A7210F900F9076C0907682
:1036100019F09032A1F18DC0882319F0863061F045
:1036200088C019861A862F81388500E042E050E074
:10363000BE01675F7F4F51C08C8190E0829709F097
:1036400078C08D819E81E091A902F091AA02228525
:1036500030E02817390708F46CC020812470AF814E
:10366000B8856CE070E00E940821E80FF91F6385BF
:103670007485AD01858596850E9453183EC08130C2
:1036800009F057C02D813E81A091A902B091AA02F4
:103690001A968C911A9790E08217930770F1C901DE
:1036A0006CE070E00E9408218A0F9B1FFC01C38818
:1036B000D488C114D104E9F1AE01475F5F4F6F2D8B
:1036C000702F81899289F60109950097B1F02F81B9
:1036D000388569857A8500E0AC0180E00CC08111F5
:1036E00028C019861A862F81388500E042E050E014
:1036F000BE01675F7F4F0E94351811111AC080917B
:10370000E8008E7F8093E8008091E80080FF05C08C
:103710008091E8008E7F8093E8008091E80082FF2E
:10372000F3CF8091E8008B7F8093E8001CC01123C9
:10373000D1F08C818F938B818F938A811F928F938D
:1037400089811F928F9388E894E09F938F930E94C2
:10375000A7218091EB0080628093EB000FB6F89474
:10376000DEBF0FBECDBF62FE33C08091F2009091EC
:10377000EB02992341F190E02091EC023091ED02AF
:10378000280F391F20343105F0F42091EC023091DC
:10379000ED0225553D4F4091F20050E0F901BF0187
:1037A000621B730B6417750720F46091F10061933D
:1037B000F6CF2091EC023091ED02820F931F90938F
:1037C000ED028093EC028091E8008B7F8093E8000B
:1037D00066FE78C08091E8008F7B8093E80080913E
:1037E000EB02882309F46EC00091EC021091ED0207
:1037F0008091EE0280768032A1F52091F202309124
:10380000F302A091A902B091AA021A968C911A977C
:1038100090E08217930708F453C0C9016CE070E090
:103820000E9408218A0F9B1FFC01E588F688E1149D
:10383000F104B9F098014BEA52E06EEE72E0818932
:103840009289F7010995882331F08091EB0080621D
:103850008093EB0035C08091E8008E7F8093E80074
:103860002FC01F930F9388E694E09F938F930E943D
:10387000A7218BEAE82E82E0F82E05551D4F0F9008
:103880000F900F900F9092E6C92E94E0D92E0E154E
:103890001F0571F0D7018D917D011F928F93DF92EB
:1038A000CF920E94A7210F900F900F900F90EFCF13
:1038B0008FE594E09F938F930E94A7210F900F9024
:1038C0001092EB0271FE07C04BEA51E06CEF72E020
:1038D00081E00E94981872FE07C049EA51E06AEF41
:1038E00072E082E00E94981873FE07C047EA51E038
:1038F00068EF72E083E00E94981874FE07C045EA02
:1039000051E066EF72E084E00E9498182C960FB6A2
:10391000F894DEBF0FBECDBFDF91CF91FF91EF9145
:10392000BF91AF919F918F917F916F915F914F91D7
:103930003F912F911F910F91FF90EF90DF90CF90CB
:10394000BF90AF909F908F907F906F900F900FBE21
:103950000F901F9018952091A5013091A60181E04C
:103960002F3F3F4F09F080E008959C019FB74091A1
:10397000A5015091A6014F3F5F4FC9F7F8943093CE
:10398000F7022093F6027093A6016093A50184E0EC
:103990008093E9008091F00081608093F0009FBFE8
:1039A00008952091A7013091A80181E02F3F3F4F5A
:1039B00009F080E008959C019FB74091A7015091C4
:1039C000A8014F3F5F4FC9F7F8943093F902209355
:1039D000F8027093A8016093A70183E08093E90047
:1039E0008091F00081608093F0009FBF0895209146
:1039F000A9013091AA0181E02F3F3F4F09F080E0FB
:103A000008959C019FB74091A9015091AA014F3F91
:103A10005F4FC9F7F8943093FB022093FA0270933A
:103A2000AA016093A90182E08093E9008091F000EF
:103A300081608093F0009FBF08952091AB01309189
:103A4000AC0181E02F3F3F4F09F080E008959C01D9
:103A50009FB74091AB015091AC014F3F5F4FC9F709
:103A6000F8943093FD022093FC027093AC016093B4
:103A7000AB0181E08093E9008091F0008160809348
:103A8000F0009FBF0895E0EEF0E0808181608083C8
:103A90001092E200E8EDF0E080818F7780838081F2
:103AA0008062808308958091A802882321F081306C
:103AB00051F01092A8028091E0008E7F8093E00088
:103AC00081E08093A802089520E22093D80021E0AD
:103AD0002093E0001092E2001092E3009093AA027B
:103AE0008093A9028091D8008F778093D80080912D
:103AF000D80080628093D8001092FB00109263007F
:103B000084E089BD89B5826089BD09B400FEFDCF1E
:103B10008091D80080688093D8008091D8008F7DF4
:103B20008093D8000E94D1188091E1008E7F80930D
:103B3000E10089E78093E20008958091410382309B
:103B400059F481E093E0FA0191838083109241035C
:103B50008091000390E0089580E090E00895CF9375
:103B6000BA01C22F81E080934103422F532F81E09D
:103B700093E00E949021C093000380E0CF910895CC
:103B8000CF93DF9320914103213029F008F44BC1FA
:103B9000223029F448C130910003311103C0109242
:103BA000410341C1FC0190910103963009F467C0C3
:103BB00028F5933009F442C088F49130B9F192307D
:103BC00009F01DC14EE363E073E0809102030E949F
:103BD000ED0380930003809100034FC09430D9F12E
:103BE000953009F00CC16AE374E082E093E00E9432
:103BF00073218AE394E00E947A213FC0913F09F447
:103C0000EEC038F4973009F445C0903F09F450C035
:103C1000F6C09E3F41F020F4923F09F4D8C0EFC0B7
:103C20000E94C917FDC00E94D717FAC063E073E075
:103C3000809102030E945F0482E0F0C0309709F493
:103C4000EFC00190F081E02D309709F4E9C0809138
:103C500002030995E5C0C0916501D0916601BE01DE
:103C600082E093E00E94A021FE0101900020E9F78C
:103C7000EC1BEF5FE0930003D3C08E5FCFC0809159
:103C80000203823008F0CCC00E945A1F8C598093E6
:103C900003030CC0309751F00280F381E02D309780
:103CA00029F06091030380910203099583E0B6C077
:103CB00020930003A091000381E08A0F809300030A
:103CC000B0E0AF5FBC4F8FEF8C93A091000381E019
:103CD0008A0F80930003B0E0AF5FBC4F8EEF8C93F0
:103CE000A091000381E08A0F80930003B0E0AF5FF2
:103CF000BC4F82E08C93A091000381E08A0F8093F7
:103D00000003B0E0AF5FBC4F2C93A091000381E0B3
:103D10008A0F80930003B0E0AF5FBC4F83E08C93C9
:103D2000A091000381E08A0F80930003B0E0AF5FB1
:103D3000BC4F84E08C93A091000381E08A0F8093B4
:103D40000003B0E0AF5FBC4F85E08C93A09100030F
:103D500081E08A0F80930003B0E0AF5FBC4F86E044
:103D60008C93A091000381E08A0F80930003B0E060
:103D7000AF5FBC4F87E08C93A091000381E08A0F76
:103D800080930003B0E0AF5FBC4F9C93A091000311
:103D900081E08A0F80930003B0E0AF5FBC4F81EFFA
:103DA0008C93A091000381E08A0F80930003B0E020
:103DB000AF5FBC4F82EF8C930284F385E02D309788
:103DC00079F18091000390E08F5F9C4F13C02093A6
:103DD0000003309729F10680F781E02D07C020937A
:103DE00000033097E9F00480F581E02D3097C1F0B1
:103DF00082E093E0099590910003890F0FC03097FE
:103E000079F00084F185E02D309751F06091000346
:103E100070E040E450E081E093E009958093000376
:103E200082E080934103DF91CF910895282F30E005
:103E3000C9016BE070E00E940821FC01EE5BFC4FC1
:103E4000C9016BE070E00E9408214BE050E0BF0127
:103E500087599C4F0E9483210895DB01282F30E071
:103E6000109769F0C9016BE070E00E940821FC0125
:103E7000E759FC4F9BE001900D929A95E1F7C9013B
:103E80006BE070E00E940821DC01AE5BBC4FFC01DE
:103E9000E759FC4F8BE001900D928A95E1F7089568
:103EA00090E06BE070E00E94082187599C4FFC0174
:103EB0001082089590E06BE070E00E94082187591D
:103EC0009C4FFC0180810895CF93DF93CDB7DEB77F
:103ED0002F970FB6F894DEBF0FBECDBF1C861D8690
:103EE0001E861F860E949E020E94E1170E9499175B
:103EF0000E941F170E940D17109160030E94A30FCC
:103F0000811102C0103139F01031A1F020F01052AF
:103F1000123008F444C08FE990E00E94521780E00C
:103F20000E948A14512C412C6BE5E62E65E0F62E9A
:103F30001FE060C088E890E00E94521781E890E09E
:103F400090935E0180935D0181EF90E0909310016A
:103F500080930F0184E590E090931201809311010A
:103F600083E0809316018CE0E3E2F1E0AFE2B1E0A0
:103F700001900D928A95E1F78CE0E7E1F1E0A3E290
:103F8000B1E001900D928A95E1F7512C412C4BE55F
:103F9000E42E45E0F42E1FE052E0752E2DC084E79C
:103FA00090E00E94521782E890E090935E01809327
:103FB0005D0186EB90E09093100180930F018BE3FD
:103FC00090E0909312018093110185E991E0909324
:103FD0001A018093190184E490E090931801809372
:103FE00017012AE0522E442443943FE2E32E3AE0A4
:103FF000F32E15E07724739421E0A701612F87E069
:1040000092E00E94EA1787E092E090931E0180936D
:104010001D0182E078120DC021E0A701612F8BE124
:1040200092E00E94EA178BE192E090933601809330
:1040300035010E942716DC01ED91FC9180E0099585
:10404000B2E07B1207C00E942716DC01ED91FC91C3
:1040500081E0099578948CE091E00E94641D612CC8
:1040600010E0852C912C0E94141781110E94C91711
:104070000E94531D80E091E00E94C01D1130D9F0D4
:1040800038F0123009F47EC0133009F495C0EBCF3C
:10409000809106028111E7CF552011F0C40103C0C1
:1040A0008091610390E00E9425170E944A1711E059
:1040B0008111D9CFA7C07E01BCE0EB0EF11C8FE2CD
:1040C000C82E82E0D82E97E0A92E92E0B92E00E00B
:1040D000F70180819181892B09F096C0802F0E9481
:1040E0002403D7018D939C93009719F1DC0114965A
:1040F000ED91FC911597309709F486C0802F0995B2
:10410000D701ED91FC913097A1F00280F381E02D71
:10411000802F0995F601882351F080818F5F80837D
:104120008F3150F0D7011D921C9210821AC010825C
:1041300003C0802F0E94501F802F0E94161F8111E4
:1041400002C0442071F0BE016F5F7F4F802F0E943C
:104150002D1FBE016F5F7F4FC5010E940818612CA3
:1041600012E00F5FF2E0EF0EF11C8FEFC81AD80AD1
:10417000A4E1AA0EB11C7012ABCF113009F442C0F9
:1041800012E071CF0E941D1D882311F013E06BCF48
:10419000B2E07B1629F00E944A17811106C063CF56
:1041A0000E94F71C8111F2CFF6CF6394EAEFE61577
:1041B00008F059CF11E057CF0E941D1D882361F0F0
:1041C00087E092E00E9404188C0187E092E00E9450
:1041D0001318B8010E94271DF2E07F1210C00E9440
:1041E000F71C882361F08BE192E00E9404188C0197
:1041F0008BE192E00E941318B8010E94011D11E0AA
:10420000611031CF10E02FCFD701ED91FC917DCF20
:104210000024552704C0080E591F880F991F0097C6
:1042200029F076956795B8F37105B9F7802D952F2C
:104230000895EE27FF27AA27BB2708C0A20FB31FA8
:10424000E41FF51F220F331F441F551F96958795B6
:104250007795679598F37040A9F7009799F7BD0196
:10426000CF010895052E97FB1EF400940E9449216A
:1042700057FD07D00E94512107FC03D04EF40C9447
:10428000492150954095309521953F4F4F4F5F4FB5
:10429000089590958095709561957F4F8F4F9F4FB2
:1042A0000895A1E21A2EAA1BBB1BFD010DC0AA1F77
:1042B000BB1FEE1FFF1FA217B307E407F50720F08F
:1042C000A21BB30BE40BF50B661F771F881F991F0A
:1042D0001A9469F760957095809590959B01AC0153
:1042E000BD01CF010895FB01DC0105900D92002076
:1042F000E1F70895FC0105900020E9F7809590957D
:104300008E0F9F1F0895FB01DC0104C08D91019069
:10431000801921F441505040C8F7881B990B08952B
:10432000FB01DC0102C001900D9241505040D8F7D2
:104330000895DC0101C06D9341505040E0F70895AD
:10434000FB01DC0101900D920020E1F70895A0E04F
:10435000B0E0EDEAF1E20C94AC24AE01495F5F4FAE
:10436000DA016D917D91AD010FE713E0F8018281D3
:104370009381DC0113962C911397286013962C934C
:104380000E94CD21D8011296ED91FC9113972381C3
:10439000277F2383E4E00C94C824ABE0B0E0E3ED96
:1043A000F1E20C949E246C017B018A01FC011782CE
:1043B0001682838181FFCFC1CE0101963C01F601B7
:1043C0009381F70193FD859193FF81917F0188236C
:1043D00009F4BDC1853239F493FD859193FF819134
:1043E0007F01853229F4B60190E00E94C723E7CF10
:1043F000912C212C312CFFE1F315E0F08B3279F078
:1044000038F4803279F08332A9F4232D206110C072
:104410008D3259F0803371F4232D216009C0832D32
:104420008260382EE32DE46024C0F32DF86027C0AD
:10443000322E29C037FC2FC020ED280F2A3098F4E7
:1044400036FE07C0892D6AE00E949524922E980EB0
:104450001AC0822D6AE00E949524222E280E832DF8
:104460008062382E10C08E3231F436FC70C1E32DDC
:10447000E0643E2E08C08C3621F4F32DF0683F2E08
:1044800002C0883641F4F70193FD859193FF819135
:104490007F018111B0CF982F9F7D9554933028F4E0
:1044A0000C5F1F4F2FE329830DC0833631F0833714
:1044B00071F0833509F059C021C0F80180818983EA
:1044C0000E5F1F4F88248394912C530113C0280141
:1044D000F2E04F0E511CF801A080B18036FE03C0FF
:1044E000692D70E002C06FEF7FEFC5010E94BC2311
:1044F0004C018201F32DFF773F2E16C0280122E0E8
:10450000420E511CF801A080B18036FE03C0692D17
:1045100070E002C06FEF7FEFC5010E94B1234C0134
:10452000F32DF0683F2E820133FC1BC0822D90E0FA
:1045300088169906B0F4B60180E290E00E94C72385
:104540002A94F4CFF50137FC859137FE81915F0104
:10455000B60190E00E94C72321102A9421E0821A1C
:1045600091088114910471F7E8C0843611F08936FE
:1045700041F5F80137FE07C0608171818281938126
:104580000C5F1F4F08C060817181072E000C880BE3
:10459000990B0E5F1F4FF32DFF763F2E97FF09C03B
:1045A00090958095709561957F4F8F4F9F4FF068E4
:1045B0003F2E2AE030E0A3010E940324882E8618B3
:1045C00045C0853731F4232D2F7EB22E2AE030E00E
:1045D00025C0932D997FB92E8F36C1F018F48835F8
:1045E00079F0B5C0803719F0883721F0B0C0E92FD5
:1045F000E061BE2EB4FE0DC0FB2DF460BF2E09C0DD
:1046000034FE0AC0292F2660B22E06C028E030E012
:1046100005C020E130E002C020E132E0F801B7FE41
:1046200007C060817181828193810C5F1F4F06C03A
:104630006081718180E090E00E5F1F4FA3010E94B6
:104640000324882E8618FB2DFF773F2E36FE0DC0E3
:10465000232D2E7FA22E891458F434FE0BC032FC79
:1046600009C0832D8E7EA82E05C0B82CA32C03C0B4
:10467000B82C01C0B92CA4FE0FC0FE01E80DF11D3D
:104680008081803321F49A2D997EA92E09C0A2FE43
:1046900006C0B394B39404C08A2D867809F0B3940D
:1046A000A3FC11C0A0FE06C0B21488F4280C922C02
:1046B0009B180EC0B21460F4B60180E290E00E9434
:1046C000C723B394F7CFB21418F42B1802C0982C58
:1046D000212CA4FE10C0B60180E390E00E94C72305
:1046E000A2FE17C0A1FC03C088E790E002C088E5E5
:1046F00090E0B6010CC08A2D867859F0A1FE02C068
:104700008BE201C080E2A7FC8DE2B60190E00E943E
:10471000C723891438F4B60180E390E00E94C723D0
:104720009A94F7CF8A94F301E80DF11D8081B601C8
:1047300090E00E94C7238110F5CF222009F43FCEDC
:10474000B60180E290E00E94C7232A94F6CFF601DA
:104750008681978102C08FEF9FEF2B96E2E10C9448
:10476000BA24FC010590615070400110D8F7809583
:1047700090958E0F9F1F0895FC016150704001902D
:104780000110D8F7809590958E0F9F1F08950F9375
:104790001F93CF93DF93FB01238121FD03C08FEF94
:1047A0009FEF2CC022FF16C046815781248135819E
:1047B0004217530744F4A081B1819D012F5F3F4F01
:1047C000318320838C93268137812F5F3F4F37833E
:1047D000268314C08B01EC01FB010084F185E02DE0
:1047E0000995892BE1F6D80116968D919C91179722
:1047F000019617969C938E931697CE01DF91CF91D9
:104800001F910F910895FA01AA27283061F12031F4
:1048100091F1E8946F936E7F6E5F7F4F8F4F9F4F44
:10482000AF4FB1E040D0B4E03ED0670F781F891F92
:104830009A1FA11D680F791F8A1F911DA11D6A0F64
:10484000711D811D911DA11D22D009F468943F9115
:10485000062E000C3019000C000C3019305D31931D
:10486000CEF6CF010895462F4770405D4193B3E0E7
:104870000FD0C9F7F6CF462F4F70405D4A3318F07E
:10488000495D31FD4052419302D0A9F7EACFB4E02F
:10489000A6959795879577956795BA95C9F70097E7
:1048A0006105710508959B01AC010A2E0694579588
:1048B000479537952795BA95C9F7620F731F841FDF
:1048C000951FA01D0895DC01CB01FC01F999FECFD5
:1048D00006C0F2BDE1BDF89A319600B40D92415088
:1048E0005040B8F70895DC01A40FB51F4150504067
:1048F00048F0CB01840F951F2E910E9484244150D3
:104900005040D0F70895262FF999FECF92BD81BD72
:10491000F89A019700B4021639F01FBA20BD0FB6FD
:10492000F894FA9AF99A0FBE0895002480FD060EB5
:10493000660F11F08695D1F7802D08952F923F9242
:104940004F925F926F927F928F929F92AF92BF929F
:10495000CF92DF92EF92FF920F931F93CF93DF934B
:10496000CDB7DEB7CA1BDB0B0FB6F894DEBF0FBEA8
:10497000CDBF09942A88398848885F846E847D84F5
:104980008C849B84AA84B984C884DF80EE80FD80F7
:104990000C811B81AA81B981CE0FD11D0FB6F8946D
:0E49A000DEBF0FBECDBFED010895F894FFCF2E
:1049AE00BC020000BF02EE02DD020000065301450C
:1049BE00013B00039101023E00D90110000000EC02
:1049CE0002EA0215008001400000009D1DAF1D008F
:1049DE0000000000000000000000000000000000C9
:1049EE0000000000000000000000000000000000B9
:1049FE0000000012011001000000409B28800020E2
:104A0E000201020301B801FE0D0B0E400E000F0D48
:104A1E000F400FFF7FAE10361100000000B9146773
:104A2E0001526D01526701156D01156701006D018F
:104A3E0000BF016802E9010000000200000000DE74
:104A4E001700000000FFFFFFFFFFFFFFFF013030E8
:104A5E003030303104030910322E322E31300072D4
:104A6E00006100700068006E006500740020007424
:104A7E00006500630068006E006F006C006F0067D9
:104A8E00006900650073000000310032003300340D
:084A9E000035003600000000A5
:00000001FF
