:100000000C94CB020C94E8020C94E8020C94E802E5
:100010000C94E8020C94E8020C94E8020C94E802B8
:100020000C94E8020C94E8020C94E8020C948B11F6
:100030000C94F2110C94E8020C94E8020C94E8027F
:100040000C94E8020C94E8020C94E8020C94E80288
:100050000C94E8020C94E8020C94E8020C94E80278
:100060000C94E8020C94E8020C94E8020C94E80268
:100070000C94E802DA0FB40F5910E30FEC0F59108B
:10008000591059105910F90FC70FCD0FD70F5755E9
:1000900053424D6F7465206D6F7573652076322EF7
:1000A0003100322D706C6179657220575553424D85
:1000B0006F74652076322E3100312D706C61796558
:1000C0007220575553424D6F74652076322E3100A1
:1000D00009023B000201008019090400000103002D
:1000E00000000921010100012244000705810310DD
:1000F00000010904010001030000000921010100C1
:100100000122150007058203400001090254000383
:100110000100801909040000010300000009210109
:10012000010001223E0007058103100001090401BE
:10013000000103000000092101010001223E000727
:1001400005820310000109040200010300000009F8
:100150002101010001221500070583034000010968
:10016000023B0002010080190904000001030000A5
:1001700000092101010001223E0007058103100052
:10018000010904010001030000000921010100012F
:10019000221500070582034000010600FF0901A1A6
:1001A00001150026FF007508953F0901B100C00543
:1001B000010902A1010901A100850105091901290F
:1001C00004150025019504750181029501750481CE
:1001D000030501093009311581257F7508950281D4
:1001E000061581257F350045000938750895018180
:1001F00006C0C005010905A1010901A1008501058D
:100200000175109506150026007D09300931093366
:100210000934093509328102C0A1000509150025FC
:10022000017501951019012910750195108102C001
:10023000C02000000001000000400000000200009B
:10024000000010000004000000000400000800008E
:100250000010000000100000000800000020000056
:1002600000002000004000000000020000800000AC
:1002700000800000000001000004000000000200F7
:100280000000080000000400000100000000100051
:1002900000004000000020000002000000004000BC
:1002A000000080000000800000000000000000004E
:1002B0000001000000010000000200000002000038
:1002C00000000000000000000040000000010000ED
:1002D00000200000000200000010000000040000E8
:1002E00000080000000800000000000000000000FE
:1002F0000065376538353966362D616431622D31D8
:100300003165372D396533392D303031626663619F
:10031000336335393300696D706F737369626C656F
:100320000A00576861743F0A006372656174652052
:100330006566666563742025640A00536574206FE2
:100340007574707574207265706F727420307825C2
:100350003032780D0A00556E756E736564206566DF
:10036000666563742025640A0053746F700D0A007B
:10037000537461727420736F6C6F0D0A0053746153
:1003800072740D0A00454646454354204F503A20AA
:10039000726F6D3D25732C206964783D307825306F
:1003A000327800436F6E7374616E7420666F72638F
:1003B000652025640D0A00706572696F64696320A9
:1003C0006D61673A20256400736574206566666513
:1003D00063742025640D0A0070696420706F6F6C6F
:1003E0000D0A0064697361626C65206163747561F4
:1003F000746F72730D0A006566662E20626C6B2E38
:10040000206964782025640D0A006566662E2073D5
:100410006574207374617420307825303278203010
:1004200078253032780D0A00736872740A00556EB0
:1004300068616E646C656420686964206765742017
:100440007265706F727420747970653D30782530F4
:1004500032782C2072713D3078253032782C20771C
:1004600056616C3D3078253034782C20774C656EA1
:100470003D3078253034780D0A00556E6B6E6F77FD
:100480006E20666561747572652025640D0A0063CF
:100490007265617465206566666563740D0A007334
:1004A000696D756C74616E656F7573206D61780D23
:1004B0000A00626C6F636B206C6F61640D0A004709
:1004C000657420696E707574207265706F72742027
:1004D0002564203F3F0D0A00455320706C61796907
:1004E0006E670D0A00476574206A6F792072657027
:1004F0006F72740D0A000D0A002530325820005525
:100500006E68616E646C656420636F6E74726F6C8C
:10051000207772697465205B25645D203A20007441
:100520003A20253032782C2072713A2030782530EC
:1005300032782C2076616C3A20253034780D0A0010
:10054000556E6B6E6F776E20737472696E6720697B
:10055000640D0A00556E68616E646C656420636C9E
:1005600061737320625265717565737420307825EC
:100570003032780A00434647204550206661696C56
:100580000D0A00496E76616C69642065702073699C
:100590007A650D0A000011241FBECFEFD4E0DEBF44
:1005A000CDBF12E0A0E0B1E0E0E5F9E302C00590C4
:1005B0000D92A631B107D9F723E0A6E1B2E001C060
:1005C0001D92A53DB207E1F70E94F5160C94A61CFA
:1005D0000C94000015B88FEF84B98CEF87B918B868
:1005E0001BB880E78AB9E1E6F0E080E880831082FA
:1005F000109264001092650088E10FB6F894809321
:100600006000109260000FBE089580932602089546
:10061000262F823050F490E061E270E00E94BC1816
:10062000622F895D9D4F0C94C50E08950C948C0F1C
:100630000C94DF0E1F93CF93DF93182F0E94E60CCC
:10064000EC01E885F985812F0995811102C090E0C0
:1006500001C0CE01DF91CF911F910895E8EAF3E048
:10066000A8E1B2E0819190E08D939D9383E0EE3A12
:10067000F807C1F7109225021092240288E192E057
:10068000909388018093870108954F925F926F92B3
:100690007F928F929F92AF92BF92CF92DF92EF9212
:1006A000FF920F931F93DC014A015B0160E070E051
:1006B000CB01FD01C590D590E590F490FD013496F5
:1006C0000591159125913491C114D104E104F104EF
:1006D00099F0011511052105310571F0C820D920C7
:1006E000EA20FB20CD28CE28CF2821F0602B712BCB
:1006F000822B932B1896DDCF1F910F91FF90EF90D7
:10070000DF90CF90BF90AF909F908F907F906F9031
:100710005F904F900895813339F0823341F08033F8
:1007200051F481EB92E005C081E392E002C089ECD4
:1007300092E00C94450360E070E0CB010895CF9304
:10074000DF9300D000D000D0CDB7DEB786E0EEE971
:10075000F1E0DE01119601900D928A95E1F786E0B5
:10076000FE013196A8EAB3E001900D928A95E1F777
:100770001092AE0385E08093AF038093B003809323
:10078000B1038093B20326960FB6F894DEBF0FBE76
:10079000CDBFDF91CF910895CF93DF93482FEB0129
:1007A0008031D1F028F4882351F0813059F005C010
:1007B0008231D1F0B0F08331D1F0A0E01EC0809141
:1007C000AE030CC086E0E8EAF3E0DB0101900D9295
:1007D0008A95E1F786E03FC08091AF03888381E08E
:1007E0003AC08091B003FACF8091B103F7CF8091E6
:1007F000B203F4CF481779F0AF5F2A2F30E0C90178
:1008000065E070E00E94BC18FC01EC55FE4F808151
:100810008111F0CF20C0C90165E070E00E94BC18D2
:100820008C559E4FFC0181819281A381B4814091BE
:10083000B3035091B4036091B5037091B603842360
:100840009523A623B72321E0892B8A2B8B2B09F430
:1008500020E02883C4CFDF91CF9108950F931F9399
:10086000CF93DF93282FFB01309709F47AC08031B2
:10087000D9F028F4882351F0813061F005C082312D
:10088000D9F0B0F08331E1F030E021C08081809375
:10089000AE0363C086E0A8EAB3E001900D928A95AA
:1008A000E1F70E944B0E59C080818093AF0355C081
:1008B00080818093B00351C080818093B1034DC08B
:1008C00080818093B20349C0281779F03F5FA32F3E
:1008D000B0E0CD0165E070E00E94BC18EC01CC55A1
:1008E000DE4F88818111F0CF3DC080810091B3033C
:1008F0001091B4032091B5033091B603882389F099
:10090000CD0165E070E00E94BC188C559E4FFC0143
:1009100081819281A381B481802B912BA22BB32B57
:1009200014C0CD0165E070E00E94BC188C559E4F4C
:10093000FC0181819281A381B48180959095A095DD
:10094000B09580239123A223B3238093B303909384
:10095000B403A093B503B093B6030E944B0E81E09D
:1009600001C080E0DF91CF911F910F91089568172A
:1009700079071CF4861B970B089522273327261B23
:10098000370B821793071CF4860F971F089580E09A
:1009900090E00895AF92BF92CF92DF92EF92FF92D4
:1009A0000F931F93CF93DF93CDB7DEB72C970FB67E
:1009B000F894DEBF0FBECDBFFC018A01DA016C9353
:1009C000BA016E5F7F4F86E090E050E84EE39B01F6
:1009D00021503109D9015C93DB014C9301976E5F83
:1009E0007F4F0097A1F7D8011D961C921D971E9668
:1009F0001C92309709F4E0C180818C3009F40EC15B
:100A000018F4813061F0D8C18D3049F08E3009F092
:100A1000D3C14181528160E070E080E3C3C127818E
:100A200030858181992787FD9095803EBFEF9B0798
:100A300014F480EE9FEF8132910514F080E290E093
:100A40009C878B878281992787FD9095803E4FEF09
:100A5000940714F480EE9FEF8132910514F080E248
:100A600090E09A878987E380FF24E7FCF09450EFB9
:100A7000E5165FEFF50624F490EFE92EFF24FA94D3
:100A800081E1E816F1041CF080E1E82EF12CA4814C
:100A9000BB27A7FDB095A03F4FEFB40714F4A0EF1C
:100AA000BFEFA131B10514F0A0E1B0E08581992735
:100AB00087FD909597FF02C080E090E0813291051C
:100AC00014F080E290E09C838B838681992787FDD8
:100AD000909597FF02C080E090E08132910514F07C
:100AE00080E290E09A8389834091B30347FF04C07A
:100AF0001C821B821A82198241FF18C020FF03C08A
:100B000080E290E004C036FF04C080EE9FEF9A8739
:100B1000898721FF03C080EE9FEF04C037FF04C028
:100B200080E290E09C878B872C7F3F738B859C8530
:100B300064EF71E00E94BC186C019C878B878985EB
:100B40009A856CE07EEF0E94BC18FC019A87898729
:100B5000C70168EE73E00E94BC187C0198878F8300
:100B6000CD0168E17CEF0E94BC18DC019E838D837F
:100B70008B819C8164EF71E00E94BC185C018981CB
:100B80009A8164EF71E00E94BC1843FF08C0FC86A4
:100B9000EB86BA87A987D886CF82FE83ED83EB8464
:100BA000FC8450E8E51A51ECF50AFC86EB86A98531
:100BB000BA85A058B14CBA87A987EF81F8856F0133
:100BC00040E8C41A41ECD40AD886CF826D817E8178
:100BD0006058714C7E836D83AC014058514C5A83F0
:100BE0004983C5018058914C9C838B83F801E18235
:100BF0009C859283A3839A859483C58298859683E6
:100C000067839E81908781878C81828743878A81D1
:100C10008487A90160E070E081E3C4C01E821D8268
:100C20001C821B821A821982A181BB27A7FDB09565
:100C3000AC392FEFB20714F4ACE9BFEFA536B1051C
:100C400014F0A4E6B0E02281332727FD30952C393B
:100C50004FEF340714F42CE93FEF2536310514F03B
:100C600024E630E04091B30344FF10C083819481B7
:100C700081155EEF950714F480E09EEF813052E01D
:100C8000950714F080E092E09E838D8345FF10C0AD
:100C90008581968181155EEF950714F480E09EEFC3
:100CA000813052E0950714F080E092E09C838B83C2
:100CB00046FF10C08781908581154EEF940714F48C
:100CC00080E09EEF813052E0950714F080E092E0E2
:100CD0009A8389838D819E816EE170E00E94BC18A9
:100CE0005C018B819C816EE170E00E94BC186C01FC
:100CF00089819A816EE170E00E94BC187C01CD016F
:100D000060EA70E00E94BC18AC014058514C5A8710
:100D10004987C90160E67FEF0E94BC188058914C5A
:100D200098878F83A0E8AA1AA1ECBA0ABE82AD8286
:100D3000B6016058714C7C836B8397012058314C0D
:100D40003A832983D80111964C9311979A8512966C
:100D50009C93129713968C931397888514968C9373
:100D600014971596AC9215978E8116968C931697BC
:100D700017966C9317978C8118968C9318971996E1
:100D80002C9319978A811A968C934185528560E03D
:100D900070E080E30E948B0388279927F80165871C
:100DA00076870AC00E948B0388279927D8011D9651
:100DB0006C931D971E967C932C960FB6F894DEBF0D
:100DC0000FBECDBFDF91CF911F910F91FF90EF909C
:100DD000DF90CF90BF90AF900895BF92CF92DF92F7
:100DE000EF92FF920F931F93CF93DF938C01EA0151
:100DF000688319821A821B821C82009709F487C1BA
:100E0000DC018C918C3009F4EFC08D3019F0813009
:100E100009F07DC1F8018181992787FD9095803E79
:100E2000FFEF9F0714F480EE9FEF8132910514F0DD
:100E300080E290E061E070E00E94B7047C01D8019C
:100E400012968C91992787FD9095803EBFEF9B0766
:100E500014F480EE9FEF8132910514F080E290E06F
:100E600061E070E00E94B704B82EC92EF8018381BA
:100E7000992787FD9095803FFFEF9F0714F480EF3F
:100E80009FEF8131910514F080E190E061E070E026
:100E90000E94B704D82ED80114968C91992787FD0B
:100EA0009095803FBFEF9B0714F480EF9FEF813157
:100EB000910514F080E190E061E070E00E94B704D9
:100EC000FC01D80117966D917C91189765FD05C0BE
:100ED000A1E0B0E043E050E004C0A8E0B0E048E0AA
:100EE00050E063FF02C041E050E060FD10C076FDBD
:100EF00009C02B2D3C2D37FF02C02F5F3F4F35958A
:100F0000279506C022273327241B350B01C09A01E1
:100F100061FF04C051954195510909C077FD07C093
:100F2000A701F7FE02C04F5F5F4F5595479575FDCE
:100F300007C071FF06C0EE27FF27EA1BFB0B01C0AD
:100F4000FD018091B30383FD06C09E2F8F2FF90111
:100F5000292F382FD42EDA82E195EB838091B303C9
:100F600082FF03C0319521953109A90137FF04C0E3
:100F700044275527421B530B4930510504F58091F6
:100F80006D0290916E02892B81F489E090E0841BC0
:100F9000950B90936E0280936D022115310529F017
:100FA00014F081E001C08FEF8C8380916D029091ED
:100FB0006E02019790936E0280936D0206C068E006
:100FC00070E0C9010E94B7048C831982F8018781FF
:100FD00086FF02C081E08983D80117968C9184FF37
:100FE00096C08981826092C0F8018185928596952C
:100FF0008795F82FF170FF2ED80111968C919927C3
:1010000087FD90958C39BFEF9B0714F48CE99FEF17
:101010008536910514F084E690E068E070E00E9467
:10102000B704D82EE92EF8018281992787FD909583
:101030008C39FFEF9F0714F48CE99FEF85369105FB
:1010400014F084E690E068E070E00E94B704F110CC
:1010500016C02D2D3E2D37FF02C0295F3F4F43E0C4
:10106000359527954A95E1F72A8397FD079633E052
:10107000959587953A95E1F781958B833CC02091B2
:10108000B30322FF03C091958195910997FD0796BF
:1010900023E0959587952A95E1F7AC0197FF04C069
:1010A00044275527481B590B49305105FCF4209122
:1010B0006B0230916C02232B79F429E030E0241B81
:1010C000350B30936C0220936B02009729F014F0DB
:1010D00081E001C08FEF8C8380916B0290916C0254
:1010E000019790936C0280936B0205C068E070E0FA
:1010F0000E94B7048C831982D80119968C9180FFC5
:1011000006C0FF2011F082E001C081E08983DF91F9
:10111000CF911F910F91FF90EF90DF90CF90BF90F4
:101120000895529A8AE08A95F1F700C0509A85E0B6
:101130008A95F1F700000895529A85E08A95F1F7B3
:1011400000005098489BFECF95E09A95F1F700007B
:10115000529885E08A95F1F700008FE193E00197BE
:10116000F1F700C00000089528E030E090E8492F32
:10117000482311F0529801C0529A45E04A95F1F780
:1011800000005098489BFECF4AE04A95F1F700C016
:10119000509A45E04A95F1F70000969521503109A3
:1011A0002115310521F785E08A95F1F70000529865
:1011B00045E04A95F1F700005098489BFECF85E046
:1011C0008A95F1F700004A9B0BC045E04A95F1F77C
:1011D0000000509A85E08A95F1F7000080E00895BC
:1011E00045E04A95F1F70000509A85E08A95F1F7BD
:1011F000000081E0089580936F02089550985298FE
:1012000058985A985098489BFECF52980895089540
:10121000CF92DF92FF920F931F93CF93DF931F9292
:10122000CDB7DEB7182F062F99830E9491088091C1
:101230006F020E94B4089981882379F0F12EC12EA3
:10124000D92E80E09C2D9F19901740F4F6018191D2
:101250006F010E94B4088111F5CF80E089830E945C
:101260009C0889810F90DF91CF911F910F91FF9082
:10127000DF90CF9008951F93CF93DF9300D0CDB729
:10128000DEB7182F69839A830E94910880916F02BC
:1012900081600E94B40869819A81882351F0E12F0E
:1012A000F92F20E030E010E0462F50E04150510986
:1012B0003BC00E949C0880E043C0BAE0BA95F1F7B9
:1012C00000C05098489BFECFB5E0BA95F1F70000FA
:1012D0004A997A2BB5E0BA95F1F70000509ABAE036
:1012E000BA95F1F700C0A6950197009731F7719371
:1012F00085E08A95F1F7000024173507E4F052984D
:10130000B5E0BA95F1F700005098489BFECF8AE00F
:101310008A95F1F700C0509AB5E0BA95F1F7000050
:1013200052982F5F3F4F11E0261738F488E090E085
:10133000A0E870E0C2CF529AE3CF0E949C08812FB0
:101340000F900F90DF91CF911F910895539A8AE0EB
:101350008A95F1F700C0519A85E08A95F1F700006F
:101360000895539A85E08A95F1F700005198499BBA
:10137000FECF95E09A95F1F70000539885E08A95A5
:10138000F1F700008FE193E00197F1F700C0000052
:10139000089528E030E090E8492F482311F0539851
:1013A00001C0539A45E04A95F1F700005198499BD6
:1013B000FECF4AE04A95F1F700C0519A45E04A95C0
:1013C000F1F700009695215031092115310521F7DB
:1013D00085E08A95F1F70000539845E04A95F1F7CA
:1013E00000005198499BFECF85E08A95F1F70000F7
:1013F0004B9B0BC045E04A95F1F70000519A85E000
:101400008A95F1F7000080E0089545E04A95F1F7EC
:101410000000519A85E08A95F1F7000081E0089577
:101420008093700208955198539859985B985198F9
:10143000499BFECF539808950895CF92DF92FF9273
:101440000F931F93CF93DF931F92CDB7DEB7182F63
:10145000062F99830E94A609809170020E94C909F3
:101460009981882379F0F12EC12ED92E80E09C2D10
:101470009F19901740F4F60181916F010E94C909EC
:101480008111F5CF80E089830E94B10989810F9095
:10149000DF91CF911F910F91FF90DF90CF90089532
:1014A0001F93CF93DF9300D0CDB7DEB7182F69839A
:1014B0009A830E94A6098091700281600E94C909E6
:1014C00069819A81882351F0E12FF92F20E030E0E3
:1014D00010E0462F50E0415051093BC00E94B10935
:1014E00080E043C0BAE0BA95F1F700C05198499B3B
:1014F000FECFB5E0BA95F1F700004B997A2BB5E035
:10150000BA95F1F70000519ABAE0BA95F1F700C028
:10151000A6950197009731F7719385E08A95F1F7C9
:10152000000024173507E4F05398B5E0BA95F1F7B9
:1015300000005198499BFECF8AE08A95F1F700C0E0
:10154000519AB5E0BA95F1F7000053982F5F3F4FDD
:1015500011E0261738F488E090E0A0E870E0C2CFF0
:10156000539AE3CF0E94B109812F0F900F90DF9122
:10157000CF911F9108950C94FE080C94130AAF921A
:10158000BF92CF92DF92EF92FF920F931F93CF9370
:10159000DF93EC016B015A017901E881F9818A81BD
:1015A0000190F081E02D880F0995C114D10421F438
:1015B000E114F10489F426C0A114B104C9F3E8814F
:1015C000F9810280F381E02D6C2DC501099581110F
:1015D000EFCF8FEF9FEF18C00115110599F0E8814B
:1015E000F9810480F581E02D6E2DC801099521E077
:1015F00030E0882311F020E030E088279927821B13
:10160000930B02C080E090E0DF91CF911F910F918A
:10161000FF90EF90DF90CF90BF90AF900895811131
:1016200002C00C94BB0A813011F40C94BD0A0895D9
:10163000EF92FF920F931F93CF93DF93CDB7DEB757
:1016400061970FB6F894DEBF0FBECDBF833010F0A8
:101650008FEFEDC0E82EF12C198AC70163E070E02E
:101660000E94BC188E010F5F1F4F26E030E0AE01D4
:101670004F5E5F4F61E070E089589E4F0E94BF0A45
:101680008111E6CFF701EE0FFF1FEF58FD4F2081CC
:10169000318149812330310509F050C0C7016BE029
:1016A00070E00E94BC18FC01E754FC4F2330310568
:1016B00029F02130314031F030E001C031E081E0EB
:1016C000808303C08DE0808330E0842F8F7380524D
:1016D00081838A81982F9F73905292839B81407C53
:1016E000469546954695807C829586958770842B95
:1016F000292F221F2227221F822B80518383892F8B
:101700008F71805184832C81892F80768695869570
:10171000922F929596959770892B85832F712683AA
:101720008D8190E0982F88272E81822B809590952F
:10173000908787833111138280E079C0243031058E
:1017400008F059C02130310509F4A8CFC7016BE07A
:1017500070E00E94BC18FC01E754FC4F8CE08083D1
:10176000405841838A81805882834E81842F8C70B7
:1017700090E095958795959587952B8130E0220F80
:10178000331F220F331F822B932B9250948383831A
:10179000842F807390E064E0959587956A95E1F7D2
:1017A0002C8130E0220F331F220F331F822B932B0B
:1017B0009250968385838D8190E0880F991F880FC2
:1017C000991F242F2295269526952370822B9250BF
:1017D0009087878340FF03C01286118604C081E092
:1017E00090E09287818741FDA7CF818592858260B5
:1017F00092878187A1CF2131310599F4C7016BE030
:1018000070E00E94BC18FC01E754FC4F8EE080831E
:10181000242F30E020953095287733273283218399
:101820008BCF213081E0380709F090CF37CF619618
:101830000FB6F894DEBF0FBECDBFDF91CF911F91E1
:101840000F91FF90EF900895CF92DF92EF92FF9269
:101850000F931F93CF93DF931F92CDB7DEB77C0119
:1018600069836A0100E010E020E030E0AE014F5FE4
:101870005F4F61E070E00E94BF0A811118C08FE3E2
:1018800096E00197F1F700C00000860121E030E00A
:1018900040E050E060E070E0C7010E94BF0A8111A3
:1018A00006C0EFE3F6E03197F1F700C000000F90BB
:1018B000DF91CF911F910F91FF90EF90DF90CF902C
:1018C0000895CF92DF92EF92FF920F931F93CF93E1
:1018D000DF9300D01F92CDB7DEB7833008F069C028
:1018E000EFE5FAEE3197F1F700C00000C82ED12CD9
:1018F000C60163E070E00E94BC1889589E4F7C01CD
:1019000080EF898385E58A8300E010E020E030E005
:10191000AE014F5F5F4F62E070E0C7010E94BF0AF7
:10192000EFE3F6E03197F1F700C00000811141C00C
:101930008BEF89831A8200E010E020E030E0AE01F6
:101940004F5F5F4F62E070E0C7010E94BF0AEFE3A4
:10195000F6E03197F1F700C0000081112AC0AE0116
:101960004D5F5F4F6FEFC7010E94240C811121C0B2
:10197000AE014F5F5F4F6AEFC7010E94240C8111D7
:1019800018C0F601EE0FFF1FEF58FD4F898190E060
:10199000982F88272B81822B91838083FFEF23ED63
:1019A00080E3F15020408040E1F700C0000081E07A
:1019B00001C080E00F900F900F90DF91CF911F91A9
:1019C0000F91FF90EF90DF90CF9008958DE691E01A
:1019D00008952F923F924F925F926F927F928F92D3
:1019E0009F92AF92BF92CF92DF92EF92FF920F93AE
:1019F0001F93CF93DF93CDB7DEB727970FB6F89439
:101A0000DEBF0FBECDBF6C012B013A012DB73EB733
:101A10003F832E836DB77EB7641B750B0FB6F894AA
:101A20007EBF0FBE6DBF8DB79EB701964C0192E091
:101A30004916510414F480E08EC0D6011C9112386E
:101A4000D1F760E070E0C4010E94BF19F401108377
:101A5000AA24A394B12CEE24E394F12C1B821A82C5
:101A6000C70102968415950504F5F7013196D60154
:101A7000AE0DBF1D3C913230F0F6EC0DFD1D208106
:101A8000F70133968C0D9D1DDC014C91B4E0EB0EFB
:101A9000F11CEC0DFD1D60816983442399F0C701A1
:101AA000840F911D481659063CF4A301B401C601E8
:101AB0000E94B6198FE34FC0D601AE0DBF1DBB8388
:101AC000AA837C01A32FB0E0CD0163E070E00E9407
:101AD000BC1883589E4FFC012283F9812F2E312C94
:101AE0009501220D331D2F5F3F4F26153705ECF66C
:101AF00095012E5F3F4F3D832C83F11102C044239B
:101B0000F9F0E42FF0E0CD0163E070E00E94BC1832
:101B10000C811D81080D191D91014A815B81BF0156
:101B200083589E4F0E94BF0A892B51F0F401EA0DA1
:101B3000FB1D31E03083B5016F5F7F4F5B0190CFBC
:101B4000F401EA0DFB1D108279817183AC80BD80A8
:101B5000A20CB31C85CFAE81BF810FB6F894BEBF77
:101B60000FBEADBF27960FB6F894DEBF0FBECDBF38
:101B7000DF91CF911F910F91FF90EF90DF90CF9069
:101B8000BF90AF909F908F907F906F905F904F909D
:101B90003F902F9008958DEA9EED9093D40380930B
:101BA000D303089581E02091D3033091D4032D3ADB
:101BB0003E4D09F480E081950895109280008DE0FB
:101BC000809381000895BC01809175029091760206
:101BD00086179707F1F07093760260937502109262
:101BE000850010928400882777FD8095982F29E042
:101BF0003DE340E050E00E94F218B901CA0128EE2E
:101C000033E040E050E00E94CD18309389002093EB
:101C100088000895B19B04C082E086BB81E00895EE
:101C200080E00895A7E7B2E0FC014491242F30E062
:101C30002D933D930196442349F022E0A53BB20742
:101C400099F71092B6021092B50208950895E6EA47
:101C5000F3E080E090E023E0E73BF207D9F0219148
:101C60009227092E0294202D2F702927392F3025F5
:101C7000330F307E2327302D3927307F3695092EBC
:101C8000000C331F9695969596959F7193279827EC
:101C9000822FE1CF08950E94270E9093B80380937E
:101CA000B70343E150E060E070E086EA93E00C9413
:101CB000D31BCF93DF9343E150E060E070E086EA0E
:101CC00093E00E94C31B8091A6039091A7038D3ED1
:101CD0009E4F91F083E1E6EAF3E0DF011D928A95E1
:101CE000E9F78DEE9EEF9093A7038093A6030E94E1
:101CF0009F030E944B0E09C0C091B703D091B80357
:101D00000E94270EC817D90729F7DF91CF910C94AD
:101D10002E030E948615F894E0E0F0EF09940895F0
:101D20000E948615F894E0E0F0E00994089580E0C0
:101D300090E008951092C90089E891E09093D20351
:101D40008093D1030895FA0121E2DC011D922A95C6
:101D5000E9F76093B702DC0190965C934E935F972E
:101D6000AC01485F5F4F61E080E090E009948091B2
:101D7000B70290E00895FC01CB01AF01485F5F4FCF
:101D8000078CF0A1E02D61E00994FC0162830895C5
:101D9000FC01828181110FC08181882349F08381F8
:101DA00087FD03C0848187FF03C081E0808301C079
:101DB00010828081089581E0089508960895EF9239
:101DC000FF920F931F93CF93DF93EC018B017A0166
:101DD000FB0182819381292F33272130310521F0A6
:101DE0002330310571F172C0813081F42896F701FA
:101DF000D183C08385EE94E09F938F930E94CD1989
:101E00008091B70290E00F900F907FC0823099F4DC
:101E10008F8B188E8D81898F88ED94E09F938F939F
:101E20000E94CD196796F701D183C0830F900F9060
:101E300083E090E06AC099279F938F938FEB94E0A3
:101E40003DC0823051F48F8B81E0888F898F8AE08A
:101E50008A8F8B8F82EB94E00BC08330B1F48F8B31
:101E600081E0888F898F9FEF9A8F8B8F8FE994E025
:101E70009F938F930E94CD196796F701D183C083FA
:101E80000F900F9085E090E040C0893091F48F8BE7
:101E900081E0888F8FE894E09F938F930E94CD1903
:101EA0006796F701D183C0830F900F9082E090E096
:101EB0002CC099279F938F938AE794E09F938F93E9
:101EC0000E94CD190F900F900F900F90F80187810D
:101ED0008F9386818F9383818F9382818F9381816A
:101EE0001F928F9380811F928F938EE294E09F9335
:101EF0008F930E94CD198DB79EB70A960FB6F894AE
:101F00009EBF0FBE8DBF80E090E0DF91CF911F910B
:101F10000F91FF90EF900895EF92FF920F931F9310
:101F2000CF93DF937C01EA012115310549F488E262
:101F300094E09F938F930E94CD190F900F90E0C073
:101F4000FB01838190E08230910509F0B7C0888160
:101F5000082F10E0F8013197ED30F10508F0A9C025
:101F6000E65CFF4F0C94EC188A811F928F93898155
:101F70001F928F938AE094E09F938F930E94CD19D4
:101F80000F900F900F900F900F900F90BBC0898112
:101F90001F928F9387EF93E09EC083EE93E09F9311
:101FA0008F930E94CD19F701148213827BC088EDB4
:101FB00093E09FC08981F701858389811F928F9368
:101FC00088EC93E088C08A81F70184838A811F921C
:101FD0008F9387EB93E07FC08981813009F092C0B5
:101FE0008A81F70183838A811F928F9383EA93E02A
:101FF00072C02430310509F083C08B8190E033E05A
:10200000880F991F3A95E1F7F701978386838981B5
:10201000282F2F7787FF03C08FE092E002C083E173
:1020200092E01F922F939F938F9385E893E09F9365
:102030008F930E94CD1989818F770F900F900F9009
:102040000F900F900F90853038F4833048F4813032
:1020500039F0823049F156C08D3008F053C024C0A9
:10206000CA81C23071F0C330B1F0C13009F04AC04A
:102070008DE793E09F938F930E94CD19F701C18361
:102080003CC080E793E09F938F930E94CD1981E03D
:10209000F701818332C089E693E09F938F930E947A
:1020A000CD19F701118229C01F928F9386E593E025
:1020B00012C01F928F938BE393E00DC00397B9F486
:1020C0008881893089F48981F701858389811F920C
:1020D0008F9389E293E09F938F930E94CD190F9085
:1020E0000F900F900F900EC082E293E002C086E145
:1020F00093E09F938F930E94CD190F900F9002C091
:102100008FEF01C080E0DF91CF911F910F91FF9081
:10211000EF9008950F93FB018093E900CA01241703
:10212000350708F4C9018E0F9F1F002341F0E817FF
:10213000F90761F024912093F1003196F8CFE81768
:10214000F90721F021912093F100F9CF0F91089523
:10215000CF92DF92EF92FF920F931F93CF93DF9373
:102160006C01122FEA016417750708F4EB01E12CEA
:10217000F12CB6016E0D7F1D012FC134D105B0F0D9
:1021800020E430E040E450E080E00E948A1080913A
:10219000E8008E7F8093E80080E4E80EF11CC054D4
:1021A000D1098091E80080FFFCCFE3CF9E01AE0112
:1021B00080E00E948A108091E8008E7F8093E80082
:1021C0008091E80080FFFCCFDF91CF911F910F91AC
:1021D000FF90EF90DF90CF900895EF92FF920F93D2
:1021E000CF93DF937B01EA018093E9009091E800AF
:1021F00090FF25C02881398137FF06C08091F0000B
:102200008E7F8093F0001BC09091E8009E7F90939A
:10221000E8002881398148815981FB016081718101
:1022200000E00E948A10F701118210828FEF9FEF69
:10223000998388838091E8008F778093E800DF910D
:10224000CF910F91FF90EF9008951092E90081E0F7
:102250008093EB001092EC008CE48093F00080916E
:10226000ED0082638093ED001092E8008091EE0013
:1022700087FF50C020E030E041E0A1ECE091B902DE
:10228000F091BA02828590E028173907F4F581E0D1
:10229000820F8093E9004093EB00A093EC00409301
:1022A000F000E091B902F091BA02C9016CE070E06F
:1022B0000E94BC18E80FF91F87859089803191052D
:1022C00039F124F4089741F480E00AC08032910586
:1022D000E9F08034910519F083E895E00CC080E3C3
:1022E00082608093ED001092E8008091EE0087FDFF
:1022F00009C085E795E09F938F930E94CD190F90B9
:102300000F9008952F5F3F4FB9CF089580E2E8CF37
:1023100080E1E6CF08951F920F920FB60F9211241D
:102320002F933F934F935F936F937F938F939F93DD
:10233000AF93BF93CF93EF93FF93C091E100C0FFA2
:102340000DC08091E1008E7F8093E10081E0809359
:102350004D038091E20080618093E200C4FF10C0D1
:102360008091E1008F7E8093E10080914D0388236E
:1023700039F010924D038091E2008F7E8093E2004D
:10238000C3FF09C010924D030E9425118091E10006
:10239000877F8093E100C2FF05C08091E1008B7FC1
:1023A0008093E100C5FF05C08091E1008F7D80939F
:1023B000E100C6FF05C08091E1008F7B8093E100C2
:1023C000FF91EF91CF91BF91AF919F918F917F91AD
:1023D0006F915F914F913F912F910F900FBE0F9092
:1023E0001F9018951F920F920FB60F9211246F92A3
:1023F0007F928F929F92AF92BF92CF92DF92EF9295
:10240000FF920F931F932F933F934F935F936F937D
:102410007F938F939F93AF93BF93EF93FF93CF934C
:10242000DF9300D000D0CDB7DEB7B090F400B0FE9F
:10243000C0C21092E9001091E80013FF08C2809119
:10244000F20090E0EDE0F3E09F012D5033402817BB
:10245000390720F42091F1002193F6CF8091E80014
:10246000877F8093E80080910D0387FD73C0982FCC
:102470009F7121F0913009F43FC06CC080910E0330
:10248000853019F0893019F167C080910F0380936E
:10249000E3008091E80080FFFCCF8091E8008E7F10
:1024A0008093E8008091E80080FFFCCF8091E300FA
:1024B00080688093E30080910F0390911003892B33
:1024C00011F481E001C082E080939D0143C08091BE
:1024D0000F0380930C03811102C082E001C083E0EE
:1024E00080939D018091E80080FFFCCF8091E800FF
:1024F0008E7F8093E8002EC08076803269F58091CF
:102500000E038930D1F48091E80080FFFCCF8091E8
:10251000E8008E7F8093E80088E0EDE0F3E0AEEF26
:10252000B2E001900D928A95E1F71092FD021092AF
:10253000FC0281E08093FB020DC01F928F9384E523
:1025400095E09F938F930E94CD190F900F900F905D
:102550000F9002C0A12C02C0AA24A39490910D0355
:1025600097FF55C1292F2F7180910E03213009F457
:10257000B0C020F0223009F420C14BC18630B1F048
:10258000883009F01AC180919D0120911303309188
:102590001403833029F0198200E041E050E0ACC020
:1025A00000E041E050E06CE073E005C1E0900F0313
:1025B000F09010038F2D992782309105A9F0833078
:1025C000910509F1019709F024C1E091B902F09158
:1025D000BA020081017020911303309114036181CC
:1025E000728142E150E0E7C0E091B902F091BA0295
:1025F00020812270409113035091140365817681EC
:1026000083819481A2C0FF24E114F10409F448C03D
:10261000C090B902D090BA02D60117968C9190E082
:102620008E159F050CF44CC060901303709014033A
:10263000B1E0EB1AF108EE0CFF1CD6011896ED91F3
:10264000FC911997EE0DFF1D0190F081E02D812C7A
:10265000912C81919191892B21F0BFEF8B1A9B0ACC
:10266000F8CF880C991C82E0880D898383E08A83E7
:1026700000E0930142E050E0BE016F5F7F4F80E0D9
:102680000E948A10930122503109D6011896ED91CB
:10269000FC911997EE0DFF1D60817181A4018BC023
:1026A00084E0898383E08A8389E08B8380E18C8363
:1026B000209113033091140300E044E050E01CC06B
:1026C00080E495E09F938F930E94CD190F900F9017
:1026D00084C0907619F09032D9F19BC0882319F00C
:1026E000863071F096C019821A82209113033091BE
:1026F000140300E042E050E0BE016F5F7F4F5BC01B
:102700008091100390E0829709F083C080911103BB
:1027100090911203E091B902F091BA02228530E063
:102720002817390708F475C020812470A09113037D
:10273000B09114036CE070E00E94BC18E80FF91F20
:1027400063857485AD01858596850E94A81045C076
:10275000813009F05EC02091110330911203A091E5
:10276000B902B091BA021A968C911A9790E082172A
:10277000930798F1C9016CE070E00E94BC188A0FC1
:102780009B1FFC01E388F488E114F10409F441C0C3
:10279000AE014F5F5F4F6DE073E081899289F70171
:1027A00009950097D1F020911303309114036981AA
:1027B0007A8100E0AC0180E00EC081112AC019824C
:1027C0001A82209113033091140300E042E050E09C
:1027D000BE016F5F7F4F0E948A10A1101AC08091C6
:1027E000E8008E7F8093E8008091E80080FF05C0BC
:1027F0008091E8008E7F8093E8008091E80082FF5E
:10280000F3CF8091E8008B7F8093E80020C0AA205E
:10281000F1F0809110038F9380910F038F9380913B
:102820000E031F928F9380910D031F928F938FE160
:1028300095E09F938F930E94CD198091EB00806269
:102840008093EB000FB6F894DEBF0FBECDBF12FF32
:1028500036C0E090F200F12CEDE0F3E0CF018D50B6
:1028600093408E159F0520F48091F1008193F6CF5F
:102870008091E8008B7F8093E8008091FB028823A1
:10288000F1F08091FC029091FD028E0D9F1D80342D
:102890009105A8F48091FC029091FD02A7016DE0E2
:1028A00073E085549D4F0E94B6198091FC0290916F
:1028B000FD028E0D9F1D9093FD028093FC0216FF7A
:1028C00078C08091E8008F7B8093E8008091FB02C4
:1028D000882309F46EC00091FC021091FD028091E2
:1028E000FE0280768032A1F520910203309103032D
:1028F000A091B902B091BA021A968C911A9790E001
:102900008217930708F453C0C9016CE070E00E947D
:10291000BC188A0F9B1FFC01E588F688E114F104BE
:10292000B9F098014BEB52E06EEF72E08189928929
:10293000F7010995882331F08091EB008062809344
:10294000EB0035C08091E8008E7F8093E8002FC0B7
:102950001F930F938FEF94E09F938F930E94CD1955
:102960008BEBE82E82E0F82EC80185549D4F6C0158
:102970000F900F900F900F9009EF14E0EC14FD04EE
:1029800071F0D7018D917D011F928F931F930F934B
:102990000E94CD190F900F900F900F90EFCF86EF00
:1029A00094E09F938F930E94CD190F900F901092F7
:1029B000FB02B1FE07C04BE951E06AE073E081E041
:1029C0000E94ED10B2FE07C049E951E068E073E0F3
:1029D00082E00E94ED10B3FE07C047E951E066E0D7
:1029E00073E083E00E94ED100F900F900F900F9016
:1029F000DF91CF91FF91EF91BF91AF919F918F9117
:102A00007F916F915F914F913F912F911F910F9106
:102A1000FF90EF90DF90CF90BF90AF909F908F90FE
:102A20007F906F900F900FBE0F901F901895209180
:102A300097013091980181E02F3F3F4F09F080E0EE
:102A400008954FB720919701309198012F3F3F4F44
:102A5000C9F7F89490930703809306037093980145
:102A60006093970183E08093E9008091F00081609A
:102A70008093F0004FBF08952091990130919A0101
:102A800081E02F3F3F4F09F080E008954FB720913C
:102A9000990130919A012F3F3F4FC9F7F8949093D5
:102AA00009038093080370939A016093990182E06F
:102AB0008093E9008091F00081608093F0004FBF27
:102AC000089520919B0130919C0181E02F3F3F4F61
:102AD00009F080E008954FB720919B0130919C014F
:102AE0002F3F3F4FC9F7F89490930B0380930A034D
:102AF00070939C0160939B0181E08093E900809139
:102B0000F00081608093F0004FBF0895E0EEF0E0A8
:102B10008081816080831092E200E8EDF0E08081A6
:102B20008F77808380818062808308958091B8024E
:102B3000882321F0813051F01092B8028091E0009A
:102B40008E7F8093E00081E08093B802089520E2B8
:102B50002093D80021E02093E0001092E200109230
:102B6000E3009093BA028093B9028091D8008F77E6
:102B70008093D8008091D80080628093D800109212
:102B8000FB001092630084E089BD89B5826089BD35
:102B900009B400FEFDCF8091D80080688093D800F2
:102BA0008091D8008F7D8093D8000E94251180915C
:102BB000E1008E7F8093E10089E78093E200089531
:102BC00080918F03823059F48FE493E0FA0191836E
:102BD000808310928F0380914E0390E0089580E0EF
:102BE00090E00895CF93DF931F92CDB7DEB7BA017F
:102BF00081E080938F03A9018FE493E029830E94F1
:102C0000B619298120934E0380E00F90DF91CF9178
:102C10000895CF93DF93FC0180918F03813029F0D9
:102C200008F492C0823029F48FC080914E03811144
:102C300003C010928F0388C080914F03853009F440
:102C40004BC028F5823089F158F4813009F068C012
:102C500061E573E0809150030E942E0482E06FC012
:102C6000833079F1843009F05BC0C0915F01D0916D
:102C70006001BE0180E593E00E94C619FE0101904B
:102C80000020E9F7EC1BEF5FE0934E035AC087305A
:102C9000C9F170F18E3F31F08F3F09F041C00E94C1
:102CA000890E4FC00E94900E4CC04EE361E573E068
:102CB000809150030E94CC0380934E0380914E0379
:102CC00015C03097F1F10190F081E02D3097C9F1F6
:102CD00080915003099535C061EF72E080E593E083
:102CE0000E94991981EF92E00E94A0198E5F27C07F
:102CF00080915003843028F50E94EB168C59809304
:102D000051030CC0309751F00280F381E02D3097D1
:102D100029F06091510380915003099583E00FC021
:102D2000309779F00480F581E02D309751F0609173
:102D30004E0370E040E450E08FE493E00995809307
:102D40004E0382E080938F03DF91CF910895282F67
:102D500030E0C9016BE070E00E94BC18FC01E05754
:102D6000FC4FC9016BE070E00E94BC184BE050E0E2
:102D7000BF0187549C4F0E94A9190895DB01282F99
:102D800030E0109769F0C9016BE070E00E94BC1858
:102D9000FC01E754FC4F8BE001900D928A95E1F71E
:102DA000C9016BE070E00E94BC18DC01A057BC4F69
:102DB000FC01E754FC4F8BE001900D928A95E1F7FE
:102DC000089590E06BE070E00E94BC1887549C4F1F
:102DD000FC011082089590E06BE070E00E94BC1846
:102DE00087549C4FFC0180810895CF93DF93CDB72A
:102DF000DEB761970FB6F894DEBF0FBECDBF1C865D
:102E00001D861E861F860E94EA020E949A0E0E945C
:102E1000590E0E94DD0D0E94CB0D8091AE038031D2
:102E200081F0803209F443C089EB90E00E94120ED9
:102E3000712C188A8AECC82E84E0D82E9FE0B92E17
:102E400062C082EA90E00E94120E8CE290E09093C1
:102E50005801809357018BE091E090930A01809391
:102E6000090184E590E090930C0180930B0183E0CD
:102E7000809310018CE0EDE1F1E0A9E2B1E0019076
:102E80000D928A95E1F78CE0E1E1F1E0ADE1B1E08E
:102E900001900D928A95E1F7712C188ABAECCB2E2D
:102EA000B4E0DB2E1FE0B12E02E0802E2EC08EE8B3
:102EB00090E00E94120E8AE290E090935801809375
:102EC000570180ED90E090930A01809309018BE314
:102ED00090E090930C0180930B018FEA91E0909326
:102EE00014018093130184E490E090931201809385
:102EF0001101EAE07E2E21E0288BFDEECF2EF6E0D8
:102F0000DF2EA5E0BA2E8824839477E2E72E72E0C4
:102F1000F72E80E090E08C01A6016B2DC7010E9486
:102F2000A30E98012F5F3F4F01118901C8016CE08A
:102F300070E00E94BC188A5F9E4FDC015296FC92A2
:102F4000EE925197C901B1E2EB0EF11C281518F36E
:102F500010E00E94E60CDC01ED91FC91812F0995B7
:102F60001F5F1815B0F3789486E091E00E94A715D2
:102F7000912C59E6252E52E0352E472C512C66E136
:102F8000A62E62E0B62E0E94D20D81110E94890EFB
:102F90000E94961580E091E00E940916B1E09B1610
:102FA000F9F09B1648F0E2E09E1609F47FC0F3E0CA
:102FB0009F1609F487C0A9C0809126028111A1C083
:102FC000772011F0C20103C08091AF0390E00E940E
:102FD000E30D0E940A0E99249394811196C091C02A
:102FE000CE010C967C0147E2C42E42E0D42E09E6C5
:102FF00012E0602E6218D7018D919C91892B89F483
:10300000862D0E941A03F70191838083009749F06F
:10301000DC011496ED91FC911597309711F0862DF7
:103020000995D701ED91FC913097A1F00280F381D1
:10303000E02D862D0995F801882351F080818F5F5E
:1030400080838F3150F0D7011D921C9210821BC0DB
:10305000108203C0862D0E94E116862D0E94A716BD
:10306000811103C02889222371F0BE016F5F7F4F59
:10307000862D0E94BE16BE016F5F7F4FC6010E9463
:10308000BB0E32E0932E82E0E80EF11C0F5F1F4F63
:1030900091E2C90ED11C802F8219881508F4A9CF9E
:1030A000A1E09A1671F122E0922E2FC00E946115C4
:1030B000811129C0B2E08B1228C00E943C158111F9
:1030C00022C023C00E946115882351F00E94B70ED0
:1030D0008C0187E292E00E94DD0EB8010E946B1520
:1030E000E2E08E120EC00E943C15882351F00E942F
:1030F000B70E8C0188E492E00E94DD0EB8010E94B8
:103100004615912C02C093E0992ECE010C967C01BD
:1031100006E112E087E2C82E82E0D82E602E6A18FF
:10312000C6010E94C80E982FD8014C91552747FD23
:103130005095282F30E04217530789F0D701ED91C1
:10314000FC91309751F00680F781E02D309729F0FF
:10315000682F862D998B09959989F8019083F1E262
:10316000CF0ED11C0F5F1F4F22E0E20EF11C802F0B
:103170008A19881598F207CF0024552704C0080E35
:10318000591F880F991F009729F076956795B8F316
:103190007105B9F7802D952F0895052E97FB1EF424
:1031A00000940E94E41857FD07D00E94491907FCBB
:1031B00003D04EF40C94E418509540953095219529
:1031C0003F4F4F4F5F4F0895909580957095619553
:1031D0007F4F8F4F9F4F0895EE0FFF1F0590F49183
:1031E000E02D099468940013E894A0E0B0E0EBEFC0
:1031F000F8E10C941A19EFEFE7F959016A015E231F
:10320000550FEE08FE2C87019B01AC019E23990F00
:10321000660B762FCB010E946B19CDB7DEB7EAE0C3
:103220000C9436192F923F924F925F926F927F9239
:103230008F929F92AF92BF92CF92DF92EF92FF92C6
:103240000F931F93CF93DF93CDB7DEB7CA1BDB0B72
:103250000FB6F894DEBF0FBECDBF09942A88398817
:1032600048885F846E847D848C849B84AA84B9841E
:10327000C884DF80EE80FD800C811B81AA81B9812A
:10328000CE0FD11D0FB6F894DEBF0FBECDBFED013E
:103290000895A1E21A2EAA1BBB1BFD010DC0AA1F97
:1032A000BB1FEE1FFF1FA217B307E407F50720F0AF
:1032B000A21BB30BE40BF50B661F771F881F991F2A
:1032C0001A9469F760957095809590959B01AC0173
:1032D000BD01CF010895DF93CF939F92A0E49A2E72
:1032E0000024D001E001F00116950795F794E794CA
:1032F000D794C794B794A79448F41068A20FB31F4B
:10330000C41FD51FE61FF71F081E191E220F331FEB
:10331000441F551F661F771F881F991F9A9421F716
:103320009D01AE01BF01C00111249F90CF91DF919B
:103330000895FB01DC0105900D920020E1F708954E
:10334000FC0105900020E9F7809590958E0F9F1F56
:103350000895FB01DC0104C08D910190801921F4D6
:1033600041505040C8F7881B990B0895FB01DC01C0
:1033700002C001900D9241505040D8F70895DC01F1
:1033800001C06D9341505040E0F70895FB01DC010E
:1033900001900D920020E1F70895A0E0B0E0E3ED88
:1033A000F9E10C942019FE0137966191719101EDBC
:1033B00013E0D8018D919C91DC0113962C91139709
:1033C000286013962C93AF010E94EF19D801ED915C
:1033D000FC912381277F2383E4E00C943C19ACE02B
:1033E000B0E0E5EFF9E10C9412197C016B018A0160
:1033F000FC0117821682838181FFBFC1CE01019635
:103400004C01F7019381F60193FD859193FF819122
:103410006F01882309F4ADC1853239F493FD85919C
:1034200093FF81916F01853229F4B70190E00E94EA
:103430000B1CE7CF512C312C20E02032A0F48B3232
:1034400069F030F4803259F0833269F420612EC083
:103450008D3239F0803339F4216028C02260246035
:1034600025C0286023C027FD29C030ED380F3A3031
:1034700088F426FF07C0852D6AE00E949D1C582E07
:10348000530E14C0832D6AE00E949D1C382E330E0B
:1034900020620CC08E3221F426FD6BC1206406C070
:1034A0008C3611F4206802C0883641F4F60193FD91
:1034B000859193FF81916F018111BFCF982F9F7DDF
:1034C0009554933028F40C5F1F4FFFE3F9830DC030
:1034D000833631F0833771F0833509F05BC022C049
:1034E000F801808189830E5F1F4F44244394512C3F
:1034F000540115C03801F2E06F0E711CF801A08074
:10350000B18026FF03C0652D70E002C06FEF7FEF32
:10351000C5012C870E94001C2C0183012C852F776C
:10352000222E17C03801F2E06F0E711CF801A08046
:10353000B18026FF03C0652D70E002C06FEF7FEF02
:10354000C5012C870E94F51B2C012C852068222E9A
:10355000830123FC1BC0832D90E048165906B0F46C
:10356000B70180E290E00E940B1C3A94F4CFF50181
:1035700027FC859127FE81915F01B70190E00E94B1
:103580000B1C31103A94F1E04F1A510841145104C8
:1035900071F7E5C0843611F0893639F5F80127FF57
:1035A00007C060817181828193810C5F1F4F08C0C9
:1035B00060817181882777FD8095982F0E5F1F4F5E
:1035C0002F76B22E97FF09C09095809570956195E2
:1035D0007F4F8F4F9F4F2068B22E2AE030E0A4012A
:1035E0000E943D1CA82EA81844C0853729F42F7EC0
:1035F000B22E2AE030E025C0F22FF97FBF2E8F36A1
:10360000C1F018F4883579F0B4C0803719F08837E4
:1036100021F0AFC02F2F2061B22EB4FE0DC08B2D34
:103620008460B82E09C024FF0AC09F2F9660B92E6F
:1036300006C028E030E005C020E130E002C020E113
:1036400032E0F801B7FE07C0608171818281938109
:103650000C5F1F4F06C06081718180E090E00E5FBB
:103660001F4FA4010E943D1CA82EA818FB2DFF7718
:10367000BF2EB6FE0BC02B2D2E7FA51450F4B4FE2A
:103680000AC0B2FC08C02B2D2E7E05C07A2C2B2D33
:1036900003C07A2C01C0752C24FF0DC0FE01EA0D79
:1036A000F11D8081803311F4297E09C022FF06C0FC
:1036B0007394739404C0822F867809F0739423FD69
:1036C00013C020FF06C05A2C731418F4530C57185B
:1036D000732C731468F4B70180E290E02C870E9489
:1036E0000B1C73942C85F5CF731410F4371801C09C
:1036F000312C24FF12C0B70180E390E02C870E9498
:103700000B1C2C8522FF17C021FF03C088E590E029
:1037100002C088E790E0B7010CC0822F867859F08C
:1037200021FD02C080E201C08BE227FD8DE2B701DE
:1037300090E00E940B1CA51438F4B70180E390E0E0
:103740000E940B1C5A94F7CFAA94F401EA0DF11DC4
:103750008081B70190E00E940B1CA110F5CF3320AF
:1037600009F44FCEB70180E290E00E940B1C3A941E
:10377000F6CFF7018681978102C08FEF9FEF2C96DD
:10378000E2E10C942E19DC01CB01FC01F999FECF8A
:1037900006C0F2BDE1BDF89A319600B40D924150D9
:1037A0005040B8F70895DC01A40FB51F41505040B8
:1037B00048F0CB01840F951F2E910E94E41B4150CD
:1037C0005040D0F70895262FF999FECF92BD81BDC4
:1037D000F89A019700B4021639F01FBA20BD0FB64F
:1037E000F894FA9AF99A0FBE0895FC010590615079
:1037F00070400110D8F7809590958E0F9F1F089507
:10380000FC016150704001900110D8F780959095AF
:103810008E0F9F1F08950F931F93CF93DF93182F41
:10382000092FEB018B8181FD03C08FEF9FEF20C03B
:1038300082FF10C04E815F812C813D81421753076A
:103840007CF4E881F9819F012F5F3F4F3983288302
:10385000108306C0E885F985812F0995892B29F702
:103860002E813F812F5F3F4F3F832E83812F902FEB
:10387000DF91CF911F910F910895FA01AA27283067
:1038800061F1203191F1E8946F936E7F6E5F7F4F0D
:103890008F4F9F4FAF4FB1E040D0B4E03ED0670FA5
:1038A000781F891F9A1FA11D680F791F8A1F911DFC
:1038B000A11D6A0F711D811D911DA11D22D009F44A
:1038C00068943F91062E000C3019000C000C301942
:1038D000305D3193CEF6CF010895462F4770405D9D
:1038E0004193B3E00FD0C9F7F6CF462F4F70405D3C
:1038F0004A3318F0495D31FD4052419302D0A9F797
:10390000EACFB4E0A6959795879577956795BA9590
:10391000C9F700976105710508959B01AC010A2E56
:1039200006945795479537952795BA95C9F7620F2D
:10393000731F841F951FA01D0895002480FD060E8F
:10394000660F11F08695D1F7802D0895F894FFCF7A
:1039500005030803E90C064D015F013B00038301E9
:10396000023E00F301100000001803160315009A30
:103970000140000000E015F215000000000000000A
:103980000000000000000000000000000000000037
:103990000000000000000000000000000012011004
:1039A00001000000409B282B00100201020301D1FE
:1039B00001FB0808093B09100A1D0A500A0F0B18E1
:1039C0000B00000000610C610152670152610100AF
:1039D000670100D701770201020000000200000029
:1039E00000970E00000000FFFFFFFFFFFF013030D7
:1039F0003030303130010000003102000000260478
:103A00000000002708000000281000000029200006
:103A100000002A400000003280000000000000008A
:103A200000322E312E300072006100700068006E8E
:103A30000065007400200074006500630068006E7B
:103A4000006F006C006F0067006900650073000084
:103A500000310032003300340035003600000059D8
:063A60006573004E6F00CB
:00000001FF
