:100000000C9458020C9475020C9475020C947502B1
:100010000C9475020C9475020C9475020C94750284
:100020000C9475020C9475020C9475020C94641275
:100030000C94CB120C9475020C9475020C947502FE
:100040000C9475020C9475020C9475020C94750254
:100050000C9475020C9475020C9475020C94750244
:100060000C9475020C9475020C9475020C94750234
:100070000C947502575553424D6F7465206D6F7522
:1000800073652076322E3100322D706C6179657285
:1000900020575553424D6F74652076322E31003112
:1000A0002D706C6179657220575553424D6F7465A0
:1000B0002076322E310009023B000201008019092E
:1000C0000400000103000000092101010001224495
:1000D000000705810310000109040100010300006D
:1000E00000092101010001221500070582034000DB
:1000F00001090254000301008019090400000103F2
:10010000000000092101010001223E0007058103D2
:100110001000010904010001030000000921010190
:100120000001223E000705820310000109040200BD
:10013000010300000009210101000122150007054B
:10014000830340000109023B0002010080190904F9
:1001500000000103000000092101010001223E000E
:1001600007058103100001090401000103000000DC
:100170000921010100012215000705820340000149
:100180000600FF0901A101150026FF007508953F33
:100190000901B100C005010902A1010901A1008501
:1001A000010509190129041500250195047501812E
:1001B0000295017504810305010930093115812576
:1001C0007F7508950281061581257F350045000958
:1001D00038750895018106C0C005010905A101090E
:1001E00001A1008501050175109506150026007D09
:1001F0000930093109330934093509328102C0A1B6
:1002000000050915002501750195101901291075C2
:100210000195108102C0C0100000000100000040E4
:1002200000000002000000080000000400000020A0
:100230000000000800000080000000100000000026
:10024000400000200000000004000040000000000A
:10025000100000800000000100000000010000000C
:10026000000000000000002000000001000000402D
:100270000000000200000000100000040000000068
:10028000040000080000001000000010000000083A
:1002900000000020000000002000004000000000DE
:1002A0000200008000000080000000000100000447
:1002B000000000000200000008000000040000012F
:1002C00000000000100000004000000020000002BC
:1002D00000000000400000008000000080000000DE
:1002E000000000000000000100000001000000020A
:1002F00000000002000000000000000000000040BC
:1003000000000001000000200000000200000010BA
:1003100000000004000000080000000800000000C9
:10032000000000000000001000000001000000407C
:10033000000000020000002000000004000000088F
:100340000000000800000080000000100000000411
:100350000000002000000000040000400000000039
:100360001000008000000000000000000000006598
:10037000376538353966362D616431622D31316526
:10038000372D396533392D3030316266636133631F
:1003900035393300736872740A00556E68616E6493
:1003A0006C65642068696420676574207265706F8D
:1003B000727420747970653D3078253032782C2045
:1003C00072713D3078253032782C207756616C3D43
:1003D0003078253034782C20774C656E3D30782588
:1003E0003034780D0A0047657420696E707574208A
:1003F0007265706F7274202564203F3F0D0A0047BC
:100400006574206A6F79207265706F72740D0A00CE
:100410000D0A00253032582000556E68616E646CFC
:10042000656420636F6E74726F6C20777269746597
:10043000205B25645D203A2000743A202530327814
:100440002C2072713A203078253032782C20766159
:100450006C3A20253034780D0A00556E6B6E6F773C
:100460006E20737472696E672069640D0A00556EA0
:1004700068616E646C656420636C617373206252A2
:10048000657175657374203078253032780A0043C1
:100490004647204550206661696C0D0A00496E761A
:1004A000616C69642065702073697A650D0A0000CB
:1004B00011241FBECFEFD4E0DEBFCDBF12E0A0E01D
:1004C000B1E0EEE4FCE302C005900D92AC31B1075F
:1004D000D9F723E0ACE1B2E001C01D92A73DB2071D
:1004E000E1F70E94B5180C94251E0C94000015B875
:1004F0008FEF84B98CEF87B918B81BB880E78AB939
:10050000E1E6F0E080E880831082109264001092AF
:1005100065000FB6F894A89580916000886180937B
:100520006000109260000FBE089580932A02089523
:100530000C9453110C9402111F93CF93DF93182F37
:100540000E940C0FEC01E885F985812F099588231D
:1005500011F0CE0102C080E090E0DF91CF911F91B9
:100560000895ACEAB3E0ECE1F2E08D9190E0819384
:10057000919382E0E832F807C1F7109229021092B5
:1005800028028CE192E090938E0180938D01089572
:100590008F929F92AF92BF92CF92DF92EF92FF9293
:1005A0000F931F93C12CD12C7601FC01059115915D
:1005B00025913491FC01349685909590A590B49046
:1005C000011511052105310599F081149104A1044B
:1005D000B10471F00423152326233723012B022BAA
:1005E000032B21F0C828D928EA28FB280896DDCF5C
:1005F000C701B6011F910F91FF90EF90DF90CF9050
:10060000BF90AF909F908F900895823391F038F40F
:10061000803361F08133A1F487E692E00FC0833329
:1006200059F0843369F487E192E008C087EE92E0E4
:1006300005C08FEF92E002C087E293E00C94C802FD
:1006400060E070E0CB01089560E070E0CB010895B8
:1006500080E008950F931F93CF93DF9300D000D0D5
:1006600000D0CDB7DEB786E0E6EAF1E0DE01119614
:1006700001900D928A95E1F786E0FE013196ACEA91
:10068000B3E001900D928A95E1F70AEA13E085E064
:10069000F801818782870E942803F80180870E94E1
:1006A0002403F801638774878587968726960FB69B
:1006B000F894DEBF0FBECDBFDF91CF911F910F9198
:1006C00008950F931F93CF93DF93282FDB01803181
:1006D000B1F068F4882381F0813079F586E0ECEAA6
:1006E000F3E001900D928A95E1F786E058C08131E0
:1006F00059F0833361F021C08091B20302C0809130
:10070000B3038C9381E04BC08091B403FACF009186
:10071000B5031091B6032091B7033091B803B90126
:10072000A80189E076956795579547958A95D1F701
:10073000417012FD42604C93E5CF30E0E32FF0E0D2
:10074000CF0165E070E00E94371A84559E4FEC019E
:100750008881882321F1281320C0CF0165E070E053
:100760000E94371A84559E4FEC0109811A812B8112
:100770003C814091B5035091B6036091B7037091ED
:10078000B803402351236223732381E0452B462B7A
:10079000472B09F0B6CF80E0B4CF3F5FCFCFDF91DA
:1007A000CF911F910F9108950F931F93CF93DF93D4
:1007B0006115710509F4A0C0FB01282F8031C9F033
:1007C00078F4882391F0813009F046C086E0ACEAE5
:1007D000B3E001900D928A95E1F70E94721088C0F3
:1007E000813159F0833369F037C080818093B2033F
:1007F0007FC080818093B3037BC080818093B403EA
:1008000077C02081233008F022E08091B5039091D9
:10081000B603A091B703B091B803997F20FD926011
:100820008093B5039093B603A093B703B093B80336
:1008300021FF5EC08091B5039091B603A091B703EC
:10084000B091B80394608093B5039093B603A093DE
:10085000B703B093B8034CC030E0A32FB0E0CD0194
:1008600065E070E00E94371A84559E4FEC01888144
:10087000882309F442C0281339C080810091B50350
:100880001091B6032091B7033091B803882389F003
:10089000CD0165E070E00E94371A84559E4FEC014F
:1008A00089819A81AB81BC81082B192B2A2B3B2B88
:1008B00014C0CD0165E070E00E94371A84559E4F48
:1008C000FC0181819281A381B48180959095A0954E
:1008D000B095082319232A233B230093B5031093D3
:1008E000B6032093B7033093B80302C03F5FB5CF80
:1008F0000E94721081E001C080E0DF91CF911F91D2
:100900000F910895681779071CF4861B970B0895BB
:1009100022273327261B370B821793071CF4860FD9
:10092000971F089580E090E008958F929F92AF9274
:10093000BF92CF92DF92EF92FF920F931F93CF93CC
:10094000DF93CDB7DEB72C970FB6F894DEBF0FBE9E
:10095000CDBFDA016C939A012E5F3F4F425F5F4F2C
:1009600070E86EE3F90131977083F90160832E5FBF
:100970003F4F24173507B1F71D961C921D971E9601
:100980001C921E97009709F4DBC28D01FC01808147
:100990008E3009F427C248F48C3009F46AC108F09B
:1009A0006AC0813009F467C0CBC28C3109F420C21F
:1009B0008E3109F480C28B3109F0C2C2A581B681A3
:1009C0008181082E000C990B803E2FEF920714F4C2
:1009D00080EE9FEF8132910514F080E290E064EFA9
:1009E00071E00E94371A7C019281892F990F990B2F
:1009F000803E4FEF940714F480EE9FEF8132910513
:100A000014F080E290E06CE07EEF0E94371A9C01C7
:100A10008481082E000C990B6CED75E00E94371A4A
:100A2000885293426C019A838983838190E0A70165
:100A30004058514C58874F832058314C3E832D836A
:100A4000409768E17CEF0E94371A8058914C9C8354
:100A50008B83F80141839885928323839E819483BD
:100A600087838C818087C3868A818487AD0160E01B
:100A700070E084E35CC2208531858281082E000C01
:100A8000990B803E4FEF940714F480EE9FEF813274
:100A9000910514F080E290E09C878B878381082E7B
:100AA000000C990B803E5FEF950714F480EE9FEFEA
:100AB0008132910514F080E290E09A878987E48082
:100AC0000E2C000CFF0880EFE8168FEFF80624F4D8
:100AD00090EFE92EFF24FA94A1E1EA16F1041CF04C
:100AE00080E1E82EF12CA5810A2E000CBB0BA03F63
:100AF0004FEFB40714F4A0EFBFEFA131B10514F02C
:100B0000A0E1B0E08681082E000C990B97FF02C08F
:100B100080E090E08132910514F080E290E09C83C7
:100B20008B834781042E000C550B57FF02C040E019
:100B300050E04132510514F040E250E05A834983BD
:100B40009090B50397FE04C01C821B821A82198202
:100B500091FE18C020FF03C080E290E004C036FF81
:100B600004C080EE9FEF9A87898721FF03C080EE43
:100B70009FEF04C037FF04C080E290E09C878B8722
:100B80002C7F3F738B859C8564EF71E00E94371A40
:100B90005C019C878B8789859A856CE07EEF0E943B
:100BA000371A6C019A878987C70168EE73E00E9443
:100BB000371A7C0198878F83CD0168E17CEF0E9412
:100BC000371ADC019E838D838B819C8164EF71E0F9
:100BD0000E94371AFC0189819A8164EF71E00E94BA
:100BE000371A93FE08C0FC86EB86BA87A987B886B9
:100BF000AF82DE82CD82CB84DC8450E8C51A51EC12
:100C0000D50ADC86CB86E984FA84A0E8EA1AA1EC4E
:100C1000FA0AFA86E986AF81B885A058B14CB88740
:100C2000AF836D817E816058714C7E836D83AC0192
:100C30004058514C5A834983CF018058914C9C8332
:100C40008B83F801C1829C859283E3829A85948389
:100C5000A5839885968367839E81908781878C8101
:100C6000828743878A818487A90160E070E081E3FD
:100C70005EC11E821D821C821B821A821982A18182
:100C80000A2E000CBB0BAC392FEFB20714F4ACE901
:100C9000BFEFA536B10514F0A4E6B0E02281022E24
:100CA000000C330B2C394FEF340714F42CE93FEFD1
:100CB0002536310514F024E630E04091B50344FFB9
:100CC00010C08381948181155EEF950714F480E054
:100CD0009EEF813052E0950714F080E092E09E8311
:100CE0008D8345FF10C08581968181155EEF950744
:100CF00014F480E09EEF813052E0950714F080E01C
:100D000092E09C838B8346FF10C08781908581157C
:100D10004EEF940714F480E09EEF813052E0950787
:100D200014F080E092E09A8389838D819E816EE148
:100D300070E00E94371A5C018B819C816EE170E04B
:100D40000E94371A6C0189819A816EE170E00E94DD
:100D5000371A7C01CD0160EA70E00E94371A805892
:100D6000914C4C019A878987C90160E67FEF0E9408
:100D7000371A8058914C98878F83B5016058714C11
:100D80007E836D83A6014058514C5C834B83970151
:100D90002058314C3A832983D80111968C921197AF
:100DA0009A8512969C93129713968C931397888525
:100DB00014968C93149715966C9315978E811696AE
:100DC0008C93169717964C9317978C8118968C9343
:100DD000189719962C9319978A811A968C934185A6
:100DE000528502C04181528160E070E080E39FC083
:100DF000A181B281AF3F2FE0B20739F480E89EE3D2
:100E00009E838D839C838B8320C0838194818D5F9F
:100E1000924067E170E00E94371A9C01CD018D5E1F
:100E2000934061E170E00E94371A8058914C9E8394
:100E30008D832058314C3C832B83858190E06EE379
:100E400070E00E94371A8058914C9A8389838D8173
:100E5000D80111968C9311978E8112968C931297CC
:100E60008B8113968C9313978C8114968C93149783
:100E7000898115968C9315978A8116968C9316976F
:100E8000868182FF06C01D968C911D9781601D96FC
:100E90008C93868181FF07C0D8011D968C911D9788
:100EA00082601D968C93868180FF4AC0F8018585FB
:100EB0008460858745C0A381B4818281082E000C9F
:100EC000990B803E2FEF920714F480EE9FEF813252
:100ED000910514F080E290E06CE07EEF0E94371AFA
:100EE0009C019181892F990F990B803E4FEF9407B8
:100EF00014F480EE9FEF8132910514F080E290E0CF
:100F000064EF71E00E94371A8058914C9C838B8368
:100F10002058314C3A832983F80181838C81828364
:100F200023838A818483AD0160E070E083E30E94C3
:100F30000503DC01CB01AA27BB27F801858796872B
:100F40002C960FB6F894DEBF0FBECDBFDF91CF91C8
:100F50001F910F91FF90EF90DF90CF90BF90AF90D7
:100F60009F908F900895AF92BF92CF92DF92EF92B1
:100F7000FF920F931F93CF93DF93EA016883198247
:100F80001A821B821C82009709F4D6C18C01DC01F5
:100F90008C918C3009F4F1C018F4813039F0CCC157
:100FA0008D3021F08C3109F47BC1C6C1F8018281FA
:100FB000082E000C990B803EFFEF9F0714F480EE83
:100FC0009FEF8132910514F080E290E061E070E0E3
:100FD0000E9482047C01D80113968C91082E000C8B
:100FE000990B803EBFEF9B0714F480EE9FEF813298
:100FF000910514F080E290E061E070E00E948204CC
:101000006C01F8018481082E000C990B803FFFEFE2
:101010009F0714F480EF9FEF8131910514F080E178
:1010200090E061E070E00E948204A82ED80115963D
:101030008C91082E000C990B803FBFEF9B0714F496
:1010400080EF9FEF8131910514F080E190E061E045
:1010500070E00E948204FC01D80118966D917C9189
:10106000199765FF05C0A8E0B0E028E030E004C0B3
:10107000A1E0B0E023E030E063FF02C021E030E017
:1010800060FD0FC076FD08C0A601D7FE02C04F5F0D
:101090005F4F5595479506C044275527421B530B74
:1010A00001C0A90161FF04C031952195310909C032
:1010B00077FD07C09701F7FE02C02F5F3F4F3595C0
:1010C000279575FD07C071FF06C0EE27FF27EA1BB5
:1010D000FB0B01C0FD018091B50383FF06C0942F77
:1010E000852FAF01E92FF82F2A2D2A8341954B83B5
:1010F0008091B50382FF03C0F195E195F1099F014D
:10110000F7FF04C0222733272E1B3F0B2930310560
:10111000FCF480916C0290916D02892B79F489E046
:1011200090E0821B930B90936D0280936C0230973A
:1011300029F014F48FEF01C081E08C8380916C0260
:1011400090916D02019790936D0280936C0206C09E
:1011500068E070E0CF010E9482048C831982F8015C
:10116000808586FF02C081E08983D80118968C9122
:1011700084FFE2C089818260C4C0F80181859285C4
:1011800096958795F82FF170FF2ED80111968C91C6
:10119000082E000C990B8C39BFEF9B0714F48CE9D7
:1011A0009FEF8536910514F084E690E068E070E0EA
:1011B0000E948204D82EE92EF8012281822F220F6C
:1011C000990B8C39FFEF9F0714F48CE99FEF85365C
:1011D000910514F084E690E068E070E00E948204DB
:1011E000F11016C02D2D3E2D37FF02C0295F3F4F55
:1011F00043E0359527954A95E1F72A8397FD0796B1
:1012000033E0959587953A95E1F781958B833CC0BE
:101210002091B50322FF03C091958195910997FD17
:10122000079623E0959587952A95E1F7AC0197FFFE
:1012300004C044275527481B590B49305105FCF47D
:1012400020916A0230916B02232B79F429E030E07F
:10125000241B350B30936B0220936A02009729F010
:1012600014F48FEF01C081E08C8380916A02909129
:101270006B02019790936B0280936A0205C068E04D
:1012800070E00E9482048C831982D80119968C9197
:1012900080FF52C0FF2011F082E033C081E031C0F6
:1012A000F801218132812F3FFFE03F0761F540E0E7
:1012B00080E090E020E030E02A8381958B834093AA
:1012C0006902F8018181928190936802809367029C
:1012D000838194819093660280936502868182FF68
:1012E00002C081E08983D80116968C9181FF03C0EA
:1012F000898182608983F801868180FF1DC0898190
:101300008460898319C080916902882399F0809153
:10131000670290916802281B390BD80113968D91B2
:101320009C9114974091650250916602841B950B25
:1013300041E0C2CF41E0BCCFDF91CF911F910F912F
:10134000FF90EF90DF90CF90BF90AF900895529AAA
:101350008AE08A95F1F700C0509A85E08A95F1F706
:1013600000000895529A85E08A95F1F700005098A0
:10137000489BFECF95E09A95F1F70000529885E0E2
:101380008A95F1F700008FE193E00197F1F700C033
:101390000000089528E030E090E8492F482311F03C
:1013A000529801C0529A45E04A95F1F700005098D2
:1013B000489BFECF4AE04A95F1F700C0509A45E0BD
:1013C0004A95F1F7000096952150310931F785E0F3
:1013D0008A95F1F70000529845E04A95F1F7000030
:1013E0005098489BFECF85E08A95F1F700004A9B14
:1013F0000BC045E04A95F1F70000509A85E08A95C8
:10140000F1F7000080E0089545E04A95F1F700000B
:10141000509A85E08A95F1F7000081E00895809365
:101420006E0208955098529858985A985098489B30
:10143000FECF529808950895CF92DF92FF920F93B6
:101440001F93CF93DF931F92CDB7DEB7182F062FD0
:1014500099830E94A70980916E020E94CA0999810E
:10146000882379F0F12EC12ED92E80E09C2D9F1972
:10147000901740F4F60181916F010E94CA09811111
:10148000F5CF80E089830E94B20989810F90DF91B6
:10149000CF911F910F91FF90DF90CF9008951F93F0
:1014A000CF93DF9300D0CDB7DEB7182F69839A832F
:1014B0000E94A70980916E0281600E94CA09698119
:1014C0009A81882351F0E12FF92F80E090E010E01D
:1014D000262F30E02150310939C00E94B20980E046
:1014E00041C07AE07A95F1F700C05098489BFECF52
:1014F00075E07A95F1F700004A99452B75E07A95E9
:10150000F1F70000509A7AE07A95F1F700C056950D
:10151000119739F7419345E04A95F1F7000082179A
:101520009307DCF0529875E07A95F1F70000509837
:10153000489BFECF4AE04A95F1F700C0509A75E00B
:101540007A95F1F700005298019611E0861738F469
:10155000A8E0B0E050E840E0C4CF529AE4CF0E9447
:10156000B209812F0F900F90DF91CF911F910895B5
:10157000539A8AE08A95F1F700C0519A85E08A95DE
:10158000F1F700000895539A85E08A95F1F700007D
:101590005198499BFECF95E09A95F1F7000053983A
:1015A00085E08A95F1F700008FE193E00197F1F76C
:1015B00000C00000089528E030E090E8492F48235B
:1015C00011F0539801C0539A45E04A95F1F7000095
:1015D0005198499BFECF4AE04A95F1F700C0519AD5
:1015E00045E04A95F1F7000096952150310931F711
:1015F00085E08A95F1F70000539845E04A95F1F7A8
:1016000000005198499BFECF85E08A95F1F70000D4
:101610004B9B0BC045E04A95F1F70000519A85E0DD
:101620008A95F1F7000080E0089545E04A95F1F7CA
:101630000000519A85E08A95F1F7000081E0089555
:1016400080936F0208955198539859985B985198D8
:10165000499BFECF539808950895CF92DF92FF9251
:101660000F931F93CF93DF931F92CDB7DEB7182F41
:10167000062F99830E94B80A80916F020E94DB0AAC
:101680009981882379F0F12EC12ED92E80E09C2DEE
:101690009F19901740F4F60181916F010E94DB0AB7
:1016A0008111F5CF80E089830E94C30A89810F9060
:1016B000DF91CF911F910F91FF90DF90CF90089510
:1016C0001F93CF93DF9300D0CDB7DEB7182F698378
:1016D0009A830E94B80A80916F0281600E94DB0A9F
:1016E00069819A81882351F0E12FF92F80E090E001
:1016F00010E0262F30E02150310939C00E94C30A82
:1017000080E041C07AE07A95F1F700C05198499B9A
:10171000FECF75E07A95F1F700004B99452B75E007
:101720007A95F1F70000519A7AE07A95F1F700C0C6
:101730005695119739F7419345E04A95F1F7000026
:1017400082179307DCF0539875E07A95F1F7000063
:101750005198499BFECF4AE04A95F1F700C0519A53
:1017600075E07A95F1F700005398019611E086171D
:1017700038F4A8E0B0E050E840E0C4CF539AE4CF9A
:101780000E94C30A812F0F900F90DF91CF911F917C
:1017900008950C94120A0C94230BAF92BF92CF922F
:1017A000DF92EF92FF920F931F93CF93DF93EC01A1
:1017B0005B016A017901E881F9818A810190F081F8
:1017C000E02D880F0995A114B10421F4E114F1046E
:1017D00089F426C0C114D104C9F3E881F9810280DB
:1017E000F381E02D6A2DC60109958111EFCF8FEFAE
:1017F0009FEF18C00115110599F0E881F981048067
:10180000F581E02D6E2DC801099521E030E0882397
:1018100011F020E030E088279927821B930B02C04B
:1018200080E090E0DF91CF911F910F91FF90EF90BA
:10183000DF90CF90BF90AF900895811102C00C94BB
:10184000C90B813011F40C94CB0B0895CF92DF9229
:10185000EF92FF920F931F93CF93DF93CDB7DEB735
:1018600061970FB6F894DEBF0FBECDBF833010F086
:101870008FEFF8C1E82EF12CC70163E070E00E9401
:10188000371AFC01E358FE4FC7018E589D4F6C017B
:10189000DC018C91811106C09FEF98879F8326E021
:1018A00030E002C028E030E0198A8E010F5F1F4F40
:1018B000AE014F5E5F4F61E070E0CF010E94CD0B43
:1018C0008111D6CFF701EE0FFF1FEC58FD4F80813D
:1018D000918129818130B1E09B0709F033C14A81B0
:1018E000EE813B81FC811D818330910561F0813067
:1018F0009140B1F1C7016BE070E00E94371A855446
:101900009C4F51E035C0C7016BE070E00E94371A70
:10191000DC01A554BC4F8BE18C932F73205212969F
:101920002C9312974F73405213964C9313973F7119
:10193000305115963C931597FF711796FC931797A6
:1019400014961C92149716961C9216972E2F30E020
:10195000312B2095309519963C932E931897F0C013
:10196000C7016BE070E00E94371A85549C4F5DE020
:10197000DC015C93B70160597D4FDB018C918823BA
:1019800039F0111105C0E11103C081E0D6018C933B
:10199000DB011C92D6018C91882371F1C7016BE0A9
:1019A00070E00E94371ADC01A554BC4F20581296F3
:1019B0002C931297405814964C93149730581396C2
:1019C0003C931397F0581596FC93159716961C9315
:1019D00016971796EC9317972F8130E0322F222716
:1019E0008885282B2095309519963C932E9318972F
:1019F00081E011968C93A4C0C7016BE070E00E9457
:101A0000371ADC01A554BC4F822F8F738052129677
:101A10008C931297842F8F73805213968C93139705
:101A2000207C269526952695407C429546954770C4
:101A3000422B832F881F8827881F482B40511496DC
:101A40004C931497832F8F71805115968C93159713
:101A50003076369536958F2F829586958770382B00
:101A600016963C931697FF711796FC9317972E2F97
:101A700030E0312B2095309519963C932E93189792
:101A800011961C925DC08130910509F428CFC701E1
:101A90006BE070E00E94371AFC01E554FC4F8CE0CB
:101AA0008083205821838A81805882834E81842FAD
:101AB0008C7090E09C0135952795359527959B81F5
:101AC000892F90E0880F991F880F991F822B932BE5
:101AD000925094838383242F207330E0A4E03595C3
:101AE0002795AA95E1F78C8190E0880F991F880FC0
:101AF000991F282B392B3250368325832D8130E0D6
:101B0000220F331F220F331F842F829586958695CF
:101B10008370282B32503087278340FF53C01286B2
:101B2000118641FD0DC0C7016BE070E00E94371ABD
:101B3000FC01E554FC4F21853285226032872187E4
:101B400080E090C0823031E0930708F040C08330DD
:101B5000910511F5C7016BE070E00E94371AFC0196
:101B6000E554FC4F8BE180832F73205221838A81BF
:101B70008F73805282838B818F7183838C818F716D
:101B800084832D8130E0322F22278E81282B2095CF
:101B9000309536832583D4CF8131910509F073CFF9
:101BA000C7016BE070E00E94371AFC01E554FC4F5E
:101BB0008EE0808330E0209530952877332732837C
:101BC0002183BECF81E090E092878187AACF4A81AE
:101BD000AE81833051E09507C9F4C7016BE070E036
:101BE0000E94371AFC01E554FC4F8EE180832F736D
:101BF000205221834F73405242838D812A2F30E03F
:101C0000382B20953095348323839ACF8330B1E0ED
:101C10009B0708F43CCF82519F4F029708F037CFC3
:101C2000C7016BE070E00E94371AFC01E554FC4FDD
:101C30008CE180839B81892F8F7030E0382B328339
:101C40002183907F292F30E094E0220F331F9A9553
:101C5000E1F7242B348323838C8185832BEF2A2780
:101C600026836ECF61960FB6F894DEBF0FBECDBF50
:101C7000DF91CF911F910F91FF90EF90DF90CF9068
:101C80000895CF92DF92EF92FF920F931F93CF931D
:101C9000DF931F92CDB7DEB77C0169836A0100E054
:101CA00010E020E030E0AE014F5F5F4F61E070E098
:101CB0000E94CD0B811119C08FE396E00197F1F7D7
:101CC00000C00000860121E030E040E050E060E02C
:101CD00070E0C7010E94CD0B811107C08FE396E031
:101CE0000197F1F700C0000080E00F90DF91CF91E5
:101CF0001F910F91FF90EF90DF90CF900895CF92BA
:101D0000DF92EF92FF920F931F93CF93DF9300D058
:101D10001F92CDB7DEB7833008F071C0EFE5FAEE61
:101D20003197F1F700C00000E82EF12CC70163E005
:101D300070E00E94371A83589E4F6C0180EF8983B0
:101D400085E58A8300E010E020E030E0AE014F5FDF
:101D50005F4F62E070E0C6010E94CD0BEFE3F6E05A
:101D60003197F1F700C00000811149C08BEF8983E2
:101D70001A8200E010E020E030E0AE014F5F5F4FDC
:101D800062E070E0C6010E94CD0BEFE3F6E0319710
:101D9000F1F700C00000811132C0AE014D5F5F4F0E
:101DA0006FEFC6010E94410E811129C0AE014F5F45
:101DB0005F4F6AEFC6010E94410E811120C0F701FA
:101DC000EE0FFF1FEC58FD4F898190E0982F882778
:101DD0002B81822B91838083FFEF23ED80E3F150F1
:101DE00020408040E1F700C00000F701EE58FD4FB1
:101DF0001082F701E059FD4F81E0808301C080E04F
:101E00000F900F900F90DF91CF911F910F91FF9046
:101E1000EF90DF90CF90089583E791E008952F929F
:101E20003F924F925F926F927F928F929F92AF926A
:101E3000BF92CF92DF92EF92FF920F931F93CF93B7
:101E4000DF9300D000D000D0CDB7DEB75C012B010E
:101E50003A012DB73EB73E832D836DB77EB7641B25
:101E6000750B0FB6F8947EBF0FBE6DBF8DB79EB7D2
:101E700001964C0192E0491651040CF492C0D50130
:101E80001C91123809F08DC0BFB7BC83F89460E094
:101E900070E0C4010E94341BF4011083EE24E3942B
:101EA000F12CCC24C394D12C1B821A82C601029639
:101EB000841595051CF5F6013196D501AC0DBD1DB7
:101EC0002C91223018F0FC81FFBF6BC0EA0DFB1D86
:101ED0004081F501E80FF91FE081D6011396AA0DA4
:101EE000BB1D34E0C30ED11C6C916983EE23A9F0B5
:101EF000C6018E0F911D481659064CF4A301B4017A
:101F0000C5010E942B1B7C817FBF8FE34BC0D50195
:101F1000AC0DBD1DBB83AA836C0130E0C90163E039
:101F200070E00E94371A8D579E4FDC0112964C9339
:101F3000B9812B2E312CC701820D931D0196861578
:101F40009705E4F6B11102C0EE23F9F087010E5FA8
:101F50001F4F080D191DF0E0C90163E070E00E94F9
:101F6000371A91014A815B81BF018D579E4F0E94B4
:101F7000CD0B892B51F0F401EE0DFF1D21E02083E4
:101F8000B7016F5F7F4F7B0191CFF401EE0DFF1D15
:101F9000108272E0E70EF11C89818183E20CF31C50
:101FA00085CF80E0AD81BE810FB6F894BEBF0FBE75
:101FB000ADBF26960FB6F894DEBF0FBECDBFDF9142
:101FC000CF911F910F91FF90EF90DF90CF90BF9036
:101FD000AF909F908F907F906F905F904F903F90C9
:101FE0002F9008958DEA9EED9093D6038093D503AC
:101FF000089581E02091D5033091D6032D3A3E4DCE
:1020000009F480E081950895109280008DE080931E
:1020100081000895BC018091780290917902861721
:102020009707F1F07093790260937802109285001F
:1020300010928400072E000C880B990B29E03DE3D9
:1020400040E050E00E94671AB901CA0128EE33E06F
:1020500040E050E00E94481A3093890020938800A5
:102060000895B19B04C082E086BB81E0089580E0C2
:102070000895AAE7B2E0FC012491422F50E04D936D
:102080005D930196222349F022E0A83BB20799F71D
:102090001092B9021092B80208950895EAEAF3E0A6
:1020A00080E090E023E0E93BF207D9F0219192270C
:1020B000092E0294202D2F702927392F3025330F18
:1020C000307E2327302D3927307F3695092E000C9E
:1020D000331F9695969596959F7193279827822FF3
:1020E000E1CF08950E944E109093BA038093B903F4
:1020F00041E150E060E070E08AEA93E00C94FA1D60
:10210000CF93DF9341E150E060E070E08AEA93E032
:102110000E94EA1D8091AA039091AB038D3E9E4FD1
:1021200091F081E1EAEAF3E0DF011D928A95E9F797
:102130008DEE9EEF9093AB038093AA030E942A0337
:102140000E94721009C0C091B903D091BA030E94D5
:102150004E10C817D90729F7DF91CF910C94B1021F
:102160000E948E16F894E0E0F0EF099408950E9422
:102170008E16F894E0E0F0E00994089580E090E095
:1021800008951092C9008FE891E09093D403809352
:10219000D30308950F931F93CF93DF931F92CDB76F
:1021A000DEB78C01FA018CE1D8011D928A95E9F71E
:1021B000D80111966C9311975B965C934E935A9746
:1021C000A8014E5F5F4F6C9180E090E029830995F4
:1021D0002981F80120830F90DF91CF911F910F91FA
:1021E0000895FC01818190E00895DC01CB01AD01EF
:1021F0004E5F5F4F5A96ED91FC915B976C910994FD
:10220000029608950F931F93CF93DF938C01EB01F8
:102210002A813B81832F9927019711F5213089F479
:10222000C8010296FA01918380838FEF93E09F9318
:102230008F930E94421BF801818190E00F900F90D4
:102240002DC0223069F033273F932F9386EE93E021
:102250009F938F930E94421B0F900F900F900F90AF
:102260008F818F938E818F938B818F938A818F93B0
:1022700089811F928F9388811F928F938AE993E0BF
:102280009F938F930E94421B8DB79EB70A960FB6FD
:10229000F8949EBF0FBE8DBF80E090E0DF91CF919C
:1022A0001F910F910895232B51F484E993E09F939C
:1022B0008F930E94421B0F900F908FEF089580E044
:1022C00008950F93FB018093E900CA012417350795
:1022D00008F4C9018E0F9F1F002341F0E817F9078A
:1022E00061F024912093F1003196F8CFE817F907B7
:1022F00021F021912093F100F9CF0F910895CF9211
:10230000DF92EF92FF920F931F93CF93DF936C01B5
:10231000122FEA016417750708F4EB01E12CF12C88
:10232000B6016E0D7F1D012FC134D105B0F020E440
:1023300030E040E450E080E00E9461119091E800BC
:102340009E7F9093E80080E4E80EF11CC054D10910
:102350008091E80080FFFCCFE3CF9E01AE0180E0DA
:102360000E9461118091E8008E7F8093E800809147
:10237000E80080FFFCCFDF91CF911F910F91FF907C
:10238000EF90DF90CF900895EF92FF920F93CF934D
:10239000DF938093E9009091E80090FF28C0FA0154
:1023A0002081318137FF06C08091F0008E7F8093BD
:1023B000F0001DC0EA017B019091E8009E7F9093A0
:1023C000E8002081318140815181FB016081718170
:1023D00000E00E946111F701118210828FEF9FEFE0
:1023E000998388838091E8008F778093E800DF915C
:1023F000CF910F91FF90EF9008951092E90081E046
:102400008093EB001092EC008CE48093F0008091BC
:10241000ED0082638093ED001092E8008091EE0061
:1024200087FF51C020E030E041E0A1ECE091BB0229
:10243000F091BC02828590E02817390744F581E0CD
:10244000820F8093E9004093EB00A093EC0040934F
:10245000F000E091BB02F091BC02C9016CE070E0B9
:102460000E94371AE80FF91F8785908980319105FE
:10247000D1F024F4089761F490E016C08032910501
:1024800021F08034910569F003C090E20DC00895F9
:102490008DE994E09F938F930E94421B0F900F90C1
:1024A000089590E301C090E192609093ED00109246
:1024B000E8008091EE0087FD03C08FE894E0EACF4A
:1024C0002F5F3F4FB3CF08951F920F920FB60F9219
:1024D00011242F933F934F935F936F937F938F9329
:1024E0009F93AF93BF93CF93EF93FF93C091E1007E
:1024F000C0FF0DC08091E1008E7F8093E10081E0FC
:10250000809351038091E20080618093E200C4FFD8
:1025100010C08091E1008F7E8093E1008091510393
:10252000882339F0109251038091E2008F7E8093CE
:10253000E200C3FF09C0109251030E94FD11809177
:10254000E100877F8093E100C2FF05C08091E10038
:102550008B7F8093E100C5FF05C08091E1008F7DF6
:102560008093E100C6FF05C08091E1008F7B8093DE
:10257000E100FF91EF91CF91BF91AF919F918F912A
:102580007F916F915F914F913F912F910F900FBE6F
:102590000F901F9018951F920F920FB60F92112453
:1025A0006F927F928F929F92AF92BF92CF92DF9263
:1025B000EF92FF920F931F932F933F934F935F934D
:1025C0006F937F938F939F93AF93BF93EF93FF93FB
:1025D000CF93DF9300D000D0CDB7DEB77090F4007A
:1025E00070FEBDC21092E9006090E80063FE05C273
:1025F0008091F20090E0E1E1F3E09F01215133404E
:102600002817390720F42091F1002193F6CF80910B
:10261000E800877F8093E8008091110387FD73C0F5
:10262000982F9F7121F0913009F43FC06CC08091C8
:102630001203853019F0893019F167C080911303B6
:102640008093E3008091E80080FFFCCF8091E80058
:102650008E7F8093E8008091E80080FFFCCF80911E
:10266000E30080688093E30080911303909114034A
:10267000892B11F481E001C082E08093A50143C061
:102680008091130380931003811102C082E001C086
:1026900083E08093A5018091E80080FFFCCF8091CA
:1026A000E8008E7F8093E8002EC08076803269F546
:1026B000809112038930D1F48091E80080FFFCCF33
:1026C0008091E8008E7F8093E80088E0E1E1F3E00C
:1026D000A0E0B3E001900D928A95E1F71092FF021D
:1026E0001092FE0281E08093FD020DC01F928F9335
:1026F0008EE694E09F938F930E94421B0F900F9061
:102700000F900F9002C010E001C011E090911103F2
:1027100097FF53C1292F2F7180911203213009F4A3
:10272000AEC020F0223009F41EC149C18630B1F09C
:10273000883009F018C18091A501209117033091CC
:102740001803833029F0198200E041E050E0AAC06C
:1027500000E041E050E060E173E003C180911303C9
:1027600090911403292F332722303105B1F0233003
:10277000310511F12130310509F021C1E091BB0291
:10278000F091BC0200810170209117033091180371
:102790006181728142E150E0E4C0E091BB02F091BE
:1027A000BC0220812270409117035091180365816B
:1027B0007681838194819FC09927009709F446C050
:1027C000A090BB02B090BC02D50117962C91179730
:1027D00030E0281739070CF449C080901703909017
:1027E000180301977C01EE0CFF1C1896ED91FC91EB
:1027F0001997EE0DFF1D0190F081E02DC12CD12C19
:1028000081919191892B21F0BFEFCB1ADB0AF8CF90
:10281000CC0CDD1C82E08C0D898383E08A8300E090
:10282000940142E050E0BE016F5F7F4F80E00E9464
:102830006111940122503109F50180859185FC01D7
:10284000EE0DFF1D60817181A6018BC084E089833C
:1028500083E08A8389E08B8380E18C832091170356
:102860003091180300E044E050E01CC08AE594E099
:102870009F938F930E94421B0F900F9084C090767D
:1028800019F09032D9F19BC0882319F0863071F08D
:1028900096C019821A82209117033091180300E024
:1028A00042E050E0BE016F5F7F4F5BC08091140338
:1028B00090E0829709F083C08091150390911603F0
:1028C000E091BB02F091BC02228530E02817390765
:1028D00008F475C020812470A0911703B0911803EB
:1028E0006CE070E00E94371AE80FF91F6385748569
:1028F000AD01858596850E947F1145C0813009F024
:102900005EC02091150330911603A091BB02B091D7
:10291000BC021A968C911A9790E08217930798F14F
:10292000C9016CE070E00E94371A8A0F9B1FFC01FE
:10293000E388F488E114F10409F441C0AE014F5F6B
:102940005F4F61E173E081899289F70109950097F2
:10295000D1F0209117033091180369817A8100E04A
:10296000AC0180E00EC081112AC019821A82209128
:1029700017033091180300E042E050E0BE016F5FA2
:102980007F4F0E94611111111AC08091E8008E7F63
:102990008093E8008091E80080FF05C08091E80006
:1029A0008E7F8093E8008091E80082FFF3CF8091D2
:1029B000E8008B7F8093E80020C01123F1F0809124
:1029C00014038F93809113038F93809112031F92AE
:1029D0008F93809111031F928F9389E394E09F93CB
:1029E0008F930E94421B8091EB0080628093EB00EA
:1029F0000FB6F894DEBF0FBECDBF62FE36C00091A9
:102A0000F20010E0E1E1F3E0CF0181519340801743
:102A1000910720F48091F1008193F6CF8091E80036
:102A20008B7F8093E8008091FD028823F1F08091F4
:102A3000FE029091FF02800F911F80349105A8F44F
:102A40008091FE029091FF02A80161E173E083543E
:102A50009D4F0E942B1B8091FE029091FF02080F58
:102A6000191F1093FF020093FE0266FE78C080914A
:102A7000E8008F7B8093E8008091FD02882309F4B1
:102A80006EC00091FE021091FF02809100038076DB
:102A90008032A1F52091040330910503A091BB027F
:102AA000B091BC021A968C911A9790E08217930706
:102AB00008F453C0C9016CE070E00E94371A8A0F15
:102AC0009B1FFC01E588F688E114F104B9F0980138
:102AD0004DEB52E060E073E081899289F70109953E
:102AE000882331F08091EB0080628093EB0035C049
:102AF0008091E8008E7F8093E8002FC01F930F9392
:102B000089E194E09F938F930E94421B8DEBE82E06
:102B100082E0F82E03541D4F0F900F900F900F90EE
:102B200093E1C92E94E0D92EE016F10671F0D70199
:102B30008D917D011F928F93DF92CF920E94421B55
:102B40000F900F900F900F90EFCF80E194E09F9344
:102B50008F930E94421B0F900F901092FD0271FE06
:102B600007C043EA51E06EE073E081E00E94C411C7
:102B700072FE07C041EA51E06CE073E082E00E941F
:102B8000C41173FE07C04FE951E06AE073E083E0CF
:102B90000E94C41174FE07C04DE951E068E073E083
:102BA00084E00E94C4110F900F900F900F90DF915E
:102BB000CF91FF91EF91BF91AF919F918F917F91B5
:102BC0006F915F914F913F912F911F910F91FF90C6
:102BD000EF90DF90CF90BF90AF909F908F907F90BD
:102BE0006F900F900FBE0F901F90189520919D0130
:102BF00030919E0181E02F3F3F4F09F080E0089522
:102C00009C019FB740919D0150919E014F3F5F4FA6
:102C1000C9F7F894309309032093080370939E0139
:102C200060939D0184E08093E9008091F0008160D1
:102C30008093F0009FBF089520919F013091A001E3
:102C400081E02F3F3F4F09F080E008959C019FB73E
:102C500040919F015091A0014F3F5F4FC9F7F894F9
:102C600030930B0320930A037093A00160939F019C
:102C700083E08093E9008091F00081608093F00010
:102C80009FBF08952091A1013091A20181E02F3FC3
:102C90003F4F09F080E008959C019FB74091A1014A
:102CA0005091A2014F3F5F4FC9F7F89430930D0345
:102CB00020930C037093A2016093A10182E08093A2
:102CC000E9008091F00081608093F0009FBF08953B
:102CD0002091A3013091A40181E02F3F3F4F09F0E3
:102CE00080E008959C019FB74091A3015091A401F9
:102CF0004F3F5F4FC9F7F89430930F0320930E03B3
:102D00007093A4016093A30181E08093E900809116
:102D1000F00081608093F0009FBF0895E0EEF0E046
:102D20008081816080831092E200E8EDF0E0808194
:102D30008F77808380818062808308958091BA023A
:102D4000882321F0813051F01092BA028091E00086
:102D50008E7F8093E00081E08093BA02089520E2A4
:102D60002093D80021E02093E0001092E20010921E
:102D7000E3009093BC028093BB028091D8008F77D0
:102D80008093D8008091D80080628093D800109200
:102D9000FB001092630084E089BD89B5826089BD23
:102DA00009B400FEFDCF8091D80080688093D800E0
:102DB0008091D8008F7D8093D8000E94FD11809172
:102DC000E1008E7F8093E10089E78093E20008951F
:102DD00080919303823059F483E593E0FA01918363
:102DE0008083109293038091520390E0089580E0D5
:102DF00090E00895CF93DF931F92CDB7DEB7BA016D
:102E000081E080939303A90183E593E029830E94E5
:102E10002B1B29812093520380E00F90DF91CF91EB
:102E20000895CF93DF9320919303213029F008F484
:102E30004BC1223029F448C130915203311103C0F3
:102E40001092930341C1FC0190915303963009F411
:102E500067C028F5933009F442C088F49130B9F185
:102E6000923009F01DC14EE365E573E08091540393
:102E70000E94610380935203809152034FC09430AB
:102E8000D9F1953009F00CC16FE673E084E593E069
:102E90000E940E1B8FE693E00E94151B3FC0913FDE
:102EA00009F4EEC038F4973009F445C0903F09F4B6
:102EB00050C0F6C09E3F41F020F4923F09F4D8C0C4
:102EC000EFC00E94B010FDC00E94B710FAC065E5C7
:102ED00073E0809154030E94D40382E0F0C03097E5
:102EE00009F4EFC00190F081E02D309709F4E9C0BA
:102EF000809154030995E5C0C0916501D0916601A8
:102F0000BE0184E593E00E943B1BFE01019000207E
:102F1000E9F7EC1BEF5FE0935203D3C08E5FCFC0A5
:102F200080915403823008F0CCC00E94AB188C59B9
:102F3000809355030CC0309751F00280F381E02D4F
:102F4000309729F06091550380915403099583E0EF
:102F5000B6C020935203A091520381E08A0F809360
:102F60005203B0E0AD5ABC4F8FEF8C93A091520347
:102F700081E08A0F80935203B0E0AD5ABC4F8EEFD0
:102F80008C93A091520381E08A0F80935203B0E0AA
:102F9000AD5ABC4F82E08C93A091520381E08A0F1E
:102FA00080935203B0E0AD5ABC4F2C93A0915203D2
:102FB00081E08A0F80935203B0E0AD5ABC4F83E0AA
:102FC0008C93A091520381E08A0F80935203B0E06A
:102FD000AD5ABC4F84E08C93A091520381E08A0FDC
:102FE00080935203B0E0AD5ABC4F85E08C93A09122
:102FF000520381E08A0F80935203B0E0AD5ABC4F78
:1030000086E08C93A091520381E08A0F8093520353
:10301000B0E0AD5ABC4F87E08C93A091520381E0A1
:103020008A0F80935203B0E0AD5ABC4F9C93A0919D
:10303000520381E08A0F80935203B0E0AD5ABC4F37
:1030400081EF8C93A091520381E08A0F8093520309
:10305000B0E0AD5ABC4F82EF8C930284F385E02D33
:10306000309779F18091520390E08D5A9C4F13C0B4
:1030700020935203309729F10680F781E02D07C095
:10308000209352033097E9F00480F581E02D3097CA
:10309000C1F084E593E0099590915203890F0FC028
:1030A000309779F00084F185E02D309751F06091F0
:1030B000520370E040E450E083E593E0099580938B
:1030C000520382E080939303DF91CF910895282FDC
:1030D00030E0C9016BE070E00E94371AFC01EC5649
:1030E000FC4FC9016BE070E00E94371A4BE050E0E2
:1030F000BF0185549C4F0E941E1B0895DB01282FA1
:1031000030E0109769F0C9016BE070E00E94371A57
:10311000FC01E554FC4F9BE001900D929A95E1F77C
:10312000C9016BE070E00E94371ADC01AC56BC4F5D
:10313000FC01E554FC4F8BE001900D928A95E1F77C
:10314000089590E06BE070E00E94371A85549C4F20
:10315000FC011082089590E06BE070E00E94371A45
:1031600085549C4FFC0180810895CF93DF93CDB7A8
:10317000DEB72F970FB6F894DEBF0FBECDBF1C860B
:103180001D861E861F860E9477020E94C1100E9423
:1031900080100E9404100E94F20F8091B2038031CF
:1031A00079F0803209F440C08FE990E00E94391034
:1031B000412C312C65E9E62E64E0F62E1FE05FC05D
:1031C00088E890E00E9439108CE290E090935E01D4
:1031D00080935D0181EF90E09093100180930F0147
:1031E00084E590E0909312018093110183E0809335
:1031F00016018CE0E3E2F1E0AFE2B1E001900D9264
:103200008A95E1F78CE0E7E1F1E0A3E2B1E001901B
:103210000D928A95E1F7412C312C55E9E52E54E0C9
:10322000F52E1FE002E02CC084E790E00E943910E8
:103230008AE290E090935E0180935D0186EB90E0DE
:103240009093100180930F018BE390E09093120113
:103250008093110185E991E090931A0180931901FF
:1032600084E490E090931801809317013AE0432E94
:103270003324339443EBE42E47E0F42E15E001E0D1
:1032800021E0A701612F8BE292E00E94CA108BE23D
:1032900092E090931E0180931D01023069F421E0B9
:1032A000A701612F87E492E00E94CA1087E492E0B0
:1032B00090933601809335010E940C0FDC01ED9153
:1032C000FC9180E00995023039F40E940C0FDC017A
:1032D000ED91FC9181E0099578948CE091E00E9459
:1032E000AF1610E023E6822E22E0922E642C712C81
:1032F0000E94F90F81110E94B0100E949E1680E07A
:1033000091E00E9411171130D9F038F0123009F411
:103310007CC0133009F487C0EBCF80912A02811161
:10332000A4C0442011F0C30103C08091B30390E016
:103330000E940A100E94311011E08111D9CF95C06E
:10334000FE013C966F018BE2A82E82E0B82E93E638
:10335000E92E92E0F92E5E2C5818D6018D919C91A1
:10336000892B89F4852D0E949C02F601918380832C
:10337000009749F0DC011496ED91FC911597309778
:1033800011F0852D0995D601ED91FC913097A1F0B2
:103390000280F381E02D852D0995F701882351F0F6
:1033A00080818F5F80838F3150F0D6011D921C92F7
:1033B000108219C0108203C0852D0E94A118852D8E
:1033C0000E946718811102C0332069F0BE016F5F4F
:1033D0007F4F852D0E947E18BE016F5F7F4FC50114
:1033E0000E94F51012E0F2E0CF0ED11C8FEFE81A28
:1033F000F80A9CE1A90EB11C8E2D8819801708F4DB
:10340000AACF113009F074CF30C00E94681688230B
:1034100011F013E06DCF023009F06ACF0E9442161E
:103420008111F7CF65CF0E946816882361F08BE287
:1034300092E00E94F1107C018BE292E00E94001168
:10344000B7010E947216023081F40E94421688234E
:1034500061F087E492E00E94F1107C0187E492E041
:103460000E940011B7010E944C1610E041CF0024C9
:10347000552704C0080E591F880F991F009729F07F
:1034800076956795B8F37105B9F7802D952F089556
:10349000052E97FB1EF400940E945F1A57FD07D07B
:1034A0000E94BE1A07FC03D04EF40C945F1A50958C
:1034B0004095309521953F4F4F4F5F4F0895909520
:1034C0008095709561957F4F8F4F9F4F08956894B9
:1034D0000013E894A0E0B0E0E0E7FAE10C948F1A62
:1034E000EFEFE7F959016A015E23550FEE08FE2C54
:1034F00087019B01AC019E23990F660B762FCB01B0
:103500000E94E01ACDB7DEB7EAE00C94AB1A2F9216
:103510003F924F925F926F927F928F929F92AF9263
:10352000BF92CF92DF92EF92FF920F931F93CF93B0
:10353000DF93CDB7DEB7CA1BDB0B0FB6F894DEBF47
:103540000FBECDBF09942A88398848885F846E846D
:103550007D848C849B84AA84B984C884DF80EE80B7
:10356000FD800C811B81AA81B981CE0FD11D0FB6C0
:10357000F894DEBF0FBECDBFED010895A1E21A2E73
:10358000AA1BBB1BFD010DC0AA1FBB1FEE1FFF1F07
:10359000A217B307E407F50720F0A21BB30BE40B57
:1035A000F50B661F771F881F991F1A9469F760959E
:1035B0007095809590959B01AC01BD01CF01089558
:1035C000DF93CF939F92A0E49A2E0024D001E001D4
:1035D000F00116950795F794E794D794C794B7949C
:1035E000A79448F41068A20FB31FC41FD51FE61F8D
:1035F000F71F081E191E220F331F441F551F661F79
:10360000771F881F991F9A9421F79D01AE01BF0172
:10361000C00111249F90CF91DF910895FB01DC013F
:1036200005900D920020E1F70895FC01059000201F
:10363000E9F7809590958E0F9F1F0895FB01DC019F
:1036400004C08D910190801921F441505040C8F779
:10365000881B990B0895FB01DC0102C001900D92BB
:1036600041505040D8F70895DC0101C06D9341509E
:103670005040E0F70895FB01DC0101900D9200201D
:10368000E1F70895A0E0B0E0E8E4FBE10C94951ABE
:10369000AE01495F5F4FDA016D917D91AD0101EDA2
:1036A00013E0F80182819381DC0113962C9113972A
:1036B000286013962C930E94681BD8011296ED91F6
:1036C000FC9113972381277F2383E4E00C94B11AA4
:1036D000ACE0B0E0EEE6FBE10C94871A7C016B01F4
:1036E0008A01FC0117821682838181FFBFC1CE014E
:1036F00001964C01F7019381F60193FD859193FFAB
:1037000081916F01882309F4ADC1853239F493FDAD
:10371000859193FF81916F01853229F4B70190E083
:103720000E94521DE7CF512C312C20E02032A0F412
:103730008B3269F030F4803259F0833269F42061C1
:103740002EC08D3239F0803339F4216028C02260D8
:10375000246025C0286023C027FD29C030ED380F24
:103760003A3088F426FF07C0852D6AE00E941C1EAF
:10377000582E530E14C0832D6AE00E941C1E382E52
:10378000330E20620CC08E3221F426FD6BC1206402
:1037900006C08C3611F4206802C0883641F4F60168
:1037A00093FD859193FF81916F018111BFCF982F78
:1037B0009F7D9554933028F40C5F1F4FFFE3F983EE
:1037C0000DC0833631F0833771F0833509F05BC06B
:1037D00022C0F801808189830E5F1F4F44244394E7
:1037E000512C540115C03801F2E06F0E711CF80124
:1037F000A080B18026FF03C0652D70E002C06FEF8E
:103800007FEFC5012C870E94471D2C0183012C8569
:103810002F77222E17C03801F2E06F0E711CF801CD
:10382000A080B18026FF03C0652D70E002C06FEF5D
:103830007FEFC5012C870E943C1D2C012C85206840
:10384000222E830123FC1BC0832D90E048165906CD
:10385000B0F4B70180E290E00E94521D3A94F4CF98
:10386000F50127FC859127FE81915F01B70190E06A
:103870000E94521D31103A94F1E04F1A5108411440
:10388000510471F7E5C0843611F0893639F5F80135
:1038900027FF07C060817181828193810C5F1F4F78
:1038A00008C060817181072E000C880B990B0E5F98
:1038B0001F4F2F76722E97FF09C0909580957095B7
:1038C00061957F4F8F4F9F4F2068722E2AE030E026
:1038D000A4010E948A1DA82EA81844C0853729F487
:1038E0002F7EB22E2AE030E025C0F22FF97FBF2EC6
:1038F0008F36C1F018F4883579F0B4C0803719F0EC
:10390000883721F0AFC02F2F2061B22EB4FE0DC03A
:103910008B2D8460B82E09C024FF0AC09F2F9660AB
:10392000B92E06C028E030E005C020E130E002C03A
:1039300020E132E0F801B7FE07C060817181828129
:1039400093810C5F1F4F06C06081718180E090E021
:103950000E5F1F4FA4010E948A1DA82EA818FB2DE0
:10396000FF777F2E76FE0BC0372D3E7FA51450F4D7
:1039700074FE0AC072FC08C0372D3E7E05C0BA2C0A
:10398000372D03C0BA2C01C0B52C34FF0DC0FE0189
:10399000EA0DF11D8081803311F4397E09C032FFB8
:1039A00006C0B394B39404C0832F867809F0B3940F
:1039B00033FD13C030FF06C05A2CB31418F4530C57
:1039C0005B18B32CB31468F4B70180E290E03C8735
:1039D0000E94521DB3943C85F5CFB31410F43B18EC
:1039E00001C0312C34FF12C0B70180E390E03C8766
:1039F0000E94521D3C8532FF17C031FD03C088E78D
:103A000090E002C088E590E0B7010CC0832F867873
:103A100059F031FF02C08BE201C080E237FD8DE238
:103A2000B70190E00E94521DA51438F4B70180E35D
:103A300090E00E94521D5A94F7CFAA94F401EA0D27
:103A4000F11D8081B70190E00E94521DA110F5CFB9
:103A5000332009F44FCEB70180E290E00E94521D5E
:103A60003A94F6CFF7018681978102C08FEF9FEFDE
:103A70002C96E2E10C94A31AFC0105906150704071
:103A80000110D8F7809590958E0F9F1F0895FC0127
:103A90006150704001900110D8F7809590958E0F7D
:103AA0009F1F08950F931F93CF93DF93FB012381F3
:103AB00021FD03C08FEF9FEF28C022FF16C0468173
:103AC0005781248135814217530744F4A081B18185
:103AD0009D012F5F3F4F318320838C932681378157
:103AE0002F5F3F4F3783268310C0EB01092F182F1C
:103AF0000084F185E02D0995892BE1F68E819F8167
:103B000001969F838E83812F902FDF91CF911F91FC
:103B10000F910895FA01AA27283061F1203191F11F
:103B2000E8946F936E7F6E5F7F4F8F4F9F4FAF4FC5
:103B3000B1E040D0B4E03ED0670F781F891F9A1FD4
:103B4000A11D680F791F8A1F911DA11D6A0F711D8C
:103B5000811D911DA11D22D009F468943F91062E6C
:103B6000000C3019000C000C3019305D3193CEF68A
:103B7000CF010895462F4770405D4193B3E00FD0C9
:103B8000C9F7F6CF462F4F70405D4A3318F0495DB4
:103B900031FD4052419302D0A9F7EACFB4E0A69597
:103BA0009795879577956795BA95C9F700976105B9
:103BB000710508959B01AC010A2E0694579547950F
:103BC00037952795BA95C9F7620F731F841F951F04
:103BD000A01D0895DC01CB01FC01F999FECF06C0C0
:103BE000F2BDE1BDF89A319600B40D9241505040BB
:103BF000B8F70895DC01A40FB51F4150504048F0BC
:103C0000CB01840F951F2E910E940B1E41505040F6
:103C1000D0F70895262FF999FECF92BD81BDF89A6D
:103C2000019700B4021639F01FBA20BD0FB6F89400
:103C3000FA9AF99A0FBE0895002480FD060E660FC9
:0E3C400011F08695D1F7802D0895F894FFCFEE
:103C4E0095020000000000000F0F00000653014512
:103C5E00013B00038901023E00D901100000009AC9
:103C6E000298021500800140000000E816FA1600C6
:103C7E000000000000000000000000000000000036
:103C8E000000000000000000000000000000000026
:103C9E0000000012011001000000409B282B0012B2
:103CAE000201020301DE010F0A1C0A4F0A200B2D2E
:103CBE000B600B1D0C260C000000007F0E670152DE
:103CCE006D01526701006D0100E4017A020E0200DF
:103CDE0000000200000000BE1000000000FFFFFF09
:103CEE00FFFFFFFFFF013030303030313001000078
:103CFE00003102000000260400000027080000002A
:103D0E00281000000029200000002A400000003288
:103D1E00800000002B000100000000000000322E89
:103D2E00312E320072006100700068006E00650076
:103D3E007400200074006500630068006E006F0060
:103D4E006C006F00670069006500730000003100B1
:0C3D5E0032003300340035003600000055
:00000001FF
