:100000000C941D020C943A020C943A020C943A029D
:100010000C943A020C943A020C943A020C943A0270
:100020000C943A020C943A020C943A020C94950AFD
:100030000C94FC0A0C943A020C943A020C943A0286
:100040000C943A020C943A020C943A020C943A0240
:100050000C943A020C943A020C943A020C943A0230
:100060000C943A020C943A020C943A020C943A0220
:100070000C943A02505358206D6F75736520746F5D
:10008000205553422076312E300050535820746F43
:10009000205553422076312E302028332D706C614C
:1000A000796572206D6F6465290050535820746F14
:1000B000205553422076312E302028322D706C612D
:1000C000796572206D6F6465290050535820746FF4
:1000D000205553422076312E300009023B000201A8
:1000E000008019090400000103000000092101013A
:1000F00000012244000705810310000109040100EA
:10010000010300000009210101000122150007057B
:10011000820340000109026D0004010080190904F6
:1001200000000103000000092101010001223E003E
:10013000070581031000010904010001030000000C
:10014000092101010001223E000705820310000180
:10015000090402000103000000092101010001223D
:100160003E0007058303100001090403000103009A
:100170000000092101010001221500070584034048
:100180000001090254000301008019090400000164
:1001900003000000092101010001223E0007058142
:1001A00003100001090401000103000000092101FE
:1001B000010001223E00070582031000010904022C
:1001C00000010300000009210101000122150007C0
:1001D00005830340000109023B0002010080190968
:1001E0000400000103000000092101010001223E7A
:1001F000000705810310000109040100010300004C
:1002000000092101010001221500070582034000B9
:10021000010600FF0901A101150026FF00750895E0
:100220003F0901B100C005010902A1010901A100B6
:100230008501050919012904150025019504750199
:100240008102950175048103050109300931158189
:10025000257F7508950281061581257F35004500AB
:100260000938750895018106C0C005010904A1017E
:100270000901A100850105017510950615002600EC
:100280007D0930093109330934093509328102C049
:10029000A100050915002501750195101901291006
:1002A000750195108102C0C00080000001000000AF
:1002B00000400000020000000020000004000000D8
:1002C00000100000080000000800000010000000FE
:1002D00001000000200000000004000040000000B9
:1002E0000008000080000000000100000001000084
:1002F00000020000000200000200000000040000F4
:1003000004000000000800001000000000100000C1
:1003100040000000002000008000000000400000BD
:10032000200000000080000000000000000000002D
:100330003001000000310200000026040000002708
:1003400008000000281000000029200000002A40BA
:1003500000000032800000002B000100002C00088B
:100360000000150010000016002000002D004000C5
:1003700000000000000063343462393238342D311B
:100380003835302D346131642D623633392D3037B4
:1003900066346231383537326437000D0A00253053
:1003A00032582000556E68616E646C656420636F1E
:1003B0006E74726F6C207772697465205B25645D62
:1003C000203A2000743A20253032782C2072713A7D
:1003D000203078253032782C2076616C3A20253018
:1003E00034780D0A00556E6B6E6F776E20737472E1
:1003F000696E672069640D0A00556E68616E646CF1
:10040000656420636C6173732062526571756573F6
:1004100074203078253032780A0043464720455012
:10042000206661696C0D0A00496E76616C69642012
:1004300065702073697A650D0A0011241FBECFEF25
:10044000D4E0DEBFCDBF11E0A0E0B1E0E4EBFCE220
:1004500002C005900D92A63DB107D9F723E0A6EDA5
:10046000B1E001C01D92A735B207E1F70E94C110AB
:100470000C9458160C94000015B88DEF84B98CEFCD
:1004800087B918B81BB880E78AB9E1E6F0E080E8E0
:100490008083108210926400109265000FB6F89469
:1004A000A895809160008861809360001092600040
:1004B0000FBE08958093E4010895FC01108281E04D
:1004C000818380912603803251F080E1828381E331
:1004D00083838BE2848387E2858386E0089582E0CC
:1004E0000895FC01108280E1818383E0828380E2B1
:1004F000838384E008950C948C090C9472091F93F3
:10050000CF93DF93182F0E94C906EC01E881F9818F
:10051000812F0995E885F985812F0995882311F0A8
:10052000CE0102C080E090E0DF91CF911F9108954D
:10053000A0E2B3E0E6EDF1E08D9190E0819391933C
:1005400081E0E23EF807C1F71092E3011092E20168
:1005500086ED91E09093760180937501089560E0B7
:1005600071E080E090E008958F929F92AF92BF92E9
:10057000CF92DF92EF92FF920F931F93811128C0C9
:1005800000E010E0980188EA92E0FC01C590D59067
:10059000E590F490FC01349685909590A590B490E8
:1005A000C114D104E104F104C1F081149104A10447
:1005B000B10499F0C422D522E622F722CD28CE2814
:1005C000CF2821F0082919292A293B290896DDCFAF
:1005D00060E070E080E090E002C0B801C9011F91C6
:1005E0000F91FF90EF90DF90CF90BF90AF909F90D2
:1005F0008F90089560E070E0CB01089580E0089549
:100600000F931F93CF93DF9300D000D000D0CDB7CE
:10061000DEB786E0EEE8F1E0DE01119601900D9282
:100620008A95E1F786E0FE013196A0E2B3E0019001
:100630000D928A95E1F70EE113E085E0F8018187DC
:10064000828783870E94FE02F80180870E94AF02A2
:10065000F801648775878687978726960FB6F89482
:10066000DEBF0FBECDBFDF91CF911F910F910895D7
:10067000CF92DF92EF92FF920F931F93DB018031B5
:10068000D1F028F4882359F0813061F005C082311F
:10069000C1F0A0F08333C9F020E333E030C0809193
:1006A000260311C086E0E0E2F3E001900D928A9506
:1006B000E1F786E043C08091270305C080912803BD
:1006C00002C0809129038C9338C000912A031091B5
:1006D0002B0320912C0330912D03B901A80189E04F
:1006E00076956795579547958A95D1F7417012FD94
:1006F00042604C9322C0891761F02B5F3F4FF90194
:1007000094913196C590D590E590F4909111F3CFE6
:1007100014C040912A0350912B0360912C037091D7
:100720002D034C215D216E217F2191E0452B462B2D
:10073000472B09F490E09C93E0CF81E01F910F914B
:10074000FF90EF90DF90CF9008956115710509F447
:1007500089C0DB018031E9F028F4882359F0813029
:1007600069F005C08231E9F0C0F08333F1F020E395
:1007700033E04AC08C918093260370C086E0FB0171
:10078000A0E2B3E001900D928A95E1F70E94E8089B
:1007900065C08C918093270361C08C91809328035E
:1007A0005DC08C918093290359C02C91233008F0AF
:1007B00022E080912A0390912B03A0912C03B09109
:1007C0002D03997F20FD926080932A0390932B0341
:1007D000A0932C03B0932D0321FF40C080912A03E6
:1007E00090912B03A0912C03B0912D0394608093E2
:1007F0002A0390932B03A0932C03B0932D032EC0B8
:10080000891761F02B5F3F4FF90194913196459123
:100810005591659174919111F3CF24C02C918091E1
:100820002A0390912B03A0912C03B0912D03222336
:1008300029F0482B592B6A2B7B2B08C040955095EB
:1008400060957095482359236A237B2340932A039C
:1008500050932B0360932C0370932D030E94E808A0
:1008600081E0089580E008955B98539858985098D7
:100870005A983AB12AB181E090E002C0880F991FDE
:100880003A95E2F78095909582238AB92098289826
:10089000519859980895EF92FF920F931F93CF9319
:1008A000DF937B01539A1AE61A95F1F700C0609125
:1008B0002703643630F0CFE8D1E02197F1F700C08C
:1008C0000000DA01FC0180E090E0602F6270821786
:1008D00093070CF04EC08E159F0514F4708101C073
:1008E00070E0C8E0D0E050E041E0509A172F1423A8
:1008F00011F0529801C0529A15E01A95F1F70000D4
:10090000109127031A3020F01AE01A95F1F700C071
:100910004999542B509815E01A95F1F70000109161
:1009200027031A3020F01AE01A95F1F700C0440F9F
:100930002197D9F6C7ECD0E02197F1F700C000006D
:1009400040912703453030F0CFE8D1E02197F1F70F
:1009500000C000005D938630910541F4662331F0BC
:10096000CFE9DFE02197F1F700C000000196319652
:10097000AECFC90137FF02C080E090E000FD05C0A6
:100980005398D5E8DA95F1F70000209127032A3033
:1009900030F0EFE8F1E03197F1F700C00000DF91AF
:1009A000CF911F910F91FF90EF9008950F931F9398
:1009B000CF93DF93CDB7DEB72B970FB6F894DEBF9A
:1009C0000FBECDBF182F81E0810F8A8782E48B870D
:1009D00000E029E030E0AE014F5F5F4F62E070E081
:1009E000CE010A960E944B04212F30E0049754F464
:1009F000C9016BE070E00E948B12805D9C4FFC018E
:100A000010825AC08A81813449F1C8F4823109F4D4
:100A100055C0833209F069C0C9016BE070E00E94E3
:100A20008B12FC01E05DFC4F85E180838E81838326
:100A30008F818483888585838985868337C08335C4
:100A400019F1833709F051C0C9016BE070E00E94D1
:100A50008B12FC01E05DFC4F84E11FC0C9016BE01B
:100A600070E00E948B12FC01E05DFC4F80E8858302
:100A70008683838384838C819D81809590959283E6
:100A8000818383E1808318C0C9016BE070E00E941C
:100A90008B12FC01E05DFC4F85E380838E818583B2
:100AA0008F81868388858383898584838C819D81DA
:100AB000809590959283818380E021C0C9016BE08D
:100AC00070E00E948B12FC01E05DFC4F86E18083A8
:100AD0008E8183838F8184832C813D812095309505
:100AE00022273C7032832183E7CFC9016BE070E09D
:100AF0000E948B12805D9C4FFC01108281E02B963E
:100B00000FB6F894DEBF0FBECDBFDF91CF911F911E
:100B10000F910895EF92FF920F93CF93DF93CDB78C
:100B2000DEB72B970FB6F894DEBF0FBECDBF7B01AB
:100B30008F5F8A8782E48B8700E029E030E0AE0196
:100B40004F5F5F4F62E070E0CE010A960E944B0457
:100B500003973CF08A8190E0F7019183808380E0E5
:100B600001C08FEF2B960FB6F894DEBF0FBECDBF3E
:100B7000DF91CF910F91FF90EF9008950F93CF9356
:100B8000DF93CDB7DEB72D970FB6F894DEBF0FBE5B
:100B9000CDBF8F5F8A8783E48B871C8681E06111DC
:100BA00001C080E08D8700E029E030E0AE014F5FBA
:100BB0005F4F64E070E0CE010A960E944B0421E092
:100BC00003970CF020E0822F81952D960FB6F894B4
:100BD000DEBF0FBECDBFDF91CF910F9108950F9370
:100BE0001F93CF93DF93CDB7DEB760970FB6F8941E
:100BF000DEBF0FBECDBF182FBE01615F7F4F0E94C9
:100C00008A05811146C08F8598898F3F2FEF920703
:100C100009F43FC0833F910509F580912A03909123
:100C20002B03A0912C03B0912D0390FF2CC081E0E9
:100C3000810F8A8784E48B871C8681E08D8782E020
:100C40008E8700E029E030E0AE014F5F5F4F65E046
:100C500070E0CE010A960E944B0415C061E0812F1E
:100C60000E94BE05811115C0BE01615F7F4F812FBB
:100C70000E948A0581110DC08F859889833F910557
:100C800061F291E007C060E0812F0E94BE0591E013
:100C9000811190E0892F60960FB6F894DEBF0FBEE9
:100CA000CDBFDF91CF911F910F9108957F928F92C9
:100CB0009F92AF92BF92CF92DF92EF92FF920F93EB
:100CC0001F93CF93DF93CDB7DEB77C018DB69EB671
:100CD0008DB79EB7841B950B0FB6F8949EBF0FBEC1
:100CE0008DBFEDB7FEB731966F0164307105ECF141
:100CF000F701A080F4E8AF1238C0F701838190E0DB
:100D00009A0121503109821793077CF5B180B29482
:100D10008FE0B82260E070E0C6010E941C137FB62D
:100D2000F894F701238130E0A6014E5F5F4F6281A6
:100D300070E00B2DC70104960E944B048C017FBE0E
:100D4000F601A0828183AC014E5F5F4FB601C701FF
:100D50000E941313B2FE06C08FE19EE40197F1F7E3
:100D600000C0000082E0800F01C080E00FB6F89460
:100D70009EBE0FBE8DBEDF91CF911F910F91FF9050
:100D8000EF90DF90CF90BF90AF909F908F907F902B
:100D9000089587E691E00895FC016083DC010C96DC
:100DA00030E82EE311963C93119712962C931297EC
:100DB0001296A817B907B1F7158616860895CF922F
:100DC000DF92EF92FF920F931F93CF93DF93CDB7F4
:100DD000DEB728970FB6F894DEBF0FBECDBFFC017B
:100DE0008B0121813281838190E06DE770E00E9468
:100DF0008B127C0198878F83848190E06DE770E08F
:100E00000E948B12DC019E838D83858190E06DE7CB
:100E100070E00E948B126C019C838B83868190E032
:100E20006DE770E00E948B12AC019A8389839091E8
:100E30002A0393FF08C0D886CF82FC82EB825E83B0
:100E40004D83BA83A98391FF15C024FF02C01E827F
:100E50001D8226FF04C080E09DE79E838D8327FFCF
:100E600002C018861F8225FF04C080E09DE7988796
:100E70008F832F708F81F8018183888582838D8194
:100E800083838E8184838B8185838C818683898112
:100E900087838A818087A90160E070E080E00E94FA
:100EA000B402F8016587768728960FB6F894DEBFFE
:100EB0000FBECDBFDF91CF911F910F91FF90EF90AB
:100EC000DF90CF900895FF920F931F93CF93DF93FE
:100ED000CDB7DEB728970FB6F894DEBF0FBECDBFF3
:100EE000FC018B01838190E06DE770E00E948B1222
:100EF000F82E8F839887848190E06EE370E00E94E3
:100F00008B12AC014058514C5E834D83858190E03B
:100F10006EE370E00E948B129C012058314C3C83A0
:100F20002B83868190E06EE370E00E948B128058E4
:100F3000914C9A838983D8011196FC9211979885D8
:100F400012969C93129715964C9315979E81169620
:100F50009C93169717962C9317979C8118969C93A1
:100F600018971B968C931B978A811C968C934181B2
:100F7000528160E070E080E00E94B402F801658771
:100F8000768728960FB6F894DEBF0FBECDBFDF91EF
:100F9000CF911F910F91FF9008950F931F93CF93BF
:100FA000DF9300D000D0CDB7DEB7FC018B012181EB
:100FB00032818381082E000C990B6AEF70E00E9449
:100FC0008B12AC014058514C5C834B838481082EBA
:100FD000000C990B6AEF70E00E948B128058914CC4
:100FE0009A838983F80141839C81928383838A81D8
:100FF0008483A90160E070E080E00E94B402F801FF
:10100000658776870F900F900F900F90DF91CF91AB
:101010001F910F910895DC01FB01118211968D91B2
:101020009C91129793FF02C081E0818311968D916C
:101030009C91129792FF03C08181826081831396F5
:101040008C911397828314968C91838308950F93C8
:101050001F93CF93DF93EC018A01CA010E94CC0653
:10106000209719F18881853181F018F48331E8F0F7
:1010700004C0863191F08533C1F4B801CE01DF910F
:10108000CF911F910F910C94DF06B801CE01DF9133
:10109000CF911F910F910C946307B801CE01DF919E
:1010A000CF911F910F910C94CD07DF91CF911F919C
:1010B0000F910895FA0160831182128213821482C3
:1010C000009739F0DC012C91263119F4BA010C9407
:1010D0000B0808958DEA9EED909356038093550377
:1010E000089581E020915503309156032D3A3E4DED
:1010F00009F480E081950895109280008DE080933E
:1011000081000895BC0180912102909122028617EE
:101110009707E1F0709322026093210210928500FC
:1011200010928400072E000C880B990B29E03DE3F8
:1011300040E050E00E949C1228EE33E040E050E096
:101140000E94B51230938900209388000895B19BC6
:1011500004C082E086BB81E0089580E00895A3E2A8
:10116000B2E0FC012491422F50E04D935D93019633
:10117000222349F022E0A136B20799F710926202C9
:101180001092610208950895EEE1F3E080E090E0AE
:1011900023E0EE32F207D9F021919227092E029432
:1011A000202D2F702927392F3025330F307E23270C
:1011B000302D3927307F3695092E000C331F969538
:1011C000969596959F7193279827822FE1CF089542
:1011D0000E94C40890932F0380932E0342E150E0B5
:1011E00060E070E08EE193E00C94F615CF93DF930E
:1011F00042E150E060E070E08EE193E00E94E6158D
:1012000080911E0390911F038D3E9E4F91F082E1CD
:10121000EEE1F3E0DF011D928A95E9F78DEE9EEF96
:1012200090931F0380931E030E9400030E94E8080E
:1012300009C0C0912E03D0912F030E94C408C81783
:10124000D90729F7DF91CF910C949802F8940E9466
:10125000A00E8FE39CE90197F1F700C00000F8941D
:10126000E0E0F8E3099408950E94A00EF894E0E00D
:10127000F0E00994089580E090E008951092C9008C
:1012800087E791E0909354038093530308951F934D
:10129000CF93DF93EC01FA01122F83E1DE011D925F
:1012A0008A95E9F769835A8B498BAE014E5F5F4F90
:1012B000688180E090E009951883DF91CF911F91BC
:1012C0000895FC01818190E00895DC01CB01AD011E
:1012D0004E5F5F4F5196ED91FC9152976C9109943E
:1012E00002960895DB011296EC91129713962C91B9
:1012F00030E02130310569F4E13059F49C012E5F72
:101300003F4FFA0131832083DC0111968C9190E0EC
:10131000089580E090E0089581E0232B09F080E0BB
:10132000819508950F93FB018093E900CA0124176A
:10133000350708F4C9018E0F9F1F002341F08E1757
:101340009F0761F024912093F1003196F8CF8E171A
:101350009F0721F021912093F100F9CF0F9108957B
:10136000CF92DF92EF92FF920F931F93CF93DF9371
:101370006C01122FEA016417750708F4EB01E12CE8
:10138000F12CB6016E0D7F1D012FC134D105B0F0D7
:1013900020E430E040E450E080E00E949209809137
:1013A000E8008E7F8093E80080E4E80EF11CC054D2
:1013B000D1098091E80080FFFCCFE3CF9E01AE0110
:1013C00080E00E9492098091E8008E7F8093E8007F
:1013D0008091E80080FFFCCFDF91CF911F910F91AA
:1013E000FF90EF90DF90CF900895EF92FF920F93D0
:1013F000CF93DF938093E9009091E80090FF28C09D
:10140000FA012081318137FF06C08091F0008E7F84
:101410008093F0001DC0EA017B019091E8009E7F5F
:101420009093E8002081318140815181FB016081EE
:10143000718100E00E949209F701118210828FEF02
:101440009FEF998388838091E8008F778093E800ED
:10145000DF91CF910F91FF90EF9008951092E900E6
:1014600081E08093EB001092EC008CE48093F0001C
:101470008091ED0082638093ED001092E8008091EE
:10148000EE0087FF51C020E030E041E0A1ECE091A8
:101490006402F0916502828590E02817390744F5CF
:1014A00081E0820F8093E9004093EB00A093EC0071
:1014B0004093F000E0916402F0916502C9016CE094
:1014C00070E00E948B12E80FF91F878590898031A8
:1014D0009105D1F024F4089761F480E016C08032C1
:1014E000910521F08034910569F003C080E20DC0C0
:1014F000089588E294E09F938F930E942A130F909F
:101500000F90089580E301C080E182608093ED0038
:101510001092E8008091EE0087FD03C08AE194E01C
:10152000EACF2F5F3F4FB3CF08951F920F920FB6B0
:101530000F9211242F933F934F935F936F937F9359
:101540008F939F93AF93BF93CF93EF93FF93C091EC
:10155000E100C0FF0DC08091E1008E7F8093E1002B
:1015600081E08093BA028091E20080618093E20082
:10157000C4FF10C08091E1008F7E8093E1008091D4
:10158000BA02882339F01092BA028091E2008F7E6D
:101590008093E200C3FF09C01092BA020E942E0A93
:1015A0008091E100877F8093E100C2FF05C08091B8
:1015B000E1008B7F8093E100C5FF05C08091E100D1
:1015C0008F7D8093E100C6FF05C08091E1008F7B95
:1015D0008093E100FF91EF91CF91BF91AF919F91E7
:1015E0008F917F916F915F914F913F912F910F90CC
:1015F0000FBE0F901F9018951F920F920FB60F926B
:1016000011246F927F928F929F92AF92BF92CF924E
:10161000DF92EF92FF920F931F932F933F934F937D
:101620005F936F937F938F939F93AF93BF93EF934A
:10163000FF93CF93DF93CDB7DEB72C97DEBFCDBF3F
:101640007090F40070FE9BC21092E9006090E80078
:1016500063FEE6C12091F20030E0FE01319680E0A9
:1016600090E0FE2E0F2F8217930740F488309105EB
:1016700029F04091F10041930196F5CF8091E80067
:10168000877F8093E800898187FD6CC0982F9F71C8
:1016900019F09130D1F166C08A81853019F0893016
:1016A00001F162C08B818093E3008091E80080FFAC
:1016B000FCCF8091E8008E7F8093E8008091E80065
:1016C00080FFFCCF8091E30080688093E3008B81F2
:1016D0009C81892B11F481E001C082E080938D010F
:1016E00041C08B818093B902811102C082E001C0A8
:1016F00083E080938D018091E80080FFFCCF809192
:10170000E8008E7F8093E8002DC08076803261F5FE
:101710008A818930D1F48091E80080FFFCCF8091EC
:10172000E8008E7F8093E80088E0EF2DF02FA9EA93
:10173000B2E001900D928A95E1F71092A802109202
:10174000A70281E08093A6020DC01F928F9389EFBC
:1017500093E09F938F930E942A130F900F900F9006
:101760000F9002C010E001C011E0998197FF3CC1C9
:10177000292F2F718A81213009F4A6C020F0223050
:1017800009F40AC133C18630A1F0883009F004C1E0
:1017900080918D012F813885833029F0198600E0F2
:1017A00041E050E0A2C000E041E050E069EB72E0AF
:1017B000F1C08B819C81292F332722303105A1F084
:1017C00023303105F1F02130310509F00FC1E091EE
:1017D0006402F0916502008101702F81388561817A
:1017E000728142E150E0D6C0E0916402F09165025E
:1017F000208122704F815885658176818381948113
:1018000098C09927009709F444C0A0906402B09052
:101810006502D50117962C91179730E028173907E4
:101820000CF449C0CF80D88401977C01EE0CFF1CDA
:101830001896ED91FC911997EE0DFF1D0190F08126
:10184000E02D812C912C81919191892B21F0BFEF7A
:101850008B1A9B0AF8CF880C991C82E0880D898727
:1018600083E08A8700E0960142E050E0BE01675FB6
:101870007F4F80E00E949209960122503109F501C4
:1018800080859185FC01EE0DFF1D60817181A401B1
:1018900081C08091940190919501A0919601B091A1
:1018A000970189879A87AB87BC872F81388500E0AD
:1018B00044E050E01AC085EE93E09F938F930E941E
:1018C0002A130F900F9076C0907619F09032A1F104
:1018D0008DC0882319F0863061F088C019861A8679
:1018E0002F81388500E042E050E0BE01675F7F4F06
:1018F00051C08C8190E0829709F078C08D819E81E3
:10190000E0916402F0916502228530E028173907E2
:1019100008F46CC020812470AF81B8856CE070E061
:101920000E948B12E80FF91F63857485AD018585D0
:1019300096850E94B0093EC0813009F057C02D81C4
:101940003E81A0916402B09165021A968C911A971B
:1019500090E08217930770F1C9016CE070E00E947B
:101960008B128A0F9B1FFC01C388D488C114D10439
:10197000E9F1AE01475F5F4F6F2D702F818992892A
:10198000F60109950097B1F02F81388569857A8530
:1019900000E0AC0180E00CC0811128C019861A86D5
:1019A0002F81388500E042E050E0BE01675F7F4F45
:1019B0000E94920911111AC08091E8008E7F8093D5
:1019C000E8008091E80080FF05C08091E8008E7FEC
:1019D0008093E8008091E80082FFF3CF8091E800D7
:1019E0008B7F8093E8001CC01123D1F08C818F93F2
:1019F0008B818F938A811F928F9389811F928F93FE
:101A000084EC93E09F938F930E942A138091EB00C4
:101A100080628093EB000FB6F894DEBF0FBECDBF9F
:101A200062FE33C08091F2009091A602992341F1A9
:101A300090E02091A7023091A802280F391F20348E
:101A40003105F0F42091A7023091A8022A593D4FA8
:101A50004091F20050E0F901BF01621B730B641763
:101A6000750720F46091F1006193F6CF2091A702F1
:101A70003091A802820F931F9093A8028093A7022F
:101A80008091E8008B7F8093E80066FE78C08091AB
:101A9000E8008F7B8093E8008091A602882309F4F8
:101AA0006EC00091A7021091A8028091A9028076D1
:101AB0008032A1F52091AD023091AE02A091640276
:101AC000B09165021A968C911A9790E0821793074D
:101AD00008F453C0C9016CE070E00E948B128A0FB9
:101AE0009B1FFC01E588F688E114F104B9F0980128
:101AF00046E652E069EA72E081899289F701099528
:101B0000882331F08091EB0080628093EB0035C038
:101B10008091E8008E7F8093E8002FC01F930F9381
:101B200084EA93E09F938F930E942A1386E6E82E1F
:101B300082E0F82E0A591D4F0F900F900F900F90D2
:101B40009EE9C92E93E0D92E0E151F0571F0D7011D
:101B50008D917D011F928F93DF92CF920E942A1365
:101B60000F900F900F900F90EFCF8BE993E09F9322
:101B70008F930E942A130F900F901092A60271FE6D
:101B800007C04BE851E067EB72E081E00E94F50985
:101B900072FE07C049E851E065EB72E082E00E9406
:101BA000F50973FE07C047E851E063EB72E083E09C
:101BB0000E94F50974FE07C045E851E061EB72E050
:101BC00084E00E94F5092C960FB6F894DEBF0FBE94
:101BD000CDBFDF91CF91FF91EF91BF91AF919F91D9
:101BE0008F917F916F915F914F913F912F911F91B5
:101BF0000F91FF90EF90DF90CF90BF90AF909F90AC
:101C00008F907F906F900F900FBE0F901F90189540
:101C1000209185013091860181E02F3F3F4F09F0EF
:101C200080E008959C019FB7409185015091860105
:101C30004F3F5F4FC9F7F8943093B2022093B1023F
:101C4000709386016093850184E08093E900809120
:101C5000F00081608093F0009FBF0895209187017C
:101C60003091880181E02F3F3F4F09F080E00895D7
:101C70009C019FB740918701509188014F3F5F4F72
:101C8000C9F7F8943093B4022093B302709388019B
:101C90006093870183E08093E9008091F000816088
:101CA0008093F0009FBF08952091890130918A01AF
:101CB00081E02F3F3F4F09F080E008959C019FB7DE
:101CC0004091890150918A014F3F5F4FC9F7F894C5
:101CD0003093B6022093B50270938A016093890114
:101CE00082E08093E9008091F00081608093F000B1
:101CF0009FBF089520918B0130918C0181E02F3F8F
:101D00003F4F09F080E008959C019FB740918B01FF
:101D100050918C014F3F5F4FC9F7F8943093B80250
:101D20002093B70270938C0160938B0181E08093C4
:101D3000E9008091F00081608093F0009FBF0895DA
:101D4000E0EEF0E08081816080831092E200E8EDB7
:101D5000F0E080818F778083808180628083089526
:101D600080916302882321F0813051F01092630248
:101D70008091E0008E7F8093E00081E08093630299
:101D8000089520E22093D80021E02093E0001092F3
:101D9000E2001092E30090936502809364028091C8
:101DA000D8008F778093D8008091D800806280938C
:101DB000D8001092FB001092630084E089BD89B5C1
:101DC000826089BD09B400FEFDCF8091D800806893
:101DD0008093D8008091D8008F7D8093D8000E9496
:101DE0002E0A8091E1008E7F8093E10089E7809345
:101DF000E20008958091FC02823059F48CEB92E06D
:101E0000FA01918380831092FC028091BB0290E0E2
:101E1000089580E090E00895CF93BA01C22F81E049
:101E20008093FC02422F532F8CEB92E00E941313FD
:101E3000C093BB0280E0CF910895CF93DF932091B0
:101E4000FC02213029F008F44BC1223029F448C1AA
:101E50003091BB02311103C01092FC0241C1FC0160
:101E60009091BC02963009F467C028F5933009F4CC
:101E700042C088F49130B9F1923009F01DC14EE3AF
:101E80006EEB72E08091BD020E9438038093BB022A
:101E90008091BB024FC09430D9F1953009F00CC14C
:101EA00066E773E08DEB92E00E94F61286E793E01E
:101EB0000E94FD123FC0913F09F4EEC038F4973004
:101EC00009F445C0903F09F450C0F6C09E3F41F070
:101ED00020F4923F09F4D8C0EFC00E942609FDC04B
:101EE0000E943409FAC06EEB72E08091BD020E943C
:101EF000A50382E0F0C0309709F4EFC00190F081B3
:101F0000E02D309709F4E9C08091BD020995E5C044
:101F1000C0916501D0916601BE018DEB92E00E94F7
:101F20002313FE0101900020E9F7EC1BEF5FE09323
:101F3000BB02D3C08E5FCFC08091BD02833008F05A
:101F4000CCC00E94B7108C598093BE020CC0309751
:101F500051F00280F381E02D309729F06091BE02AC
:101F60008091BD02099583E0B6C02093BB02A09189
:101F7000BB0281E08A0F8093BB02B0E0A454BD4F46
:101F80008FEF8C93A091BB0281E08A0F8093BB02FC
:101F9000B0E0A454BD4F8EEF8C93A091BB0281E0C2
:101FA0008A0F8093BB02B0E0A454BD4F82E08C93B3
:101FB000A091BB0281E08A0F8093BB02B0E0A454E1
:101FC000BD4F2C93A091BB0281E08A0F8093BB028E
:101FD000B0E0A454BD4F83E08C93A091BB0281E09C
:101FE0008A0F8093BB02B0E0A454BD4F84E08C9371
:101FF000A091BB0281E08A0F8093BB02B0E0A454A1
:10200000BD4F85E08C93A091BB0281E08A0F809345
:10201000BB02B0E0A454BD4F86E08C93A091BB02FC
:1020200081E08A0F8093BB02B0E0A454BD4F87E0EB
:102030008C93A091BB0281E08A0F8093BB02B0E039
:10204000A454BD4F9C93A091BB0281E08A0F809362
:10205000BB02B0E0A454BD4F81EF8C93A091BB02B2
:1020600081E08A0F8093BB02B0E0A454BD4F82EFA1
:102070008C930284F385E02D309779F18091BB0237
:1020800090E084549D4F13C02093BB02309729F1F8
:102090000680F781E02D07C02093BB023097E9F05E
:1020A0000480F581E02D3097C1F08DEB92E0099529
:1020B0009091BB02890F0FC0309779F00084F185B1
:1020C000E02D309751F06091BB0270E040E450E0A9
:1020D0008CEB92E009958093BB0282E08093FC0236
:1020E000DF91CF910895282F30E0C9016BE070E0B7
:1020F0000E948B12FC01E350FD4FC9016BE070E0C0
:102100000E948B124BE050E0BF01805D9C4F0E940B
:1021100006130895DB01282F30E0109769F0C901FC
:102120006BE070E00E948B12FC01E05DFC4F9BE0D5
:1021300001900D929A95E1F7C9016BE070E00E9461
:102140008B12DC01A350BD4FFC01E05DFC4F8BE026
:1021500001900D928A95E1F7089590E06BE070E0B0
:102160000E948B12805D9C4FFC011082089590E0CC
:102170006BE070E00E948B12805D9C4FFC018081BF
:102180000895CF93DF93CDB7DEB761970FB6F8947C
:10219000DEBF0FBECDBF5E014CE0A40EB11C86E0D9
:1021A000D5011D928A95E9F70E943C020E943E09E2
:1021B0000E94F6080E947C080E946A08809126030B
:1021C0008031B9F0803209F473C08330E9F18AECD0
:1021D00090E00E94AF0884E490E090935E018093C9
:1021E0005D01612C712C77E2872E78E0972E0FE04D
:1021F0008AC08AEA90E00E94AF0885E490E090935C
:102200005E0180935D0182E891E0909310018093DC
:102210000F0184E590E0909312018093110183E017
:10222000809316018CE0E7E1F1E0A3E2B1E00190D8
:102230000D928A95E1F7612C712C67E2862E68E099
:10224000962E0FE012E060C08AE890E00E94AF088E
:1022500086E490E090935E0180935D0185E191E0DA
:102260009093100180930F018DE690E090931201FE
:102270008093110184E0809316018CE0E7E1F1E0A6
:10228000A3E2B1E001900D928A95E1F78CE0E7E1DD
:10229000F1E0AFE2B1E001900D928A95E1F7612C97
:1022A000712C57E2852E58E0952E0FE013E02CC0DC
:1022B00084E790E00E94AF0883EA90E090935E018B
:1022C00080935D018AED90E09093100180930F015F
:1022D0008BE390E0909312018093110186E292E0EB
:1022E00090931A018093190184E490E0909318016F
:1022F000809317013AE0632E772473944AE5842E85
:1023000048E0942E05E011E025EEC22E21E0D22E09
:1023100090E080E0E92EF82E21E0A401602FC601B4
:102320000E94470997012F5F3F4FE1107901C701D4
:102330006CE070E00E948B12845F9E4FFC01D28A99
:10234000C18A922F832FF3E1CF0ED11C211710F3F6
:1023500078948CE091E00E94C10E00E0462C512C54
:102360000E94710881110E9426090E94B00E80E02F
:1023700091E00E941D0F0130D9F038F0023009F4CD
:102380007BC0033009F48DC0EBCF8091E401811153
:10239000BCC0662011F0C20103C08091270390E009
:1023A0000E9482080E94A70801E08111D9CFADC028
:1023B00075018EE1C82E82E0D82E95EE892E91E02F
:1023C000992E312CD7018D919C91892B09F09FC0BA
:1023D000832D0E947F02F701918380830097B9F1DA
:1023E000DC011496ED91FC911597309709F48FC09C
:1023F000832D0995D701ED91FC91309741F1028031
:10240000F381E02D832D0995F601882351F0808119
:102410008F5F80838F3130F0D7011D921C92108224
:102420001BC01082832D0E947310811102C077207F
:1024300099F0BE016F5F7F4F832D0E948A10BE010D
:102440006F5F7F4FC4010E94650902E005C060E034
:1024500070E0C4010E9465093394F2E0EF0EF11CB4
:102460004FEFC41AD40A83E1880E911C1311AACF2E
:10247000013009F075CF49C00E947A0E81110FC05A
:10248000113009F46DCF0E94540E811108C0133031
:1024900009F066CF0E942E0E882309F461CF03E075
:1024A0005FCF0E947A0E882361F085EE91E00E9452
:1024B00061097C0185EE91E00E947009B7010E94DC
:1024C000840E113011F10E94540E882361F088EFC0
:1024D00091E00E9461097C0188EF91E00E947009FF
:1024E000B7010E945E0E133081F40E942E0E8823E5
:1024F00061F08BE092E00E9461097C018BE092E048
:102500000E947009B7010E94380E00E029CFD70160
:10251000ED91FC9174CF0024552704C0080E591F7B
:10252000880F991F009729F076956795B8F3710584
:10253000B9F7802D952F0895EE27FF27AA27BB27EF
:1025400008C0A20FB31FE41FF51F220F331F441F43
:10255000551F969587957795679598F37040A9F7DD
:10256000009799F7BD01CF010895052E97FB1EF442
:1025700000940E94CC1257FD07D00E94D41207FC91
:1025800003D04EF40C94CC12509540953095219583
:102590003F4F4F4F5F4F089590958095709561958F
:1025A0007F4F8F4F9F4F0895A1E21A2EAA1BBB1B8E
:1025B000FD010DC0AA1FBB1FEE1FFF1FA217B3070F
:1025C000E407F50720F0A21BB30BE40BF50B661F25
:1025D000771F881F991F1A9469F7609570958095E9
:1025E00090959B01AC01BD01CF010895FB01DC0179
:1025F00005900D920020E1F70895FC010590002060
:10260000E9F7809590958E0F9F1F0895FB01DC01DF
:1026100004C08D910190801921F441505040C8F7B9
:10262000881B990B0895FB01DC0102C001900D92FB
:1026300041505040D8F70895DC0101C06D934150DE
:102640005040E0F70895FB01DC0101900D9200205D
:10265000E1F70895A0E0B0E0E0E3F3E10C942F1679
:10266000AE01495F5F4FDA016D917D91AD0101E5EA
:1026700013E0F80182819381DC0113962C9113976A
:10268000286013962C930E945013D8011296ED9156
:10269000FC9113972381277F2383E4E00C944B164E
:1026A000ABE0B0E0E6E5F3E10C9421166C017B01B0
:1026B0008A01FC0117821682838181FFCFC1CE017E
:1026C00001963C01F6019381F70193FD859193FFFB
:1026D00081917F01882309F4BDC1853239F493FDCE
:1026E000859193FF81917F01853229F4B60190E0B5
:1026F0000E944A15E7CF912C212C312CFFE1F315D4
:10270000E0F08B3279F038F4803279F08332A9F43A
:10271000232D206110C08D3259F0803371F4232DA8
:10272000216009C0832D8260382EE32DE46024C02F
:10273000F32DF86027C0322E29C037FC2FC020EDC2
:10274000280F2A3098F436FE07C0892D6AE00E94CF
:102750001816922E980E1AC0822D6AE00E94181642
:10276000222E280E832D8062382E10C08E3231F436
:1027700036FC70C1E32DE0643E2E08C08C3621F497
:10278000F32DF0683F2E02C0883641F4F70193FD27
:10279000859193FF81917F018111B0CF982F9F7D0B
:1027A0009554933028F40C5F1F4F2FE329830DC0FD
:1027B000833631F0833771F0833509F059C021C079
:1027C000F801808189830E5F1F4F88248394912CA8
:1027D000530113C02801F2E04F0E511CF801A080F4
:1027E000B18036FE03C0692D70E002C06FEF7FEF4D
:1027F000C5010E943F154C018201F32DFF773F2E4A
:1028000016C0280122E0420E511CF801A080B180C0
:1028100036FE03C0692D70E002C06FEF7FEFC50187
:102820000E9434154C01F32DF0683F2E820133FCD9
:102830001BC0822D90E088169906B0F4B60180E2A4
:1028400090E00E944A152A94F4CFF50137FC859157
:1028500037FE81915F01B60190E00E944A15211078
:102860002A9421E0821A91088114910471F7E8C03A
:10287000843611F0893641F5F80137FE07C06081D2
:102880007181828193810C5F1F4F08C060817181CB
:10289000072E000C880B990B0E5F1F4FF32DFF7650
:1028A0003F2E97FF09C090958095709561957F4F59
:1028B0008F4F9F4FF0683F2E2AE030E0A3010E9427
:1028C0008615882E861845C0853731F4232D2F7E36
:1028D000B22E2AE030E025C0932D997FB92E8F3695
:1028E000C1F018F4883579F0B5C0803719F0883711
:1028F00021F0B0C0E92FE061BE2EB4FE0DC0FB2D6B
:10290000F460BF2E09C034FE0AC0292F2660B22E03
:1029100006C028E030E005C020E130E002C020E140
:1029200032E0F801B7FE07C0608171818281938136
:102930000C5F1F4F06C06081718180E090E00E5FE8
:102940001F4FA3010E948615882E8618FB2DFF7746
:102950003F2E36FE0DC0232D2E7FA22E891458F453
:1029600034FE0BC032FC09C0832D8E7EA82E05C01C
:10297000B82CA32C03C0B82C01C0B92CA4FE0FC0E6
:10298000FE01E80DF11D8081803321F49A2D997E9E
:10299000A92E09C0A2FE06C0B394B39404C08A2D28
:1029A000867809F0B394A3FC11C0A0FE06C0B2144F
:1029B00088F4280C922C9B180EC0B21460F4B60157
:1029C00080E290E00E944A15B394F7CFB21418F455
:1029D0002B1802C0982C212CA4FE10C0B60180E355
:1029E00090E00E944A15A2FE17C0A1FC03C088E730
:1029F00090E002C088E590E0B6010CC08A2D867890
:102A000059F0A1FE02C08BE201C080E2A7FC8DE27A
:102A1000B60190E00E944A15891438F4B60180E3AB
:102A200090E00E944A159A94F7CF8A94F301E80D3A
:102A3000F11D8081B60190E00E944A158110F5CF0A
:102A4000222009F43FCEB60180E290E00E944A15B0
:102A50002A94F6CFF6018681978102C08FEF9FEF0F
:102A60002B96E2E10C943D16FC01059061507040FC
:102A70000110D8F7809590958E0F9F1F0895FC0147
:102A80006150704001900110D8F7809590958E0F9D
:102A90009F1F08950F931F93CF93DF93FB01238113
:102AA00021FD03C08FEF9FEF2CC022FF16C046818F
:102AB0005781248135814217530744F4A081B181A5
:102AC0009D012F5F3F4F318320838C932681378177
:102AD0002F5F3F4F3783268314C08B01EC01FB012E
:102AE0000084F185E02D0995892BE1F6D801169631
:102AF0008D919C911797019617969C938E9316979C
:102B0000CE01DF91CF911F910F910895FA01AA276D
:102B1000283061F1203191F1E8946F936E7F6E5F00
:102B20007F4F8F4F9F4FAF4FB1E040D0B4E03ED0CA
:102B3000670F781F891F9A1FA11D680F791F8A1FB1
:102B4000911DA11D6A0F711D811D911DA11D22D016
:102B500009F468943F91062E000C3019000C000C0B
:102B60003019305D3193CEF6CF010895462F47706E
:102B7000405D4193B3E00FD0C9F7F6CF462F4F70B9
:102B8000405D4A3318F0495D31FD4052419302D017
:102B9000A9F7EACFB4E0A6959795879577956795BD
:102BA000BA95C9F700976105710508959B01AC01BD
:102BB0000A2E06945795479537952795BA95C9F7E4
:102BC000620F731F841F951FA01D0895DC01CB01A8
:102BD000FC01F999FECF06C0F2BDE1BDF89A31962D
:102BE00000B40D9241505040B8F70895DC01A40F95
:102BF000B51F4150504048F0CB01840F951F2E91D6
:102C00000E94071641505040D0F70895262FF99999
:102C1000FECF92BD81BDF89A019700B4021639F03B
:102C20001FBA20BD0FB6F894FA9AF99A0FBE08950C
:102C3000002480FD060E660F11F08695D1F7802DD9
:102C400008952F923F924F925F926F927F928F9250
:102C50009F92AF92BF92CF92DF92EF92FF920F932B
:102C60001F93CF93DF93CDB7DEB7CA1BDB0B0FB635
:102C7000F894DEBF0FBECDBF09942A8839884888F2
:102C80005F846E847D848C849B84AA84B984C88488
:102C9000DF80EE80FD800C811B81AA81B981CE0F7F
:102CA000D11D0FB6F894DEBF0FBECDBFED01089564
:042CB000F894FFCFC6
:102CB4005A02000071025D0256060000065301D656
:102CC400013B00037101023E006A02100000007D16
:102CD400027B021500110240000000FA0E0C0F15D1
:102CE40000110240000000FA0E0C0F150011024002
:102CF400000000FA0E0C0F000000000000000000AD
:102D040000000012011001000000409B2844000252
:102D1400010102030198013404D60400000000EF0D
:102D2400059E012302C80100000002000000003BD0
:102D34000900000000FFFFFFFFFFFFFFFF0130302D
:102D44003030303104030910312E302E320072003D
:102D54006100700068006E0065007400200074005B
:102D64006500630068006E006F006C006F00670010
:102D74006900650073000000310032003300340044
:062D8400350036000000DE
:00000001FF
