:020000040000FA
:200000000C9467010C9453050C9484010C9484010C9484010C9484010C9484010C94840102
:200020000C9484010C9484010C9484010C9484010C9484010C9484010C9484010C94840198
:200040000C94C3090C9484010C9484010C9484010C9484010C9484010C9484010C94840131
:200060000C9484010C94840100000101020203030404050506060707080809090A0A0B0BB2
:200080000C0C0D0D0E0E0F0F10141114121413141414151416141714181419141A141B1402
:2000A0001C141D141E14FFFF34316439333861382D366638612D313165352D613435652D95
:2000C00030303162666361336335393300000000010102030304050506070708090A0A0B70
:2000E0000C0D0D0E0F1011121213141516171818191A1B1C1D1E1F202121222324252627DE
:2001000028292A2B2C2D2E2F303132333435363738393A3B3C3D3E3F4041424345464748EB
:20012000494A4B4C4D4E4F5051535455565758595A5B5D5E5F6061626364666768696A6B84
:200140006C6E6F7071727375767778797A7C7D7E7F80818384858687898A8B8C8D8F9091CC
:200160009294959697989A9B9C9D9FA0A1A2A4A5A6A7A9AAABACAEAFB0B1B3B4B5B6B8B9CE
:20018000BABBBDBEBFC1C2C3C4C6C7C8CACBCCCDCFD0D1D3D4D5D7D8D9DADCDDDEE0E1E29B
:2001A000E4E5E6E8E9EAECEDEEF0F1F2F4F5F6F8F9FAFCFDFEFFFFFFFFFFFFFFFFFFFFFF85
:2001C000FFFFFFFFFFFFFFFFFFFFFFFFFF00858F0A9B1E1491B3363CB928ADA722E3666C7F
:2001E000E978FDF77250D5DF5ACB4E44C143C6CC49D85D57D2F0757FFA6BEEE461A0252FD0
:20020000AA3BBEB43113969C19880D07828603098C1D98921735B0BA3FAE2B21A465E0EAB3
:200220006FFE7B71F4D65359DC4DC8C247C5404ACF5EDBD15476F3F97CED6862E726A3A98B
:200240002CBD3832B795101A9F0E8B8104890C068312979D183ABFB530A1242EAB6AEFE5E2
:2002600060F1747EFBD95C56D342C7CD48CA4F45C051D4DE5B79FCF673E2676DE829ACA651
:2002800023B2373DB89A1F159001848E0B0F8A800594111B9EBC3933B627A2A82DEC696331
:2002A000E677F2F87D5FDAD055C4414BCE4CC9C346D75258DDFF7A70F564E1EB6EAF2A200D
:2002C000A534B1BB3E1C9993168702088D0011241FBECFEFD4E0DEBFCDBF11E0A0E0B1E070
:2002E000EEE6F4E202C005900D92A43FB107D9F723E0A4EFB1E001C01D92AC3EB207E1F7E1
:200300000E9450100C9435120C9400008091A802811103C00E94B60E01C080E0909100019B
:20032000992371F095E090933A0210923B0291E0811101C090E090933C0210920001089518
:200340009091F401911104C0882339F093E003C0811103C092E090933C028093F40108954A
:2003600001978430910588F426E0880F991F2A95E1F7DC01A455BD4F80E4ECE5F2E00190B9
:200380000D928A95E1F70C94F6090895CF93DF93EC0140E450E068E670E08CE592E00E9453
:2003A000E011FE013197E430F10588F486E0EE0FFF1F8A95E1F7E455FD4F80818F3F51F0F2
:2003C00080E4ACE5B2E001900D928A95E1F780E090E002C08FEF9FEFDF91CF910895FC0167
:2003E00085858823A1F00E94EC098823A1F08091F5019091F60101969093F6018093F5010B
:2004000006974CF00E94130D81E090E008951092F6011092F50180E090E008959B01285F12
:200420003F4F90E8492F4823FB014193BF019695E217F307B9F708951F93CF93DF9320E052
:2004400030E0EB01C20FD31F241735078CF4DC011896FC0190E080E811911111982B8695E4
:20046000AE17BF07C9F798832F5F3F4FCD01E9CFDF91CF911F910895EF92FF921F93CF9331
:20048000DF93CDB7DEB7A0970FB6F894DEBF0FBECDBFFC017B0181E021819381291301C0C6
:2004A00080E0898381E025819781291301C080E08A8381E021859385291301C080E08B83BD
:2004C00081E025859785291301C080E08C8381E021A593A5291301C080E08D8381E025A592
:2004E00097A5291301C080E08E8381E021A993A9291301C080E08F8381E025A997A92913D1
:2005000001C080E0888719861A8681E021899389291301C080E08B8781E02589978929136B
:2005200001C080E08C8781E0218D938D291301C080E08D8781E0258D978D291301C080E053
:200540008E8781E021A193A1291301C080E08F8781E025A197A1291301C080E0888B81ADBF
:2005600015ADDF01A05CBF4F11969C91119713962C919213192FDF01AC5BBF4F11969C9137
:20058000119713962C919213192FDF01A85BBF4F11969C91119713962C919213892FE45BF1
:2005A000FF4F918123819213892FBE016F5E7F4F0E940E02BE01675E7F4F812F80950E9415
:2005C0000E0244E050E0B701CE0101960E941C02A0960FB6F894DEBF0FBECDBFDF91CF918C
:2005E0001F91FF90EF900895F8940E94D709E0E0FCE1099408951F93CF93DF931F92CDB700
:20060000DEB7823008F4C1C0182F80910A02823509F0A7C080910B02833009F46AC028F487
:20062000813069F008F4AFC035C0893F09F48BC08F3F09F493C0843009F0A7C078C098E25C
:20064000EAE0F2E0DF011D929A95E9F710920A029091A40290930B029091A50290930C02C2
:200660009091A60290930D029091A70290930E029091A80290930F029091F9019093120231
:20068000809313026FEE71E084E192E00E9406128EE07CC0143008F478C090910C02809191
:2006A0000D02953008F071C0E92FF0E0992341F096E0EE0FFF1F9A95E1F7E459FD4F02C085
:2006C000ECE5F2E090E0009721F480E480930A022CC08130910521F0029709F056C0B096A6
:2006E00080E2AAE0B2E001900D928A95E1F780E24DC0143008F449C080910C02813059F084
:2007000040E450E06FEF70E08CE592E00E94FF118CE592E002C08CE792E0412F50E0445084
:2007200051096DE072E00E94F61181E02FC0123061F120910C02822F90E00197049738F4F4
:200740002093F80108C08091F801882321F081E080930A021BC010920A02E7CF0E94F40208
:2007600014C08091A802811110C01982BE016F5F7F4F812F0E94240E9981992339F093E09C
:200780009093F70103C0812F01C080E00F90DF91CF911F910895DC01892B39F098E0E2E0FA
:2007A000F2E001900D929A95E1F788E0E2E0F2E0AAEFB1E001900D928A95E1F70895809135
:2007C000010190910201892B31F0109202011092010181E0089548E050E06AEF71E082E073
:2007E00092E00E94E9110895CF93DF93CDB7DEB728970FB6F894DEBF0FBECDBFFE01319695
:2008000088E0DF011D928A95E9F7298180E090E060E870E0DC01A454BC4F3C91332341F09C
:20082000AB01082E02C0559547950A94E2F702C040E050E0242B01968830910559F7298395
:200840008A8120E030E060E870E0D901AC53BC4F9C91992341F0AB01022E02C05595479583
:200860000A94E2F702C040E050E0842B2F5F3F4F2830310551F780958A832B8180E090E0B0
:2008800060E870E0DC01A453BC4F3C91332341F0AB01082E02C0559547950A94E2F702C0EA
:2008A00040E050E0242B01968830910559F72B832C8180E090E060E870E0DC01AC52BC4FBB
:2008C0003C91311108C0AB01082E02C0559547950A94E2F702C040E050E0242B01968830B0
:2008E000910559F72C838D8120E030E060E870E0D901A452BC4F9C91992341F0AB01022EDC
:2009000002C0559547950A94E2F702C040E050E0842B2F5F3F4F2830310551F780958D8300
:200920008E8120E030E060E870E0D901AC51BC4F9C91992341F0AB01022E02C055954795A0
:200940000A94E2F702C040E050E0842B2F5F3F4F2830310551F780958E834F8120E030E067
:2009600061E070E0D901A155BC4F8C91882339F0CB01022E01C0880F0A94EAF702C080E025
:2009800090E0842B2F5F3F4F482F2530310551F79091B503911190E2892B9091B6039111B5
:2009A00090E4892B9091B703911190E8892B8F83988520E030E061E070E0D901A854BC4FB5
:2009C0004C91442339F0AB01022E01C0440F0A94EAF702C040E050E0942B2F5F3F4F2430FA
:2009E000310559F79887A2E0B2E09E01295F3F4F41914D932E173F07D9F78093080290933C
:200A0000090228960FB6F894DEBF0FBECDBFDF91CF910895CF93DF93CDB7DEB729970FB6E7
:200A2000F894DEBF0FBECDBF198661E070E0CE0109960E94D00A8831B9F487EC90E0019739
:200A4000F1F700C0000080E4898383E08A831B8263E070E0CE0101960E94D00A803421F433
:200A60000E94F40380E001C081E029960FB6F894DEBF0FBECDBFDF91CF91089581E00E94E5
:200A80000A0591E0811190E0892F08958FB7F894219A29983B9843988FBF81E00C940A0525
:200AA00083E091E008951F921FB64F930F931F93EF93FF937F93AF93BF93AAE0B2E000270C
:200AC000EEEFF5E049B14470440F440F440F440F440F042B49B14470E9F31AE01A9521F0A4
:200AE00049B14470D9F701C0099416E01A95F1F749B14470440F440F440F440F042B49B16A
:200B00004470E9F31AE01A9521F049B14470D9F701C0099416E01A95F1F749B14470440F21
:200B2000440F440F042B49B14470E9F31AE01A9521F049B14470D9F701C0099416E01A951B
:200B4000F1F749B14470440F440F042B49B14470E9F31AE01A9521F049B14470D9F701C0A7
:200B6000099416E01A95F1F749B14470440F042B49B14470E9F31AE01A9521F049B1447029
:200B8000D9F701C0099416E01A95F1F749B14470042B49B14470E9F31AE01A9521F049B17F
:200BA0004470D9F701C0099416E01A95F1F749B144704695042B49B14470E9F31AE01A95DB
:200BC00021F049B14470D9F701C0099416E01A95F1F749B1447046954695042B49B144705A
:200BE000E9F30D931AE01A9521F049B14470D9F701C0099415E01A95F1F761CF0AE0A01B82
:200C000091F1A13011F10F921F922F933F934F935F936F937F938F939F93AF93BF93FF9337
:200C20008A2F1124EBEFF2E00995082FFF91BF91AF919F918F917F916F915F914F913F9125
:200C40002F911F900F901FD00EC0AAE0B2E00C91013011F433D007C0003019F00F3F09F090
:200C600002C01FD000C041E0EDE3F2E04083E09ABF91AF917F91FF91EF911F910F914F9123
:200C80001FBE1F901895EAE0F2E0702F24D00895782FEAE0F2E00F931F931DD01F910F917B
:200CA0000895EAE3F2E073E016D070913C0270FF0C945D067D7F70933C020895EEE3F2E091
:200CC0007081772319F4E2E3F2E002C0E6E3F2E074E001D008953F937723D9F1772359F1AC
:200CE0007A95019110E8302F312381F40000529A4FE04A95F1F700005298169579F3000050
:200D000000000000000000000000EDCF529A44E04A95F1F70000000052984AE04A95F1F765
:200D2000000000001695D1F2000000000000000000000000D8CF000000000000000000009E
:200D4000000000000000529A44E04A95F1F7000052983F9108958823F1F1882371F18A95AC
:200D600020914E0020934E0050E8322F352381F40000529A4FE04A95F1F700005298569556
:200D800061F3000000000000000000000000EDCF529A44E04A95F1F70000000052984AE058
:200DA0004A95F1F7000000005695B9F2000000000000000000000000D8CF0000000000002F
:200DC00000000000000000000000529A44E04A95F1F7000052980895FC0120812F3F59F060
:200DE000022E000C330B2617370719F4FC01418308950296F1CF0895FC012081223011F4A9
:200E00008181089580E00895FC018081833031F0843079F0813091F48181089592812181BD
:200E200081E097FF03C0921754F408C029173CF405C081E02181928192170CF480E008954E
:200E4000CF92DF92EF92FF920F931F93CF93DF938C017B016A01FA018081882309F183816D
:200E600081833496F9CFF8019181E601F4E09F02C00DD11D112498819230B9F0933001F14C
:200E8000913061F4970144E08402200D311D1124C9010E9404079981892B89830E5F1F4F1E
:200EA000F80180818F3FF9F618C0F70194E08902E00DF11D11248081823081F78181EDCF93
:200EC000F70124E08202E00DF11D1124CF010E940407882319F38A81E0CFDF91CF911F91F4
:200EE0000F91FF90EF90DF90CF900895FC0180818058809342028181805880934102828179
:200F00008058809340028381805880933F020895982F7091A702713029F428EA31E640E05F
:200F200050E004C020E935E640E050E08091A502882341F08CE0713039F428E431E740E037
:200F400050E006C080E004C020E335E740E050E0A0E8A60F0A2E000CBB0BA91BB10997FDAF
:200F6000B3958823E1F01A161B065CF4082E000C990BA817B907B4F0A81BB90B733019F1CF
:200F800015C0109779F0082E000C990BEE27FF27E81BF90BEA17FB072CF0A80FB91F7330F3
:200FA00029F40DC0A0E0B0E07330A9F00E94AB1120E03DE740E050E00E947611D901A2384C
:200FC0008FEFB80734F0A038B1052CF0AFE7B0E002C0A1E8BFEFCD0108952F923F924F9209
:200FE0005F926F927F928F929F92AF92BF92CF92DF92EF92FF920F931F93CF93DF93CDB77A
:20100000DEB727970FB6F894DEBF0FBECDBF982F6D835A8349833C832B83802F2091A70260
:20102000233081F4692F0E9488078F836D818E2D0E9488072F81E981FA812083EB81FC8112
:20104000808380C0213049F4812C42E0942EA12CB12C5FE7C52ED12C07C0812C912C5401C8
:20106000939430E5C32ED12C692F0E9488078C016D818E2D0E9488079E838D839C0197FFB2
:2010800003C0319521953109180117FF04C022243324201A310A30E0D8010E94A411A501EC
:2010A00094010E94761129013A017801110F000B110B222D30E0AD81BE810E94A411A50184
:2010C00094010E9476116D817E81CB01770FAA0BBB0B49015A01880E991EAA1EBB1E882756
:2010E00099278C199D09092E000CAA0BBB0B4E0C5F1C601E711E481659066A067B0614F48F
:201100002C013D010D2C000CEE08FF086C2D4C145D046E047F040CF4642D88159905AA0558
:20112000BB0534F4C814D904EA04FB042CF002C04C015D0175016401E981FA816083EB8189
:20114000FC81C08227960FB6F894DEBF0FBECDBFDF91CF911F910F91FF90EF90DF90CF90D0
:20116000BF90AF909F908F907F906F905F904F903F902F9008958F929F92AF92BF92CF9247
:20118000DF92EF920F93CF93DF936C01EB01DC0116968C9116978071898316968C911697C8
:2011A00088708D8316968C9116978078898716968C91169781708D8716968C9116978072C6
:2011C000898B16968C91169780748D8B13968C9113978058898F13968C91139780588D8FB5
:2011E00012968C911297805889A312968C91129780588DA317968C911797817089A71796C1
:201200008C91179782708DA717968C911797887089AB17968C91179784708DAB9B01235C7A
:201220003F4FAB01475C5F4FE09041020091420211966C9111978C910E94ED07FE01E05C61
:20124000FF4FD60116968C91169784708183349616968C911697827081838DAD34968183BD
:201260003496818389AD3496818334968183349614968C91149780588183349615968C9124
:20128000805881835E01B4E6AB0EB11C95012F5F3F4F4E01E0E68E0E911CA4014F5F5F4FE2
:2012A000E0903F0200914002D60113966C91139712968C910E94ED07FE01E459FF4F89AD68
:2012C0008195818334968DAD819581833496D40111968C9181958183C858DF4FF501818113
:2012E00081958983DF91CF910F91EF90DF90CF90BF90AF909F908F900895299A0895299875
:2013000008958093430208952998219A089520914302222331F021E0892B09F020E0822F67
:2013200090E0892B11F00C947D090C947F09CF93DF93EC0181E090E00E9487092FEF87EEE3
:2013400093E0215080409040E1F700C0000080E090E00E9487092FEF87EE93E02150804048
:201360009040E1F700C00000219721F7DF91CF9108958AE090E00E9497091092430280E065
:2013800090E00C94870978941F920F920FB60F9211248F93809144028C3318F48F5F80936F
:2013A00044028F910F900FBE0F901F901895EEE6F0E080818E7F80830895EEE6F0E0808169
:2013C00081608083089514BC85E085BD81E080936E00109244020895809144028C3320F088
:2013E0001092440281E0089580E0089540E151E060E070E08CE992E00C941D1288E0E7EE35
:20140000F1E0ACE9B2E001900D928A95E1F7ECE9F2E010861186128682E08387148640E01B
:2014200051E06FEF70E08CEA92E00E94FF110C94F60940E151E060E070E08CE992E00E9429
:201440000D1248E050E067EE71E08CE992E00E94E911009721F00E94FE0981E090E008952D
:201460008091A7028F5F843008F081E08093A7028091A702813019F48093A6020895109289
:20148000A602089581E09091A802911180E08093A8020C94F60981E09091A502911180E052
:2014A0008093A5020C94F6098093A4020C94F6091092800083E08093810010928500109299
:2014C00084001092460286ED96E090934802809347020895A89B08C0A89A86ED96E09093F6
:2014E00048028093470229C02091840030918500293E83E0380780F1273C87E0380728F146
:20150000A5E0B0E00E94951127E030E040E050E00E9476113093480220934702809147027B
:2015200090914802883E934030F486ED96E09093480280934702109245021092850010921F
:201540008400A89A10924602089586ED96E09093480280934702E2CF809145028F5F809382
:201560004502893050F381E090E0E1CF8091460281110FC020918400309185008091470218
:20158000909148022817390720F081E080934602089580E008953B984398249A2C9808952E
:2015A0000F931F93662309F450C0FC01860F911DBC0180E090E09C01E617F70781F00896CD
:2015C00040E850815423D901A455BC4F5C932F5F3F4F469582179307A1F73196ECCFECEAB4
:2015E000F3E0CF93DF93EF93FF930191002311F069F41BC000003B9A1DE014D03B980000B9
:20160000000000000000019781F70FC03B9A12E0000008D03B9819E005D000000000019713
:2016200021F703C01A95F1F7089500000000FF91EF91DF91CF913B9A12E00000F3DF3B984F
:201640000FEF0A9511F0339BFCCFECEAF3E0EF93FF93332700270395A1F03399FCCF08C08D
:201660000BE4039572F03399FCCF339551F001930BE4039532F0339BFCCF339511F00193AE
:20168000EFCFFF91EF91832F90E00097B9F030FF15C020E0DF016081518141E0651708F0EE
:2016A00040E04D9332962F5F3213F5CF2AE12A95F1F700C001979595879502C080E090E0E9
:2016C0001F910F910895CF93DF931F92CDB7DEB7198261E070E0CE0101960E94D00A0097DA
:2016E00009F1489711F58091B003882311F088E001C080E09091B103911184609091B203E1
:20170000911182609091B303911181608A3028F4883028F4853061F008C08B3031F482E031
:2017200090E008C080E090E005C083E090E002C081E090E00F90DF91CF9108958FEF99EF64
:201740000197F1F700C00000E0915202F09153020484F585E02D80E00995E0915202F0915B
:2017600053020684F785E02D0995882339F3E0915202F09153020088F189E02D84E592E007
:20178000099567E171E084E592E00E94BB0891E080E020911801211101C090E0292F382F15
:2017A00080911C0181112260809158018111246080915C018111286080912001811120619A
:2017C000809128018111206280912C01811120648091400181112068809144018111316082
:2017E000809148018111326080914C018111346080912401811138606091490270914A02FE
:20180000622773274CE050E081E090E0FB01E823F923EF2B51F0F901E823F923EF2B29F0A6
:2018200030934A02209349020895880F991F4150510961F730934A02209349027FCFDF92A0
:20184000EF92FF920F931F93CF93DF937B01D42FD52E8032910519F08B01C0E818C0FB0173
:20186000808191818F3FFFEF9F0709F454C00196FB014EC08930910574F48230910581F1D0
:201880008430910591F1019741F10E949E0B8830910581F72FC08032910591F18115F8E07A
:2018A0009F07C9F1409789F7C03849F08C2F90E0F801918380830D2F1D2DC0E8E6CFF7012A
:2018C000808191818F3FFFEF9F0729F10196F701918380830D2F1D2DD8CFCC0FCC0FD5CF4C
:2018E0008C2F880F880FC1E009C08C2F880F880FC2E004C08C2F880F880FC3E0C80FC5CF4F
:201900000E151F0541F0C03849F08C2F90E0F8019183808303C08FEF9FEF02C080E090E082
:20192000DF91CF911F910F91FF90EF90DF90089581E090E00E9497090E949E0B811522E077
:201940009207B9F04CF48038910581F081159140D1F482E090E012C0811524E0920761F0F2
:201960008115984081F480E090E008C081E090E005C083E090E002C084E090E00E94540AED
:2019800080E090E008958FEF9FEF089581E090E00E9497090E949E0B8032910599F18CF481
:2019A0008430910589F12CF40297D1F50E94300A31C08830910589F1409791F50E944B0AFB
:2019C00029C0811522E09207A9F04CF48038910571F08115914021F582E090E010C08115B0
:2019E00024E0920751F08115984081F019C081E090E005C083E090E002C084E090E00E94B0
:201A0000B00108C00C94980C0E94FE0980E090E00E94C60180E090E008950E94420AFACF03
:201A20008FEF9FEF0895EF92FF921F93CF93DF9300D000D0CDB7DEB78FEF9FEF9C838B8373
:201A40009A8389831FB7F8940E94840981E00E94810980E090E00E948709E0915202F091F7
:201A600053020484F585E02D80E00995E0915202F09153020088F189E02D84E592E00995E1
:201A800067E171E084E592E00E94BB0880912401811104C0EE24E394F12C14C08FEF99EF61
:201AA0000197F1F700C00000D8CF81329105BCF484309105E9F164F49C0121503109223030
:201AC0003105B0F10E949E0B8032910571F730C08830910569F180319105A1F729C081153E
:201AE00021E09207C1F04CF480349105E1F08038910541F781E090E013C0811524E09207E3
:201B000069F0811528E09207E9F181159240D1F683E090E005C082E090E002C084E090E02C
:201B20000E94C60102C00E94C60C019659F527C0AE014F5F5F4FBE016D5F7F4F0E941F0C09
:201B40000196E9F08B819C810196C9F089819A810196A9F0EF2821F080E090E00E94C601E6
:201B600049815A816B817C818CE592E00E94EC0681E090E00E949709E12CF12CA3CF0E940F
:201B8000B90907C080E00E94810983E090E00E9497090E94580A1FBF0F900F900F900F90BD
:201BA000DF91CF911F91FF90EF900895DB01880F991F419A25E02A95F1F70000419822E06D
:201BC0002EBD26E02A95F1F79EBD26E02A95F1F78EBD86E08A95F1F7109251029B01205E9E
:201BE0003F4F8C918EBDED9180915102E827F0E0E353FE4FE491E093510282E08A95F1F707
:201C000000C0A217B30769F7809151028EBD26E02A95F1F7419A85E08A95F1F700000895F1
:201C200080E58CBD81E08DBD41988EBD86E08A95F1F780E48EBD86E08A95F1F7419A85E05E
:201C40008A95F1F7000008950F931F93CF93DF93833008F45BC090915002992309F456C0AC
:201C60008B0190910B02C0910C02D0E0D92BC07E90910A02923009F04BC0833009F048C0B2
:201C8000D7FF18C080E2EAE0F2E0DF011D928A95E9F7E0E0AAE0B2E08D91E827F0E0E353FB
:201CA000FE4FE491F2E0AA32BF07B1F7E0932A0281E251C0CC0FDD1F96E09A95F1F7419AF4
:201CC000A5E0AA95F1F7000041988EBDB6E0BA95F1F7DEBDF6E0FA95F1F7CEBD96E09A954F
:201CE000F1F71EBCA6E0AA95F1F781E20E94AB06B6E0BA95F1F7419AE5E0EA95F1F70000EB
:201D00000115110519F081E0D8018C9380E023C090910A029330D1F78332C1F7E0E0ADE080
:201D2000B2E08D91E827F0E0E353FE4FE491F2E0AD32BF07B1F7E0930A0281E0D7FD0BC07E
:201D40000E9448066DE072E0CE010E94D60D81E080934F02D5CFDF91CF911F910F9108957A
:201D600061E081E00E94B10F0C94100E809150020895DF92EF92FF920F931F93CF93DF93F6
:201D8000CDB7DEB7C254D1090FB6F894DEBF0FBECDBF80914E02813009F441C040F0823001
:201DA00009F44CC0833009F4CDC010924E0280914C0290914D0299838A83E12C8E010D5FEB
:201DC0001F4F20E2AE014F5F5F4F62E080E50E94C10F882351F080914B028F5F80934B02D7
:201DE000833008F4AFC083E032C0BE016D5F7F4F80914C0290914D020E94D60D80914C0264
:201E000090914D02809690934D0280934C0297FF99C081E080934E028093500293C08091ED
:201E20004F02882309F48EC010924F0282E080934E0210924D0210924C0284C080914C021F
:201E400090914D0297FF06C00E947F0981E080934E0278C095FF03C00E947D0902C00E94AD
:201E60007F0980914C0290914D02880F991F419823E02EBD26E02A95F1F7419963C09EBDF0
:201E800026E02A95F1F741995DC08EBD86E08A95F1F7419957C0FE01B396DE2EFF2ECF01A4
:201EA00080961EBC26E02A95F1F741994BC02EB52193E817F907A9F7419A85E08A95F1F723
:201EC000000080914C0290914D0299838A83E12C8E010F5F1F4F20E2A80162E080E50E949E
:201EE000C10F81112FC040E250E0B8018D2D9F2D0E94E911892B51F480914C0290914D029C
:201F0000809690934D0280934C021CC080914C0290914D0299838A8380E2ED2DFF2DDE017D
:201F2000139601900D928A95E1F7E12C00E010E020E0AE014F5F5F4F62E280E50E94C10FCE
:201F40008823D1F2CE5BDF4F0FB6F894DEBF0FBECDBFDF91CF911F910F91FF90EF90DF90D8
:201F60000895882319F088B1806302C088B18F7C88B96093B8008091B9008C7F8093B90061
:201F800008950F931F93D801611107C0222309F481C094EA9093BC0035C094EA9093BC000C
:201FA0009091BC0097FFFCCF9091B900983009F073C0982F990F9093BB0094E89093BC006D
:201FC0009091BC0097FFFCCF9091B900983109F04CC0FA0134E891919093BB003093BC0085
:201FE0009091BC0097FFFCCF9091B90061509832F1F56111F0CF2111CCCF84E98093BC002E
:2020000080E04BC09091BC0097FFFCCF9091B900903111F0983069F5880F81608093BB000F
:2020200084E88093BC008091BC0087FFFCCF9091B900903401F5215094E834EC2F3FE9F25D
:20204000222319F03093BC0002C09093BC008091BC0087FFFCCF8091B9002150877F8035FE
:2020600061F68091BB008D93E9CF82E005C083E003C084E001C085E0903A31F0983F69F073
:20208000983321F494E803C094EA01C094E99093BC0003C08FEF01C081E01F910F91089536
:2020A0000E945005909353028093520280E28AB98BEF8BB9509A82E087B997EC98B99EE207
:2020C00094B990ED95B98093690081E08DBB84E0E2E3F2E0DF01282F1D922A95E9F7E6E37A
:2020E000F2E0DF011D928A95E9F70E9486010E94B00E0E94840981E090E00E9497090E9413
:20210000190A892B21F082E090E00E94970978948091A40290E00E94C6010E94E309E09128
:202120005202F09153020284F385E02D0995589ABFEF29E688E1B15020408040E1F700C0FB
:2021400000001092F9010E94D709E0915202F09153020484F585E02D81E00995C82F0E941F
:20216000DD09CC2379F0C0E0A3EFB1E01197F1F700C000000E94B90E0E948601CF5FC03856
:2021800099F7E1CF81E08093F901E0915202F09153020088F189E02D84E592E009958FEFF0
:2021A00099EF0197F1F700C0000084E592E00E94760767E171E084E592E00E94BB08809173
:2021C0002401882321F087E191E00E94130D58980E94580AC0E080913D02882321F0109241
:2021E0003D020E946A0A8091F801882339F08091F80190E00E94B0011092F8010E94B90EDB
:202200000E9486010E94B60A882329F38091F701882331F08091F70181508093F701DBCF08
:20222000589A0E94D709E0915202F09153020484F585E02D80E00995D82F0E94DD09589803
:2022400080913D02882351F00E947D09AFE9BFE01197F1F700C000000E947F09DD2341F038
:20226000CF5FC53130F081E090E00E94970969CFC0E0E0915202F09153020684F785E02D81
:202280000995882371F1589AE0915202F09153020088F189E02D84E592E0099567E171E0E5
:2022A00084E592E00E94BB0843E951E067E171E08CE592E00E94200780913E02811103C096
:2022C00066E372E002C062E372E083E991E00E943C0290913E0281E0911180E080933E0236
:2022E000589887E191E00E94EF0175CF052E97FB1EF400940E948D1157FD07D00E94B31103
:2023000007FC03D04EF40C948D1150954095309521953F4F4F4F5F4F08959095809570957C
:2023200061957F4F8F4F9F4F0895A29FB001B39FC001A39F700D811D1124911DB29F700D5D
:20234000811D1124911D08950E949511B7FF0895821B930B0895B7FF0C94D5110E94D51128
:20236000821B930B0895A1E21A2EAA1BBB1BFD010DC0AA1FBB1FEE1FFF1FA217B307E40728
:20238000F50720F0A21BB30BE40BF50B661F771F881F991F1A9469F760957095809590950B
:2023A0009B01AC01BD01CF0108950E949511A59F900DB49F900DA49F800D911D1124089540
:2023C000FB01DC0102C005900D9241505040D8F70895FB01DC0104C08D910190801921F4A7
:2023E00041505040C8F7881B990B0895FB01DC0102C001900D9241505040D8F70895DC01E4
:2024000001C06D9341505040E0F70895FB01DC0101900D920020E1F70895DC01CB01FC0122
:20242000F999FECF06C0F2BDE1BDF89A319600B40D9241505040B8F70895DC01CB0103C0A5
:202440002D910E94281241505040D0F70895262FF999FECF1FBA92BD81BD20BD0FB6F89415
:20246000FA9AF99A0FBE01960895F894FFCF0101000800000000000000000046050A05DF97
:2024800003CB033E050100000001000000010000000100000001000000010000000300E03F
:2024A00000030020000300E0000300200001000000010000000100000001000000020000ED
:2024C000000200000001000000010000000300E000030020000300E00003002000040020C8
:2024E0000004002000020000000200000000000000020000000200000002000000020000AC
:202500000001000000010000000100000001000000010000000100000001000000010000B3
:20252000000100000001000000010000000100000001000000010000000200000002000091
:20254000000300810003007F000300810003007F00000000004743324E36347639322E34B8
:02256000000079
:0437FC0012345678B5
:203800000C94341C0C94461D0C94511C0C94511C0C94511C0C94511C0C94511C0C94511C67
:203820000C94511C0C94511C0C94511C0C94511C0C94511C0C94511C0C94511C0C94511C20
:203840000C94511C0C94511C0C94511C0C94511C0C94511C0C94511C0C94511C0C94511C00
:203860000C94511C0C94511C11241FBECFEFD4E0DEBFCDBF11E0A0E0B1E0E4EBFEE302C00D
:2038800005900D92A430B107D9F721E0A4E0B1E001C01D92A13BB207E1F70E94701E0C94D5
:2038A000581F0C94001CF894299881E085BF15BEE0E0F0E009940895CF93DF938130D9F4F4
:2038C00080918901813071F018F08F3F09F0DAC085E08093890110928A0182E080938B01A2
:2038E00083E0D1C01092890110928A0110928B0110928C01A3C0823008F4C4C090918901DE
:20390000923509F0BFC090918A01913FD9F138F49130B9F008F4B7C0903F61F1B3C0993FAD
:2039200009F495C020F4923F09F443C0ABC09E3F09F496C09F3F09F0A5C081E08093040100
:203940009EC088E2E9E8F1E0DF011D928A95E9F79093890180E880938A0188E380938B01B2
:2039600010928C0160E071E083E991E00E94511F8EE089C080918801811176C081E080930B
:2039800088017DC080918B0140918C0150E0582B60E070E0E5E0440F551F661F771FEA95FD
:2039A000D1F720E230E089E891E00E94671E80E26AC020918B0180918C0190918801911171
:2039C00053C090E0922BEC01C370DD27DE0125E0AA0FBB1F2A95E1F7A85FBE4F20E2EDE88A
:2039E000F1E001900D922A95E1F7AC0160E070E032E076956795579547953A95D1F7509397
:203A000007014093060120910601309107013695322F2227379527953093070120930601C1
:203A200010928901239761F421E020938A0190938B0180938C0182E08093880184E023C078
:203A400010928A0190938B0180938C01F7CF9091880181E0911101C080E0809389010DC0EC
:203A600080918801882321F081E0809389010BC01092890183E08093880181E004C0109235
:203A8000890101C080E0DF91CF9108951F921FB64F930F931F93EF93FF937F93AF93BF9398
:203AA000A9E8B1E00027E1EFFDE149B14470440F440F440F440F440F042B49B14470E9F309
:203AC0001AE01A9521F049B14470D9F701C0099416E01A95F1F749B14470440F440F440F1C
:203AE000440F042B49B14470E9F31AE01A9521F049B14470D9F701C0099416E01A95F1F797
:203B000049B14470440F440F440F042B49B14470E9F31AE01A9521F049B14470D9F701C04C
:203B2000099416E01A95F1F749B14470440F440F042B49B14470E9F31AE01A9521F049B19A
:203B40004470D9F701C0099416E01A95F1F749B14470440F042B49B14470E9F31AE01A9593
:203B600021F049B14470D9F701C0099416E01A95F1F749B14470042B49B14470E9F31AE06A
:203B80001A9521F049B14470D9F701C0099416E01A95F1F749B144704695042B49B1447096
:203BA000E9F31AE01A9521F049B14470D9F701C0099416E01A95F1F749B1447046954695A2
:203BC000042B49B14470E9F30D931AE01A9521F049B14470D9F701C0099415E01A95F1F76A
:203BE00061CF09E8A01B11F10F921F922F933F934F935F936F937F938F939F93AF93BF9331
:203C0000FF938A2F1124ECE5FCE10995082FFF91BF91AF919F918F917F916F915F914F9151
:203C20003F912F911F900F900DD000C0E09ABF91AF917F91FF91EF911F910F914F911FBED2
:203C40001F901895E9E8F1E0702F01D008953F937723D9F1772359F17A95019110E8302F47
:203C6000312381F40000529A4FE04A95F1F700005298169579F30000000000000000000098
:203C80000000EDCF529A44E04A95F1F70000000052984AE04A95F1F7000000001695D1F248
:203CA000000000000000000000000000D8CF00000000000000000000000000000000529A71
:203CC00044E04A95F1F7000052983F910895FA01DC0102C005900D9221503040D8F7089587
:203CE000CF93DF9300D000D0CDB7DEB71AB88BEF8BB9509A17B88FEF88B9219A299881E052
:203D000085BF92E095BF909369008DBBF89424E030E040E050E0BA01CE0101960E94671E8D
:203D200089818F3F61F48A818F3F49F48B8111E08F3F31F48C818F3F19F410E001C011E0C6
:203D400024E030E04CEF57E360E070E0CE0101960E94671E8981823151F48A81843339F4CC
:203D60008B81863521F48C81883709F496C080E0809305017894299A2FEF84E39CE021508E
:203D800080409040E1F700C00000299880910501882331F080910401811102C00E94531CDC
:203DA000C12CD12C760113E001E085E0B82E91E1A92E22E0922E80918801813051F008F4F0
:203DC00051C08230E9F0833009F04AC00E94531C47C08FB7F894E0E0F0E0F999FECF07B6FB
:203DE00000FCFDCF10935700E89507B600FCFDCFE058FF4FE11528E3F20779F78FBF30C0D1
:203E00004FB7F894F999FECF07B600FCFDCF80E090E0FC01E85FFE4F2081FC01E75FFE4F9A
:203E20005081E0910601F0910701E80FF91F30E0352B090100935700E8951124029680383B
:203E4000910539F7E0910601F0910701B0925700E89507B600FCFDCFA0925700E8954FBFEC
:203E60001092880180910501811115C08FEFC81AD80AE80AF80A91EFC91699E4D90692E036
:203E8000E906F10408F497CF85B1892585B9C12CD12C760190CF299A8ECF81E0111168CF20
:183EA00066CFFB01DC0101900D920020E1F70895F894FFCF312E30004E
:0400000500003800BF
:00000001FF
